{
  "contractName": "BeehiveBeta",
  "abi": [
    {
      "inputs": [
        {
          "internalType": "uint256",
          "name": "slugfee",
          "type": "uint256"
        }
      ],
      "stateMutability": "nonpayable",
      "type": "constructor"
    },
    {
      "anonymous": false,
      "inputs": [
        {
          "indexed": false,
          "internalType": "address",
          "name": "contractAddress",
          "type": "address"
        },
        {
          "indexed": false,
          "internalType": "string",
          "name": "slug",
          "type": "string"
        },
        {
          "indexed": false,
          "internalType": "uint256",
          "name": "time",
          "type": "uint256"
        }
      ],
      "name": "NewContract",
      "type": "event"
    },
    {
      "anonymous": false,
      "inputs": [
        {
          "indexed": true,
          "internalType": "address",
          "name": "previousOwner",
          "type": "address"
        },
        {
          "indexed": true,
          "internalType": "address",
          "name": "newOwner",
          "type": "address"
        }
      ],
      "name": "OwnershipTransferred",
      "type": "event"
    },
    {
      "anonymous": false,
      "inputs": [
        {
          "indexed": false,
          "internalType": "address",
          "name": "contractAddress",
          "type": "address"
        },
        {
          "indexed": false,
          "internalType": "string",
          "name": "oldSlug",
          "type": "string"
        },
        {
          "indexed": false,
          "internalType": "string",
          "name": "newSlug",
          "type": "string"
        }
      ],
      "name": "SlugChanged",
      "type": "event"
    },
    {
      "anonymous": false,
      "inputs": [
        {
          "indexed": false,
          "internalType": "address",
          "name": "toAddress",
          "type": "address"
        },
        {
          "indexed": false,
          "internalType": "uint256",
          "name": "amount",
          "type": "uint256"
        },
        {
          "indexed": false,
          "internalType": "uint256",
          "name": "time",
          "type": "uint256"
        }
      ],
      "name": "SlugFeesCollected",
      "type": "event"
    },
    {
      "inputs": [],
      "name": "adminFund",
      "outputs": [
        {
          "internalType": "uint256",
          "name": "",
          "type": "uint256"
        }
      ],
      "stateMutability": "view",
      "type": "function"
    },
    {
      "inputs": [],
      "name": "owner",
      "outputs": [
        {
          "internalType": "address",
          "name": "",
          "type": "address"
        }
      ],
      "stateMutability": "view",
      "type": "function"
    },
    {
      "inputs": [],
      "name": "renounceOwnership",
      "outputs": [],
      "stateMutability": "nonpayable",
      "type": "function"
    },
    {
      "inputs": [],
      "name": "slugFee",
      "outputs": [
        {
          "internalType": "uint256",
          "name": "",
          "type": "uint256"
        }
      ],
      "stateMutability": "view",
      "type": "function"
    },
    {
      "inputs": [
        {
          "internalType": "string",
          "name": "",
          "type": "string"
        }
      ],
      "name": "slugs",
      "outputs": [
        {
          "internalType": "address",
          "name": "",
          "type": "address"
        }
      ],
      "stateMutability": "view",
      "type": "function"
    },
    {
      "inputs": [
        {
          "internalType": "address",
          "name": "newOwner",
          "type": "address"
        }
      ],
      "name": "transferOwnership",
      "outputs": [],
      "stateMutability": "nonpayable",
      "type": "function"
    },
    {
      "inputs": [
        {
          "internalType": "address",
          "name": "",
          "type": "address"
        }
      ],
      "name": "verifiedSubscribeeContract",
      "outputs": [
        {
          "internalType": "bool",
          "name": "",
          "type": "bool"
        }
      ],
      "stateMutability": "view",
      "type": "function"
    },
    {
      "inputs": [
        {
          "internalType": "uint256",
          "name": "newslugFee",
          "type": "uint256"
        }
      ],
      "name": "setSlugFee",
      "outputs": [],
      "stateMutability": "nonpayable",
      "type": "function"
    },
    {
      "inputs": [
        {
          "internalType": "address",
          "name": "toAddress",
          "type": "address"
        }
      ],
      "name": "collectSlugFees",
      "outputs": [],
      "stateMutability": "nonpayable",
      "type": "function"
    },
    {
      "inputs": [
        {
          "internalType": "string",
          "name": "oldslug",
          "type": "string"
        },
        {
          "internalType": "string",
          "name": "newslug",
          "type": "string"
        }
      ],
      "name": "changeSlug",
      "outputs": [],
      "stateMutability": "payable",
      "type": "function"
    },
    {
      "inputs": [
        {
          "internalType": "address",
          "name": "operatorAddress",
          "type": "address"
        },
        {
          "internalType": "string",
          "name": "title",
          "type": "string"
        },
        {
          "internalType": "string",
          "name": "slug",
          "type": "string"
        },
        {
          "internalType": "string",
          "name": "image",
          "type": "string"
        }
      ],
      "name": "deploySubscribeeContract",
      "outputs": [],
      "stateMutability": "nonpayable",
      "type": "function"
    }
  ],
  "bytecode": "0x60806040523480156200001157600080fd5b506040516200540038038062005400833981810160405281019062000037919062000171565b620000576200004b6200006560201b60201c565b6200006d60201b60201c565b8060048190555050620001a3565b600033905090565b60008060009054906101000a900473ffffffffffffffffffffffffffffffffffffffff169050816000806101000a81548173ffffffffffffffffffffffffffffffffffffffff021916908373ffffffffffffffffffffffffffffffffffffffff1602179055508173ffffffffffffffffffffffffffffffffffffffff168173ffffffffffffffffffffffffffffffffffffffff167f8be0079c531659141344cd1fd0a4f28419497f9722a3daafe3b4186f6b6457e060405160405180910390a35050565b600080fd5b6000819050919050565b6200014b8162000136565b81146200015757600080fd5b50565b6000815190506200016b8162000140565b92915050565b6000602082840312156200018a576200018962000131565b5b60006200019a848285016200015a565b91505092915050565b61524d80620001b36000396000f3fe608060405260043610620000aa5760003560e01c8063a68214c1116200006d578063a68214c11462000187578063af18082514620001b5578063b7a1deab14620001f9578063c350208a1462000227578063e77d31fb146200026b578063f2fde38b146200028b57620000aa565b8063299f43e214620000af5780632db3a0f114620000df578063715018a6146200010f5780638da5cb5b1462000129578063a656fa0f1462000159575b600080fd5b348015620000bc57600080fd5b50620000c7620002b9565b604051620000d6919062000dd7565b60405180910390f35b348015620000ec57600080fd5b50620000f7620002bf565b60405162000106919062000dd7565b60405180910390f35b3480156200011c57600080fd5b5062000127620002c5565b005b3480156200013657600080fd5b506200014162000356565b60405162000150919062000e39565b60405180910390f35b3480156200016657600080fd5b506200018560048036038101906200017f919062000e9b565b6200037f565b005b3480156200019457600080fd5b50620001b36004803603810190620001ad91906200102f565b62000496565b005b348015620001c257600080fd5b50620001e16004803603810190620001db919062000e9b565b620006f9565b604051620001f091906200111b565b60405180910390f35b3480156200020657600080fd5b506200022560048036038101906200021f919062001169565b62000719565b005b3480156200023457600080fd5b506200025360048036038101906200024d91906200119b565b620007a6565b60405162000262919062000e39565b60405180910390f35b620002896004803603810190620002839190620011ec565b620007ef565b005b3480156200029857600080fd5b50620002b76004803603810190620002b1919062000e9b565b62000bde565b005b60035481565b60045481565b620002cf62000ce2565b73ffffffffffffffffffffffffffffffffffffffff16620002ef62000356565b73ffffffffffffffffffffffffffffffffffffffff161462000348576040517f08c379a00000000000000000000000000000000000000000000000000000000081526004016200033f90620012d2565b60405180910390fd5b62000354600062000cea565b565b60008060009054906101000a900473ffffffffffffffffffffffffffffffffffffffff16905090565b6200038962000ce2565b73ffffffffffffffffffffffffffffffffffffffff16620003a962000356565b73ffffffffffffffffffffffffffffffffffffffff161462000402576040517f08c379a0000000000000000000000000000000000000000000000000000000008152600401620003f990620012d2565b60405180910390fd5b8073ffffffffffffffffffffffffffffffffffffffff166108fc6003549081150290604051600060405180830381858888f193505050501580156200044b573d6000803e3d6000fd5b507f4cd4f16728fd37f96938344754a328c566d677b622711c84a1193e66f4f7615281600354426040516200048393929190620012f4565b60405180910390a1600060038190555050565b600073ffffffffffffffffffffffffffffffffffffffff16600183604051620004c09190620013b4565b908152602001604051809103902060009054906101000a900473ffffffffffffffffffffffffffffffffffffffff1673ffffffffffffffffffffffffffffffffffffffff161462000548576040517f08c379a00000000000000000000000000000000000000000000000000000000081526004016200053f906200141d565b60405180910390fd5b60008484836040516200055b9062000dae565b620005699392919062001480565b604051809103906000f08015801562000586573d6000803e3d6000fd5b5090508073ffffffffffffffffffffffffffffffffffffffff1663f2fde38b336040518263ffffffff1660e01b8152600401620005c4919062000e39565b600060405180830381600087803b158015620005df57600080fd5b505af1158015620005f4573d6000803e3d6000fd5b50505050600081905080600185604051620006109190620013b4565b908152602001604051809103902060006101000a81548173ffffffffffffffffffffffffffffffffffffffff021916908373ffffffffffffffffffffffffffffffffffffffff1602179055506001600260008373ffffffffffffffffffffffffffffffffffffffff1673ffffffffffffffffffffffffffffffffffffffff16815260200190815260200160002060006101000a81548160ff0219169083151502179055507f9b090710278fa2048c6c0e8366ecb399bef2d1a345462964d8f7f84a1d5171b2818542604051620006e993929190620014cb565b60405180910390a1505050505050565b60026020528060005260406000206000915054906101000a900460ff1681565b6200072362000ce2565b73ffffffffffffffffffffffffffffffffffffffff166200074362000356565b73ffffffffffffffffffffffffffffffffffffffff16146200079c576040517f08c379a00000000000000000000000000000000000000000000000000000000081526004016200079390620012d2565b60405180910390fd5b8060048190555050565b6001818051602081018201805184825260208301602085012081835280955050505050506000915054906101000a900473ffffffffffffffffffffffffffffffffffffffff1681565b6000600183604051620008039190620013b4565b908152602001604051809103902060009054906101000a900473ffffffffffffffffffffffffffffffffffffffff1690503373ffffffffffffffffffffffffffffffffffffffff168173ffffffffffffffffffffffffffffffffffffffff16638da5cb5b6040518163ffffffff1660e01b815260040160206040518083038186803b1580156200089257600080fd5b505afa158015620008a7573d6000803e3d6000fd5b505050506040513d601f19601f82011682018060405250810190620008cd919062001526565b73ffffffffffffffffffffffffffffffffffffffff161462000926576040517f08c379a00000000000000000000000000000000000000000000000000000000081526004016200091d90620015ce565b60405180910390fd5b600073ffffffffffffffffffffffffffffffffffffffff16600183604051620009509190620013b4565b908152602001604051809103902060009054906101000a900473ffffffffffffffffffffffffffffffffffffffff1673ffffffffffffffffffffffffffffffffffffffff1614620009d8576040517f08c379a0000000000000000000000000000000000000000000000000000000008152600401620009cf906200141d565b60405180910390fd5b60045434148062000a1d5750620009ee62000356565b73ffffffffffffffffffffffffffffffffffffffff163373ffffffffffffffffffffffffffffffffffffffff16145b62000a5f576040517f08c379a000000000000000000000000000000000000000000000000000000000815260040162000a569062001666565b60405180910390fd5b346003600082825462000a739190620016b7565b9250508190555060018360405162000a8c9190620013b4565b908152602001604051809103902060009054906101000a900473ffffffffffffffffffffffffffffffffffffffff1660018360405162000acd9190620013b4565b908152602001604051809103902060006101000a81548173ffffffffffffffffffffffffffffffffffffffff021916908373ffffffffffffffffffffffffffffffffffffffff1602179055507f8612b82c8f5db5f27f9e05e7e076e0b32036ee352950dd72f9799ca0dd47d99360018460405162000b4c9190620013b4565b908152602001604051809103902060009054906101000a900473ffffffffffffffffffffffffffffffffffffffff16848460405162000b8e9392919062001480565b60405180910390a160018360405162000ba89190620013b4565b908152602001604051809103902060006101000a81549073ffffffffffffffffffffffffffffffffffffffff0219169055505050565b62000be862000ce2565b73ffffffffffffffffffffffffffffffffffffffff1662000c0862000356565b73ffffffffffffffffffffffffffffffffffffffff161462000c61576040517f08c379a000000000000000000000000000000000000000000000000000000000815260040162000c5890620012d2565b60405180910390fd5b600073ffffffffffffffffffffffffffffffffffffffff168173ffffffffffffffffffffffffffffffffffffffff16141562000cd4576040517f08c379a000000000000000000000000000000000000000000000000000000000815260040162000ccb906200178a565b60405180910390fd5b62000cdf8162000cea565b50565b600033905090565b60008060009054906101000a900473ffffffffffffffffffffffffffffffffffffffff169050816000806101000a81548173ffffffffffffffffffffffffffffffffffffffff021916908373ffffffffffffffffffffffffffffffffffffffff1602179055508173ffffffffffffffffffffffffffffffffffffffff168173ffffffffffffffffffffffffffffffffffffffff167f8be0079c531659141344cd1fd0a4f28419497f9722a3daafe3b4186f6b6457e060405160405180910390a35050565b613a6b80620017ad83390190565b6000819050919050565b62000dd18162000dbc565b82525050565b600060208201905062000dee600083018462000dc6565b92915050565b600073ffffffffffffffffffffffffffffffffffffffff82169050919050565b600062000e218262000df4565b9050919050565b62000e338162000e14565b82525050565b600060208201905062000e50600083018462000e28565b92915050565b6000604051905090565b600080fd5b600080fd5b62000e758162000e14565b811462000e8157600080fd5b50565b60008135905062000e958162000e6a565b92915050565b60006020828403121562000eb45762000eb362000e60565b5b600062000ec48482850162000e84565b91505092915050565b600080fd5b600080fd5b6000601f19601f8301169050919050565b7f4e487b7100000000000000000000000000000000000000000000000000000000600052604160045260246000fd5b62000f228262000ed7565b810181811067ffffffffffffffff8211171562000f445762000f4362000ee8565b5b80604052505050565b600062000f5962000e56565b905062000f67828262000f17565b919050565b600067ffffffffffffffff82111562000f8a5762000f8962000ee8565b5b62000f958262000ed7565b9050602081019050919050565b82818337600083830152505050565b600062000fc862000fc28462000f6c565b62000f4d565b90508281526020810184848401111562000fe75762000fe662000ed2565b5b62000ff484828562000fa2565b509392505050565b600082601f83011262001014576200101362000ecd565b5b81356200102684826020860162000fb1565b91505092915050565b600080600080608085870312156200104c576200104b62000e60565b5b60006200105c8782880162000e84565b945050602085013567ffffffffffffffff81111562001080576200107f62000e65565b5b6200108e8782880162000ffc565b935050604085013567ffffffffffffffff811115620010b257620010b162000e65565b5b620010c08782880162000ffc565b925050606085013567ffffffffffffffff811115620010e457620010e362000e65565b5b620010f28782880162000ffc565b91505092959194509250565b60008115159050919050565b6200111581620010fe565b82525050565b60006020820190506200113260008301846200110a565b92915050565b620011438162000dbc565b81146200114f57600080fd5b50565b600081359050620011638162001138565b92915050565b60006020828403121562001182576200118162000e60565b5b6000620011928482850162001152565b91505092915050565b600060208284031215620011b457620011b362000e60565b5b600082013567ffffffffffffffff811115620011d557620011d462000e65565b5b620011e38482850162000ffc565b91505092915050565b6000806040838503121562001206576200120562000e60565b5b600083013567ffffffffffffffff81111562001227576200122662000e65565b5b620012358582860162000ffc565b925050602083013567ffffffffffffffff81111562001259576200125862000e65565b5b620012678582860162000ffc565b9150509250929050565b600082825260208201905092915050565b7f4f776e61626c653a2063616c6c6572206973206e6f7420746865206f776e6572600082015250565b6000620012ba60208362001271565b9150620012c78262001282565b602082019050919050565b60006020820190508181036000830152620012ed81620012ab565b9050919050565b60006060820190506200130b600083018662000e28565b6200131a602083018562000dc6565b62001329604083018462000dc6565b949350505050565b600081519050919050565b600081905092915050565b60005b83811015620013675780820151818401526020810190506200134a565b8381111562001377576000848401525b50505050565b60006200138a8262001331565b6200139681856200133c565b9350620013a881856020860162001347565b80840191505092915050565b6000620013c282846200137d565b915081905092915050565b7f536c756720686173206265656e2074616b656e00000000000000000000000000600082015250565b60006200140560138362001271565b91506200141282620013cd565b602082019050919050565b600060208201905081810360008301526200143881620013f6565b9050919050565b60006200144c8262001331565b62001458818562001271565b93506200146a81856020860162001347565b620014758162000ed7565b840191505092915050565b600060608201905062001497600083018662000e28565b8181036020830152620014ab81856200143f565b90508181036040830152620014c181846200143f565b9050949350505050565b6000606082019050620014e2600083018662000e28565b8181036020830152620014f681856200143f565b905062001507604083018462000dc6565b949350505050565b600081519050620015208162000e6a565b92915050565b6000602082840312156200153f576200153e62000e60565b5b60006200154f848285016200150f565b91505092915050565b7f4f6e6c7920746865204f776e6572206f662074686520636f6e7472616374206360008201527f616e20646f207468697300000000000000000000000000000000000000000000602082015250565b6000620015b6602a8362001271565b9150620015c38262001558565b604082019050919050565b60006020820190508181036000830152620015e981620015a7565b9050919050565b7f506c65617365207061792074686520617070726f706961746520616d6f756e7460008201527f2e2e2e0000000000000000000000000000000000000000000000000000000000602082015250565b60006200164e60238362001271565b91506200165b82620015f0565b604082019050919050565b6000602082019050818103600083015262001681816200163f565b9050919050565b7f4e487b7100000000000000000000000000000000000000000000000000000000600052601160045260246000fd5b6000620016c48262000dbc565b9150620016d18362000dbc565b9250827fffffffffffffffffffffffffffffffffffffffffffffffffffffffffffffffff0382111562001709576200170862001688565b5b828201905092915050565b7f4f776e61626c653a206e6577206f776e657220697320746865207a65726f206160008201527f6464726573730000000000000000000000000000000000000000000000000000602082015250565b60006200177260268362001271565b91506200177f8262001714565b604082019050919050565b60006020820190508181036000830152620017a58162001763565b905091905056fe60806040523480156200001157600080fd5b5060405162003a6b38038062003a6b833981810160405281019062000037919062000458565b620000576200004b620000da60201b60201c565b620000e260201b60201c565b6001808190555082600860006101000a81548173ffffffffffffffffffffffffffffffffffffffff021916908373ffffffffffffffffffffffffffffffffffffffff1602179055508160039080519060200190620000b7929190620001a6565b508060049080519060200190620000d0929190620001a6565b5050505062000557565b600033905090565b60008060009054906101000a900473ffffffffffffffffffffffffffffffffffffffff169050816000806101000a81548173ffffffffffffffffffffffffffffffffffffffff021916908373ffffffffffffffffffffffffffffffffffffffff1602179055508173ffffffffffffffffffffffffffffffffffffffff168173ffffffffffffffffffffffffffffffffffffffff167f8be0079c531659141344cd1fd0a4f28419497f9722a3daafe3b4186f6b6457e060405160405180910390a35050565b828054620001b49062000521565b90600052602060002090601f016020900481019282620001d8576000855562000224565b82601f10620001f357805160ff191683800117855562000224565b8280016001018555821562000224579182015b828111156200022357825182559160200191906001019062000206565b5b50905062000233919062000237565b5090565b5b808211156200025257600081600090555060010162000238565b5090565b6000604051905090565b600080fd5b600080fd5b600073ffffffffffffffffffffffffffffffffffffffff82169050919050565b600062000297826200026a565b9050919050565b620002a9816200028a565b8114620002b557600080fd5b50565b600081519050620002c9816200029e565b92915050565b600080fd5b600080fd5b6000601f19601f8301169050919050565b7f4e487b7100000000000000000000000000000000000000000000000000000000600052604160045260246000fd5b6200032482620002d9565b810181811067ffffffffffffffff82111715620003465762000345620002ea565b5b80604052505050565b60006200035b62000256565b905062000369828262000319565b919050565b600067ffffffffffffffff8211156200038c576200038b620002ea565b5b6200039782620002d9565b9050602081019050919050565b60005b83811015620003c4578082015181840152602081019050620003a7565b83811115620003d4576000848401525b50505050565b6000620003f1620003eb846200036e565b6200034f565b90508281526020810184848401111562000410576200040f620002d4565b5b6200041d848285620003a4565b509392505050565b600082601f8301126200043d576200043c620002cf565b5b81516200044f848260208601620003da565b91505092915050565b60008060006060848603121562000474576200047362000260565b5b60006200048486828701620002b8565b935050602084015167ffffffffffffffff811115620004a857620004a762000265565b5b620004b68682870162000425565b925050604084015167ffffffffffffffff811115620004da57620004d962000265565b5b620004e88682870162000425565b9150509250925092565b7f4e487b7100000000000000000000000000000000000000000000000000000000600052602260045260246000fd5b600060028204905060018216806200053a57607f821691505b60208210811415620005515762000550620004f2565b5b50919050565b61350480620005676000396000f3fe608060405234801561001057600080fd5b50600436106101375760003560e01c8063715018a6116100b857806389c612b31161007c57806389c612b3146103035780638da5cb5b1461031f578063b3ab15fb1461033d578063e9cb1faf14610359578063f2fde38b14610389578063f3ccaac0146103a557610137565b8063715018a61461028957806371adb5e61461029357806372910be0146102af5780637573f9f5146102cb5780637a997882146102e757610137565b8063570ca735116100ff578063570ca735146101ca5780635f20b72d146101e85780635f8d26b21461020457806360a31a88146102225780636be971481461025657610137565b806316e5fb5b1461013c57806342bd94b01461015857806349c7e639146101745780634a79d50c14610190578063566c93ab146101ae575b600080fd5b61015660048036038101906101519190612138565b6103c3565b005b610172600480360381019061016d9190612138565b6103cf565b005b61018e60048036038101906101899190612138565b6103dc565b005b6101986103e8565b6040516101a591906121fe565b60405180910390f35b6101c860048036038101906101c3919061241b565b610476565b005b6101d261060d565b6040516101df9190612473565b60405180910390f35b61020260048036038101906101fd9190612138565b610633565b005b61020c610751565b604051610219919061249d565b60405180910390f35b61023c60048036038101906102379190612138565b610764565b60405161024d95949392919061251d565b60405180910390f35b610270600480360381019061026b9190612577565b61087b565b60405161028094939291906125d0565b60405180910390f35b6102916108c5565b005b6102ad60048036038101906102a891906126ca565b61094d565b005b6102c960048036038101906102c491906126ca565b6109e3565b005b6102e560048036038101906102e0919061241b565b610a79565b005b61030160048036038101906102fc9190612138565b610bd4565b005b61031d6004803603810190610318919061276b565b610c17565b005b610327610f8d565b6040516103349190612473565b60405180910390f35b610357600480360381019061035291906127ee565b610fb6565b005b610373600480360381019061036e9190612138565b611076565b60405161038091906128d9565b60405180910390f35b6103a3600480360381019061039e91906127ee565b6111ea565b005b6103ad6112e2565b6040516103ba91906121fe565b60405180910390f35b6103cc81611370565b50565b6103d93382611469565b50565b6103e58161188d565b50565b600380546103f59061292a565b80601f01602080910402602001604051908101604052809291908181526020018280546104219061292a565b801561046e5780601f106104435761010080835404028352916020019161046e565b820191906000526020600020905b81548152906001019060200180831161045157829003601f168201915b505050505081565b600860009054906101000a900473ffffffffffffffffffffffffffffffffffffffff1673ffffffffffffffffffffffffffffffffffffffff163373ffffffffffffffffffffffffffffffffffffffff16148061050457506104d5610f8d565b73ffffffffffffffffffffffffffffffffffffffff163373ffffffffffffffffffffffffffffffffffffffff16145b610543576040517f08c379a000000000000000000000000000000000000000000000000000000000815260040161053a906129a8565b60405180910390fd5b60026001541415610589576040517f08c379a000000000000000000000000000000000000000000000000000000000815260040161058090612a14565b60405180910390fd5b600260018190555060005b81518110156106025760008282815181106105b2576105b1612a34565b5b602002602001015160000151905060008383815181106105d5576105d4612a34565b5b60200260200101516020015190506105ed8282611469565b505080806105fa90612a92565b915050610594565b506001808190555050565b600860009054906101000a900473ffffffffffffffffffffffffffffffffffffffff1681565b61063b611c97565b73ffffffffffffffffffffffffffffffffffffffff16610659610f8d565b73ffffffffffffffffffffffffffffffffffffffff16146106af576040517f08c379a00000000000000000000000000000000000000000000000000000000081526004016106a690612b27565b60405180910390fd5b600660008260ff1660ff16815260200190815260200160002060020160149054906101000a900460ff1615610718576000600660008360ff1660ff16815260200190815260200160002060020160146101000a81548160ff02191690831515021790555061074e565b6001600660008360ff1660ff16815260200190815260200160002060020160146101000a81548160ff0219169083151502179055505b50565b600260009054906101000a900460ff1681565b60066020528060005260406000206000915090508060000180546107879061292a565b80601f01602080910402602001604051908101604052809291908181526020018280546107b39061292a565b80156108005780601f106107d557610100808354040283529160200191610800565b820191906000526020600020905b8154815290600101906020018083116107e357829003601f168201915b5050505050908060010160009054906101000a900473ffffffffffffffffffffffffffffffffffffffff16908060020160009054906101000a90046fffffffffffffffffffffffffffffffff16908060020160109054906101000a900463ffffffff16908060020160149054906101000a900460ff16905085565b6007602052816000526040600020602052806000526040600020600091509150508060000154908060010154908060020160009054906101000a900460ff16908060030154905084565b6108cd611c97565b73ffffffffffffffffffffffffffffffffffffffff166108eb610f8d565b73ffffffffffffffffffffffffffffffffffffffff1614610941576040517f08c379a000000000000000000000000000000000000000000000000000000000815260040161093890612b27565b60405180910390fd5b61094b6000611c9f565b565b610955611c97565b73ffffffffffffffffffffffffffffffffffffffff16610973610f8d565b73ffffffffffffffffffffffffffffffffffffffff16146109c9576040517f08c379a00000000000000000000000000000000000000000000000000000000081526004016109c090612b27565b60405180910390fd5b80600490805190602001906109df929190612048565b5050565b6109eb611c97565b73ffffffffffffffffffffffffffffffffffffffff16610a09610f8d565b73ffffffffffffffffffffffffffffffffffffffff1614610a5f576040517f08c379a0000000000000000000000000000000000000000000000000000000008152600401610a5690612b27565b60405180910390fd5b8060039080519060200190610a75929190612048565b5050565b600860009054906101000a900473ffffffffffffffffffffffffffffffffffffffff1673ffffffffffffffffffffffffffffffffffffffff163373ffffffffffffffffffffffffffffffffffffffff161480610b075750610ad8610f8d565b73ffffffffffffffffffffffffffffffffffffffff163373ffffffffffffffffffffffffffffffffffffffff16145b610b46576040517f08c379a0000000000000000000000000000000000000000000000000000000008152600401610b3d906129a8565b60405180910390fd5b60005b8151811015610bd0576000828281518110610b6757610b66612a34565b5b60200260200101516000015190506000838381518110610b8a57610b89612a34565b5b6020026020010151602001519050610bbb82826040518060600160405280602381526020016134ac60239139611d63565b50508080610bc890612a92565b915050610b49565b5050565b610c1433826040518060400160405280601a81526020017f557365722044656c6574696e6720537562736372697074696f6e000000000000815250611d63565b50565b610c1f611c97565b73ffffffffffffffffffffffffffffffffffffffff16610c3d610f8d565b73ffffffffffffffffffffffffffffffffffffffff1614610c93576040517f08c379a0000000000000000000000000000000000000000000000000000000008152600401610c8a90612b27565b60405180910390fd5b600073ffffffffffffffffffffffffffffffffffffffff168373ffffffffffffffffffffffffffffffffffffffff161415610d03576040517f08c379a0000000000000000000000000000000000000000000000000000000008152600401610cfa90612b93565b60405180910390fd5b6000826fffffffffffffffffffffffffffffffff1611610d58576040517f08c379a0000000000000000000000000000000000000000000000000000000008152600401610d4f90612bff565b60405180910390fd5b620151808163ffffffff161015610da4576040517f08c379a0000000000000000000000000000000000000000000000000000000008152600401610d9b90612c91565b60405180910390fd5b6040518060a001604052808581526020018473ffffffffffffffffffffffffffffffffffffffff168152602001836fffffffffffffffffffffffffffffffff1681526020018263ffffffff1681526020016000151581525060066000600260009054906101000a900460ff1660ff1660ff1681526020019081526020016000206000820151816000019080519060200190610e40929190612048565b5060208201518160010160006101000a81548173ffffffffffffffffffffffffffffffffffffffff021916908373ffffffffffffffffffffffffffffffffffffffff16021790555060408201518160020160006101000a8154816fffffffffffffffffffffffffffffffff02191690836fffffffffffffffffffffffffffffffff16021790555060608201518160020160106101000a81548163ffffffff021916908363ffffffff16021790555060808201518160020160146101000a81548160ff0219169083151502179055509050507f2b2ac0164b2239021e55bc9bad56542210dd43092952070c7ef40280d609ce806003848484604051610f479493929190612d81565b60405180910390a16002600081819054906101000a900460ff1680929190610f6e90612dcd565b91906101000a81548160ff021916908360ff1602179055505050505050565b60008060009054906101000a900473ffffffffffffffffffffffffffffffffffffffff16905090565b610fbe611c97565b73ffffffffffffffffffffffffffffffffffffffff16610fdc610f8d565b73ffffffffffffffffffffffffffffffffffffffff1614611032576040517f08c379a000000000000000000000000000000000000000000000000000000000815260040161102990612b27565b60405180910390fd5b80600860006101000a81548173ffffffffffffffffffffffffffffffffffffffff021916908373ffffffffffffffffffffffffffffffffffffffff16021790555050565b6060600860009054906101000a900473ffffffffffffffffffffffffffffffffffffffff1673ffffffffffffffffffffffffffffffffffffffff163373ffffffffffffffffffffffffffffffffffffffff16148061110657506110d7610f8d565b73ffffffffffffffffffffffffffffffffffffffff163373ffffffffffffffffffffffffffffffffffffffff16145b611145576040517f08c379a000000000000000000000000000000000000000000000000000000000815260040161113c906129a8565b60405180910390fd5b600560008360ff1660ff1681526020019081526020016000208054806020026020016040519081016040528092919081815260200182805480156111de57602002820191906000526020600020905b8160009054906101000a900473ffffffffffffffffffffffffffffffffffffffff1673ffffffffffffffffffffffffffffffffffffffff1681526020019060010190808311611194575b50505050509050919050565b6111f2611c97565b73ffffffffffffffffffffffffffffffffffffffff16611210610f8d565b73ffffffffffffffffffffffffffffffffffffffff1614611266576040517f08c379a000000000000000000000000000000000000000000000000000000000815260040161125d90612b27565b60405180910390fd5b600073ffffffffffffffffffffffffffffffffffffffff168173ffffffffffffffffffffffffffffffffffffffff1614156112d6576040517f08c379a00000000000000000000000000000000000000000000000000000000081526004016112cd90612e69565b60405180910390fd5b6112df81611c9f565b50565b600480546112ef9061292a565b80601f016020809104026020016040519081016040528092919081815260200182805461131b9061292a565b80156113685780601f1061133d57610100808354040283529160200191611368565b820191906000526020600020905b81548152906001019060200180831161134b57829003601f168201915b505050505081565b6000600760008360ff1660ff16815260200190815260200160002060003373ffffffffffffffffffffffffffffffffffffffff1673ffffffffffffffffffffffffffffffffffffffff1681526020019081526020016000209050600081600001541415611412576040517f08c379a000000000000000000000000000000000000000000000000000000000815260040161140990612ed5565b60405180910390fd5b428160010154101561144757611441338360405180608001604052806047815260200161346560479139611d63565b50611466565b60018160020160006101000a81548160ff021916908315150217905550505b50565b6000600760008360ff1660ff16815260200190815260200160002060008473ffffffffffffffffffffffffffffffffffffffff1673ffffffffffffffffffffffffffffffffffffffff16815260200190815260200160002090506000600660008460ff1660ff168152602001908152602001600020905060008160010160009054906101000a900473ffffffffffffffffffffffffffffffffffffffff169050600083600001541415611551576040517f08c379a000000000000000000000000000000000000000000000000000000000815260040161154890612ed5565b60405180910390fd5b82600101544211611597576040517f08c379a000000000000000000000000000000000000000000000000000000000815260040161158e90612f41565b60405180910390fd5b8160020160149054906101000a900460ff16156115e9576040517f08c379a00000000000000000000000000000000000000000000000000000000081526004016115e090612fad565b60405180910390fd5b8260020160009054906101000a900460ff161561163b576040517f08c379a00000000000000000000000000000000000000000000000000000000081526004016116329061303f565b60405180910390fd5b8160020160009054906101000a90046fffffffffffffffffffffffffffffffff166fffffffffffffffffffffffffffffffff168173ffffffffffffffffffffffffffffffffffffffff166370a08231876040518263ffffffff1660e01b81526004016116a79190612473565b60206040518083038186803b1580156116bf57600080fd5b505afa1580156116d3573d6000803e3d6000fd5b505050506040513d601f19601f820116820180604052508101906116f7919061308b565b1015611738576040517f08c379a000000000000000000000000000000000000000000000000000000000815260040161172f9061312a565b60405180910390fd5b8073ffffffffffffffffffffffffffffffffffffffff166323b872dd8661175d610f8d565b8560020160009054906101000a90046fffffffffffffffffffffffffffffffff166040518463ffffffff1660e01b815260040161179c9392919061317b565b602060405180830381600087803b1580156117b657600080fd5b505af11580156117ca573d6000803e3d6000fd5b505050506040513d601f19601f820116820180604052508101906117ee91906131de565b6117f757600080fd5b8160020160109054906101000a900463ffffffff1663ffffffff168360010154611821919061320b565b83600101819055507fd9c2a3b5876793c06385d9ba016ce2870a7b27fbba6c5a2c6a34fa888ed4ac0e858360020160009054906101000a90046fffffffffffffffffffffffffffffffff16864260405161187e9493929190613261565b60405180910390a15050505050565b6000600660008360ff1660ff1681526020019081526020016000209050600073ffffffffffffffffffffffffffffffffffffffff168160010160009054906101000a900473ffffffffffffffffffffffffffffffffffffffff1673ffffffffffffffffffffffffffffffffffffffff16141561193e576040517f08c379a0000000000000000000000000000000000000000000000000000000008152600401611935906132f2565b60405180910390fd5b8060020160149054906101000a900460ff1615611990576040517f08c379a00000000000000000000000000000000000000000000000000000000081526004016119879061335e565b60405180910390fd5b60008160010160009054906101000a900473ffffffffffffffffffffffffffffffffffffffff1690508073ffffffffffffffffffffffffffffffffffffffff166323b872dd336119de610f8d565b8560020160009054906101000a90046fffffffffffffffffffffffffffffffff166040518463ffffffff1660e01b8152600401611a1d9392919061317b565b602060405180830381600087803b158015611a3757600080fd5b505af1158015611a4b573d6000803e3d6000fd5b505050506040513d601f19601f82011682018060405250810190611a6f91906131de565b611a7857600080fd5b600560008460ff1660ff168152602001908152602001600020339080600181540180825580915050600190039060005260206000200160009091909190916101000a81548173ffffffffffffffffffffffffffffffffffffffff021916908373ffffffffffffffffffffffffffffffffffffffff16021790555060405180608001604052804281526020018360020160109054906101000a900463ffffffff1663ffffffff1642611b29919061320b565b81526020016000151581526020016001600560008760ff1660ff16815260200190815260200160002080549050611b60919061337e565b815250600760008560ff1660ff16815260200190815260200160002060003373ffffffffffffffffffffffffffffffffffffffff1673ffffffffffffffffffffffffffffffffffffffff168152602001908152602001600020600082015181600001556020820151816001015560408201518160020160006101000a81548160ff021916908315150217905550606082015181600301559050507fb32d0ee4f7c649974c4703f12139c6581d4dfc9df7fcbe3ebc75de386319075b338442604051611c2d939291906133b2565b60405180910390a17fd9c2a3b5876793c06385d9ba016ce2870a7b27fbba6c5a2c6a34fa888ed4ac0e338360020160009054906101000a90046fffffffffffffffffffffffffffffffff168542604051611c8a9493929190613261565b60405180910390a1505050565b600033905090565b60008060009054906101000a900473ffffffffffffffffffffffffffffffffffffffff169050816000806101000a81548173ffffffffffffffffffffffffffffffffffffffff021916908373ffffffffffffffffffffffffffffffffffffffff1602179055508173ffffffffffffffffffffffffffffffffffffffff168173ffffffffffffffffffffffffffffffffffffffff167f8be0079c531659141344cd1fd0a4f28419497f9722a3daafe3b4186f6b6457e060405160405180910390a35050565b6000600760008460ff1660ff16815260200190815260200160002060008573ffffffffffffffffffffffffffffffffffffffff1673ffffffffffffffffffffffffffffffffffffffff1681526020019081526020016000209050600081600001541415611e05576040517f08c379a0000000000000000000000000000000000000000000000000000000008152600401611dfc90612ed5565b60405180910390fd5b6000600560008560ff1660ff168152602001908152602001600020905060008260030154905060008260018480549050611e3f919061337e565b81548110611e5057611e4f612a34565b5b9060005260206000200160009054906101000a900473ffffffffffffffffffffffffffffffffffffffff16905080838381548110611e9157611e90612a34565b5b9060005260206000200160006101000a81548173ffffffffffffffffffffffffffffffffffffffff021916908373ffffffffffffffffffffffffffffffffffffffff16021790555081600760008860ff1660ff16815260200190815260200160002060008373ffffffffffffffffffffffffffffffffffffffff1673ffffffffffffffffffffffffffffffffffffffff1681526020019081526020016000206003018190555082805480611f4857611f476133e9565b5b6001900381819060005260206000200160006101000a81549073ffffffffffffffffffffffffffffffffffffffff02191690559055600760008760ff1660ff16815260200190815260200160002060008873ffffffffffffffffffffffffffffffffffffffff1673ffffffffffffffffffffffffffffffffffffffff16815260200190815260200160002060008082016000905560018201600090556002820160006101000a81549060ff0219169055600382016000905550507fa77c3f0be762e28b92e364efe13b244cfdeb18f5576caaf56d7ad7c6c05fa09e878742886040516120379493929190613418565b60405180910390a150505050505050565b8280546120549061292a565b90600052602060002090601f01602090048101928261207657600085556120bd565b82601f1061208f57805160ff19168380011785556120bd565b828001600101855582156120bd579182015b828111156120bc5782518255916020019190600101906120a1565b5b5090506120ca91906120ce565b5090565b5b808211156120e75760008160009055506001016120cf565b5090565b6000604051905090565b600080fd5b600080fd5b600060ff82169050919050565b612115816120ff565b811461212057600080fd5b50565b6000813590506121328161210c565b92915050565b60006020828403121561214e5761214d6120f5565b5b600061215c84828501612123565b91505092915050565b600081519050919050565b600082825260208201905092915050565b60005b8381101561219f578082015181840152602081019050612184565b838111156121ae576000848401525b50505050565b6000601f19601f8301169050919050565b60006121d082612165565b6121da8185612170565b93506121ea818560208601612181565b6121f3816121b4565b840191505092915050565b6000602082019050818103600083015261221881846121c5565b905092915050565b600080fd5b7f4e487b7100000000000000000000000000000000000000000000000000000000600052604160045260246000fd5b61225d826121b4565b810181811067ffffffffffffffff8211171561227c5761227b612225565b5b80604052505050565b600061228f6120eb565b905061229b8282612254565b919050565b600067ffffffffffffffff8211156122bb576122ba612225565b5b602082029050602081019050919050565b600080fd5b600080fd5b600073ffffffffffffffffffffffffffffffffffffffff82169050919050565b6000612301826122d6565b9050919050565b612311816122f6565b811461231c57600080fd5b50565b60008135905061232e81612308565b92915050565b60006040828403121561234a576123496122d1565b5b6123546040612285565b905060006123648482850161231f565b600083015250602061237884828501612123565b60208301525092915050565b6000612397612392846122a0565b612285565b905080838252602082019050604084028301858111156123ba576123b96122cc565b5b835b818110156123e357806123cf8882612334565b8452602084019350506040810190506123bc565b5050509392505050565b600082601f83011261240257612401612220565b5b8135612412848260208601612384565b91505092915050565b600060208284031215612431576124306120f5565b5b600082013567ffffffffffffffff81111561244f5761244e6120fa565b5b61245b848285016123ed565b91505092915050565b61246d816122f6565b82525050565b60006020820190506124886000830184612464565b92915050565b612497816120ff565b82525050565b60006020820190506124b2600083018461248e565b92915050565b60006fffffffffffffffffffffffffffffffff82169050919050565b6124dd816124b8565b82525050565b600063ffffffff82169050919050565b6124fc816124e3565b82525050565b60008115159050919050565b61251781612502565b82525050565b600060a082019050818103600083015261253781886121c5565b90506125466020830187612464565b61255360408301866124d4565b61256060608301856124f3565b61256d608083018461250e565b9695505050505050565b6000806040838503121561258e5761258d6120f5565b5b600061259c85828601612123565b92505060206125ad8582860161231f565b9150509250929050565b6000819050919050565b6125ca816125b7565b82525050565b60006080820190506125e560008301876125c1565b6125f260208301866125c1565b6125ff604083018561250e565b61260c60608301846125c1565b95945050505050565b600080fd5b600067ffffffffffffffff82111561263557612634612225565b5b61263e826121b4565b9050602081019050919050565b82818337600083830152505050565b600061266d6126688461261a565b612285565b90508281526020810184848401111561268957612688612615565b5b61269484828561264b565b509392505050565b600082601f8301126126b1576126b0612220565b5b81356126c184826020860161265a565b91505092915050565b6000602082840312156126e0576126df6120f5565b5b600082013567ffffffffffffffff8111156126fe576126fd6120fa565b5b61270a8482850161269c565b91505092915050565b61271c816124b8565b811461272757600080fd5b50565b60008135905061273981612713565b92915050565b612748816124e3565b811461275357600080fd5b50565b6000813590506127658161273f565b92915050565b60008060008060808587031215612785576127846120f5565b5b600085013567ffffffffffffffff8111156127a3576127a26120fa565b5b6127af8782880161269c565b94505060206127c08782880161231f565b93505060406127d18782880161272a565b92505060606127e287828801612756565b91505092959194509250565b600060208284031215612804576128036120f5565b5b60006128128482850161231f565b91505092915050565b600081519050919050565b600082825260208201905092915050565b6000819050602082019050919050565b612850816122f6565b82525050565b60006128628383612847565b60208301905092915050565b6000602082019050919050565b60006128868261281b565b6128908185612826565b935061289b83612837565b8060005b838110156128cc5781516128b38882612856565b97506128be8361286e565b92505060018101905061289f565b5085935050505092915050565b600060208201905081810360008301526128f3818461287b565b905092915050565b7f4e487b7100000000000000000000000000000000000000000000000000000000600052602260045260246000fd5b6000600282049050600182168061294257607f821691505b60208210811415612956576129556128fb565b5b50919050565b7f4875683f00000000000000000000000000000000000000000000000000000000600082015250565b6000612992600483612170565b915061299d8261295c565b602082019050919050565b600060208201905081810360008301526129c181612985565b9050919050565b7f5265656e7472616e637947756172643a207265656e7472616e742063616c6c00600082015250565b60006129fe601f83612170565b9150612a09826129c8565b602082019050919050565b60006020820190508181036000830152612a2d816129f1565b9050919050565b7f4e487b7100000000000000000000000000000000000000000000000000000000600052603260045260246000fd5b7f4e487b7100000000000000000000000000000000000000000000000000000000600052601160045260246000fd5b6000612a9d826125b7565b91507fffffffffffffffffffffffffffffffffffffffffffffffffffffffffffffffff821415612ad057612acf612a63565b5b600182019050919050565b7f4f776e61626c653a2063616c6c6572206973206e6f7420746865206f776e6572600082015250565b6000612b11602083612170565b9150612b1c82612adb565b602082019050919050565b60006020820190508181036000830152612b4081612b04565b9050919050565b7f616464726573732063616e6e6f74206265206e756c6c20616464726573730000600082015250565b6000612b7d601e83612170565b9150612b8882612b47565b602082019050919050565b60006020820190508181036000830152612bac81612b70565b9050919050565b7f616d6f756e74206e6565647320746f206265203e203000000000000000000000600082015250565b6000612be9601683612170565b9150612bf482612bb3565b602082019050919050565b60006020820190508181036000830152612c1881612bdc565b9050919050565b7f6672657175656e6379206e6565647320746f2062652067726561746572206f7260008201527f20657175616c20746f20323420686f7572730000000000000000000000000000602082015250565b6000612c7b603283612170565b9150612c8682612c1f565b604082019050919050565b60006020820190508181036000830152612caa81612c6e565b9050919050565b60008190508160005260206000209050919050565b60008154612cd38161292a565b612cdd8186612170565b94506001821660008114612cf85760018114612d0a57612d3d565b60ff1983168652602086019350612d3d565b612d1385612cb1565b60005b83811015612d3557815481890152600182019150602081019050612d16565b808801955050505b50505092915050565b6000819050919050565b6000612d6b612d66612d61846124e3565b612d46565b6124b8565b9050919050565b612d7b81612d50565b82525050565b60006080820190508181036000830152612d9b8187612cc6565b9050612daa6020830186612464565b612db760408301856124d4565b612dc46060830184612d72565b95945050505050565b6000612dd8826120ff565b915060ff821415612dec57612deb612a63565b5b600182019050919050565b7f4f776e61626c653a206e6577206f776e657220697320746865207a65726f206160008201527f6464726573730000000000000000000000000000000000000000000000000000602082015250565b6000612e53602683612170565b9150612e5e82612df7565b604082019050919050565b60006020820190508181036000830152612e8281612e46565b9050919050565b7f7468697320737562736372697074696f6e20646f6573206e6f74206578697374600082015250565b6000612ebf602083612170565b9150612eca82612e89565b602082019050919050565b60006020820190508181036000830152612eee81612eb2565b9050919050565b7f6e6f742064756520796574000000000000000000000000000000000000000000600082015250565b6000612f2b600b83612170565b9150612f3682612ef5565b602082019050919050565b60006020820190508181036000830152612f5a81612f1e565b9050919050565b7f506c616e2069732068616c746564000000000000000000000000000000000000600082015250565b6000612f97600e83612170565b9150612fa282612f61565b602082019050919050565b60006020820190508181036000830152612fc681612f8a565b9050919050565b7f53756273637269626572206f7074656420746f2073746f70207061796d656e7460008201527f733b2064656c65746520737562736372697074696f6e00000000000000000000602082015250565b6000613029603683612170565b915061303482612fcd565b604082019050919050565b600060208201905081810360008301526130588161301c565b9050919050565b613068816125b7565b811461307357600080fd5b50565b6000815190506130858161305f565b92915050565b6000602082840312156130a1576130a06120f5565b5b60006130af84828501613076565b91505092915050565b7f537562736372696265722068617320696e737566666963656e742066756e647360008201527f3b2064656c65746520737562736372697074696f6e0000000000000000000000602082015250565b6000613114603583612170565b915061311f826130b8565b604082019050919050565b6000602082019050818103600083015261314381613107565b9050919050565b600061316561316061315b846124b8565b612d46565b6125b7565b9050919050565b6131758161314a565b82525050565b60006060820190506131906000830186612464565b61319d6020830185612464565b6131aa604083018461316c565b949350505050565b6131bb81612502565b81146131c657600080fd5b50565b6000815190506131d8816131b2565b92915050565b6000602082840312156131f4576131f36120f5565b5b6000613202848285016131c9565b91505092915050565b6000613216826125b7565b9150613221836125b7565b9250827fffffffffffffffffffffffffffffffffffffffffffffffffffffffffffffffff0382111561325657613255612a63565b5b828201905092915050565b60006080820190506132766000830187612464565b61328360208301866124d4565b613290604083018561248e565b61329d60608301846125c1565b95945050505050565b7f7468697320706c616e20646f6573206e6f742065786973740000000000000000600082015250565b60006132dc601883612170565b91506132e7826132a6565b602082019050919050565b6000602082019050818103600083015261330b816132cf565b9050919050565b7f706c616e2069732068616c746564000000000000000000000000000000000000600082015250565b6000613348600e83612170565b915061335382613312565b602082019050919050565b600060208201905081810360008301526133778161333b565b9050919050565b6000613389826125b7565b9150613394836125b7565b9250828210156133a7576133a6612a63565b5b828203905092915050565b60006060820190506133c76000830186612464565b6133d4602083018561248e565b6133e160408301846125c1565b949350505050565b7f4e487b7100000000000000000000000000000000000000000000000000000000600052603160045260246000fd5b600060808201905061342d6000830187612464565b61343a602083018661248e565b61344760408301856125c1565b818103606083015261345981846121c5565b90509594505050505056fe596f752063616e6e6f742073746f7020737562736372697074696f6e2061667465722066756e647320617265206f7765642c20737562736372697074696f6e2064656c657465644f776e65722f4f70657261746f722044656c6574656420537562736372697074696f6ea2646970667358221220474b3a3da3518d47350944296538b6b69acede65a2d22e2ab63a3817af2afae064736f6c63430008080033a26469706673582212201cbd5364b5d11d13bc932d982b10cb5228519ec60121e7d8d4ecda8bac4afad464736f6c63430008080033",
  "immutableReferences": {},
  "source": "// SPDX-License-Identifier: Business Source License 1.1\npragma solidity ^0.8.8;\n\nimport \"@openzeppelin/contracts/access/Ownable.sol\";\nimport \"./SubscribeeBeta.sol\";\n\ncontract BeehiveBeta is Ownable {\n\n  mapping(string => address) public slugs;\n  mapping(address => bool) public verifiedSubscribeeContract;\n\n  uint256 public adminFund;\n  uint256 public slugFee;\n\n  event NewContract(\n    address contractAddress,\n    string slug,\n    uint256 time\n  );\n\n  event SlugChanged(\n    address contractAddress,\n    string oldSlug,\n    string newSlug\n  );\n\n  event SlugFeesCollected(\n    address toAddress,\n    uint256 amount,\n    uint256 time\n  );\n\n  constructor(uint256 slugfee){\n    slugFee = slugfee;\n  }\n\n  function setSlugFee(uint256 newslugFee) external onlyOwner{\n    slugFee = newslugFee;\n  }\n\n  function collectSlugFees(address toAddress) external onlyOwner{\n    payable(toAddress).transfer(adminFund);\n    emit SlugFeesCollected(toAddress, adminFund, block.timestamp);\n    adminFund = 0;\n  }\n\n\n  function changeSlug(string memory oldslug, string memory newslug) external payable{\n    SubscribeeBeta subscribeeContract = SubscribeeBeta(slugs[oldslug]);\n    require(subscribeeContract.owner() == msg.sender, \"Only the Owner of the contract can do this\");\n    require(slugs[newslug] == address(0), \"Slug has been taken\");\n    require(msg.value == slugFee || msg.sender == owner(), \"Please pay the appropiate amount...\");\n\n    adminFund += msg.value;\n    slugs[newslug] = slugs[oldslug];\n    emit SlugChanged(slugs[oldslug], oldslug, newslug);\n    delete slugs[oldslug];\n  }\n\n\n  function deploySubscribeeContract(address operatorAddress, string memory title, string memory slug, string memory image) external{\n    require(slugs[slug] == address(0), \"Slug has been taken\");\n\n    SubscribeeBeta newContract = new SubscribeeBeta(operatorAddress, title, image);\n    newContract.transferOwnership(msg.sender);\n\n    address contractAddress = address(newContract);\n    slugs[slug] = contractAddress;\n    verifiedSubscribeeContract[contractAddress] = true;\n\n    emit NewContract(contractAddress, slug, block.timestamp);\n  }\n\n\n\n}\n",
  "sourcePath": "/home/lavandor9/contracts/subscribee-official/contracts/BeehiveBeta.sol",
  "compiler": {
    "name": "solc",
    "version": "0.8.8+commit.dddeac2f.Emscripten.clang"
  },
  "schemaVersion": "3.4.1",
  "updatedAt": "2022-09-09T02:41:13.121Z",
  "devdoc": {
    "kind": "dev",
    "methods": {
      "owner()": {
        "details": "Returns the address of the current owner."
      },
      "renounceOwnership()": {
        "details": "Leaves the contract without owner. It will not be possible to call `onlyOwner` functions anymore. Can only be called by the current owner. NOTE: Renouncing ownership will leave the contract without an owner, thereby removing any functionality that is only available to the owner."
      },
      "transferOwnership(address)": {
        "details": "Transfers ownership of the contract to a new account (`newOwner`). Can only be called by the current owner."
      }
    },
    "version": 1
  },
  "userdoc": {
    "kind": "user",
    "methods": {},
    "version": 1
  }
}