{
  "contractName": "BeehiveV1",
  "abi": [
    {
      "inputs": [
        {
          "internalType": "uint256",
          "name": "fee",
          "type": "uint256"
        },
        {
          "internalType": "uint256",
          "name": "slugfee",
          "type": "uint256"
        }
      ],
      "stateMutability": "nonpayable",
      "type": "constructor"
    },
    {
      "anonymous": false,
      "inputs": [
        {
          "indexed": false,
          "internalType": "address",
          "name": "newSubscribeeContract",
          "type": "address"
        },
        {
          "indexed": false,
          "internalType": "uint256",
          "name": "timeDeployed",
          "type": "uint256"
        }
      ],
      "name": "NewContract",
      "type": "event"
    },
    {
      "anonymous": false,
      "inputs": [
        {
          "indexed": true,
          "internalType": "address",
          "name": "previousOwner",
          "type": "address"
        },
        {
          "indexed": true,
          "internalType": "address",
          "name": "newOwner",
          "type": "address"
        }
      ],
      "name": "OwnershipTransferred",
      "type": "event"
    },
    {
      "anonymous": false,
      "inputs": [
        {
          "indexed": false,
          "internalType": "address",
          "name": "contractAddress",
          "type": "address"
        },
        {
          "indexed": false,
          "internalType": "uint256",
          "name": "timeDeployed",
          "type": "uint256"
        },
        {
          "indexed": false,
          "internalType": "string",
          "name": "oldSlug",
          "type": "string"
        },
        {
          "indexed": false,
          "internalType": "string",
          "name": "newSlug",
          "type": "string"
        }
      ],
      "name": "slugChanged",
      "type": "event"
    },
    {
      "inputs": [],
      "name": "Adminfund",
      "outputs": [
        {
          "internalType": "uint256",
          "name": "",
          "type": "uint256"
        }
      ],
      "stateMutability": "view",
      "type": "function"
    },
    {
      "inputs": [],
      "name": "Deployfee",
      "outputs": [
        {
          "internalType": "uint256",
          "name": "",
          "type": "uint256"
        }
      ],
      "stateMutability": "view",
      "type": "function"
    },
    {
      "inputs": [],
      "name": "Frozen",
      "outputs": [
        {
          "internalType": "bool",
          "name": "",
          "type": "bool"
        }
      ],
      "stateMutability": "view",
      "type": "function"
    },
    {
      "inputs": [],
      "name": "Slugfee",
      "outputs": [
        {
          "internalType": "uint256",
          "name": "",
          "type": "uint256"
        }
      ],
      "stateMutability": "view",
      "type": "function"
    },
    {
      "inputs": [],
      "name": "owner",
      "outputs": [
        {
          "internalType": "address",
          "name": "",
          "type": "address"
        }
      ],
      "stateMutability": "view",
      "type": "function"
    },
    {
      "inputs": [],
      "name": "renounceOwnership",
      "outputs": [],
      "stateMutability": "nonpayable",
      "type": "function"
    },
    {
      "inputs": [
        {
          "internalType": "string",
          "name": "",
          "type": "string"
        }
      ],
      "name": "slugs",
      "outputs": [
        {
          "internalType": "address",
          "name": "contractAddress",
          "type": "address"
        },
        {
          "internalType": "uint256",
          "name": "timeDeployed",
          "type": "uint256"
        }
      ],
      "stateMutability": "view",
      "type": "function"
    },
    {
      "inputs": [
        {
          "internalType": "address",
          "name": "newOwner",
          "type": "address"
        }
      ],
      "name": "transferOwnership",
      "outputs": [],
      "stateMutability": "nonpayable",
      "type": "function"
    },
    {
      "inputs": [],
      "name": "toggleFreeze",
      "outputs": [],
      "stateMutability": "nonpayable",
      "type": "function"
    },
    {
      "inputs": [
        {
          "internalType": "uint256",
          "name": "deployfee",
          "type": "uint256"
        },
        {
          "internalType": "uint256",
          "name": "slugfee",
          "type": "uint256"
        }
      ],
      "name": "setDeployFee",
      "outputs": [],
      "stateMutability": "nonpayable",
      "type": "function"
    },
    {
      "inputs": [
        {
          "internalType": "address",
          "name": "toAddress",
          "type": "address"
        }
      ],
      "name": "getDeployFeeFunds",
      "outputs": [],
      "stateMutability": "nonpayable",
      "type": "function"
    },
    {
      "inputs": [
        {
          "internalType": "address",
          "name": "toAddress",
          "type": "address"
        },
        {
          "internalType": "address",
          "name": "tokenAddress",
          "type": "address"
        }
      ],
      "name": "getERC20Funds",
      "outputs": [],
      "stateMutability": "nonpayable",
      "type": "function"
    },
    {
      "inputs": [
        {
          "internalType": "string",
          "name": "oldslug",
          "type": "string"
        },
        {
          "internalType": "string",
          "name": "newslug",
          "type": "string"
        }
      ],
      "name": "changeSlug",
      "outputs": [],
      "stateMutability": "payable",
      "type": "function"
    },
    {
      "inputs": [
        {
          "internalType": "address",
          "name": "operatorAddress",
          "type": "address"
        },
        {
          "internalType": "string",
          "name": "title",
          "type": "string"
        },
        {
          "internalType": "string",
          "name": "slug",
          "type": "string"
        },
        {
          "internalType": "string",
          "name": "image",
          "type": "string"
        }
      ],
      "name": "deploySubscribeeContract",
      "outputs": [],
      "stateMutability": "payable",
      "type": "function"
    }
  ],
  "bytecode": "0x60806040526000600560006101000a81548160ff0219169083151502179055503480156200002c57600080fd5b506040516200605a3803806200605a83398181016040528101906200005291906200016b565b62000072620000666200008860201b60201c565b6200009060201b60201c565b81600381905550806004819055505050620001db565b600033905090565b60008060009054906101000a900473ffffffffffffffffffffffffffffffffffffffff169050816000806101000a81548173ffffffffffffffffffffffffffffffffffffffff021916908373ffffffffffffffffffffffffffffffffffffffff1602179055508173ffffffffffffffffffffffffffffffffffffffff168173ffffffffffffffffffffffffffffffffffffffff167f8be0079c531659141344cd1fd0a4f28419497f9722a3daafe3b4186f6b6457e060405160405180910390a35050565b6000815190506200016581620001c1565b92915050565b60008060408385031215620001855762000184620001bc565b5b6000620001958582860162000154565b9250506020620001a88582860162000154565b9150509250929050565b6000819050919050565b600080fd5b620001cc81620001b2565b8114620001d857600080fd5b50565b615e6f80620001eb6000396000f3fe608060405260043610620000f25760003560e01c8063956232c7116200008b578063b3696fd71162000061578063b3696fd71462000297578063c350208a14620002c5578063e77d31fb146200030a578063f2fde38b146200032a57620000f2565b8063956232c71462000217578063a68214c11462000247578063a8cab3d1146200026757620000f2565b8063564348b711620000cd578063564348b7146200016f578063715018a6146200019f5780638ad7f28914620001b95780638da5cb5b14620001e757620000f2565b80631a45a6ca14620000f757806334fc2591146200012557806348d21dd0146200013f575b600080fd5b3480156200010457600080fd5b506200012360048036038101906200011d919062001354565b62000358565b005b3480156200013257600080fd5b506200013d6200050f565b005b3480156200014c57600080fd5b5062000157620005ee565b604051620001669190620019d6565b60405180910390f35b3480156200017c57600080fd5b5062000187620005f4565b604051620001969190620019d6565b60405180910390f35b348015620001ac57600080fd5b50620001b7620005fa565b005b348015620001c657600080fd5b50620001e56004803603810190620001df9190620012f0565b6200068b565b005b348015620001f457600080fd5b50620001ff62000763565b6040516200020e919062001799565b60405180910390f35b3480156200022457600080fd5b506200022f6200078c565b6040516200023e9190620019d6565b60405180910390f35b6200026560048036038101906200025f91906200139b565b62000792565b005b3480156200027457600080fd5b506200027f62000a97565b6040516200028e9190620018ed565b60405180910390f35b348015620002a457600080fd5b50620002c36004803603810190620002bd9190620015a4565b62000aaa565b005b348015620002d257600080fd5b50620002f16004803603810190620002eb91906200149c565b62000b3f565b6040516200030192919062001865565b60405180910390f35b620003286004803603810190620003229190620014ed565b62000b99565b005b3480156200033757600080fd5b50620003566004803603810190620003509190620012f0565b62001021565b005b6200036262001125565b73ffffffffffffffffffffffffffffffffffffffff166200038262000763565b73ffffffffffffffffffffffffffffffffffffffff1614620003db576040517f08c379a0000000000000000000000000000000000000000000000000000000008152600401620003d29062001992565b60405180910390fd5b600081905060008173ffffffffffffffffffffffffffffffffffffffff166370a08231306040518263ffffffff1660e01b81526004016200041d919062001799565b60206040518083038186803b1580156200043657600080fd5b505afa1580156200044b573d6000803e3d6000fd5b505050506040513d601f19601f8201168201806040525081019062000471919062001572565b90508173ffffffffffffffffffffffffffffffffffffffff166323b872dd3086846040518463ffffffff1660e01b8152600401620004b29392919062001828565b602060405180830381600087803b158015620004cd57600080fd5b505af1158015620004e2573d6000803e3d6000fd5b505050506040513d601f19601f820116820180604052508101906200050891906200146a565b5050505050565b6200051962001125565b73ffffffffffffffffffffffffffffffffffffffff166200053962000763565b73ffffffffffffffffffffffffffffffffffffffff161462000592576040517f08c379a0000000000000000000000000000000000000000000000000000000008152600401620005899062001992565b60405180910390fd5b60001515600560009054906101000a900460ff1615151415620005d0576001600560006101000a81548160ff021916908315150217905550620005ec565b6000600560006101000a81548160ff0219169083151502179055505b565b60045481565b60035481565b6200060462001125565b73ffffffffffffffffffffffffffffffffffffffff166200062462000763565b73ffffffffffffffffffffffffffffffffffffffff16146200067d576040517f08c379a0000000000000000000000000000000000000000000000000000000008152600401620006749062001992565b60405180910390fd5b6200068960006200112d565b565b6200069562001125565b73ffffffffffffffffffffffffffffffffffffffff16620006b562000763565b73ffffffffffffffffffffffffffffffffffffffff16146200070e576040517f08c379a0000000000000000000000000000000000000000000000000000000008152600401620007059062001992565b60405180910390fd5b8073ffffffffffffffffffffffffffffffffffffffff166108fc6002549081150290604051600060405180830381858888f1935050505015801562000757573d6000803e3d6000fd5b50600060028190555050565b60008060009054906101000a900473ffffffffffffffffffffffffffffffffffffffff16905090565b60025481565b600073ffffffffffffffffffffffffffffffffffffffff16600183604051620007bc919062001780565b908152602001604051809103902060000160009054906101000a900473ffffffffffffffffffffffffffffffffffffffff1673ffffffffffffffffffffffffffffffffffffffff161462000847576040517f08c379a00000000000000000000000000000000000000000000000000000000081526004016200083e906200194e565b60405180910390fd5b600560009054906101000a900460ff16156200089a576040517f08c379a000000000000000000000000000000000000000000000000000000000815260040162000891906200192c565b60405180910390fd5b6003543414620008e1576040517f08c379a0000000000000000000000000000000000000000000000000000000008152600401620008d890620019b4565b60405180910390fd5b3460026000828254620008f5919062001a79565b92505081905550600030858585856040516200091190620011f1565b62000921959493929190620017b6565b604051809103906000f0801580156200093e573d6000803e3d6000fd5b5090508073ffffffffffffffffffffffffffffffffffffffff1663f2fde38b336040518263ffffffff1660e01b81526004016200097c919062001799565b600060405180830381600087803b1580156200099757600080fd5b505af1158015620009ac573d6000803e3d6000fd5b50505050600081905060405180604001604052808273ffffffffffffffffffffffffffffffffffffffff16815260200142815250600185604051620009f2919062001780565b908152602001604051809103902060008201518160000160006101000a81548173ffffffffffffffffffffffffffffffffffffffff021916908373ffffffffffffffffffffffffffffffffffffffff160217905550602082015181600101559050507f55c7305a5c9d8ed04ec6b7022640ccb643505db82828b0e24554c0d4d99da101814260405162000a8792919062001865565b60405180910390a1505050505050565b600560009054906101000a900460ff1681565b62000ab462001125565b73ffffffffffffffffffffffffffffffffffffffff1662000ad462000763565b73ffffffffffffffffffffffffffffffffffffffff161462000b2d576040517f08c379a000000000000000000000000000000000000000000000000000000000815260040162000b249062001992565b60405180910390fd5b81600381905550806004819055505050565b6001818051602081018201805184825260208301602085012081835280955050505050506000915090508060000160009054906101000a900473ffffffffffffffffffffffffffffffffffffffff16908060010154905082565b600060018360405162000bad919062001780565b908152602001604051809103902060000160009054906101000a900473ffffffffffffffffffffffffffffffffffffffff169050600060018460405162000bf5919062001780565b9081526020016040518091039020600101549050600560009054906101000a900460ff161562000c5c576040517f08c379a000000000000000000000000000000000000000000000000000000000815260040162000c53906200192c565b60405180910390fd5b3373ffffffffffffffffffffffffffffffffffffffff168273ffffffffffffffffffffffffffffffffffffffff16638da5cb5b6040518163ffffffff1660e01b815260040160206040518083038186803b15801562000cba57600080fd5b505afa15801562000ccf573d6000803e3d6000fd5b505050506040513d601f19601f8201168201806040525081019062000cf5919062001322565b73ffffffffffffffffffffffffffffffffffffffff161462000d4e576040517f08c379a000000000000000000000000000000000000000000000000000000000815260040162000d459062001970565b60405180910390fd5b600073ffffffffffffffffffffffffffffffffffffffff1660018460405162000d78919062001780565b908152602001604051809103902060000160009054906101000a900473ffffffffffffffffffffffffffffffffffffffff1673ffffffffffffffffffffffffffffffffffffffff161462000e03576040517f08c379a000000000000000000000000000000000000000000000000000000000815260040162000dfa906200194e565b60405180910390fd5b600454341462000e4a576040517f08c379a000000000000000000000000000000000000000000000000000000000815260040162000e4190620019b4565b60405180910390fd5b346002600082825462000e5e919062001a79565b92505081905550604051806040016040528060018660405162000e82919062001780565b908152602001604051809103902060000160009054906101000a900473ffffffffffffffffffffffffffffffffffffffff1673ffffffffffffffffffffffffffffffffffffffff1681526020018281525060018460405162000ee5919062001780565b908152602001604051809103902060008201518160000160006101000a81548173ffffffffffffffffffffffffffffffffffffffff021916908373ffffffffffffffffffffffffffffffffffffffff160217905550602082015181600101559050507fb31cb3cd912779e9ee7720f4727135386570b41cf9b03135cbba10fbcdf85d3660018560405162000f7a919062001780565b908152602001604051809103902060000160009054906101000a900473ffffffffffffffffffffffffffffffffffffffff1682868660405162000fc1949392919062001892565b60405180910390a160018460405162000fdb919062001780565b9081526020016040518091039020600080820160006101000a81549073ffffffffffffffffffffffffffffffffffffffff02191690556001820160009055505050505050565b6200102b62001125565b73ffffffffffffffffffffffffffffffffffffffff166200104b62000763565b73ffffffffffffffffffffffffffffffffffffffff1614620010a4576040517f08c379a00000000000000000000000000000000000000000000000000000000081526004016200109b9062001992565b60405180910390fd5b600073ffffffffffffffffffffffffffffffffffffffff168173ffffffffffffffffffffffffffffffffffffffff16141562001117576040517f08c379a00000000000000000000000000000000000000000000000000000000081526004016200110e906200190a565b60405180910390fd5b62001122816200112d565b50565b600033905090565b60008060009054906101000a900473ffffffffffffffffffffffffffffffffffffffff169050816000806101000a81548173ffffffffffffffffffffffffffffffffffffffff021916908373ffffffffffffffffffffffffffffffffffffffff1602179055508173ffffffffffffffffffffffffffffffffffffffff168173ffffffffffffffffffffffffffffffffffffffff167f8be0079c531659141344cd1fd0a4f28419497f9722a3daafe3b4186f6b6457e060405160405180910390a35050565b6140658062001dd583390190565b600062001216620012108462001a1c565b620019f3565b90508281526020810184848401111562001235576200123462001bfe565b5b6200124284828562001b20565b509392505050565b6000813590506200125b8162001d86565b92915050565b600081519050620012728162001d86565b92915050565b600081519050620012898162001da0565b92915050565b600082601f830112620012a757620012a662001bf9565b5b8135620012b9848260208601620011ff565b91505092915050565b600081359050620012d38162001dba565b92915050565b600081519050620012ea8162001dba565b92915050565b60006020828403121562001309576200130862001c08565b5b600062001319848285016200124a565b91505092915050565b6000602082840312156200133b576200133a62001c08565b5b60006200134b8482850162001261565b91505092915050565b600080604083850312156200136e576200136d62001c08565b5b60006200137e858286016200124a565b925050602062001391858286016200124a565b9150509250929050565b60008060008060808587031215620013b857620013b762001c08565b5b6000620013c8878288016200124a565b945050602085013567ffffffffffffffff811115620013ec57620013eb62001c03565b5b620013fa878288016200128f565b935050604085013567ffffffffffffffff8111156200141e576200141d62001c03565b5b6200142c878288016200128f565b925050606085013567ffffffffffffffff81111562001450576200144f62001c03565b5b6200145e878288016200128f565b91505092959194509250565b60006020828403121562001483576200148262001c08565b5b6000620014938482850162001278565b91505092915050565b600060208284031215620014b557620014b462001c08565b5b600082013567ffffffffffffffff811115620014d657620014d562001c03565b5b620014e4848285016200128f565b91505092915050565b6000806040838503121562001507576200150662001c08565b5b600083013567ffffffffffffffff81111562001528576200152762001c03565b5b62001536858286016200128f565b925050602083013567ffffffffffffffff8111156200155a576200155962001c03565b5b62001568858286016200128f565b9150509250929050565b6000602082840312156200158b576200158a62001c08565b5b60006200159b84828501620012d9565b91505092915050565b60008060408385031215620015be57620015bd62001c08565b5b6000620015ce85828601620012c2565b9250506020620015e185828601620012c2565b9150509250929050565b620015f68162001ad6565b82525050565b620016078162001aea565b82525050565b60006200161a8262001a52565b62001626818562001a5d565b93506200163881856020860162001b2f565b620016438162001c0d565b840191505092915050565b60006200165b8262001a52565b62001667818562001a6e565b93506200167981856020860162001b2f565b80840191505092915050565b60006200169460268362001a5d565b9150620016a18262001c1e565b604082019050919050565b6000620016bb601e8362001a5d565b9150620016c88262001c6d565b602082019050919050565b6000620016e260138362001a5d565b9150620016ef8262001c96565b602082019050919050565b600062001709602a8362001a5d565b9150620017168262001cbf565b604082019050919050565b60006200173060208362001a5d565b91506200173d8262001d0e565b602082019050919050565b60006200175760238362001a5d565b9150620017648262001d37565b604082019050919050565b6200177a8162001b16565b82525050565b60006200178e82846200164e565b915081905092915050565b6000602082019050620017b06000830184620015eb565b92915050565b600060a082019050620017cd6000830188620015eb565b620017dc6020830187620015eb565b8181036040830152620017f081866200160d565b905081810360608301526200180681856200160d565b905081810360808301526200181c81846200160d565b90509695505050505050565b60006060820190506200183f6000830186620015eb565b6200184e6020830185620015eb565b6200185d60408301846200176f565b949350505050565b60006040820190506200187c6000830185620015eb565b6200188b60208301846200176f565b9392505050565b6000608082019050620018a96000830187620015eb565b620018b860208301866200176f565b8181036040830152620018cc81856200160d565b90508181036060830152620018e281846200160d565b905095945050505050565b6000602082019050620019046000830184620015fc565b92915050565b60006020820190508181036000830152620019258162001685565b9050919050565b600060208201905081810360008301526200194781620016ac565b9050919050565b600060208201905081810360008301526200196981620016d3565b9050919050565b600060208201905081810360008301526200198b81620016fa565b9050919050565b60006020820190508181036000830152620019ad8162001721565b9050919050565b60006020820190508181036000830152620019cf8162001748565b9050919050565b6000602082019050620019ed60008301846200176f565b92915050565b6000620019ff62001a12565b905062001a0d828262001b65565b919050565b6000604051905090565b600067ffffffffffffffff82111562001a3a5762001a3962001bca565b5b62001a458262001c0d565b9050602081019050919050565b600081519050919050565b600082825260208201905092915050565b600081905092915050565b600062001a868262001b16565b915062001a938362001b16565b9250827fffffffffffffffffffffffffffffffffffffffffffffffffffffffffffffffff0382111562001acb5762001aca62001b9b565b5b828201905092915050565b600062001ae38262001af6565b9050919050565b60008115159050919050565b600073ffffffffffffffffffffffffffffffffffffffff82169050919050565b6000819050919050565b82818337600083830152505050565b60005b8381101562001b4f57808201518184015260208101905062001b32565b8381111562001b5f576000848401525b50505050565b62001b708262001c0d565b810181811067ffffffffffffffff8211171562001b925762001b9162001bca565b5b80604052505050565b7f4e487b7100000000000000000000000000000000000000000000000000000000600052601160045260246000fd5b7f4e487b7100000000000000000000000000000000000000000000000000000000600052604160045260246000fd5b600080fd5b600080fd5b600080fd5b600080fd5b6000601f19601f8301169050919050565b7f4f776e61626c653a206e6577206f776e657220697320746865207a65726f206160008201527f6464726573730000000000000000000000000000000000000000000000000000602082015250565b7f426565686976652069732063757272656e746c792066726f7a656e2e2e2e0000600082015250565b7f536c756720686173206265656e2074616b656e00000000000000000000000000600082015250565b7f4f6e6c7920746865204f776e6572206f662074686520636f6e7472616374206360008201527f616e20646f207468697300000000000000000000000000000000000000000000602082015250565b7f4f776e61626c653a2063616c6c6572206973206e6f7420746865206f776e6572600082015250565b7f506c65617365207061792074686520617070726f706961746520616d6f756e7460008201527f2e2e2e0000000000000000000000000000000000000000000000000000000000602082015250565b62001d918162001ad6565b811462001d9d57600080fd5b50565b62001dab8162001aea565b811462001db757600080fd5b50565b62001dc58162001b16565b811462001dd157600080fd5b5056fe6080604052600080601c6101000a81548160ff0219169083151502179055503480156200002b57600080fd5b50604051620040653803806200406583398181016040528101906200005191906200035a565b62000071620000656200014960201b60201c565b6200015160201b60201c565b84600760006101000a81548173ffffffffffffffffffffffffffffffffffffffff021916908373ffffffffffffffffffffffffffffffffffffffff16021790555083600860006101000a81548173ffffffffffffffffffffffffffffffffffffffff021916908373ffffffffffffffffffffffffffffffffffffffff16021790555081600290805190602001906200010b92919062000215565b5082600190805190602001906200012492919062000215565b5080600390805190602001906200013d92919062000215565b50505050505062000611565b600033905090565b60008060009054906101000a900473ffffffffffffffffffffffffffffffffffffffff169050816000806101000a81548173ffffffffffffffffffffffffffffffffffffffff021916908373ffffffffffffffffffffffffffffffffffffffff1602179055508173ffffffffffffffffffffffffffffffffffffffff168173ffffffffffffffffffffffffffffffffffffffff167f8be0079c531659141344cd1fd0a4f28419497f9722a3daafe3b4186f6b6457e060405160405180910390a35050565b828054620002239062000508565b90600052602060002090601f01602090048101928262000247576000855562000293565b82601f106200026257805160ff191683800117855562000293565b8280016001018555821562000293579182015b828111156200029257825182559160200191906001019062000275565b5b509050620002a29190620002a6565b5090565b5b80821115620002c1576000816000905550600101620002a7565b5090565b6000620002dc620002d68462000468565b6200043f565b905082815260208101848484011115620002fb57620002fa620005d7565b5b62000308848285620004d2565b509392505050565b6000815190506200032181620005f7565b92915050565b600082601f8301126200033f576200033e620005d2565b5b815162000351848260208601620002c5565b91505092915050565b600080600080600060a08688031215620003795762000378620005e1565b5b6000620003898882890162000310565b95505060206200039c8882890162000310565b945050604086015167ffffffffffffffff811115620003c057620003bf620005dc565b5b620003ce8882890162000327565b935050606086015167ffffffffffffffff811115620003f257620003f1620005dc565b5b620004008882890162000327565b925050608086015167ffffffffffffffff811115620004245762000423620005dc565b5b620004328882890162000327565b9150509295509295909350565b60006200044b6200045e565b90506200045982826200053e565b919050565b6000604051905090565b600067ffffffffffffffff821115620004865762000485620005a3565b5b6200049182620005e6565b9050602081019050919050565b6000620004ab82620004b2565b9050919050565b600073ffffffffffffffffffffffffffffffffffffffff82169050919050565b60005b83811015620004f2578082015181840152602081019050620004d5565b8381111562000502576000848401525b50505050565b600060028204905060018216806200052157607f821691505b6020821081141562000538576200053762000574565b5b50919050565b6200054982620005e6565b810181811067ffffffffffffffff821117156200056b576200056a620005a3565b5b80604052505050565b7f4e487b7100000000000000000000000000000000000000000000000000000000600052602260045260246000fd5b7f4e487b7100000000000000000000000000000000000000000000000000000000600052604160045260246000fd5b600080fd5b600080fd5b600080fd5b600080fd5b6000601f19601f8301169050919050565b62000602816200049e565b81146200060e57600080fd5b50565b613a4480620006216000396000f3fe608060405234801561001057600080fd5b50600436106101735760003560e01c806372910be0116100de578063b5dce25411610097578063df69101b11610071578063df69101b14610403578063e061e7c01461041f578063f2fde38b14610429578063f3ccaac01461044557610173565b8063b5dce25414610399578063cea2f07b146103cb578063dde99d33146103e757610173565b806372910be0146102d65780637a6e4822146102f25780638da5cb5b1461030e5780639ad380281461032c578063aba7aeea14610348578063b3ab15fb1461037d57610173565b8063570ca73511610130578063570ca735146102385780635f8d26b2146102565780636beb795914610274578063702efdf314610292578063715018a6146102b057806371adb5e6146102ba57610173565b80631086b96e146101785780632b0f07bc146101945780632fa8ec13146101b05780633395df25146101e0578063410aea57146101fe5780634a79d50c1461021a575b600080fd5b610192600480360381019061018d9190612bf8565b610463565b005b6101ae60048036038101906101a99190612bf8565b610603565b005b6101ca60048036038101906101c59190612bf8565b610660565b6040516101d79190613017565b60405180910390f35b6101e86107e2565b6040516101f59190612eef565b60405180910390f35b61021860048036038101906102139190612bf8565b610808565b005b6102226108dc565b60405161022f9190613054565b60405180910390f35b61024061096a565b60405161024d9190612eef565b60405180910390f35b61025e610990565b60405161026b9190613275565b60405180910390f35b61027c6109aa565b6040516102899190613054565b60405180910390f35b61029a610a38565b6040516102a79190613039565b60405180910390f35b6102b8610a4b565b005b6102d460048036038101906102cf9190612aeb565b610ad3565b005b6102f060048036038101906102eb9190612aeb565b610bba565b005b61030c60048036038101906103079190612b34565b610ca1565b005b6103166110e4565b6040516103239190612eef565b60405180910390f35b61034660048036038101906103419190612bf8565b61110d565b005b610362600480360381019061035d9190612bf8565b611150565b60405161037496959493929190613076565b60405180910390f35b61039760048036038101906103929190612a48565b611299565b005b6103b360048036038101906103ae9190612c25565b611359565b6040516103c29392919061323e565b60405180910390f35b6103e560048036038101906103e09190612bf8565b61139d565b005b61040160048036038101906103fc9190612a75565b6113a9565b005b61041d60048036038101906104189190612a75565b61153b565b005b610427611696565b005b610443600480360381019061043e9190612a48565b61176b565b005b61044d611863565b60405161045a9190613054565b60405180910390f35b600860009054906101000a900473ffffffffffffffffffffffffffffffffffffffff1673ffffffffffffffffffffffffffffffffffffffff163373ffffffffffffffffffffffffffffffffffffffff1614806104f157506104c26110e4565b73ffffffffffffffffffffffffffffffffffffffff163373ffffffffffffffffffffffffffffffffffffffff16145b610530576040517f08c379a00000000000000000000000000000000000000000000000000000000081526004016105279061313e565b60405180910390fd5b60011515600560008367ffffffffffffffff1667ffffffffffffffff16815260200190815260200160002060040160009054906101000a900460ff16151514156105bc576000600560008367ffffffffffffffff1667ffffffffffffffff16815260200190815260200160002060040160006101000a81548160ff021916908315150217905550610600565b6001600560008367ffffffffffffffff1667ffffffffffffffff16815260200190815260200160002060040160006101000a81548160ff0219169083151502179055505b50565b6000601c9054906101000a900460ff1615610653576040517f08c379a000000000000000000000000000000000000000000000000000000000815260040161064a906131de565b60405180910390fd5b61065d33826118f1565b50565b6060600860009054906101000a900473ffffffffffffffffffffffffffffffffffffffff1673ffffffffffffffffffffffffffffffffffffffff163373ffffffffffffffffffffffffffffffffffffffff1614806106f057506106c16110e4565b73ffffffffffffffffffffffffffffffffffffffff163373ffffffffffffffffffffffffffffffffffffffff16145b61072f576040517f08c379a00000000000000000000000000000000000000000000000000000000081526004016107269061313e565b60405180910390fd5b600460008367ffffffffffffffff1667ffffffffffffffff1681526020019081526020016000208054806020026020016040519081016040528092919081815260200182805480156107d657602002820191906000526020600020905b8160009054906101000a900473ffffffffffffffffffffffffffffffffffffffff1673ffffffffffffffffffffffffffffffffffffffff168152602001906001019080831161078c575b50505050509050919050565b600760009054906101000a900473ffffffffffffffffffffffffffffffffffffffff1681565b6000601c9054906101000a900460ff1615610858576040517f08c379a000000000000000000000000000000000000000000000000000000000815260040161084f906131de565b60405180910390fd5b600560008267ffffffffffffffff1667ffffffffffffffff16815260200190815260200160002060040160009054906101000a900460ff16156108d0576040517f08c379a00000000000000000000000000000000000000000000000000000000081526004016108c7906130de565b60405180910390fd5b6108d981611e50565b50565b600180546108e9906134dc565b80601f0160208091040260200160405190810160405280929190818152602001828054610915906134dc565b80156109625780601f1061093757610100808354040283529160200191610962565b820191906000526020600020905b81548152906001019060200180831161094557829003601f168201915b505050505081565b600860009054906101000a900473ffffffffffffffffffffffffffffffffffffffff1681565b600060149054906101000a900467ffffffffffffffff1681565b600280546109b7906134dc565b80601f01602080910402602001604051908101604052809291908181526020018280546109e3906134dc565b8015610a305780601f10610a0557610100808354040283529160200191610a30565b820191906000526020600020905b815481529060010190602001808311610a1357829003601f168201915b505050505081565b6000601c9054906101000a900460ff1681565b610a5361238c565b73ffffffffffffffffffffffffffffffffffffffff16610a716110e4565b73ffffffffffffffffffffffffffffffffffffffff1614610ac7576040517f08c379a0000000000000000000000000000000000000000000000000000000008152600401610abe906131be565b60405180910390fd5b610ad16000612394565b565b600860009054906101000a900473ffffffffffffffffffffffffffffffffffffffff1673ffffffffffffffffffffffffffffffffffffffff163373ffffffffffffffffffffffffffffffffffffffff161480610b615750610b326110e4565b73ffffffffffffffffffffffffffffffffffffffff163373ffffffffffffffffffffffffffffffffffffffff16145b610ba0576040517f08c379a0000000000000000000000000000000000000000000000000000000008152600401610b979061313e565b60405180910390fd5b8060039080519060200190610bb69291906127de565b5050565b600860009054906101000a900473ffffffffffffffffffffffffffffffffffffffff1673ffffffffffffffffffffffffffffffffffffffff163373ffffffffffffffffffffffffffffffffffffffff161480610c485750610c196110e4565b73ffffffffffffffffffffffffffffffffffffffff163373ffffffffffffffffffffffffffffffffffffffff16145b610c87576040517f08c379a0000000000000000000000000000000000000000000000000000000008152600401610c7e9061313e565b60405180910390fd5b8060019080519060200190610c9d9291906127de565b5050565b600860009054906101000a900473ffffffffffffffffffffffffffffffffffffffff1673ffffffffffffffffffffffffffffffffffffffff163373ffffffffffffffffffffffffffffffffffffffff161480610d2f5750610d006110e4565b73ffffffffffffffffffffffffffffffffffffffff163373ffffffffffffffffffffffffffffffffffffffff16145b610d6e576040517f08c379a0000000000000000000000000000000000000000000000000000000008152600401610d659061313e565b60405180910390fd5b600073ffffffffffffffffffffffffffffffffffffffff168373ffffffffffffffffffffffffffffffffffffffff161415610dde576040517f08c379a0000000000000000000000000000000000000000000000000000000008152600401610dd5906131fe565b60405180910390fd5b6000826fffffffffffffffffffffffffffffffff1611610e33576040517f08c379a0000000000000000000000000000000000000000000000000000000008152600401610e2a9061315e565b60405180910390fd5b6000816fffffffffffffffffffffffffffffffff1611610e88576040517f08c379a0000000000000000000000000000000000000000000000000000000008152600401610e7f9061311e565b60405180910390fd5b6040518060c001604052808681526020018573ffffffffffffffffffffffffffffffffffffffff1681526020018473ffffffffffffffffffffffffffffffffffffffff168152602001836fffffffffffffffffffffffffffffffff168152602001826fffffffffffffffffffffffffffffffff16815260200160001515815250600560008060149054906101000a900467ffffffffffffffff1667ffffffffffffffff1667ffffffffffffffff1681526020019081526020016000206000820151816000019080519060200190610f609291906127de565b5060208201518160010160006101000a81548173ffffffffffffffffffffffffffffffffffffffff021916908373ffffffffffffffffffffffffffffffffffffffff16021790555060408201518160020160006101000a81548173ffffffffffffffffffffffffffffffffffffffff021916908373ffffffffffffffffffffffffffffffffffffffff16021790555060608201518160030160006101000a8154816fffffffffffffffffffffffffffffffff02191690836fffffffffffffffffffffffffffffffff16021790555060808201518160030160106101000a8154816fffffffffffffffffffffffffffffffff02191690836fffffffffffffffffffffffffffffffff16021790555060a08201518160040160006101000a81548160ff0219169083151502179055509050506000601481819054906101000a900467ffffffffffffffff16809291906110b690613588565b91906101000a81548167ffffffffffffffff021916908367ffffffffffffffff160217905550505050505050565b60008060009054906101000a900473ffffffffffffffffffffffffffffffffffffffff16905090565b61114d33826040518060400160405280601a81526020017f557365722044656c6574696e6720537562736372697074696f6e000000000000815250612458565b50565b6005602052806000526040600020600091509050806000018054611173906134dc565b80601f016020809104026020016040519081016040528092919081815260200182805461119f906134dc565b80156111ec5780601f106111c1576101008083540402835291602001916111ec565b820191906000526020600020905b8154815290600101906020018083116111cf57829003601f168201915b5050505050908060010160009054906101000a900473ffffffffffffffffffffffffffffffffffffffff16908060020160009054906101000a900473ffffffffffffffffffffffffffffffffffffffff16908060030160009054906101000a90046fffffffffffffffffffffffffffffffff16908060030160109054906101000a90046fffffffffffffffffffffffffffffffff16908060040160009054906101000a900460ff16905086565b6112a161238c565b73ffffffffffffffffffffffffffffffffffffffff166112bf6110e4565b73ffffffffffffffffffffffffffffffffffffffff1614611315576040517f08c379a000000000000000000000000000000000000000000000000000000000815260040161130c906131be565b60405180910390fd5b80600860006101000a81548173ffffffffffffffffffffffffffffffffffffffff021916908373ffffffffffffffffffffffffffffffffffffffff16021790555050565b6006602052816000526040600020602052806000526040600020600091509150508060000154908060010154908060020160009054906101000a900460ff16905083565b6113a6816126d7565b50565b600860009054906101000a900473ffffffffffffffffffffffffffffffffffffffff1673ffffffffffffffffffffffffffffffffffffffff163373ffffffffffffffffffffffffffffffffffffffff16148061143757506114086110e4565b73ffffffffffffffffffffffffffffffffffffffff163373ffffffffffffffffffffffffffffffffffffffff16145b611476576040517f08c379a000000000000000000000000000000000000000000000000000000000815260040161146d9061313e565b60405180910390fd5b6000601c9054906101000a900460ff16156114c6576040517f08c379a00000000000000000000000000000000000000000000000000000000081526004016114bd906131de565b60405180910390fd5b60005b81518110156115375760008282815181106114e7576114e6613646565b5b6020026020010151600001519050600083838151811061150a57611509613646565b5b602002602001015160200151905061152282826118f1565b5050808061152f9061353f565b9150506114c9565b5050565b600860009054906101000a900473ffffffffffffffffffffffffffffffffffffffff1673ffffffffffffffffffffffffffffffffffffffff163373ffffffffffffffffffffffffffffffffffffffff1614806115c9575061159a6110e4565b73ffffffffffffffffffffffffffffffffffffffff163373ffffffffffffffffffffffffffffffffffffffff16145b611608576040517f08c379a00000000000000000000000000000000000000000000000000000000081526004016115ff9061313e565b60405180910390fd5b60005b815181101561169257600082828151811061162957611628613646565b5b6020026020010151600001519050600083838151811061164c5761164b613646565b5b602002602001015160200151905061167d82826040518060600160405280602381526020016139c460239139612458565b5050808061168a9061353f565b91505061160b565b5050565b61169e61238c565b73ffffffffffffffffffffffffffffffffffffffff166116bc6110e4565b73ffffffffffffffffffffffffffffffffffffffff1614611712576040517f08c379a0000000000000000000000000000000000000000000000000000000008152600401611709906131be565b60405180910390fd5b600115156000601c9054906101000a900460ff161515141561174d57600080601c6101000a81548160ff021916908315150217905550611769565b60016000601c6101000a81548160ff0219169083151502179055505b565b61177361238c565b73ffffffffffffffffffffffffffffffffffffffff166117916110e4565b73ffffffffffffffffffffffffffffffffffffffff16146117e7576040517f08c379a00000000000000000000000000000000000000000000000000000000081526004016117de906131be565b60405180910390fd5b600073ffffffffffffffffffffffffffffffffffffffff168173ffffffffffffffffffffffffffffffffffffffff161415611857576040517f08c379a000000000000000000000000000000000000000000000000000000000815260040161184e906130fe565b60405180910390fd5b61186081612394565b50565b60038054611870906134dc565b80601f016020809104026020016040519081016040528092919081815260200182805461189c906134dc565b80156118e95780601f106118be576101008083540402835291602001916118e9565b820191906000526020600020905b8154815290600101906020018083116118cc57829003601f168201915b505050505081565b6000600660008367ffffffffffffffff1667ffffffffffffffff16815260200190815260200160002060008473ffffffffffffffffffffffffffffffffffffffff1673ffffffffffffffffffffffffffffffffffffffff16815260200190815260200160002090506000600560008467ffffffffffffffff1667ffffffffffffffff168152602001908152602001600020905060008160020160009054906101000a900473ffffffffffffffffffffffffffffffffffffffff169050600060648360030160009054906101000a90046fffffffffffffffffffffffffffffffff166119dc91906133bd565b6fffffffffffffffffffffffffffffffff169050600073ffffffffffffffffffffffffffffffffffffffff168673ffffffffffffffffffffffffffffffffffffffff161415611a60576040517f08c379a0000000000000000000000000000000000000000000000000000000008152600401611a579061317e565b60405180910390fd5b83600101544211611aa6576040517f08c379a0000000000000000000000000000000000000000000000000000000008152600401611a9d9061321e565b60405180910390fd5b8360020160009054906101000a900460ff1615611ae957611ae086866040518060600160405280602881526020016139e760289139612458565b50505050611e4c565b8260030160009054906101000a90046fffffffffffffffffffffffffffffffff166fffffffffffffffffffffffffffffffff168273ffffffffffffffffffffffffffffffffffffffff166370a08231886040518263ffffffff1660e01b8152600401611b559190612eef565b60206040518083038186803b158015611b6d57600080fd5b505afa158015611b81573d6000803e3d6000fd5b505050506040513d601f19601f82011682018060405250810190611ba59190612bcb565b1015611bd757611bce868660405180606001604052806027815260200161395660279139612458565b50505050611e4c565b8173ffffffffffffffffffffffffffffffffffffffff166323b872dd878560010160009054906101000a900473ffffffffffffffffffffffffffffffffffffffff16848760030160009054906101000a90046fffffffffffffffffffffffffffffffff166fffffffffffffffffffffffffffffffff16611c5791906133ee565b6040518463ffffffff1660e01b8152600401611c7593929190612f5d565b602060405180830381600087803b158015611c8f57600080fd5b505af1158015611ca3573d6000803e3d6000fd5b505050506040513d601f19601f82011682018060405250810190611cc79190612abe565b508173ffffffffffffffffffffffffffffffffffffffff166323b872dd87600760009054906101000a900473ffffffffffffffffffffffffffffffffffffffff16846040518463ffffffff1660e01b8152600401611d2793929190612f5d565b602060405180830381600087803b158015611d4157600080fd5b505af1158015611d55573d6000803e3d6000fd5b505050506040513d601f19601f82011682018060405250810190611d799190612abe565b508260030160109054906101000a90046fffffffffffffffffffffffffffffffff166fffffffffffffffffffffffffffffffff168460010154611dbc9190613367565b84600101819055507fe4d9e5b6618d2c31b70b199db5b4f98b2b44360f69105fa823c84c2797c610c8868460010160009054906101000a900473ffffffffffffffffffffffffffffffffffffffff168560030160009054906101000a90046fffffffffffffffffffffffffffffffff168842604051611e3f959493929190612f0a565b60405180910390a1505050505b5050565b6000600560008367ffffffffffffffff1667ffffffffffffffff1681526020019081526020016000209050600073ffffffffffffffffffffffffffffffffffffffff168160010160009054906101000a900473ffffffffffffffffffffffffffffffffffffffff1673ffffffffffffffffffffffffffffffffffffffff161415611f0f576040517f08c379a0000000000000000000000000000000000000000000000000000000008152600401611f069061319e565b60405180910390fd5b6000600560008467ffffffffffffffff1667ffffffffffffffff16815260200190815260200160002060020160009054906101000a900473ffffffffffffffffffffffffffffffffffffffff169050600060648360030160009054906101000a90046fffffffffffffffffffffffffffffffff16611f8d91906133bd565b6fffffffffffffffffffffffffffffffff1690508173ffffffffffffffffffffffffffffffffffffffff166323b872dd338560010160009054906101000a900473ffffffffffffffffffffffffffffffffffffffff16848760030160009054906101000a90046fffffffffffffffffffffffffffffffff166fffffffffffffffffffffffffffffffff1661202191906133ee565b6040518463ffffffff1660e01b815260040161203f93929190612f5d565b602060405180830381600087803b15801561205957600080fd5b505af115801561206d573d6000803e3d6000fd5b505050506040513d601f19601f820116820180604052508101906120919190612abe565b508173ffffffffffffffffffffffffffffffffffffffff166323b872dd33600760009054906101000a900473ffffffffffffffffffffffffffffffffffffffff16846040518463ffffffff1660e01b81526004016120f193929190612f5d565b602060405180830381600087803b15801561210b57600080fd5b505af115801561211f573d6000803e3d6000fd5b505050506040513d601f19601f820116820180604052508101906121439190612abe565b5060405180606001604052804281526020018460030160109054906101000a90046fffffffffffffffffffffffffffffffff166fffffffffffffffffffffffffffffffff16426121939190613367565b815260200160001515815250600660008667ffffffffffffffff1667ffffffffffffffff16815260200190815260200160002060003373ffffffffffffffffffffffffffffffffffffffff1673ffffffffffffffffffffffffffffffffffffffff168152602001908152602001600020600082015181600001556020820151816001015560408201518160020160006101000a81548160ff0219169083151502179055509050506000600460008667ffffffffffffffff1667ffffffffffffffff168152602001908152602001600020905080339080600181540180825580915050600190039060005260206000200160009091909190916101000a81548173ffffffffffffffffffffffffffffffffffffffff021916908373ffffffffffffffffffffffffffffffffffffffff1602179055507fce194244cebd83f83dc1524e46ae3cede1555b456ebd127d9abfda702712469c3386426040516122fa93929190612f94565b60405180910390a17fe4d9e5b6618d2c31b70b199db5b4f98b2b44360f69105fa823c84c2797c610c8338560010160009054906101000a900473ffffffffffffffffffffffffffffffffffffffff168660030160009054906101000a90046fffffffffffffffffffffffffffffffff16884260405161237d959493929190612f0a565b60405180910390a15050505050565b600033905090565b60008060009054906101000a900473ffffffffffffffffffffffffffffffffffffffff169050816000806101000a81548173ffffffffffffffffffffffffffffffffffffffff021916908373ffffffffffffffffffffffffffffffffffffffff1602179055508173ffffffffffffffffffffffffffffffffffffffff168173ffffffffffffffffffffffffffffffffffffffff167f8be0079c531659141344cd1fd0a4f28419497f9722a3daafe3b4186f6b6457e060405160405180910390a35050565b6000600660008467ffffffffffffffff1667ffffffffffffffff16815260200190815260200160002060008573ffffffffffffffffffffffffffffffffffffffff1673ffffffffffffffffffffffffffffffffffffffff1681526020019081526020016000209050600081600001541415612508576040517f08c379a00000000000000000000000000000000000000000000000000000000081526004016124ff9061317e565b60405180910390fd5b600660008467ffffffffffffffff1667ffffffffffffffff16815260200190815260200160002060008573ffffffffffffffffffffffffffffffffffffffff1673ffffffffffffffffffffffffffffffffffffffff16815260200190815260200160002060008082016000905560018201600090556002820160006101000a81549060ff021916905550506000600460008567ffffffffffffffff1667ffffffffffffffff168152602001908152602001600020905060005b8180549050811015612692573373ffffffffffffffffffffffffffffffffffffffff168282815481106125f7576125f6613646565b5b9060005260206000200160009054906101000a900473ffffffffffffffffffffffffffffffffffffffff1673ffffffffffffffffffffffffffffffffffffffff16141561267f5781818154811061265157612650613646565b5b9060005260206000200160006101000a81549073ffffffffffffffffffffffffffffffffffffffff02191690555b808061268a9061353f565b9150506125c1565b507fb4dc32643da3b2db5bc2e1cd6ffe1469ce448054e50ce9def009103398c69b99858542866040516126c89493929190612fcb565b60405180910390a15050505050565b6000600660008367ffffffffffffffff1667ffffffffffffffff16815260200190815260200160002060003373ffffffffffffffffffffffffffffffffffffffff1673ffffffffffffffffffffffffffffffffffffffff1681526020019081526020016000209050600081600001541415612787576040517f08c379a000000000000000000000000000000000000000000000000000000000815260040161277e9061317e565b60405180910390fd5b42816001015410156127bc576127b6338360405180608001604052806047815260200161397d60479139612458565b506127db565b60018160020160006101000a81548160ff021916908315150217905550505b50565b8280546127ea906134dc565b90600052602060002090601f01602090048101928261280c5760008555612853565b82601f1061282557805160ff1916838001178555612853565b82800160010185558215612853579182015b82811115612852578251825591602001919060010190612837565b5b5090506128609190612864565b5090565b5b8082111561287d576000816000905550600101612865565b5090565b600061289461288f846132b5565b613290565b905080838252602082019050828560408602820111156128b7576128b66136ae565b5b60005b858110156128e757816128cd88826129b9565b8452602084019350604083019250506001810190506128ba565b5050509392505050565b60006129046128ff846132e1565b613290565b9050828152602081018484840111156129205761291f6136b3565b5b61292b84828561349a565b509392505050565b600081359050612942816138e2565b92915050565b600082601f83011261295d5761295c6136a4565b5b813561296d848260208601612881565b91505092915050565b600081519050612985816138f9565b92915050565b600082601f8301126129a05761299f6136a4565b5b81356129b08482602086016128f1565b91505092915050565b6000604082840312156129cf576129ce6136a9565b5b6129d96040613290565b905060006129e984828501612933565b60008301525060206129fd84828501612a33565b60208301525092915050565b600081359050612a1881613910565b92915050565b600081519050612a2d81613927565b92915050565b600081359050612a428161393e565b92915050565b600060208284031215612a5e57612a5d6136bd565b5b6000612a6c84828501612933565b91505092915050565b600060208284031215612a8b57612a8a6136bd565b5b600082013567ffffffffffffffff811115612aa957612aa86136b8565b5b612ab584828501612948565b91505092915050565b600060208284031215612ad457612ad36136bd565b5b6000612ae284828501612976565b91505092915050565b600060208284031215612b0157612b006136bd565b5b600082013567ffffffffffffffff811115612b1f57612b1e6136b8565b5b612b2b8482850161298b565b91505092915050565b600080600080600060a08688031215612b5057612b4f6136bd565b5b600086013567ffffffffffffffff811115612b6e57612b6d6136b8565b5b612b7a8882890161298b565b9550506020612b8b88828901612933565b9450506040612b9c88828901612933565b9350506060612bad88828901612a09565b9250506080612bbe88828901612a09565b9150509295509295909350565b600060208284031215612be157612be06136bd565b5b6000612bef84828501612a1e565b91505092915050565b600060208284031215612c0e57612c0d6136bd565b5b6000612c1c84828501612a33565b91505092915050565b60008060408385031215612c3c57612c3b6136bd565b5b6000612c4a85828601612a33565b9250506020612c5b85828601612933565b9150509250929050565b6000612c718383612c7d565b60208301905092915050565b612c8681613422565b82525050565b612c9581613422565b82525050565b6000612ca682613322565b612cb08185613345565b9350612cbb83613312565b8060005b83811015612cec578151612cd38882612c65565b9750612cde83613338565b925050600181019050612cbf565b5085935050505092915050565b612d0281613434565b82525050565b6000612d138261332d565b612d1d8185613356565b9350612d2d8185602086016134a9565b612d36816136c2565b840191505092915050565b6000612d4e600e83613356565b9150612d59826136d3565b602082019050919050565b6000612d71602683613356565b9150612d7c826136fc565b604082019050919050565b6000612d94602b83613356565b9150612d9f8261374b565b604082019050919050565b6000612db7600483613356565b9150612dc28261379a565b602082019050919050565b6000612dda601683613356565b9150612de5826137c3565b602082019050919050565b6000612dfd602083613356565b9150612e08826137ec565b602082019050919050565b6000612e20601883613356565b9150612e2b82613815565b602082019050919050565b6000612e43602083613356565b9150612e4e8261383e565b602082019050919050565b6000612e66601583613356565b9150612e7182613867565b602082019050919050565b6000612e89601e83613356565b9150612e9482613890565b602082019050919050565b6000612eac600b83613356565b9150612eb7826138b9565b602082019050919050565b612ecb81613440565b82525050565b612eda8161347c565b82525050565b612ee981613486565b82525050565b6000602082019050612f046000830184612c8c565b92915050565b600060a082019050612f1f6000830188612c8c565b612f2c6020830187612c8c565b612f396040830186612ec2565b612f466060830185612ee0565b612f536080830184612ed1565b9695505050505050565b6000606082019050612f726000830186612c8c565b612f7f6020830185612c8c565b612f8c6040830184612ed1565b949350505050565b6000606082019050612fa96000830186612c8c565b612fb66020830185612ee0565b612fc36040830184612ed1565b949350505050565b6000608082019050612fe06000830187612c8c565b612fed6020830186612ee0565b612ffa6040830185612ed1565b818103606083015261300c8184612d08565b905095945050505050565b600060208201905081810360008301526130318184612c9b565b905092915050565b600060208201905061304e6000830184612cf9565b92915050565b6000602082019050818103600083015261306e8184612d08565b905092915050565b600060c08201905081810360008301526130908189612d08565b905061309f6020830188612c8c565b6130ac6040830187612c8c565b6130b96060830186612ec2565b6130c66080830185612ec2565b6130d360a0830184612cf9565b979650505050505050565b600060208201905081810360008301526130f781612d41565b9050919050565b6000602082019050818103600083015261311781612d64565b9050919050565b6000602082019050818103600083015261313781612d87565b9050919050565b6000602082019050818103600083015261315781612daa565b9050919050565b6000602082019050818103600083015261317781612dcd565b9050919050565b6000602082019050818103600083015261319781612df0565b9050919050565b600060208201905081810360008301526131b781612e13565b9050919050565b600060208201905081810360008301526131d781612e36565b9050919050565b600060208201905081810360008301526131f781612e59565b9050919050565b6000602082019050818103600083015261321781612e7c565b9050919050565b6000602082019050818103600083015261323781612e9f565b9050919050565b60006060820190506132536000830186612ed1565b6132606020830185612ed1565b61326d6040830184612cf9565b949350505050565b600060208201905061328a6000830184612ee0565b92915050565b600061329a6132ab565b90506132a6828261350e565b919050565b6000604051905090565b600067ffffffffffffffff8211156132d0576132cf613675565b5b602082029050602081019050919050565b600067ffffffffffffffff8211156132fc576132fb613675565b5b613305826136c2565b9050602081019050919050565b6000819050602082019050919050565b600081519050919050565b600081519050919050565b6000602082019050919050565b600082825260208201905092915050565b600082825260208201905092915050565b60006133728261347c565b915061337d8361347c565b9250827fffffffffffffffffffffffffffffffffffffffffffffffffffffffffffffffff038211156133b2576133b16135b9565b5b828201905092915050565b60006133c882613440565b91506133d383613440565b9250826133e3576133e26135e8565b5b828204905092915050565b60006133f98261347c565b91506134048361347c565b925082821015613417576134166135b9565b5b828203905092915050565b600061342d8261345c565b9050919050565b60008115159050919050565b60006fffffffffffffffffffffffffffffffff82169050919050565b600073ffffffffffffffffffffffffffffffffffffffff82169050919050565b6000819050919050565b600067ffffffffffffffff82169050919050565b82818337600083830152505050565b60005b838110156134c75780820151818401526020810190506134ac565b838111156134d6576000848401525b50505050565b600060028204905060018216806134f457607f821691505b6020821081141561350857613507613617565b5b50919050565b613517826136c2565b810181811067ffffffffffffffff8211171561353657613535613675565b5b80604052505050565b600061354a8261347c565b91507fffffffffffffffffffffffffffffffffffffffffffffffffffffffffffffffff82141561357d5761357c6135b9565b5b600182019050919050565b600061359382613486565b915067ffffffffffffffff8214156135ae576135ad6135b9565b5b600182019050919050565b7f4e487b7100000000000000000000000000000000000000000000000000000000600052601160045260246000fd5b7f4e487b7100000000000000000000000000000000000000000000000000000000600052601260045260246000fd5b7f4e487b7100000000000000000000000000000000000000000000000000000000600052602260045260246000fd5b7f4e487b7100000000000000000000000000000000000000000000000000000000600052603260045260246000fd5b7f4e487b7100000000000000000000000000000000000000000000000000000000600052604160045260246000fd5b600080fd5b600080fd5b600080fd5b600080fd5b600080fd5b600080fd5b6000601f19601f8301169050919050565b7f706c616e2069732068616c746564000000000000000000000000000000000000600082015250565b7f4f776e61626c653a206e6577206f776e657220697320746865207a65726f206160008201527f6464726573730000000000000000000000000000000000000000000000000000602082015250565b7f6672657175656e6379206e6565647320746f206265206772656174657220746860008201527f656e20323420686f757273000000000000000000000000000000000000000000602082015250565b7f4875683f00000000000000000000000000000000000000000000000000000000600082015250565b7f616d6f756e74206e6565647320746f206265203e203000000000000000000000600082015250565b7f7468697320737562736372697074696f6e20646f6573206e6f74206578697374600082015250565b7f7468697320706c616e20646f6573206e6f742065786973740000000000000000600082015250565b7f4f776e61626c653a2063616c6c6572206973206e6f7420746865206f776e6572600082015250565b7f636f6e74726163742069732073757370656e6465640000000000000000000000600082015250565b7f616464726573732063616e6e6f74206265206e756c6c20616464726573730000600082015250565b7f6e6f742064756520796574000000000000000000000000000000000000000000600082015250565b6138eb81613422565b81146138f657600080fd5b50565b61390281613434565b811461390d57600080fd5b50565b61391981613440565b811461392457600080fd5b50565b6139308161347c565b811461393b57600080fd5b50565b61394781613486565b811461395257600080fd5b5056fe696e737566666963656e742066756e64732c20737562736372697074696f6e2064656c65746564596f752063616e6e6f742073746f7020737562736372697074696f6e2061667465722066756e647320617265206f7765642c20737562736372697074696f6e2064656c657465644f776e65722f4f70657261746f722044656c6574656420537562736372697074696f6e706173742064756520262073746f707065642c20737562736372697074696f6e2064656c65746564a2646970667358221220ffc96aca70c2d017c0a9c883d59c9da84b19312a0310bd8eccfec4b075afa95a64736f6c63430008060033a2646970667358221220d26a44946dc8433a83080340e9c153d1538369cb03f129f37a0704782f13308e64736f6c63430008060033",
  "immutableReferences": {},
  "source": "// SPDX-License-Identifier: Business Source License 1.1\npragma solidity ^0.8.6;\n\nimport \"@openzeppelin/contracts/token/ERC20/IERC20.sol\";\nimport \"@openzeppelin/contracts/access/Ownable.sol\";\nimport \"./SubscribeeV1.sol\";\n\ncontract BeehiveV1 is Ownable {\n\n  mapping(string => contractInfo) public slugs;\n  uint256 public Adminfund;\n  uint256 public Deployfee;\n  uint256 public Slugfee;\n  bool public Frozen = false;\n\n  event NewContract(\n    address newSubscribeeContract,\n    uint timeDeployed\n  );\n\n  event slugChanged(\n    address contractAddress,\n    uint timeDeployed,\n    string oldSlug,\n    string newSlug\n  );\n\n  struct contractInfo {\n    address contractAddress;\n    uint timeDeployed;\n  }\n\n  constructor(uint fee, uint slugfee){\n    Deployfee = fee;\n    Slugfee = slugfee;\n  }\n\n  function toggleFreeze() external onlyOwner{\n    if(Frozen == false){\n      Frozen = true;\n    }else{\n      Frozen = false;\n    }\n  }\n\n  function setDeployFee(uint deployfee, uint slugfee) external onlyOwner{\n    Deployfee = deployfee;\n    Slugfee = slugfee;\n  }\n\n  function getDeployFeeFunds(address toAddress) external onlyOwner{\n    payable(toAddress).transfer(Adminfund);\n    Adminfund = 0;\n  }\n\n  function getERC20Funds(address toAddress, address tokenAddress) external onlyOwner {\n    IERC20 token = IERC20(tokenAddress);\n    uint256 tokenAmount = token.balanceOf(address(this));\n    token.transferFrom(address(this), toAddress, tokenAmount);\n  }\n\n\n  function changeSlug(string memory oldslug, string memory newslug) external payable{\n    SubscribeeV1 subscribeeContract = SubscribeeV1(slugs[oldslug].contractAddress);\n    uint timeCreated = slugs[oldslug].timeDeployed;\n    require(!Frozen, 'Beehive is currently frozen...');\n    require(subscribeeContract.owner() == msg.sender, 'Only the Owner of the contract can do this');\n    require(slugs[newslug].contractAddress == address(0), 'Slug has been taken');\n    require(msg.value == Slugfee, 'Please pay the appropiate amount...');\n\n    Adminfund += msg.value;\n    slugs[newslug] = contractInfo(slugs[oldslug].contractAddress, timeCreated);\n    emit slugChanged(slugs[oldslug].contractAddress, timeCreated, oldslug, newslug);\n    delete slugs[oldslug];\n  }\n\n\n  function deploySubscribeeContract(address operatorAddress, string memory title, string memory slug, string memory image) external payable{\n    require(slugs[slug].contractAddress == address(0), 'Slug has been taken');\n    require(!Frozen, 'Beehive is currently frozen...');\n    require(msg.value == Deployfee, 'Please pay the appropiate amount...');\n\n    Adminfund += msg.value;\n\n    SubscribeeV1 subscribeeContract = new SubscribeeV1(address(this), operatorAddress, title, slug, image);\n    subscribeeContract.transferOwnership(msg.sender);\n\n    address subscribeeContractAddress = address(subscribeeContract);\n    slugs[slug] = contractInfo(subscribeeContractAddress, block.timestamp);\n\n    emit NewContract(subscribeeContractAddress, block.timestamp);\n    return;\n  }\n\n\n\n}\n",
  "sourcePath": "/home/lavandor9/contracts/subscribee-official/contracts/BeehiveV1.sol",
  "compiler": {
    "name": "solc",
    "version": "0.8.6+commit.11564f7e.Emscripten.clang"
  },
  "schemaVersion": "3.4.1",
  "updatedAt": "2022-03-29T04:01:43.613Z",
  "devdoc": {
    "kind": "dev",
    "methods": {
      "owner()": {
        "details": "Returns the address of the current owner."
      },
      "renounceOwnership()": {
        "details": "Leaves the contract without owner. It will not be possible to call `onlyOwner` functions anymore. Can only be called by the current owner. NOTE: Renouncing ownership will leave the contract without an owner, thereby removing any functionality that is only available to the owner."
      },
      "transferOwnership(address)": {
        "details": "Transfers ownership of the contract to a new account (`newOwner`). Can only be called by the current owner."
      }
    },
    "version": 1
  },
  "userdoc": {
    "kind": "user",
    "methods": {},
    "version": 1
  }
}