{
  "contractName": "BeehiveV1",
  "abi": [
    {
      "inputs": [
        {
          "internalType": "uint256",
          "name": "fee",
          "type": "uint256"
        },
        {
          "internalType": "uint256",
          "name": "slugfee",
          "type": "uint256"
        }
      ],
      "stateMutability": "nonpayable",
      "type": "constructor"
    },
    {
      "anonymous": false,
      "inputs": [
        {
          "indexed": false,
          "internalType": "address",
          "name": "newSubscribeeContract",
          "type": "address"
        },
        {
          "indexed": false,
          "internalType": "uint256",
          "name": "timeDeployed",
          "type": "uint256"
        }
      ],
      "name": "NewContract",
      "type": "event"
    },
    {
      "anonymous": false,
      "inputs": [
        {
          "indexed": true,
          "internalType": "address",
          "name": "previousOwner",
          "type": "address"
        },
        {
          "indexed": true,
          "internalType": "address",
          "name": "newOwner",
          "type": "address"
        }
      ],
      "name": "OwnershipTransferred",
      "type": "event"
    },
    {
      "anonymous": false,
      "inputs": [
        {
          "indexed": false,
          "internalType": "address",
          "name": "contractAddress",
          "type": "address"
        },
        {
          "indexed": false,
          "internalType": "uint256",
          "name": "timeDeployed",
          "type": "uint256"
        },
        {
          "indexed": false,
          "internalType": "string",
          "name": "oldSlug",
          "type": "string"
        },
        {
          "indexed": false,
          "internalType": "string",
          "name": "newSlug",
          "type": "string"
        }
      ],
      "name": "slugChanged",
      "type": "event"
    },
    {
      "inputs": [],
      "name": "Adminfund",
      "outputs": [
        {
          "internalType": "uint256",
          "name": "",
          "type": "uint256"
        }
      ],
      "stateMutability": "view",
      "type": "function"
    },
    {
      "inputs": [],
      "name": "Deployfee",
      "outputs": [
        {
          "internalType": "uint256",
          "name": "",
          "type": "uint256"
        }
      ],
      "stateMutability": "view",
      "type": "function"
    },
    {
      "inputs": [],
      "name": "Frozen",
      "outputs": [
        {
          "internalType": "bool",
          "name": "",
          "type": "bool"
        }
      ],
      "stateMutability": "view",
      "type": "function"
    },
    {
      "inputs": [],
      "name": "Slugfee",
      "outputs": [
        {
          "internalType": "uint256",
          "name": "",
          "type": "uint256"
        }
      ],
      "stateMutability": "view",
      "type": "function"
    },
    {
      "inputs": [],
      "name": "owner",
      "outputs": [
        {
          "internalType": "address",
          "name": "",
          "type": "address"
        }
      ],
      "stateMutability": "view",
      "type": "function"
    },
    {
      "inputs": [],
      "name": "renounceOwnership",
      "outputs": [],
      "stateMutability": "nonpayable",
      "type": "function"
    },
    {
      "inputs": [
        {
          "internalType": "string",
          "name": "",
          "type": "string"
        }
      ],
      "name": "slugs",
      "outputs": [
        {
          "internalType": "address",
          "name": "contractAddress",
          "type": "address"
        },
        {
          "internalType": "uint256",
          "name": "timeDeployed",
          "type": "uint256"
        }
      ],
      "stateMutability": "view",
      "type": "function"
    },
    {
      "inputs": [
        {
          "internalType": "address",
          "name": "newOwner",
          "type": "address"
        }
      ],
      "name": "transferOwnership",
      "outputs": [],
      "stateMutability": "nonpayable",
      "type": "function"
    },
    {
      "inputs": [],
      "name": "toggleFreeze",
      "outputs": [],
      "stateMutability": "nonpayable",
      "type": "function"
    },
    {
      "inputs": [],
      "name": "getDeployFee",
      "outputs": [
        {
          "internalType": "uint256",
          "name": "",
          "type": "uint256"
        }
      ],
      "stateMutability": "view",
      "type": "function"
    },
    {
      "inputs": [
        {
          "internalType": "uint256",
          "name": "fee",
          "type": "uint256"
        }
      ],
      "name": "setDeployFee",
      "outputs": [],
      "stateMutability": "nonpayable",
      "type": "function"
    },
    {
      "inputs": [
        {
          "internalType": "address",
          "name": "toAddress",
          "type": "address"
        }
      ],
      "name": "getDeployFeeFunds",
      "outputs": [],
      "stateMutability": "nonpayable",
      "type": "function"
    },
    {
      "inputs": [
        {
          "internalType": "address",
          "name": "toAddress",
          "type": "address"
        },
        {
          "internalType": "address",
          "name": "tokenAddress",
          "type": "address"
        }
      ],
      "name": "getERC20Funds",
      "outputs": [],
      "stateMutability": "nonpayable",
      "type": "function"
    },
    {
      "inputs": [
        {
          "internalType": "string",
          "name": "oldslug",
          "type": "string"
        },
        {
          "internalType": "string",
          "name": "newslug",
          "type": "string"
        }
      ],
      "name": "changeSlug",
      "outputs": [],
      "stateMutability": "payable",
      "type": "function"
    },
    {
      "inputs": [
        {
          "internalType": "address",
          "name": "operatorAddress",
          "type": "address"
        },
        {
          "internalType": "string",
          "name": "title",
          "type": "string"
        },
        {
          "internalType": "string",
          "name": "slug",
          "type": "string"
        },
        {
          "internalType": "string",
          "name": "image",
          "type": "string"
        }
      ],
      "name": "deploySubscribeeContract",
      "outputs": [],
      "stateMutability": "payable",
      "type": "function"
    }
  ],
  "bytecode": "0x60806040526000600560006101000a81548160ff0219169083151502179055503480156200002c57600080fd5b50604051620061e6380380620061e683398181016040528101906200005291906200016b565b62000072620000666200008860201b60201c565b6200009060201b60201c565b81600381905550806004819055505050620001db565b600033905090565b60008060009054906101000a900473ffffffffffffffffffffffffffffffffffffffff169050816000806101000a81548173ffffffffffffffffffffffffffffffffffffffff021916908373ffffffffffffffffffffffffffffffffffffffff1602179055508173ffffffffffffffffffffffffffffffffffffffff168173ffffffffffffffffffffffffffffffffffffffff167f8be0079c531659141344cd1fd0a4f28419497f9722a3daafe3b4186f6b6457e060405160405180910390a35050565b6000815190506200016581620001c1565b92915050565b60008060408385031215620001855762000184620001bc565b5b6000620001958582860162000154565b9250506020620001a88582860162000154565b9150509250929050565b6000819050919050565b600080fd5b620001cc81620001b2565b8114620001d857600080fd5b50565b615ffb80620001eb6000396000f3fe608060405260043610620000fe5760003560e01c8063956232c71162000097578063bc79a12c1162000061578063bc79a12c14620002d1578063c350208a1462000301578063e77d31fb1462000346578063f2fde38b146200036657620000fe565b8063956232c71462000223578063a68214c11462000253578063a8cab3d11462000273578063a9e5298714620002a357620000fe565b8063564348b711620000d9578063564348b7146200017b578063715018a614620001ab5780638ad7f28914620001c55780638da5cb5b14620001f357620000fe565b80631a45a6ca146200010357806334fc2591146200013157806348d21dd0146200014b575b600080fd5b3480156200011057600080fd5b506200012f600480360381019062000129919062001392565b62000394565b005b3480156200013e57600080fd5b50620001496200054b565b005b3480156200015857600080fd5b50620001636200062a565b604051620001729190620019ff565b60405180910390f35b3480156200018857600080fd5b506200019362000630565b604051620001a29190620019ff565b60405180910390f35b348015620001b857600080fd5b50620001c362000636565b005b348015620001d257600080fd5b50620001f16004803603810190620001eb91906200132e565b620006c7565b005b3480156200020057600080fd5b506200020b6200079f565b6040516200021a9190620017c2565b60405180910390f35b3480156200023057600080fd5b506200023b620007c8565b6040516200024a9190620019ff565b60405180910390f35b6200027160048036038101906200026b9190620013d9565b620007ce565b005b3480156200028057600080fd5b506200028b62000ad3565b6040516200029a919062001916565b60405180910390f35b348015620002b057600080fd5b50620002cf6004803603810190620002c99190620015b0565b62000ae6565b005b348015620002de57600080fd5b50620002e962000b73565b604051620002f89190620019ff565b60405180910390f35b3480156200030e57600080fd5b506200032d6004803603810190620003279190620014da565b62000b7d565b6040516200033d9291906200188e565b60405180910390f35b6200036460048036038101906200035e91906200152b565b62000bd7565b005b3480156200037357600080fd5b506200039260048036038101906200038c91906200132e565b6200105f565b005b6200039e62001163565b73ffffffffffffffffffffffffffffffffffffffff16620003be6200079f565b73ffffffffffffffffffffffffffffffffffffffff161462000417576040517f08c379a00000000000000000000000000000000000000000000000000000000081526004016200040e90620019bb565b60405180910390fd5b600081905060008173ffffffffffffffffffffffffffffffffffffffff166370a08231306040518263ffffffff1660e01b8152600401620004599190620017c2565b60206040518083038186803b1580156200047257600080fd5b505afa15801562000487573d6000803e3d6000fd5b505050506040513d601f19601f82011682018060405250810190620004ad9190620015e2565b90508173ffffffffffffffffffffffffffffffffffffffff166323b872dd3086846040518463ffffffff1660e01b8152600401620004ee9392919062001851565b602060405180830381600087803b1580156200050957600080fd5b505af11580156200051e573d6000803e3d6000fd5b505050506040513d601f19601f82011682018060405250810190620005449190620014a8565b5050505050565b6200055562001163565b73ffffffffffffffffffffffffffffffffffffffff16620005756200079f565b73ffffffffffffffffffffffffffffffffffffffff1614620005ce576040517f08c379a0000000000000000000000000000000000000000000000000000000008152600401620005c590620019bb565b60405180910390fd5b60001515600560009054906101000a900460ff16151514156200060c576001600560006101000a81548160ff02191690831515021790555062000628565b6000600560006101000a81548160ff0219169083151502179055505b565b60045481565b60035481565b6200064062001163565b73ffffffffffffffffffffffffffffffffffffffff16620006606200079f565b73ffffffffffffffffffffffffffffffffffffffff1614620006b9576040517f08c379a0000000000000000000000000000000000000000000000000000000008152600401620006b090620019bb565b60405180910390fd5b620006c560006200116b565b565b620006d162001163565b73ffffffffffffffffffffffffffffffffffffffff16620006f16200079f565b73ffffffffffffffffffffffffffffffffffffffff16146200074a576040517f08c379a00000000000000000000000000000000000000000000000000000000081526004016200074190620019bb565b60405180910390fd5b8073ffffffffffffffffffffffffffffffffffffffff166108fc6002549081150290604051600060405180830381858888f1935050505015801562000793573d6000803e3d6000fd5b50600060028190555050565b60008060009054906101000a900473ffffffffffffffffffffffffffffffffffffffff16905090565b60025481565b600073ffffffffffffffffffffffffffffffffffffffff16600183604051620007f89190620017a9565b908152602001604051809103902060000160009054906101000a900473ffffffffffffffffffffffffffffffffffffffff1673ffffffffffffffffffffffffffffffffffffffff161462000883576040517f08c379a00000000000000000000000000000000000000000000000000000000081526004016200087a9062001977565b60405180910390fd5b600560009054906101000a900460ff1615620008d6576040517f08c379a0000000000000000000000000000000000000000000000000000000008152600401620008cd9062001955565b60405180910390fd5b60035434146200091d576040517f08c379a00000000000000000000000000000000000000000000000000000000081526004016200091490620019dd565b60405180910390fd5b346002600082825462000931919062001aa2565b92505081905550600030858585856040516200094d906200122f565b6200095d959493929190620017df565b604051809103906000f0801580156200097a573d6000803e3d6000fd5b5090508073ffffffffffffffffffffffffffffffffffffffff1663f2fde38b336040518263ffffffff1660e01b8152600401620009b89190620017c2565b600060405180830381600087803b158015620009d357600080fd5b505af1158015620009e8573d6000803e3d6000fd5b50505050600081905060405180604001604052808273ffffffffffffffffffffffffffffffffffffffff1681526020014281525060018560405162000a2e9190620017a9565b908152602001604051809103902060008201518160000160006101000a81548173ffffffffffffffffffffffffffffffffffffffff021916908373ffffffffffffffffffffffffffffffffffffffff160217905550602082015181600101559050507f55c7305a5c9d8ed04ec6b7022640ccb643505db82828b0e24554c0d4d99da101814260405162000ac39291906200188e565b60405180910390a1505050505050565b600560009054906101000a900460ff1681565b62000af062001163565b73ffffffffffffffffffffffffffffffffffffffff1662000b106200079f565b73ffffffffffffffffffffffffffffffffffffffff161462000b69576040517f08c379a000000000000000000000000000000000000000000000000000000000815260040162000b6090620019bb565b60405180910390fd5b8060038190555050565b6000600354905090565b6001818051602081018201805184825260208301602085012081835280955050505050506000915090508060000160009054906101000a900473ffffffffffffffffffffffffffffffffffffffff16908060010154905082565b600060018360405162000beb9190620017a9565b908152602001604051809103902060000160009054906101000a900473ffffffffffffffffffffffffffffffffffffffff169050600060018460405162000c339190620017a9565b9081526020016040518091039020600101549050600560009054906101000a900460ff161562000c9a576040517f08c379a000000000000000000000000000000000000000000000000000000000815260040162000c919062001955565b60405180910390fd5b3373ffffffffffffffffffffffffffffffffffffffff168273ffffffffffffffffffffffffffffffffffffffff16638da5cb5b6040518163ffffffff1660e01b815260040160206040518083038186803b15801562000cf857600080fd5b505afa15801562000d0d573d6000803e3d6000fd5b505050506040513d601f19601f8201168201806040525081019062000d33919062001360565b73ffffffffffffffffffffffffffffffffffffffff161462000d8c576040517f08c379a000000000000000000000000000000000000000000000000000000000815260040162000d839062001999565b60405180910390fd5b600073ffffffffffffffffffffffffffffffffffffffff1660018460405162000db69190620017a9565b908152602001604051809103902060000160009054906101000a900473ffffffffffffffffffffffffffffffffffffffff1673ffffffffffffffffffffffffffffffffffffffff161462000e41576040517f08c379a000000000000000000000000000000000000000000000000000000000815260040162000e389062001977565b60405180910390fd5b600454341462000e88576040517f08c379a000000000000000000000000000000000000000000000000000000000815260040162000e7f90620019dd565b60405180910390fd5b346002600082825462000e9c919062001aa2565b92505081905550604051806040016040528060018660405162000ec09190620017a9565b908152602001604051809103902060000160009054906101000a900473ffffffffffffffffffffffffffffffffffffffff1673ffffffffffffffffffffffffffffffffffffffff1681526020018281525060018460405162000f239190620017a9565b908152602001604051809103902060008201518160000160006101000a81548173ffffffffffffffffffffffffffffffffffffffff021916908373ffffffffffffffffffffffffffffffffffffffff160217905550602082015181600101559050507fb31cb3cd912779e9ee7720f4727135386570b41cf9b03135cbba10fbcdf85d3660018560405162000fb89190620017a9565b908152602001604051809103902060000160009054906101000a900473ffffffffffffffffffffffffffffffffffffffff1682868660405162000fff9493929190620018bb565b60405180910390a1600184604051620010199190620017a9565b9081526020016040518091039020600080820160006101000a81549073ffffffffffffffffffffffffffffffffffffffff02191690556001820160009055505050505050565b6200106962001163565b73ffffffffffffffffffffffffffffffffffffffff16620010896200079f565b73ffffffffffffffffffffffffffffffffffffffff1614620010e2576040517f08c379a0000000000000000000000000000000000000000000000000000000008152600401620010d990620019bb565b60405180910390fd5b600073ffffffffffffffffffffffffffffffffffffffff168173ffffffffffffffffffffffffffffffffffffffff16141562001155576040517f08c379a00000000000000000000000000000000000000000000000000000000081526004016200114c9062001933565b60405180910390fd5b62001160816200116b565b50565b600033905090565b60008060009054906101000a900473ffffffffffffffffffffffffffffffffffffffff169050816000806101000a81548173ffffffffffffffffffffffffffffffffffffffff021916908373ffffffffffffffffffffffffffffffffffffffff1602179055508173ffffffffffffffffffffffffffffffffffffffff168173ffffffffffffffffffffffffffffffffffffffff167f8be0079c531659141344cd1fd0a4f28419497f9722a3daafe3b4186f6b6457e060405160405180910390a35050565b6141c88062001dfe83390190565b6000620012546200124e8462001a45565b62001a1c565b90508281526020810184848401111562001273576200127262001c27565b5b6200128084828562001b49565b509392505050565b600081359050620012998162001daf565b92915050565b600081519050620012b08162001daf565b92915050565b600081519050620012c78162001dc9565b92915050565b600082601f830112620012e557620012e462001c22565b5b8135620012f78482602086016200123d565b91505092915050565b600081359050620013118162001de3565b92915050565b600081519050620013288162001de3565b92915050565b60006020828403121562001347576200134662001c31565b5b6000620013578482850162001288565b91505092915050565b60006020828403121562001379576200137862001c31565b5b600062001389848285016200129f565b91505092915050565b60008060408385031215620013ac57620013ab62001c31565b5b6000620013bc8582860162001288565b9250506020620013cf8582860162001288565b9150509250929050565b60008060008060808587031215620013f657620013f562001c31565b5b6000620014068782880162001288565b945050602085013567ffffffffffffffff8111156200142a576200142962001c2c565b5b6200143887828801620012cd565b935050604085013567ffffffffffffffff8111156200145c576200145b62001c2c565b5b6200146a87828801620012cd565b925050606085013567ffffffffffffffff8111156200148e576200148d62001c2c565b5b6200149c87828801620012cd565b91505092959194509250565b600060208284031215620014c157620014c062001c31565b5b6000620014d184828501620012b6565b91505092915050565b600060208284031215620014f357620014f262001c31565b5b600082013567ffffffffffffffff81111562001514576200151362001c2c565b5b6200152284828501620012cd565b91505092915050565b6000806040838503121562001545576200154462001c31565b5b600083013567ffffffffffffffff81111562001566576200156562001c2c565b5b6200157485828601620012cd565b925050602083013567ffffffffffffffff81111562001598576200159762001c2c565b5b620015a685828601620012cd565b9150509250929050565b600060208284031215620015c957620015c862001c31565b5b6000620015d98482850162001300565b91505092915050565b600060208284031215620015fb57620015fa62001c31565b5b60006200160b8482850162001317565b91505092915050565b6200161f8162001aff565b82525050565b620016308162001b13565b82525050565b6000620016438262001a7b565b6200164f818562001a86565b93506200166181856020860162001b58565b6200166c8162001c36565b840191505092915050565b6000620016848262001a7b565b62001690818562001a97565b9350620016a281856020860162001b58565b80840191505092915050565b6000620016bd60268362001a86565b9150620016ca8262001c47565b604082019050919050565b6000620016e4601e8362001a86565b9150620016f18262001c96565b602082019050919050565b60006200170b60138362001a86565b9150620017188262001cbf565b602082019050919050565b600062001732602a8362001a86565b91506200173f8262001ce8565b604082019050919050565b60006200175960208362001a86565b9150620017668262001d37565b602082019050919050565b60006200178060238362001a86565b91506200178d8262001d60565b604082019050919050565b620017a38162001b3f565b82525050565b6000620017b7828462001677565b915081905092915050565b6000602082019050620017d9600083018462001614565b92915050565b600060a082019050620017f6600083018862001614565b62001805602083018762001614565b818103604083015262001819818662001636565b905081810360608301526200182f818562001636565b9050818103608083015262001845818462001636565b90509695505050505050565b600060608201905062001868600083018662001614565b62001877602083018562001614565b62001886604083018462001798565b949350505050565b6000604082019050620018a5600083018562001614565b620018b4602083018462001798565b9392505050565b6000608082019050620018d2600083018762001614565b620018e1602083018662001798565b8181036040830152620018f5818562001636565b905081810360608301526200190b818462001636565b905095945050505050565b60006020820190506200192d600083018462001625565b92915050565b600060208201905081810360008301526200194e81620016ae565b9050919050565b600060208201905081810360008301526200197081620016d5565b9050919050565b600060208201905081810360008301526200199281620016fc565b9050919050565b60006020820190508181036000830152620019b48162001723565b9050919050565b60006020820190508181036000830152620019d6816200174a565b9050919050565b60006020820190508181036000830152620019f88162001771565b9050919050565b600060208201905062001a16600083018462001798565b92915050565b600062001a2862001a3b565b905062001a36828262001b8e565b919050565b6000604051905090565b600067ffffffffffffffff82111562001a635762001a6262001bf3565b5b62001a6e8262001c36565b9050602081019050919050565b600081519050919050565b600082825260208201905092915050565b600081905092915050565b600062001aaf8262001b3f565b915062001abc8362001b3f565b9250827fffffffffffffffffffffffffffffffffffffffffffffffffffffffffffffffff0382111562001af45762001af362001bc4565b5b828201905092915050565b600062001b0c8262001b1f565b9050919050565b60008115159050919050565b600073ffffffffffffffffffffffffffffffffffffffff82169050919050565b6000819050919050565b82818337600083830152505050565b60005b8381101562001b7857808201518184015260208101905062001b5b565b8381111562001b88576000848401525b50505050565b62001b998262001c36565b810181811067ffffffffffffffff8211171562001bbb5762001bba62001bf3565b5b80604052505050565b7f4e487b7100000000000000000000000000000000000000000000000000000000600052601160045260246000fd5b7f4e487b7100000000000000000000000000000000000000000000000000000000600052604160045260246000fd5b600080fd5b600080fd5b600080fd5b600080fd5b6000601f19601f8301169050919050565b7f4f776e61626c653a206e6577206f776e657220697320746865207a65726f206160008201527f6464726573730000000000000000000000000000000000000000000000000000602082015250565b7f426565686976652069732063757272656e746c792066726f7a656e2e2e2e0000600082015250565b7f536c756720686173206265656e2074616b656e00000000000000000000000000600082015250565b7f4f6e6c7920746865204f776e6572206f662074686520636f6e7472616374206360008201527f616e20646f207468697300000000000000000000000000000000000000000000602082015250565b7f4f776e61626c653a2063616c6c6572206973206e6f7420746865206f776e6572600082015250565b7f506c65617365207061792074686520617070726f706961746520616d6f756e7460008201527f2e2e2e0000000000000000000000000000000000000000000000000000000000602082015250565b62001dba8162001aff565b811462001dc657600080fd5b50565b62001dd48162001b13565b811462001de057600080fd5b50565b62001dee8162001b3f565b811462001dfa57600080fd5b5056fe6080604052600080601c6101000a81548160ff0219169083151502179055503480156200002b57600080fd5b50604051620041c8380380620041c883398181016040528101906200005191906200035a565b62000071620000656200014960201b60201c565b6200015160201b60201c565b84600760006101000a81548173ffffffffffffffffffffffffffffffffffffffff021916908373ffffffffffffffffffffffffffffffffffffffff16021790555083600860006101000a81548173ffffffffffffffffffffffffffffffffffffffff021916908373ffffffffffffffffffffffffffffffffffffffff16021790555081600290805190602001906200010b92919062000215565b5082600190805190602001906200012492919062000215565b5080600390805190602001906200013d92919062000215565b50505050505062000611565b600033905090565b60008060009054906101000a900473ffffffffffffffffffffffffffffffffffffffff169050816000806101000a81548173ffffffffffffffffffffffffffffffffffffffff021916908373ffffffffffffffffffffffffffffffffffffffff1602179055508173ffffffffffffffffffffffffffffffffffffffff168173ffffffffffffffffffffffffffffffffffffffff167f8be0079c531659141344cd1fd0a4f28419497f9722a3daafe3b4186f6b6457e060405160405180910390a35050565b828054620002239062000508565b90600052602060002090601f01602090048101928262000247576000855562000293565b82601f106200026257805160ff191683800117855562000293565b8280016001018555821562000293579182015b828111156200029257825182559160200191906001019062000275565b5b509050620002a29190620002a6565b5090565b5b80821115620002c1576000816000905550600101620002a7565b5090565b6000620002dc620002d68462000468565b6200043f565b905082815260208101848484011115620002fb57620002fa620005d7565b5b62000308848285620004d2565b509392505050565b6000815190506200032181620005f7565b92915050565b600082601f8301126200033f576200033e620005d2565b5b815162000351848260208601620002c5565b91505092915050565b600080600080600060a08688031215620003795762000378620005e1565b5b6000620003898882890162000310565b95505060206200039c8882890162000310565b945050604086015167ffffffffffffffff811115620003c057620003bf620005dc565b5b620003ce8882890162000327565b935050606086015167ffffffffffffffff811115620003f257620003f1620005dc565b5b620004008882890162000327565b925050608086015167ffffffffffffffff811115620004245762000423620005dc565b5b620004328882890162000327565b9150509295509295909350565b60006200044b6200045e565b90506200045982826200053e565b919050565b6000604051905090565b600067ffffffffffffffff821115620004865762000485620005a3565b5b6200049182620005e6565b9050602081019050919050565b6000620004ab82620004b2565b9050919050565b600073ffffffffffffffffffffffffffffffffffffffff82169050919050565b60005b83811015620004f2578082015181840152602081019050620004d5565b8381111562000502576000848401525b50505050565b600060028204905060018216806200052157607f821691505b6020821081141562000538576200053762000574565b5b50919050565b6200054982620005e6565b810181811067ffffffffffffffff821117156200056b576200056a620005a3565b5b80604052505050565b7f4e487b7100000000000000000000000000000000000000000000000000000000600052602260045260246000fd5b7f4e487b7100000000000000000000000000000000000000000000000000000000600052604160045260246000fd5b600080fd5b600080fd5b600080fd5b600080fd5b6000601f19601f8301169050919050565b62000602816200049e565b81146200060e57600080fd5b50565b613ba780620006216000396000f3fe608060405234801561001057600080fd5b506004361061018e5760003560e01c80637a6e4822116100de578063b5dce25411610097578063dde99d3311610071578063dde99d331461043a578063e061e7c014610456578063f2fde38b14610460578063f3ccaac01461047c5761018e565b8063b5dce254146103d0578063c083183314610402578063cea2f07b1461041e5761018e565b80637a6e48221461030d5780638da5cb5b146103295780639ad3802814610347578063aba7aeea14610363578063af619bbd14610398578063b3ab15fb146103b45761018e565b8063570ca7351161014b578063702efdf311610125578063702efdf3146102ad578063715018a6146102cb57806371adb5e6146102d557806372910be0146102f15761018e565b8063570ca735146102535780635f8d26b2146102715780636beb79591461028f5761018e565b80631086b96e146101935780632b0f07bc146101af5780632fa8ec13146101cb5780633395df25146101fb578063410aea57146102195780634a79d50c14610235575b600080fd5b6101ad60048036038101906101a89190612d5b565b61049a565b005b6101c960048036038101906101c49190612d5b565b61063a565b005b6101e560048036038101906101e09190612d5b565b610697565b6040516101f2919061317a565b60405180910390f35b610203610819565b6040516102109190613052565b60405180910390f35b610233600480360381019061022e9190612d5b565b61083f565b005b61023d610913565b60405161024a91906131b7565b60405180910390f35b61025b6109a1565b6040516102689190613052565b60405180910390f35b6102796109c7565b60405161028691906133d8565b60405180910390f35b6102976109e1565b6040516102a491906131b7565b60405180910390f35b6102b5610a6f565b6040516102c2919061319c565b60405180910390f35b6102d3610a82565b005b6102ef60048036038101906102ea9190612c4e565b610b0a565b005b61030b60048036038101906103069190612c4e565b610bf1565b005b61032760048036038101906103229190612c97565b610cd8565b005b61033161111b565b60405161033e9190613052565b60405180910390f35b610361600480360381019061035c9190612d5b565b611144565b005b61037d60048036038101906103789190612d5b565b611187565b60405161038f969594939291906131d9565b60405180910390f35b6103b260048036038101906103ad9190612b98565b6112d0565b005b6103ce60048036038101906103c99190612b6b565b611473565b005b6103ea60048036038101906103e59190612d88565b611533565b6040516103f9939291906133a1565b60405180910390f35b61041c60048036038101906104179190612d88565b611577565b005b61043860048036038101906104339190612d5b565b61166b565b005b610454600480360381019061044f9190612bd8565b611677565b005b61045e6117b9565b005b61047a60048036038101906104759190612b6b565b61188e565b005b610484611986565b60405161049191906131b7565b60405180910390f35b600860009054906101000a900473ffffffffffffffffffffffffffffffffffffffff1673ffffffffffffffffffffffffffffffffffffffff163373ffffffffffffffffffffffffffffffffffffffff16148061052857506104f961111b565b73ffffffffffffffffffffffffffffffffffffffff163373ffffffffffffffffffffffffffffffffffffffff16145b610567576040517f08c379a000000000000000000000000000000000000000000000000000000000815260040161055e906132a1565b60405180910390fd5b60011515600560008367ffffffffffffffff1667ffffffffffffffff16815260200190815260200160002060040160009054906101000a900460ff16151514156105f3576000600560008367ffffffffffffffff1667ffffffffffffffff16815260200190815260200160002060040160006101000a81548160ff021916908315150217905550610637565b6001600560008367ffffffffffffffff1667ffffffffffffffff16815260200190815260200160002060040160006101000a81548160ff0219169083151502179055505b50565b6000601c9054906101000a900460ff161561068a576040517f08c379a000000000000000000000000000000000000000000000000000000000815260040161068190613341565b60405180910390fd5b6106943382611a14565b50565b6060600860009054906101000a900473ffffffffffffffffffffffffffffffffffffffff1673ffffffffffffffffffffffffffffffffffffffff163373ffffffffffffffffffffffffffffffffffffffff16148061072757506106f861111b565b73ffffffffffffffffffffffffffffffffffffffff163373ffffffffffffffffffffffffffffffffffffffff16145b610766576040517f08c379a000000000000000000000000000000000000000000000000000000000815260040161075d906132a1565b60405180910390fd5b600460008367ffffffffffffffff1667ffffffffffffffff16815260200190815260200160002080548060200260200160405190810160405280929190818152602001828054801561080d57602002820191906000526020600020905b8160009054906101000a900473ffffffffffffffffffffffffffffffffffffffff1673ffffffffffffffffffffffffffffffffffffffff16815260200190600101908083116107c3575b50505050509050919050565b600760009054906101000a900473ffffffffffffffffffffffffffffffffffffffff1681565b6000601c9054906101000a900460ff161561088f576040517f08c379a000000000000000000000000000000000000000000000000000000000815260040161088690613341565b60405180910390fd5b600560008267ffffffffffffffff1667ffffffffffffffff16815260200190815260200160002060040160009054906101000a900460ff1615610907576040517f08c379a00000000000000000000000000000000000000000000000000000000081526004016108fe90613241565b60405180910390fd5b61091081611f73565b50565b600180546109209061363f565b80601f016020809104026020016040519081016040528092919081815260200182805461094c9061363f565b80156109995780601f1061096e57610100808354040283529160200191610999565b820191906000526020600020905b81548152906001019060200180831161097c57829003601f168201915b505050505081565b600860009054906101000a900473ffffffffffffffffffffffffffffffffffffffff1681565b600060149054906101000a900467ffffffffffffffff1681565b600280546109ee9061363f565b80601f0160208091040260200160405190810160405280929190818152602001828054610a1a9061363f565b8015610a675780601f10610a3c57610100808354040283529160200191610a67565b820191906000526020600020905b815481529060010190602001808311610a4a57829003601f168201915b505050505081565b6000601c9054906101000a900460ff1681565b610a8a6124af565b73ffffffffffffffffffffffffffffffffffffffff16610aa861111b565b73ffffffffffffffffffffffffffffffffffffffff1614610afe576040517f08c379a0000000000000000000000000000000000000000000000000000000008152600401610af590613321565b60405180910390fd5b610b0860006124b7565b565b600860009054906101000a900473ffffffffffffffffffffffffffffffffffffffff1673ffffffffffffffffffffffffffffffffffffffff163373ffffffffffffffffffffffffffffffffffffffff161480610b985750610b6961111b565b73ffffffffffffffffffffffffffffffffffffffff163373ffffffffffffffffffffffffffffffffffffffff16145b610bd7576040517f08c379a0000000000000000000000000000000000000000000000000000000008152600401610bce906132a1565b60405180910390fd5b8060039080519060200190610bed929190612901565b5050565b600860009054906101000a900473ffffffffffffffffffffffffffffffffffffffff1673ffffffffffffffffffffffffffffffffffffffff163373ffffffffffffffffffffffffffffffffffffffff161480610c7f5750610c5061111b565b73ffffffffffffffffffffffffffffffffffffffff163373ffffffffffffffffffffffffffffffffffffffff16145b610cbe576040517f08c379a0000000000000000000000000000000000000000000000000000000008152600401610cb5906132a1565b60405180910390fd5b8060019080519060200190610cd4929190612901565b5050565b600860009054906101000a900473ffffffffffffffffffffffffffffffffffffffff1673ffffffffffffffffffffffffffffffffffffffff163373ffffffffffffffffffffffffffffffffffffffff161480610d665750610d3761111b565b73ffffffffffffffffffffffffffffffffffffffff163373ffffffffffffffffffffffffffffffffffffffff16145b610da5576040517f08c379a0000000000000000000000000000000000000000000000000000000008152600401610d9c906132a1565b60405180910390fd5b600073ffffffffffffffffffffffffffffffffffffffff168373ffffffffffffffffffffffffffffffffffffffff161415610e15576040517f08c379a0000000000000000000000000000000000000000000000000000000008152600401610e0c90613361565b60405180910390fd5b6000826fffffffffffffffffffffffffffffffff1611610e6a576040517f08c379a0000000000000000000000000000000000000000000000000000000008152600401610e61906132c1565b60405180910390fd5b6000816fffffffffffffffffffffffffffffffff1611610ebf576040517f08c379a0000000000000000000000000000000000000000000000000000000008152600401610eb690613281565b60405180910390fd5b6040518060c001604052808681526020018573ffffffffffffffffffffffffffffffffffffffff1681526020018473ffffffffffffffffffffffffffffffffffffffff168152602001836fffffffffffffffffffffffffffffffff168152602001826fffffffffffffffffffffffffffffffff16815260200160001515815250600560008060149054906101000a900467ffffffffffffffff1667ffffffffffffffff1667ffffffffffffffff1681526020019081526020016000206000820151816000019080519060200190610f97929190612901565b5060208201518160010160006101000a81548173ffffffffffffffffffffffffffffffffffffffff021916908373ffffffffffffffffffffffffffffffffffffffff16021790555060408201518160020160006101000a81548173ffffffffffffffffffffffffffffffffffffffff021916908373ffffffffffffffffffffffffffffffffffffffff16021790555060608201518160030160006101000a8154816fffffffffffffffffffffffffffffffff02191690836fffffffffffffffffffffffffffffffff16021790555060808201518160030160106101000a8154816fffffffffffffffffffffffffffffffff02191690836fffffffffffffffffffffffffffffffff16021790555060a08201518160040160006101000a81548160ff0219169083151502179055509050506000601481819054906101000a900467ffffffffffffffff16809291906110ed906136eb565b91906101000a81548167ffffffffffffffff021916908367ffffffffffffffff160217905550505050505050565b60008060009054906101000a900473ffffffffffffffffffffffffffffffffffffffff16905090565b61118433826040518060400160405280601a81526020017f557365722044656c6574696e6720537562736372697074696f6e00000000000081525061257b565b50565b60056020528060005260406000206000915090508060000180546111aa9061363f565b80601f01602080910402602001604051908101604052809291908181526020018280546111d69061363f565b80156112235780601f106111f857610100808354040283529160200191611223565b820191906000526020600020905b81548152906001019060200180831161120657829003601f168201915b5050505050908060010160009054906101000a900473ffffffffffffffffffffffffffffffffffffffff16908060020160009054906101000a900473ffffffffffffffffffffffffffffffffffffffff16908060030160009054906101000a90046fffffffffffffffffffffffffffffffff16908060030160109054906101000a90046fffffffffffffffffffffffffffffffff16908060040160009054906101000a900460ff16905086565b600860009054906101000a900473ffffffffffffffffffffffffffffffffffffffff1673ffffffffffffffffffffffffffffffffffffffff163373ffffffffffffffffffffffffffffffffffffffff16148061135e575061132f61111b565b73ffffffffffffffffffffffffffffffffffffffff163373ffffffffffffffffffffffffffffffffffffffff16145b61139d576040517f08c379a0000000000000000000000000000000000000000000000000000000008152600401611394906132a1565b60405180910390fd5b6000601c9054906101000a900460ff16156113ed576040517f08c379a00000000000000000000000000000000000000000000000000000000081526004016113e490613341565b60405180910390fd5b600560008267ffffffffffffffff1667ffffffffffffffff16815260200190815260200160002060040160009054906101000a900460ff1615611465576040517f08c379a000000000000000000000000000000000000000000000000000000000815260040161145c90613241565b60405180910390fd5b61146f8282611a14565b5050565b61147b6124af565b73ffffffffffffffffffffffffffffffffffffffff1661149961111b565b73ffffffffffffffffffffffffffffffffffffffff16146114ef576040517f08c379a00000000000000000000000000000000000000000000000000000000081526004016114e690613321565b60405180910390fd5b80600860006101000a81548173ffffffffffffffffffffffffffffffffffffffff021916908373ffffffffffffffffffffffffffffffffffffffff16021790555050565b6006602052816000526040600020602052806000526040600020600091509150508060000154908060010154908060020160009054906101000a900460ff16905083565b600860009054906101000a900473ffffffffffffffffffffffffffffffffffffffff1673ffffffffffffffffffffffffffffffffffffffff163373ffffffffffffffffffffffffffffffffffffffff16148061160557506115d661111b565b73ffffffffffffffffffffffffffffffffffffffff163373ffffffffffffffffffffffffffffffffffffffff16145b611644576040517f08c379a000000000000000000000000000000000000000000000000000000000815260040161163b906132a1565b60405180910390fd5b6116678183604051806060016040528060238152602001613b276023913961257b565b5050565b611674816127fa565b50565b600860009054906101000a900473ffffffffffffffffffffffffffffffffffffffff1673ffffffffffffffffffffffffffffffffffffffff163373ffffffffffffffffffffffffffffffffffffffff16148061170557506116d661111b565b73ffffffffffffffffffffffffffffffffffffffff163373ffffffffffffffffffffffffffffffffffffffff16145b611744576040517f08c379a000000000000000000000000000000000000000000000000000000000815260040161173b906132a1565b60405180910390fd5b60005b81518110156117b5576000828281518110611765576117646137a9565b5b60200260200101516000015190506000838381518110611788576117876137a9565b5b60200260200101516020015190506117a08282611a14565b505080806117ad906136a2565b915050611747565b5050565b6117c16124af565b73ffffffffffffffffffffffffffffffffffffffff166117df61111b565b73ffffffffffffffffffffffffffffffffffffffff1614611835576040517f08c379a000000000000000000000000000000000000000000000000000000000815260040161182c90613321565b60405180910390fd5b600115156000601c9054906101000a900460ff161515141561187057600080601c6101000a81548160ff02191690831515021790555061188c565b60016000601c6101000a81548160ff0219169083151502179055505b565b6118966124af565b73ffffffffffffffffffffffffffffffffffffffff166118b461111b565b73ffffffffffffffffffffffffffffffffffffffff161461190a576040517f08c379a000000000000000000000000000000000000000000000000000000000815260040161190190613321565b60405180910390fd5b600073ffffffffffffffffffffffffffffffffffffffff168173ffffffffffffffffffffffffffffffffffffffff16141561197a576040517f08c379a000000000000000000000000000000000000000000000000000000000815260040161197190613261565b60405180910390fd5b611983816124b7565b50565b600380546119939061363f565b80601f01602080910402602001604051908101604052809291908181526020018280546119bf9061363f565b8015611a0c5780601f106119e157610100808354040283529160200191611a0c565b820191906000526020600020905b8154815290600101906020018083116119ef57829003601f168201915b505050505081565b6000600660008367ffffffffffffffff1667ffffffffffffffff16815260200190815260200160002060008473ffffffffffffffffffffffffffffffffffffffff1673ffffffffffffffffffffffffffffffffffffffff16815260200190815260200160002090506000600560008467ffffffffffffffff1667ffffffffffffffff168152602001908152602001600020905060008160020160009054906101000a900473ffffffffffffffffffffffffffffffffffffffff169050600060648360030160009054906101000a90046fffffffffffffffffffffffffffffffff16611aff9190613520565b6fffffffffffffffffffffffffffffffff169050600073ffffffffffffffffffffffffffffffffffffffff168673ffffffffffffffffffffffffffffffffffffffff161415611b83576040517f08c379a0000000000000000000000000000000000000000000000000000000008152600401611b7a906132e1565b60405180910390fd5b83600101544211611bc9576040517f08c379a0000000000000000000000000000000000000000000000000000000008152600401611bc090613381565b60405180910390fd5b8360020160009054906101000a900460ff1615611c0c57611c038686604051806060016040528060288152602001613b4a6028913961257b565b50505050611f6f565b8260030160009054906101000a90046fffffffffffffffffffffffffffffffff166fffffffffffffffffffffffffffffffff168273ffffffffffffffffffffffffffffffffffffffff166370a08231886040518263ffffffff1660e01b8152600401611c789190613052565b60206040518083038186803b158015611c9057600080fd5b505afa158015611ca4573d6000803e3d6000fd5b505050506040513d601f19601f82011682018060405250810190611cc89190612d2e565b1015611cfa57611cf18686604051806060016040528060278152602001613ab96027913961257b565b50505050611f6f565b8173ffffffffffffffffffffffffffffffffffffffff166323b872dd878560010160009054906101000a900473ffffffffffffffffffffffffffffffffffffffff16848760030160009054906101000a90046fffffffffffffffffffffffffffffffff166fffffffffffffffffffffffffffffffff16611d7a9190613551565b6040518463ffffffff1660e01b8152600401611d98939291906130c0565b602060405180830381600087803b158015611db257600080fd5b505af1158015611dc6573d6000803e3d6000fd5b505050506040513d601f19601f82011682018060405250810190611dea9190612c21565b508173ffffffffffffffffffffffffffffffffffffffff166323b872dd87600760009054906101000a900473ffffffffffffffffffffffffffffffffffffffff16846040518463ffffffff1660e01b8152600401611e4a939291906130c0565b602060405180830381600087803b158015611e6457600080fd5b505af1158015611e78573d6000803e3d6000fd5b505050506040513d601f19601f82011682018060405250810190611e9c9190612c21565b508260030160109054906101000a90046fffffffffffffffffffffffffffffffff166fffffffffffffffffffffffffffffffff168460010154611edf91906134ca565b84600101819055507fe4d9e5b6618d2c31b70b199db5b4f98b2b44360f69105fa823c84c2797c610c8868460010160009054906101000a900473ffffffffffffffffffffffffffffffffffffffff168560030160009054906101000a90046fffffffffffffffffffffffffffffffff168842604051611f6295949392919061306d565b60405180910390a1505050505b5050565b6000600560008367ffffffffffffffff1667ffffffffffffffff1681526020019081526020016000209050600073ffffffffffffffffffffffffffffffffffffffff168160010160009054906101000a900473ffffffffffffffffffffffffffffffffffffffff1673ffffffffffffffffffffffffffffffffffffffff161415612032576040517f08c379a000000000000000000000000000000000000000000000000000000000815260040161202990613301565b60405180910390fd5b6000600560008467ffffffffffffffff1667ffffffffffffffff16815260200190815260200160002060020160009054906101000a900473ffffffffffffffffffffffffffffffffffffffff169050600060648360030160009054906101000a90046fffffffffffffffffffffffffffffffff166120b09190613520565b6fffffffffffffffffffffffffffffffff1690508173ffffffffffffffffffffffffffffffffffffffff166323b872dd338560010160009054906101000a900473ffffffffffffffffffffffffffffffffffffffff16848760030160009054906101000a90046fffffffffffffffffffffffffffffffff166fffffffffffffffffffffffffffffffff166121449190613551565b6040518463ffffffff1660e01b8152600401612162939291906130c0565b602060405180830381600087803b15801561217c57600080fd5b505af1158015612190573d6000803e3d6000fd5b505050506040513d601f19601f820116820180604052508101906121b49190612c21565b508173ffffffffffffffffffffffffffffffffffffffff166323b872dd33600760009054906101000a900473ffffffffffffffffffffffffffffffffffffffff16846040518463ffffffff1660e01b8152600401612214939291906130c0565b602060405180830381600087803b15801561222e57600080fd5b505af1158015612242573d6000803e3d6000fd5b505050506040513d601f19601f820116820180604052508101906122669190612c21565b5060405180606001604052804281526020018460030160109054906101000a90046fffffffffffffffffffffffffffffffff166fffffffffffffffffffffffffffffffff16426122b691906134ca565b815260200160001515815250600660008667ffffffffffffffff1667ffffffffffffffff16815260200190815260200160002060003373ffffffffffffffffffffffffffffffffffffffff1673ffffffffffffffffffffffffffffffffffffffff168152602001908152602001600020600082015181600001556020820151816001015560408201518160020160006101000a81548160ff0219169083151502179055509050506000600460008667ffffffffffffffff1667ffffffffffffffff168152602001908152602001600020905080339080600181540180825580915050600190039060005260206000200160009091909190916101000a81548173ffffffffffffffffffffffffffffffffffffffff021916908373ffffffffffffffffffffffffffffffffffffffff1602179055507fce194244cebd83f83dc1524e46ae3cede1555b456ebd127d9abfda702712469c33864260405161241d939291906130f7565b60405180910390a17fe4d9e5b6618d2c31b70b199db5b4f98b2b44360f69105fa823c84c2797c610c8338560010160009054906101000a900473ffffffffffffffffffffffffffffffffffffffff168660030160009054906101000a90046fffffffffffffffffffffffffffffffff1688426040516124a095949392919061306d565b60405180910390a15050505050565b600033905090565b60008060009054906101000a900473ffffffffffffffffffffffffffffffffffffffff169050816000806101000a81548173ffffffffffffffffffffffffffffffffffffffff021916908373ffffffffffffffffffffffffffffffffffffffff1602179055508173ffffffffffffffffffffffffffffffffffffffff168173ffffffffffffffffffffffffffffffffffffffff167f8be0079c531659141344cd1fd0a4f28419497f9722a3daafe3b4186f6b6457e060405160405180910390a35050565b6000600660008467ffffffffffffffff1667ffffffffffffffff16815260200190815260200160002060008573ffffffffffffffffffffffffffffffffffffffff1673ffffffffffffffffffffffffffffffffffffffff168152602001908152602001600020905060008160000154141561262b576040517f08c379a0000000000000000000000000000000000000000000000000000000008152600401612622906132e1565b60405180910390fd5b600660008467ffffffffffffffff1667ffffffffffffffff16815260200190815260200160002060008573ffffffffffffffffffffffffffffffffffffffff1673ffffffffffffffffffffffffffffffffffffffff16815260200190815260200160002060008082016000905560018201600090556002820160006101000a81549060ff021916905550506000600460008567ffffffffffffffff1667ffffffffffffffff168152602001908152602001600020905060005b81805490508110156127b5573373ffffffffffffffffffffffffffffffffffffffff1682828154811061271a576127196137a9565b5b9060005260206000200160009054906101000a900473ffffffffffffffffffffffffffffffffffffffff1673ffffffffffffffffffffffffffffffffffffffff1614156127a257818181548110612774576127736137a9565b5b9060005260206000200160006101000a81549073ffffffffffffffffffffffffffffffffffffffff02191690555b80806127ad906136a2565b9150506126e4565b507fb4dc32643da3b2db5bc2e1cd6ffe1469ce448054e50ce9def009103398c69b99858542866040516127eb949392919061312e565b60405180910390a15050505050565b6000600660008367ffffffffffffffff1667ffffffffffffffff16815260200190815260200160002060003373ffffffffffffffffffffffffffffffffffffffff1673ffffffffffffffffffffffffffffffffffffffff16815260200190815260200160002090506000816000015414156128aa576040517f08c379a00000000000000000000000000000000000000000000000000000000081526004016128a1906132e1565b60405180910390fd5b42816001015410156128df576128d93383604051806080016040528060478152602001613ae06047913961257b565b506128fe565b60018160020160006101000a81548160ff021916908315150217905550505b50565b82805461290d9061363f565b90600052602060002090601f01602090048101928261292f5760008555612976565b82601f1061294857805160ff1916838001178555612976565b82800160010185558215612976579182015b8281111561297557825182559160200191906001019061295a565b5b5090506129839190612987565b5090565b5b808211156129a0576000816000905550600101612988565b5090565b60006129b76129b284613418565b6133f3565b905080838252602082019050828560408602820111156129da576129d9613811565b5b60005b85811015612a0a57816129f08882612adc565b8452602084019350604083019250506001810190506129dd565b5050509392505050565b6000612a27612a2284613444565b6133f3565b905082815260208101848484011115612a4357612a42613816565b5b612a4e8482856135fd565b509392505050565b600081359050612a6581613a45565b92915050565b600082601f830112612a8057612a7f613807565b5b8135612a908482602086016129a4565b91505092915050565b600081519050612aa881613a5c565b92915050565b600082601f830112612ac357612ac2613807565b5b8135612ad3848260208601612a14565b91505092915050565b600060408284031215612af257612af161380c565b5b612afc60406133f3565b90506000612b0c84828501612a56565b6000830152506020612b2084828501612b56565b60208301525092915050565b600081359050612b3b81613a73565b92915050565b600081519050612b5081613a8a565b92915050565b600081359050612b6581613aa1565b92915050565b600060208284031215612b8157612b80613820565b5b6000612b8f84828501612a56565b91505092915050565b60008060408385031215612baf57612bae613820565b5b6000612bbd85828601612a56565b9250506020612bce85828601612b56565b9150509250929050565b600060208284031215612bee57612bed613820565b5b600082013567ffffffffffffffff811115612c0c57612c0b61381b565b5b612c1884828501612a6b565b91505092915050565b600060208284031215612c3757612c36613820565b5b6000612c4584828501612a99565b91505092915050565b600060208284031215612c6457612c63613820565b5b600082013567ffffffffffffffff811115612c8257612c8161381b565b5b612c8e84828501612aae565b91505092915050565b600080600080600060a08688031215612cb357612cb2613820565b5b600086013567ffffffffffffffff811115612cd157612cd061381b565b5b612cdd88828901612aae565b9550506020612cee88828901612a56565b9450506040612cff88828901612a56565b9350506060612d1088828901612b2c565b9250506080612d2188828901612b2c565b9150509295509295909350565b600060208284031215612d4457612d43613820565b5b6000612d5284828501612b41565b91505092915050565b600060208284031215612d7157612d70613820565b5b6000612d7f84828501612b56565b91505092915050565b60008060408385031215612d9f57612d9e613820565b5b6000612dad85828601612b56565b9250506020612dbe85828601612a56565b9150509250929050565b6000612dd48383612de0565b60208301905092915050565b612de981613585565b82525050565b612df881613585565b82525050565b6000612e0982613485565b612e1381856134a8565b9350612e1e83613475565b8060005b83811015612e4f578151612e368882612dc8565b9750612e418361349b565b925050600181019050612e22565b5085935050505092915050565b612e6581613597565b82525050565b6000612e7682613490565b612e8081856134b9565b9350612e9081856020860161360c565b612e9981613825565b840191505092915050565b6000612eb1600e836134b9565b9150612ebc82613836565b602082019050919050565b6000612ed46026836134b9565b9150612edf8261385f565b604082019050919050565b6000612ef7602b836134b9565b9150612f02826138ae565b604082019050919050565b6000612f1a6004836134b9565b9150612f25826138fd565b602082019050919050565b6000612f3d6016836134b9565b9150612f4882613926565b602082019050919050565b6000612f606020836134b9565b9150612f6b8261394f565b602082019050919050565b6000612f836018836134b9565b9150612f8e82613978565b602082019050919050565b6000612fa66020836134b9565b9150612fb1826139a1565b602082019050919050565b6000612fc96015836134b9565b9150612fd4826139ca565b602082019050919050565b6000612fec601e836134b9565b9150612ff7826139f3565b602082019050919050565b600061300f600b836134b9565b915061301a82613a1c565b602082019050919050565b61302e816135a3565b82525050565b61303d816135df565b82525050565b61304c816135e9565b82525050565b60006020820190506130676000830184612def565b92915050565b600060a0820190506130826000830188612def565b61308f6020830187612def565b61309c6040830186613025565b6130a96060830185613043565b6130b66080830184613034565b9695505050505050565b60006060820190506130d56000830186612def565b6130e26020830185612def565b6130ef6040830184613034565b949350505050565b600060608201905061310c6000830186612def565b6131196020830185613043565b6131266040830184613034565b949350505050565b60006080820190506131436000830187612def565b6131506020830186613043565b61315d6040830185613034565b818103606083015261316f8184612e6b565b905095945050505050565b600060208201905081810360008301526131948184612dfe565b905092915050565b60006020820190506131b16000830184612e5c565b92915050565b600060208201905081810360008301526131d18184612e6b565b905092915050565b600060c08201905081810360008301526131f38189612e6b565b90506132026020830188612def565b61320f6040830187612def565b61321c6060830186613025565b6132296080830185613025565b61323660a0830184612e5c565b979650505050505050565b6000602082019050818103600083015261325a81612ea4565b9050919050565b6000602082019050818103600083015261327a81612ec7565b9050919050565b6000602082019050818103600083015261329a81612eea565b9050919050565b600060208201905081810360008301526132ba81612f0d565b9050919050565b600060208201905081810360008301526132da81612f30565b9050919050565b600060208201905081810360008301526132fa81612f53565b9050919050565b6000602082019050818103600083015261331a81612f76565b9050919050565b6000602082019050818103600083015261333a81612f99565b9050919050565b6000602082019050818103600083015261335a81612fbc565b9050919050565b6000602082019050818103600083015261337a81612fdf565b9050919050565b6000602082019050818103600083015261339a81613002565b9050919050565b60006060820190506133b66000830186613034565b6133c36020830185613034565b6133d06040830184612e5c565b949350505050565b60006020820190506133ed6000830184613043565b92915050565b60006133fd61340e565b90506134098282613671565b919050565b6000604051905090565b600067ffffffffffffffff821115613433576134326137d8565b5b602082029050602081019050919050565b600067ffffffffffffffff82111561345f5761345e6137d8565b5b61346882613825565b9050602081019050919050565b6000819050602082019050919050565b600081519050919050565b600081519050919050565b6000602082019050919050565b600082825260208201905092915050565b600082825260208201905092915050565b60006134d5826135df565b91506134e0836135df565b9250827fffffffffffffffffffffffffffffffffffffffffffffffffffffffffffffffff038211156135155761351461371c565b5b828201905092915050565b600061352b826135a3565b9150613536836135a3565b9250826135465761354561374b565b5b828204905092915050565b600061355c826135df565b9150613567836135df565b92508282101561357a5761357961371c565b5b828203905092915050565b6000613590826135bf565b9050919050565b60008115159050919050565b60006fffffffffffffffffffffffffffffffff82169050919050565b600073ffffffffffffffffffffffffffffffffffffffff82169050919050565b6000819050919050565b600067ffffffffffffffff82169050919050565b82818337600083830152505050565b60005b8381101561362a57808201518184015260208101905061360f565b83811115613639576000848401525b50505050565b6000600282049050600182168061365757607f821691505b6020821081141561366b5761366a61377a565b5b50919050565b61367a82613825565b810181811067ffffffffffffffff82111715613699576136986137d8565b5b80604052505050565b60006136ad826135df565b91507fffffffffffffffffffffffffffffffffffffffffffffffffffffffffffffffff8214156136e0576136df61371c565b5b600182019050919050565b60006136f6826135e9565b915067ffffffffffffffff8214156137115761371061371c565b5b600182019050919050565b7f4e487b7100000000000000000000000000000000000000000000000000000000600052601160045260246000fd5b7f4e487b7100000000000000000000000000000000000000000000000000000000600052601260045260246000fd5b7f4e487b7100000000000000000000000000000000000000000000000000000000600052602260045260246000fd5b7f4e487b7100000000000000000000000000000000000000000000000000000000600052603260045260246000fd5b7f4e487b7100000000000000000000000000000000000000000000000000000000600052604160045260246000fd5b600080fd5b600080fd5b600080fd5b600080fd5b600080fd5b600080fd5b6000601f19601f8301169050919050565b7f706c616e2069732068616c746564000000000000000000000000000000000000600082015250565b7f4f776e61626c653a206e6577206f776e657220697320746865207a65726f206160008201527f6464726573730000000000000000000000000000000000000000000000000000602082015250565b7f6672657175656e6379206e6565647320746f206265206772656174657220746860008201527f656e20323420686f757273000000000000000000000000000000000000000000602082015250565b7f4875683f00000000000000000000000000000000000000000000000000000000600082015250565b7f616d6f756e74206e6565647320746f206265203e203000000000000000000000600082015250565b7f7468697320737562736372697074696f6e20646f6573206e6f74206578697374600082015250565b7f7468697320706c616e20646f6573206e6f742065786973740000000000000000600082015250565b7f4f776e61626c653a2063616c6c6572206973206e6f7420746865206f776e6572600082015250565b7f636f6e74726163742069732073757370656e6465640000000000000000000000600082015250565b7f616464726573732063616e6e6f74206265206e756c6c20616464726573730000600082015250565b7f6e6f742064756520796574000000000000000000000000000000000000000000600082015250565b613a4e81613585565b8114613a5957600080fd5b50565b613a6581613597565b8114613a7057600080fd5b50565b613a7c816135a3565b8114613a8757600080fd5b50565b613a93816135df565b8114613a9e57600080fd5b50565b613aaa816135e9565b8114613ab557600080fd5b5056fe696e737566666963656e742066756e64732c20737562736372697074696f6e2064656c65746564596f752063616e6e6f742073746f7020737562736372697074696f6e2061667465722066756e647320617265206f7765642c20737562736372697074696f6e2064656c657465644f776e65722f4f70657261746f722044656c6574656420537562736372697074696f6e706173742064756520262073746f707065642c20737562736372697074696f6e2064656c65746564a26469706673582212209d743258f0bf27adc0ea6227eafcf0ba2f63f48b3b87d5e983608e44afb2b1d464736f6c63430008060033a26469706673582212200e6d02c04ee952ab0f1ad838c87973d67aa3e8db0b9d804220c80bfca73f959e64736f6c63430008060033",
  "immutableReferences": {},
  "source": "// SPDX-License-Identifier: Business Source License 1.1\npragma solidity ^0.8.6;\n\nimport \"@openzeppelin/contracts/token/ERC20/IERC20.sol\";\nimport \"@openzeppelin/contracts/access/Ownable.sol\";\nimport \"./SubscribeeV1.sol\";\n\ncontract BeehiveV1 is Ownable {\n\n  mapping(string => contractInfo) public slugs;\n  uint256 public Adminfund;\n  uint256 public Deployfee;\n  uint256 public Slugfee;\n  bool public Frozen = false;\n\n  event NewContract(\n    address newSubscribeeContract,\n    uint timeDeployed\n  );\n\n\n  event slugChanged(\n    address contractAddress,\n    uint timeDeployed,\n    string oldSlug,\n    string newSlug\n  );\n\n  struct contractInfo {\n    address contractAddress;\n    uint timeDeployed;\n  }\n\n  constructor(uint fee, uint slugfee){\n    Deployfee = fee;\n    Slugfee = slugfee;\n  }\n\n  function toggleFreeze() external onlyOwner{\n    if(Frozen == false){\n      Frozen = true;\n    }else{\n      Frozen = false;\n    }\n  }\n\n  function getDeployFee() external view returns(uint) {\n    return Deployfee;\n  }\n\n  function setDeployFee(uint fee) external onlyOwner{\n    Deployfee = fee;\n  }\n\n\n  function getDeployFeeFunds(address toAddress) external onlyOwner{\n    payable(toAddress).transfer(Adminfund);\n    Adminfund = 0;\n  }\n\n  function getERC20Funds(address toAddress, address tokenAddress) external onlyOwner {\n    IERC20 token = IERC20(tokenAddress);\n    uint256 tokenAmount = token.balanceOf(address(this));\n    token.transferFrom(address(this), toAddress, tokenAmount);\n  }\n\n\n  function changeSlug(string memory oldslug, string memory newslug) external payable{\n    SubscribeeV1 subscribeeContract = SubscribeeV1(slugs[oldslug].contractAddress);\n    uint timeCreated = slugs[oldslug].timeDeployed;\n    require(!Frozen, 'Beehive is currently frozen...');\n    require(subscribeeContract.owner() == msg.sender, 'Only the Owner of the contract can do this');\n    require(slugs[newslug].contractAddress == address(0), 'Slug has been taken');\n    require(msg.value == Slugfee, 'Please pay the appropiate amount...');\n\n    Adminfund += msg.value;\n    slugs[newslug] = contractInfo(slugs[oldslug].contractAddress, timeCreated);\n    emit slugChanged(slugs[oldslug].contractAddress, timeCreated, oldslug, newslug);\n    delete slugs[oldslug];\n  }\n\n\n  function deploySubscribeeContract(address operatorAddress, string memory title, string memory slug, string memory image) external payable{\n    require(slugs[slug].contractAddress == address(0), 'Slug has been taken');\n    require(!Frozen, 'Beehive is currently frozen...');\n    require(msg.value == Deployfee, 'Please pay the appropiate amount...');\n\n    Adminfund += msg.value;\n\n    SubscribeeV1 subscribeeContract = new SubscribeeV1(address(this), operatorAddress, title, slug, image);\n    subscribeeContract.transferOwnership(msg.sender);\n\n\n    address subscribeeContractAddress = address(subscribeeContract);\n    slugs[slug] = contractInfo(subscribeeContractAddress, block.timestamp);\n\n    emit NewContract(subscribeeContractAddress, block.timestamp);\n    return;\n  }\n\n\n\n}\n",
  "sourcePath": "/home/lavandor9/contracts/subscribee-official/contracts/BeehiveV1.sol",
  "compiler": {
    "name": "solc",
    "version": "0.8.6+commit.11564f7e.Emscripten.clang"
  },
  "schemaVersion": "3.4.1",
  "updatedAt": "2022-03-23T16:57:06.696Z",
  "devdoc": {
    "kind": "dev",
    "methods": {
      "owner()": {
        "details": "Returns the address of the current owner."
      },
      "renounceOwnership()": {
        "details": "Leaves the contract without owner. It will not be possible to call `onlyOwner` functions anymore. Can only be called by the current owner. NOTE: Renouncing ownership will leave the contract without an owner, thereby removing any functionality that is only available to the owner."
      },
      "transferOwnership(address)": {
        "details": "Transfers ownership of the contract to a new account (`newOwner`). Can only be called by the current owner."
      }
    },
    "version": 1
  },
  "userdoc": {
    "kind": "user",
    "methods": {},
    "version": 1
  }
}