{
  "contractName": "BeehiveV1",
  "abi": [
    {
      "inputs": [
        {
          "internalType": "address",
          "name": "honeyJarAddress",
          "type": "address"
        },
        {
          "internalType": "uint256",
          "name": "deployfee",
          "type": "uint256"
        },
        {
          "internalType": "uint256",
          "name": "slugfee",
          "type": "uint256"
        }
      ],
      "stateMutability": "nonpayable",
      "type": "constructor"
    },
    {
      "anonymous": false,
      "inputs": [
        {
          "indexed": false,
          "internalType": "address",
          "name": "contractAddress",
          "type": "address"
        },
        {
          "indexed": false,
          "internalType": "string",
          "name": "slug",
          "type": "string"
        },
        {
          "indexed": false,
          "internalType": "uint256",
          "name": "time",
          "type": "uint256"
        }
      ],
      "name": "NewContract",
      "type": "event"
    },
    {
      "anonymous": false,
      "inputs": [
        {
          "indexed": true,
          "internalType": "address",
          "name": "previousOwner",
          "type": "address"
        },
        {
          "indexed": true,
          "internalType": "address",
          "name": "newOwner",
          "type": "address"
        }
      ],
      "name": "OwnershipTransferred",
      "type": "event"
    },
    {
      "anonymous": false,
      "inputs": [
        {
          "indexed": false,
          "internalType": "address",
          "name": "toAddress",
          "type": "address"
        },
        {
          "indexed": false,
          "internalType": "uint256",
          "name": "amount",
          "type": "uint256"
        },
        {
          "indexed": false,
          "internalType": "uint256",
          "name": "time",
          "type": "uint256"
        }
      ],
      "name": "adminFundsCollected",
      "type": "event"
    },
    {
      "anonymous": false,
      "inputs": [
        {
          "indexed": false,
          "internalType": "string",
          "name": "token",
          "type": "string"
        },
        {
          "indexed": false,
          "internalType": "uint256",
          "name": "tokenAmount",
          "type": "uint256"
        },
        {
          "indexed": false,
          "internalType": "uint256",
          "name": "time",
          "type": "uint256"
        }
      ],
      "name": "honeySent",
      "type": "event"
    },
    {
      "anonymous": false,
      "inputs": [
        {
          "indexed": false,
          "internalType": "address",
          "name": "contractAddress",
          "type": "address"
        },
        {
          "indexed": false,
          "internalType": "string",
          "name": "oldSlug",
          "type": "string"
        },
        {
          "indexed": false,
          "internalType": "string",
          "name": "newSlug",
          "type": "string"
        }
      ],
      "name": "slugChanged",
      "type": "event"
    },
    {
      "inputs": [],
      "name": "adminFund",
      "outputs": [
        {
          "internalType": "uint256",
          "name": "",
          "type": "uint256"
        }
      ],
      "stateMutability": "view",
      "type": "function"
    },
    {
      "inputs": [],
      "name": "deployFee",
      "outputs": [
        {
          "internalType": "uint256",
          "name": "",
          "type": "uint256"
        }
      ],
      "stateMutability": "view",
      "type": "function"
    },
    {
      "inputs": [],
      "name": "honeyJar",
      "outputs": [
        {
          "internalType": "address",
          "name": "",
          "type": "address"
        }
      ],
      "stateMutability": "view",
      "type": "function"
    },
    {
      "inputs": [],
      "name": "owner",
      "outputs": [
        {
          "internalType": "address",
          "name": "",
          "type": "address"
        }
      ],
      "stateMutability": "view",
      "type": "function"
    },
    {
      "inputs": [],
      "name": "renounceOwnership",
      "outputs": [],
      "stateMutability": "nonpayable",
      "type": "function"
    },
    {
      "inputs": [],
      "name": "slugFee",
      "outputs": [
        {
          "internalType": "uint256",
          "name": "",
          "type": "uint256"
        }
      ],
      "stateMutability": "view",
      "type": "function"
    },
    {
      "inputs": [
        {
          "internalType": "string",
          "name": "",
          "type": "string"
        }
      ],
      "name": "slugs",
      "outputs": [
        {
          "internalType": "address",
          "name": "",
          "type": "address"
        }
      ],
      "stateMutability": "view",
      "type": "function"
    },
    {
      "inputs": [
        {
          "internalType": "address",
          "name": "newOwner",
          "type": "address"
        }
      ],
      "name": "transferOwnership",
      "outputs": [],
      "stateMutability": "nonpayable",
      "type": "function"
    },
    {
      "inputs": [
        {
          "internalType": "address",
          "name": "",
          "type": "address"
        }
      ],
      "name": "verifiedSubscribeeContract",
      "outputs": [
        {
          "internalType": "bool",
          "name": "",
          "type": "bool"
        }
      ],
      "stateMutability": "view",
      "type": "function"
    },
    {
      "inputs": [
        {
          "internalType": "address",
          "name": "tokenAddress",
          "type": "address"
        }
      ],
      "name": "harvestHoney",
      "outputs": [],
      "stateMutability": "nonpayable",
      "type": "function"
    },
    {
      "inputs": [
        {
          "internalType": "uint256",
          "name": "deployfee",
          "type": "uint256"
        },
        {
          "internalType": "uint256",
          "name": "slugfee",
          "type": "uint256"
        }
      ],
      "name": "setAdminFees",
      "outputs": [],
      "stateMutability": "nonpayable",
      "type": "function"
    },
    {
      "inputs": [
        {
          "internalType": "address",
          "name": "toAddress",
          "type": "address"
        }
      ],
      "name": "collectAdminFees",
      "outputs": [],
      "stateMutability": "nonpayable",
      "type": "function"
    },
    {
      "inputs": [
        {
          "internalType": "string",
          "name": "oldslug",
          "type": "string"
        },
        {
          "internalType": "string",
          "name": "newslug",
          "type": "string"
        }
      ],
      "name": "changeSlug",
      "outputs": [],
      "stateMutability": "payable",
      "type": "function"
    },
    {
      "inputs": [
        {
          "internalType": "address",
          "name": "operatorAddress",
          "type": "address"
        },
        {
          "internalType": "string",
          "name": "title",
          "type": "string"
        },
        {
          "internalType": "string",
          "name": "slug",
          "type": "string"
        },
        {
          "internalType": "string",
          "name": "image",
          "type": "string"
        }
      ],
      "name": "deploySubscribeeContract",
      "outputs": [],
      "stateMutability": "payable",
      "type": "function"
    }
  ],
  "bytecode": "0x60806040523480156200001157600080fd5b5060405162005dec38038062005dec833981810160405281019062000037919062000220565b620000576200004b620000af60201b60201c565b620000b760201b60201c565b82600360006101000a81548173ffffffffffffffffffffffffffffffffffffffff021916908373ffffffffffffffffffffffffffffffffffffffff16021790555081600581905550806006819055505050506200027c565b600033905090565b60008060009054906101000a900473ffffffffffffffffffffffffffffffffffffffff169050816000806101000a81548173ffffffffffffffffffffffffffffffffffffffff021916908373ffffffffffffffffffffffffffffffffffffffff1602179055508173ffffffffffffffffffffffffffffffffffffffff168173ffffffffffffffffffffffffffffffffffffffff167f8be0079c531659141344cd1fd0a4f28419497f9722a3daafe3b4186f6b6457e060405160405180910390a35050565b600080fd5b600073ffffffffffffffffffffffffffffffffffffffff82169050919050565b6000620001ad8262000180565b9050919050565b620001bf81620001a0565b8114620001cb57600080fd5b50565b600081519050620001df81620001b4565b92915050565b6000819050919050565b620001fa81620001e5565b81146200020657600080fd5b50565b6000815190506200021a81620001ef565b92915050565b6000806000606084860312156200023c576200023b6200017b565b5b60006200024c86828701620001ce565b93505060206200025f8682870162000209565b9250506040620002728682870162000209565b9150509250925092565b615b60806200028c6000396000f3fe608060405260043610620000f25760003560e01c80638da5cb5b116200008b578063c350208a1162000061578063c350208a14620002bf578063e77d31fb1462000303578063eb2a5d2c1462000323578063f2fde38b146200035357620000f2565b80638da5cb5b146200022b578063a68214c1146200025b578063af180825146200027b57620000f2565b80632c064cd411620000cd5780632c064cd414620001855780632db3a0f114620001b3578063479cb11b14620001e3578063715018a6146200021157620000f2565b80631bf9309014620000f75780631c7c73261462000125578063299f43e21462000155575b600080fd5b3480156200010457600080fd5b506200012360048036038101906200011d9190620011f4565b62000381565b005b3480156200013257600080fd5b506200013d62000498565b6040516200014c919062001237565b60405180910390f35b3480156200016257600080fd5b506200016d620004be565b6040516200017c91906200126f565b60405180910390f35b3480156200019257600080fd5b50620001b16004803603810190620001ab9190620011f4565b620004c4565b005b348015620001c057600080fd5b50620001cb620006e3565b604051620001da91906200126f565b60405180910390f35b348015620001f057600080fd5b506200020f6004803603810190620002099190620012bd565b620006e9565b005b3480156200021e57600080fd5b50620002296200077e565b005b3480156200023857600080fd5b50620002436200080f565b60405162000252919062001237565b60405180910390f35b62000279600480360381019062000273919062001466565b62000838565b005b3480156200028857600080fd5b50620002a76004803603810190620002a19190620011f4565b62000b3f565b604051620002b6919062001552565b60405180910390f35b348015620002cc57600080fd5b50620002eb6004803603810190620002e591906200156f565b62000b5f565b604051620002fa919062001237565b60405180910390f35b6200032160048036038101906200031b9190620015c0565b62000ba8565b005b3480156200033057600080fd5b506200033b62000f97565b6040516200034a91906200126f565b60405180910390f35b3480156200036057600080fd5b506200037f6004803603810190620003799190620011f4565b62000f9d565b005b6200038b620010a1565b73ffffffffffffffffffffffffffffffffffffffff16620003ab6200080f565b73ffffffffffffffffffffffffffffffffffffffff161462000404576040517f08c379a0000000000000000000000000000000000000000000000000000000008152600401620003fb90620016a6565b60405180910390fd5b8073ffffffffffffffffffffffffffffffffffffffff166108fc6004549081150290604051600060405180830381858888f193505050501580156200044d573d6000803e3d6000fd5b507fce87565d00552926c1815eec93d6c0a6210efc4f2c209dd5cf944d343289721e81600454426040516200048593929190620016c8565b60405180910390a1600060048190555050565b600360009054906101000a900473ffffffffffffffffffffffffffffffffffffffff1681565b60045481565b600081905060008173ffffffffffffffffffffffffffffffffffffffff166370a08231306040518263ffffffff1660e01b815260040162000506919062001237565b60206040518083038186803b1580156200051f57600080fd5b505afa15801562000534573d6000803e3d6000fd5b505050506040513d601f19601f820116820180604052508101906200055a91906200171c565b90508173ffffffffffffffffffffffffffffffffffffffff1663a9059cbb600360009054906101000a900473ffffffffffffffffffffffffffffffffffffffff16836040518363ffffffff1660e01b8152600401620005bb9291906200174e565b602060405180830381600087803b158015620005d657600080fd5b505af1158015620005eb573d6000803e3d6000fd5b505050506040513d601f19601f82011682018060405250810190620006119190620017ac565b6200061b57600080fd5b7f9dce9d05b45624cea67380740d0ee7bda37a06fd1211c7956e47b1b01cc715e78273ffffffffffffffffffffffffffffffffffffffff166306fdde036040518163ffffffff1660e01b815260040160006040518083038186803b1580156200068357600080fd5b505afa15801562000698573d6000803e3d6000fd5b505050506040513d6000823e3d601f19601f82011682018060405250810190620006c3919062001892565b8242604051620006d6939291906200192f565b60405180910390a1505050565b60065481565b620006f3620010a1565b73ffffffffffffffffffffffffffffffffffffffff16620007136200080f565b73ffffffffffffffffffffffffffffffffffffffff16146200076c576040517f08c379a00000000000000000000000000000000000000000000000000000000081526004016200076390620016a6565b60405180910390fd5b81600581905550806006819055505050565b62000788620010a1565b73ffffffffffffffffffffffffffffffffffffffff16620007a86200080f565b73ffffffffffffffffffffffffffffffffffffffff161462000801576040517f08c379a0000000000000000000000000000000000000000000000000000000008152600401620007f890620016a6565b60405180910390fd5b6200080d6000620010a9565b565b60008060009054906101000a900473ffffffffffffffffffffffffffffffffffffffff16905090565b600073ffffffffffffffffffffffffffffffffffffffff16600183604051620008629190620019b5565b908152602001604051809103902060009054906101000a900473ffffffffffffffffffffffffffffffffffffffff1673ffffffffffffffffffffffffffffffffffffffff1614620008ea576040517f08c379a0000000000000000000000000000000000000000000000000000000008152600401620008e19062001a1e565b60405180910390fd5b6005543414806200092f5750620009006200080f565b73ffffffffffffffffffffffffffffffffffffffff163373ffffffffffffffffffffffffffffffffffffffff16145b62000971576040517f08c379a0000000000000000000000000000000000000000000000000000000008152600401620009689062001ab6565b60405180910390fd5b346004600082825462000985919062001b07565b92505081905550600030858584604051620009a0906200116d565b620009af949392919062001b64565b604051809103906000f080158015620009cc573d6000803e3d6000fd5b5090508073ffffffffffffffffffffffffffffffffffffffff1663f2fde38b336040518263ffffffff1660e01b815260040162000a0a919062001237565b600060405180830381600087803b15801562000a2557600080fd5b505af115801562000a3a573d6000803e3d6000fd5b5050505060008190508060018560405162000a569190620019b5565b908152602001604051809103902060006101000a81548173ffffffffffffffffffffffffffffffffffffffff021916908373ffffffffffffffffffffffffffffffffffffffff1602179055506001600260008373ffffffffffffffffffffffffffffffffffffffff1673ffffffffffffffffffffffffffffffffffffffff16815260200190815260200160002060006101000a81548160ff0219169083151502179055507f9b090710278fa2048c6c0e8366ecb399bef2d1a345462964d8f7f84a1d5171b281854260405162000b2f9392919062001bbf565b60405180910390a1505050505050565b60026020528060005260406000206000915054906101000a900460ff1681565b6001818051602081018201805184825260208301602085012081835280955050505050506000915054906101000a900473ffffffffffffffffffffffffffffffffffffffff1681565b600060018360405162000bbc9190620019b5565b908152602001604051809103902060009054906101000a900473ffffffffffffffffffffffffffffffffffffffff1690503373ffffffffffffffffffffffffffffffffffffffff168173ffffffffffffffffffffffffffffffffffffffff16638da5cb5b6040518163ffffffff1660e01b815260040160206040518083038186803b15801562000c4b57600080fd5b505afa15801562000c60573d6000803e3d6000fd5b505050506040513d601f19601f8201168201806040525081019062000c86919062001c1a565b73ffffffffffffffffffffffffffffffffffffffff161462000cdf576040517f08c379a000000000000000000000000000000000000000000000000000000000815260040162000cd69062001cc2565b60405180910390fd5b600073ffffffffffffffffffffffffffffffffffffffff1660018360405162000d099190620019b5565b908152602001604051809103902060009054906101000a900473ffffffffffffffffffffffffffffffffffffffff1673ffffffffffffffffffffffffffffffffffffffff161462000d91576040517f08c379a000000000000000000000000000000000000000000000000000000000815260040162000d889062001a1e565b60405180910390fd5b60065434148062000dd6575062000da76200080f565b73ffffffffffffffffffffffffffffffffffffffff163373ffffffffffffffffffffffffffffffffffffffff16145b62000e18576040517f08c379a000000000000000000000000000000000000000000000000000000000815260040162000e0f9062001ab6565b60405180910390fd5b346004600082825462000e2c919062001b07565b9250508190555060018360405162000e459190620019b5565b908152602001604051809103902060009054906101000a900473ffffffffffffffffffffffffffffffffffffffff1660018360405162000e869190620019b5565b908152602001604051809103902060006101000a81548173ffffffffffffffffffffffffffffffffffffffff021916908373ffffffffffffffffffffffffffffffffffffffff1602179055507f6a44563d0ddf71fd8c29b19a035b27624bd3e5d8642d5216f9a7126efa1c4b5d60018460405162000f059190620019b5565b908152602001604051809103902060009054906101000a900473ffffffffffffffffffffffffffffffffffffffff16848460405162000f479392919062001ce4565b60405180910390a160018360405162000f619190620019b5565b908152602001604051809103902060006101000a81549073ffffffffffffffffffffffffffffffffffffffff0219169055505050565b60055481565b62000fa7620010a1565b73ffffffffffffffffffffffffffffffffffffffff1662000fc76200080f565b73ffffffffffffffffffffffffffffffffffffffff161462001020576040517f08c379a00000000000000000000000000000000000000000000000000000000081526004016200101790620016a6565b60405180910390fd5b600073ffffffffffffffffffffffffffffffffffffffff168173ffffffffffffffffffffffffffffffffffffffff16141562001093576040517f08c379a00000000000000000000000000000000000000000000000000000000081526004016200108a9062001da5565b60405180910390fd5b6200109e81620010a9565b50565b600033905090565b60008060009054906101000a900473ffffffffffffffffffffffffffffffffffffffff169050816000806101000a81548173ffffffffffffffffffffffffffffffffffffffff021916908373ffffffffffffffffffffffffffffffffffffffff1602179055508173ffffffffffffffffffffffffffffffffffffffff168173ffffffffffffffffffffffffffffffffffffffff167f8be0079c531659141344cd1fd0a4f28419497f9722a3daafe3b4186f6b6457e060405160405180910390a35050565b613d638062001dc883390190565b6000604051905090565b600080fd5b600080fd5b600073ffffffffffffffffffffffffffffffffffffffff82169050919050565b6000620011bc826200118f565b9050919050565b620011ce81620011af565b8114620011da57600080fd5b50565b600081359050620011ee81620011c3565b92915050565b6000602082840312156200120d576200120c62001185565b5b60006200121d84828501620011dd565b91505092915050565b6200123181620011af565b82525050565b60006020820190506200124e600083018462001226565b92915050565b6000819050919050565b620012698162001254565b82525050565b60006020820190506200128660008301846200125e565b92915050565b620012978162001254565b8114620012a357600080fd5b50565b600081359050620012b7816200128c565b92915050565b60008060408385031215620012d757620012d662001185565b5b6000620012e785828601620012a6565b9250506020620012fa85828601620012a6565b9150509250929050565b600080fd5b600080fd5b6000601f19601f8301169050919050565b7f4e487b7100000000000000000000000000000000000000000000000000000000600052604160045260246000fd5b62001359826200130e565b810181811067ffffffffffffffff821117156200137b576200137a6200131f565b5b80604052505050565b6000620013906200117b565b90506200139e82826200134e565b919050565b600067ffffffffffffffff821115620013c157620013c06200131f565b5b620013cc826200130e565b9050602081019050919050565b82818337600083830152505050565b6000620013ff620013f984620013a3565b62001384565b9050828152602081018484840111156200141e576200141d62001309565b5b6200142b848285620013d9565b509392505050565b600082601f8301126200144b576200144a62001304565b5b81356200145d848260208601620013e8565b91505092915050565b6000806000806080858703121562001483576200148262001185565b5b60006200149387828801620011dd565b945050602085013567ffffffffffffffff811115620014b757620014b66200118a565b5b620014c58782880162001433565b935050604085013567ffffffffffffffff811115620014e957620014e86200118a565b5b620014f78782880162001433565b925050606085013567ffffffffffffffff8111156200151b576200151a6200118a565b5b620015298782880162001433565b91505092959194509250565b60008115159050919050565b6200154c8162001535565b82525050565b600060208201905062001569600083018462001541565b92915050565b60006020828403121562001588576200158762001185565b5b600082013567ffffffffffffffff811115620015a957620015a86200118a565b5b620015b78482850162001433565b91505092915050565b60008060408385031215620015da57620015d962001185565b5b600083013567ffffffffffffffff811115620015fb57620015fa6200118a565b5b620016098582860162001433565b925050602083013567ffffffffffffffff8111156200162d576200162c6200118a565b5b6200163b8582860162001433565b9150509250929050565b600082825260208201905092915050565b7f4f776e61626c653a2063616c6c6572206973206e6f7420746865206f776e6572600082015250565b60006200168e60208362001645565b91506200169b8262001656565b602082019050919050565b60006020820190508181036000830152620016c1816200167f565b9050919050565b6000606082019050620016df600083018662001226565b620016ee60208301856200125e565b620016fd60408301846200125e565b949350505050565b60008151905062001716816200128c565b92915050565b60006020828403121562001735576200173462001185565b5b6000620017458482850162001705565b91505092915050565b600060408201905062001765600083018562001226565b6200177460208301846200125e565b9392505050565b620017868162001535565b81146200179257600080fd5b50565b600081519050620017a6816200177b565b92915050565b600060208284031215620017c557620017c462001185565b5b6000620017d58482850162001795565b91505092915050565b60005b83811015620017fe578082015181840152602081019050620017e1565b838111156200180e576000848401525b50505050565b60006200182b6200182584620013a3565b62001384565b9050828152602081018484840111156200184a576200184962001309565b5b62001857848285620017de565b509392505050565b600082601f83011262001877576200187662001304565b5b81516200188984826020860162001814565b91505092915050565b600060208284031215620018ab57620018aa62001185565b5b600082015167ffffffffffffffff811115620018cc57620018cb6200118a565b5b620018da848285016200185f565b91505092915050565b600081519050919050565b6000620018fb82620018e3565b62001907818562001645565b935062001919818560208601620017de565b62001924816200130e565b840191505092915050565b600060608201905081810360008301526200194b8186620018ee565b90506200195c60208301856200125e565b6200196b60408301846200125e565b949350505050565b600081905092915050565b60006200198b82620018e3565b62001997818562001973565b9350620019a9818560208601620017de565b80840191505092915050565b6000620019c382846200197e565b915081905092915050565b7f536c756720686173206265656e2074616b656e00000000000000000000000000600082015250565b600062001a0660138362001645565b915062001a1382620019ce565b602082019050919050565b6000602082019050818103600083015262001a3981620019f7565b9050919050565b7f506c65617365207061792074686520617070726f706961746520616d6f756e7460008201527f2e2e2e0000000000000000000000000000000000000000000000000000000000602082015250565b600062001a9e60238362001645565b915062001aab8262001a40565b604082019050919050565b6000602082019050818103600083015262001ad18162001a8f565b9050919050565b7f4e487b7100000000000000000000000000000000000000000000000000000000600052601160045260246000fd5b600062001b148262001254565b915062001b218362001254565b9250827fffffffffffffffffffffffffffffffffffffffffffffffffffffffffffffffff0382111562001b595762001b5862001ad8565b5b828201905092915050565b600060808201905062001b7b600083018762001226565b62001b8a602083018662001226565b818103604083015262001b9e8185620018ee565b9050818103606083015262001bb48184620018ee565b905095945050505050565b600060608201905062001bd6600083018662001226565b818103602083015262001bea8185620018ee565b905062001bfb60408301846200125e565b949350505050565b60008151905062001c1481620011c3565b92915050565b60006020828403121562001c335762001c3262001185565b5b600062001c438482850162001c03565b91505092915050565b7f4f6e6c7920746865204f776e6572206f662074686520636f6e7472616374206360008201527f616e20646f207468697300000000000000000000000000000000000000000000602082015250565b600062001caa602a8362001645565b915062001cb78262001c4c565b604082019050919050565b6000602082019050818103600083015262001cdd8162001c9b565b9050919050565b600060608201905062001cfb600083018662001226565b818103602083015262001d0f8185620018ee565b9050818103604083015262001d258184620018ee565b9050949350505050565b7f4f776e61626c653a206e6577206f776e657220697320746865207a65726f206160008201527f6464726573730000000000000000000000000000000000000000000000000000602082015250565b600062001d8d60268362001645565b915062001d9a8262001d2f565b604082019050919050565b6000602082019050818103600083015262001dc08162001d7e565b905091905056fe60806040523480156200001157600080fd5b5060405162003d6338038062003d6383398181016040528101906200003791906200049a565b620000576200004b6200011c60201b60201c565b6200012460201b60201c565b6001808190555083600860006101000a81548173ffffffffffffffffffffffffffffffffffffffff021916908373ffffffffffffffffffffffffffffffffffffffff16021790555082600960006101000a81548173ffffffffffffffffffffffffffffffffffffffff021916908373ffffffffffffffffffffffffffffffffffffffff1602179055508160039080519060200190620000f8929190620001e8565b50806004908051906020019062000111929190620001e8565b5050505050620005af565b600033905090565b60008060009054906101000a900473ffffffffffffffffffffffffffffffffffffffff169050816000806101000a81548173ffffffffffffffffffffffffffffffffffffffff021916908373ffffffffffffffffffffffffffffffffffffffff1602179055508173ffffffffffffffffffffffffffffffffffffffff168173ffffffffffffffffffffffffffffffffffffffff167f8be0079c531659141344cd1fd0a4f28419497f9722a3daafe3b4186f6b6457e060405160405180910390a35050565b828054620001f69062000579565b90600052602060002090601f0160209004810192826200021a576000855562000266565b82601f106200023557805160ff191683800117855562000266565b8280016001018555821562000266579182015b828111156200026557825182559160200191906001019062000248565b5b50905062000275919062000279565b5090565b5b80821115620002945760008160009055506001016200027a565b5090565b6000604051905090565b600080fd5b600080fd5b600073ffffffffffffffffffffffffffffffffffffffff82169050919050565b6000620002d982620002ac565b9050919050565b620002eb81620002cc565b8114620002f757600080fd5b50565b6000815190506200030b81620002e0565b92915050565b600080fd5b600080fd5b6000601f19601f8301169050919050565b7f4e487b7100000000000000000000000000000000000000000000000000000000600052604160045260246000fd5b62000366826200031b565b810181811067ffffffffffffffff821117156200038857620003876200032c565b5b80604052505050565b60006200039d62000298565b9050620003ab82826200035b565b919050565b600067ffffffffffffffff821115620003ce57620003cd6200032c565b5b620003d9826200031b565b9050602081019050919050565b60005b8381101562000406578082015181840152602081019050620003e9565b8381111562000416576000848401525b50505050565b6000620004336200042d84620003b0565b62000391565b90508281526020810184848401111562000452576200045162000316565b5b6200045f848285620003e6565b509392505050565b600082601f8301126200047f576200047e62000311565b5b8151620004918482602086016200041c565b91505092915050565b60008060008060808587031215620004b757620004b6620002a2565b5b6000620004c787828801620002fa565b9450506020620004da87828801620002fa565b935050604085015167ffffffffffffffff811115620004fe57620004fd620002a7565b5b6200050c8782880162000467565b925050606085015167ffffffffffffffff81111562000530576200052f620002a7565b5b6200053e8782880162000467565b91505092959194509250565b7f4e487b7100000000000000000000000000000000000000000000000000000000600052602260045260246000fd5b600060028204905060018216806200059257607f821691505b60208210811415620005a957620005a86200054a565b5b50919050565b6137a480620005bf6000396000f3fe608060405234801561001057600080fd5b50600436106101425760003560e01c8063715018a6116100b857806389c612b31161007c57806389c612b31461032c5780638da5cb5b14610348578063b3ab15fb14610366578063e9cb1faf14610382578063f2fde38b146103b2578063f3ccaac0146103ce57610142565b8063715018a6146102b257806371adb5e6146102bc57806372910be0146102d85780637573f9f5146102f45780637a9978821461031057610142565b8063566c93ab1161010a578063566c93ab146101d7578063570ca735146101f35780635f20b72d146102115780635f8d26b21461022d57806360a31a881461024b5780636be971481461027f57610142565b806316e5fb5b146101475780633395df251461016357806342bd94b01461018157806349c7e6391461019d5780634a79d50c146101b9575b600080fd5b610161600480360381019061015c91906123a9565b6103ec565b005b61016b6103f8565b6040516101789190612417565b60405180910390f35b61019b600480360381019061019691906123a9565b61041e565b005b6101b760048036038101906101b291906123a9565b61042b565b005b6101c1610437565b6040516101ce91906124cb565b60405180910390f35b6101f160048036038101906101ec91906126b6565b6104c5565b005b6101fb61065c565b6040516102089190612417565b60405180910390f35b61022b600480360381019061022691906123a9565b610682565b005b6102356107a0565b604051610242919061270e565b60405180910390f35b610265600480360381019061026091906123a9565b6107b3565b60405161027695949392919061278e565b60405180910390f35b610299600480360381019061029491906127e8565b6108ca565b6040516102a99493929190612841565b60405180910390f35b6102ba610914565b005b6102d660048036038101906102d1919061293b565b61099c565b005b6102f260048036038101906102ed919061293b565b610a32565b005b61030e600480360381019061030991906126b6565b610ac8565b005b61032a600480360381019061032591906123a9565b610c23565b005b610346600480360381019061034191906129dc565b610c66565b005b610350610fdc565b60405161035d9190612417565b60405180910390f35b610380600480360381019061037b9190612a5f565b611005565b005b61039c600480360381019061039791906123a9565b6110c5565b6040516103a99190612b4a565b60405180910390f35b6103cc60048036038101906103c79190612a5f565b611239565b005b6103d6611331565b6040516103e391906124cb565b60405180910390f35b6103f5816113bf565b50565b600860009054906101000a900473ffffffffffffffffffffffffffffffffffffffff1681565b61042833826114b8565b50565b610434816119ed565b50565b6003805461044490612b9b565b80601f016020809104026020016040519081016040528092919081815260200182805461047090612b9b565b80156104bd5780601f10610492576101008083540402835291602001916104bd565b820191906000526020600020905b8154815290600101906020018083116104a057829003601f168201915b505050505081565b600960009054906101000a900473ffffffffffffffffffffffffffffffffffffffff1673ffffffffffffffffffffffffffffffffffffffff163373ffffffffffffffffffffffffffffffffffffffff1614806105535750610524610fdc565b73ffffffffffffffffffffffffffffffffffffffff163373ffffffffffffffffffffffffffffffffffffffff16145b610592576040517f08c379a000000000000000000000000000000000000000000000000000000000815260040161058990612c19565b60405180910390fd5b600260015414156105d8576040517f08c379a00000000000000000000000000000000000000000000000000000000081526004016105cf90612c85565b60405180910390fd5b600260018190555060005b815181101561065157600082828151811061060157610600612ca5565b5b6020026020010151600001519050600083838151811061062457610623612ca5565b5b602002602001015160200151905061063c82826114b8565b5050808061064990612d03565b9150506105e3565b506001808190555050565b600960009054906101000a900473ffffffffffffffffffffffffffffffffffffffff1681565b61068a611f08565b73ffffffffffffffffffffffffffffffffffffffff166106a8610fdc565b73ffffffffffffffffffffffffffffffffffffffff16146106fe576040517f08c379a00000000000000000000000000000000000000000000000000000000081526004016106f590612d98565b60405180910390fd5b600660008260ff1660ff16815260200190815260200160002060020160149054906101000a900460ff1615610767576000600660008360ff1660ff16815260200190815260200160002060020160146101000a81548160ff02191690831515021790555061079d565b6001600660008360ff1660ff16815260200190815260200160002060020160146101000a81548160ff0219169083151502179055505b50565b600260009054906101000a900460ff1681565b60066020528060005260406000206000915090508060000180546107d690612b9b565b80601f016020809104026020016040519081016040528092919081815260200182805461080290612b9b565b801561084f5780601f106108245761010080835404028352916020019161084f565b820191906000526020600020905b81548152906001019060200180831161083257829003601f168201915b5050505050908060010160009054906101000a900473ffffffffffffffffffffffffffffffffffffffff16908060020160009054906101000a90046fffffffffffffffffffffffffffffffff16908060020160109054906101000a900463ffffffff16908060020160149054906101000a900460ff16905085565b6007602052816000526040600020602052806000526040600020600091509150508060000154908060010154908060020160009054906101000a900460ff16908060030154905084565b61091c611f08565b73ffffffffffffffffffffffffffffffffffffffff1661093a610fdc565b73ffffffffffffffffffffffffffffffffffffffff1614610990576040517f08c379a000000000000000000000000000000000000000000000000000000000815260040161098790612d98565b60405180910390fd5b61099a6000611f10565b565b6109a4611f08565b73ffffffffffffffffffffffffffffffffffffffff166109c2610fdc565b73ffffffffffffffffffffffffffffffffffffffff1614610a18576040517f08c379a0000000000000000000000000000000000000000000000000000000008152600401610a0f90612d98565b60405180910390fd5b8060049080519060200190610a2e9291906122b9565b5050565b610a3a611f08565b73ffffffffffffffffffffffffffffffffffffffff16610a58610fdc565b73ffffffffffffffffffffffffffffffffffffffff1614610aae576040517f08c379a0000000000000000000000000000000000000000000000000000000008152600401610aa590612d98565b60405180910390fd5b8060039080519060200190610ac49291906122b9565b5050565b600960009054906101000a900473ffffffffffffffffffffffffffffffffffffffff1673ffffffffffffffffffffffffffffffffffffffff163373ffffffffffffffffffffffffffffffffffffffff161480610b565750610b27610fdc565b73ffffffffffffffffffffffffffffffffffffffff163373ffffffffffffffffffffffffffffffffffffffff16145b610b95576040517f08c379a0000000000000000000000000000000000000000000000000000000008152600401610b8c90612c19565b60405180910390fd5b60005b8151811015610c1f576000828281518110610bb657610bb5612ca5565b5b60200260200101516000015190506000838381518110610bd957610bd8612ca5565b5b6020026020010151602001519050610c0a828260405180606001604052806023815260200161374c60239139611fd4565b50508080610c1790612d03565b915050610b98565b5050565b610c6333826040518060400160405280601a81526020017f557365722044656c6574696e6720537562736372697074696f6e000000000000815250611fd4565b50565b610c6e611f08565b73ffffffffffffffffffffffffffffffffffffffff16610c8c610fdc565b73ffffffffffffffffffffffffffffffffffffffff1614610ce2576040517f08c379a0000000000000000000000000000000000000000000000000000000008152600401610cd990612d98565b60405180910390fd5b600073ffffffffffffffffffffffffffffffffffffffff168373ffffffffffffffffffffffffffffffffffffffff161415610d52576040517f08c379a0000000000000000000000000000000000000000000000000000000008152600401610d4990612e04565b60405180910390fd5b6000826fffffffffffffffffffffffffffffffff1611610da7576040517f08c379a0000000000000000000000000000000000000000000000000000000008152600401610d9e90612e70565b60405180910390fd5b620151808163ffffffff161015610df3576040517f08c379a0000000000000000000000000000000000000000000000000000000008152600401610dea90612f02565b60405180910390fd5b6040518060a001604052808581526020018473ffffffffffffffffffffffffffffffffffffffff168152602001836fffffffffffffffffffffffffffffffff1681526020018263ffffffff1681526020016000151581525060066000600260009054906101000a900460ff1660ff1660ff1681526020019081526020016000206000820151816000019080519060200190610e8f9291906122b9565b5060208201518160010160006101000a81548173ffffffffffffffffffffffffffffffffffffffff021916908373ffffffffffffffffffffffffffffffffffffffff16021790555060408201518160020160006101000a8154816fffffffffffffffffffffffffffffffff02191690836fffffffffffffffffffffffffffffffff16021790555060608201518160020160106101000a81548163ffffffff021916908363ffffffff16021790555060808201518160020160146101000a81548160ff0219169083151502179055509050507f2b2ac0164b2239021e55bc9bad56542210dd43092952070c7ef40280d609ce806003848484604051610f969493929190612ff2565b60405180910390a16002600081819054906101000a900460ff1680929190610fbd9061303e565b91906101000a81548160ff021916908360ff1602179055505050505050565b60008060009054906101000a900473ffffffffffffffffffffffffffffffffffffffff16905090565b61100d611f08565b73ffffffffffffffffffffffffffffffffffffffff1661102b610fdc565b73ffffffffffffffffffffffffffffffffffffffff1614611081576040517f08c379a000000000000000000000000000000000000000000000000000000000815260040161107890612d98565b60405180910390fd5b80600960006101000a81548173ffffffffffffffffffffffffffffffffffffffff021916908373ffffffffffffffffffffffffffffffffffffffff16021790555050565b6060600960009054906101000a900473ffffffffffffffffffffffffffffffffffffffff1673ffffffffffffffffffffffffffffffffffffffff163373ffffffffffffffffffffffffffffffffffffffff1614806111555750611126610fdc565b73ffffffffffffffffffffffffffffffffffffffff163373ffffffffffffffffffffffffffffffffffffffff16145b611194576040517f08c379a000000000000000000000000000000000000000000000000000000000815260040161118b90612c19565b60405180910390fd5b600560008360ff1660ff16815260200190815260200160002080548060200260200160405190810160405280929190818152602001828054801561122d57602002820191906000526020600020905b8160009054906101000a900473ffffffffffffffffffffffffffffffffffffffff1673ffffffffffffffffffffffffffffffffffffffff16815260200190600101908083116111e3575b50505050509050919050565b611241611f08565b73ffffffffffffffffffffffffffffffffffffffff1661125f610fdc565b73ffffffffffffffffffffffffffffffffffffffff16146112b5576040517f08c379a00000000000000000000000000000000000000000000000000000000081526004016112ac90612d98565b60405180910390fd5b600073ffffffffffffffffffffffffffffffffffffffff168173ffffffffffffffffffffffffffffffffffffffff161415611325576040517f08c379a000000000000000000000000000000000000000000000000000000000815260040161131c906130da565b60405180910390fd5b61132e81611f10565b50565b6004805461133e90612b9b565b80601f016020809104026020016040519081016040528092919081815260200182805461136a90612b9b565b80156113b75780601f1061138c576101008083540402835291602001916113b7565b820191906000526020600020905b81548152906001019060200180831161139a57829003601f168201915b505050505081565b6000600760008360ff1660ff16815260200190815260200160002060003373ffffffffffffffffffffffffffffffffffffffff1673ffffffffffffffffffffffffffffffffffffffff1681526020019081526020016000209050600081600001541415611461576040517f08c379a000000000000000000000000000000000000000000000000000000000815260040161145890613146565b60405180910390fd5b428160010154101561149657611490338360405180608001604052806047815260200161370560479139611fd4565b506114b5565b60018160020160006101000a81548160ff021916908315150217905550505b50565b6000600760008360ff1660ff16815260200190815260200160002060008473ffffffffffffffffffffffffffffffffffffffff1673ffffffffffffffffffffffffffffffffffffffff16815260200190815260200160002090506000600660008460ff1660ff168152602001908152602001600020905060008160010160009054906101000a900473ffffffffffffffffffffffffffffffffffffffff169050600060328360020160009054906101000a90046fffffffffffffffffffffffffffffffff166115879190613195565b6fffffffffffffffffffffffffffffffff1690506000818460020160009054906101000a90046fffffffffffffffffffffffffffffffff166fffffffffffffffffffffffffffffffff166115db91906131c6565b9050600085600001541415611625576040517f08c379a000000000000000000000000000000000000000000000000000000000815260040161161c90613146565b60405180910390fd5b8460010154421161166b576040517f08c379a000000000000000000000000000000000000000000000000000000000815260040161166290613246565b60405180910390fd5b8360020160149054906101000a900460ff16156116bd576040517f08c379a00000000000000000000000000000000000000000000000000000000081526004016116b4906132b2565b60405180910390fd5b8460020160009054906101000a900460ff161561170f576040517f08c379a000000000000000000000000000000000000000000000000000000000815260040161170690613344565b60405180910390fd5b8360020160009054906101000a90046fffffffffffffffffffffffffffffffff166fffffffffffffffffffffffffffffffff168373ffffffffffffffffffffffffffffffffffffffff166370a08231896040518263ffffffff1660e01b815260040161177b9190612417565b60206040518083038186803b15801561179357600080fd5b505afa1580156117a7573d6000803e3d6000fd5b505050506040513d601f19601f820116820180604052508101906117cb9190613390565b101561180c576040517f08c379a00000000000000000000000000000000000000000000000000000000081526004016118039061342f565b60405180910390fd5b8273ffffffffffffffffffffffffffffffffffffffff166323b872dd88611831610fdc565b846040518463ffffffff1660e01b81526004016118509392919061344f565b602060405180830381600087803b15801561186a57600080fd5b505af115801561187e573d6000803e3d6000fd5b505050506040513d601f19601f820116820180604052508101906118a291906134b2565b508273ffffffffffffffffffffffffffffffffffffffff166323b872dd88600860009054906101000a900473ffffffffffffffffffffffffffffffffffffffff16856040518463ffffffff1660e01b81526004016119029392919061344f565b602060405180830381600087803b15801561191c57600080fd5b505af1158015611930573d6000803e3d6000fd5b505050506040513d601f19601f8201168201806040525081019061195491906134b2565b508360020160109054906101000a900463ffffffff1663ffffffff16856001015461197f91906134df565b85600101819055507fd9c2a3b5876793c06385d9ba016ce2870a7b27fbba6c5a2c6a34fa888ed4ac0e878560020160009054906101000a90046fffffffffffffffffffffffffffffffff1688426040516119dc9493929190613535565b60405180910390a150505050505050565b6000600660008360ff1660ff1681526020019081526020016000209050600073ffffffffffffffffffffffffffffffffffffffff168160010160009054906101000a900473ffffffffffffffffffffffffffffffffffffffff1673ffffffffffffffffffffffffffffffffffffffff161415611a9e576040517f08c379a0000000000000000000000000000000000000000000000000000000008152600401611a95906135c6565b60405180910390fd5b8060020160149054906101000a900460ff1615611af0576040517f08c379a0000000000000000000000000000000000000000000000000000000008152600401611ae790613632565b60405180910390fd5b60008160010160009054906101000a900473ffffffffffffffffffffffffffffffffffffffff169050600060328360020160009054906101000a90046fffffffffffffffffffffffffffffffff16611b489190613195565b6fffffffffffffffffffffffffffffffff1690506000818460020160009054906101000a90046fffffffffffffffffffffffffffffffff166fffffffffffffffffffffffffffffffff16611b9c91906131c6565b90508273ffffffffffffffffffffffffffffffffffffffff166323b872dd33611bc3610fdc565b846040518463ffffffff1660e01b8152600401611be29392919061344f565b602060405180830381600087803b158015611bfc57600080fd5b505af1158015611c10573d6000803e3d6000fd5b505050506040513d601f19601f82011682018060405250810190611c3491906134b2565b508273ffffffffffffffffffffffffffffffffffffffff166323b872dd33600860009054906101000a900473ffffffffffffffffffffffffffffffffffffffff16856040518463ffffffff1660e01b8152600401611c949392919061344f565b602060405180830381600087803b158015611cae57600080fd5b505af1158015611cc2573d6000803e3d6000fd5b505050506040513d601f19601f82011682018060405250810190611ce691906134b2565b50600560008660ff1660ff168152602001908152602001600020339080600181540180825580915050600190039060005260206000200160009091909190916101000a81548173ffffffffffffffffffffffffffffffffffffffff021916908373ffffffffffffffffffffffffffffffffffffffff16021790555060405180608001604052804281526020018560020160109054906101000a900463ffffffff1663ffffffff1642611d9891906134df565b81526020016000151581526020016001600560008960ff1660ff16815260200190815260200160002080549050611dcf91906131c6565b815250600760008760ff1660ff16815260200190815260200160002060003373ffffffffffffffffffffffffffffffffffffffff1673ffffffffffffffffffffffffffffffffffffffff168152602001908152602001600020600082015181600001556020820151816001015560408201518160020160006101000a81548160ff021916908315150217905550606082015181600301559050507fb32d0ee4f7c649974c4703f12139c6581d4dfc9df7fcbe3ebc75de386319075b338642604051611e9c93929190613652565b60405180910390a17fd9c2a3b5876793c06385d9ba016ce2870a7b27fbba6c5a2c6a34fa888ed4ac0e338560020160009054906101000a90046fffffffffffffffffffffffffffffffff168742604051611ef99493929190613535565b60405180910390a15050505050565b600033905090565b60008060009054906101000a900473ffffffffffffffffffffffffffffffffffffffff169050816000806101000a81548173ffffffffffffffffffffffffffffffffffffffff021916908373ffffffffffffffffffffffffffffffffffffffff1602179055508173ffffffffffffffffffffffffffffffffffffffff168173ffffffffffffffffffffffffffffffffffffffff167f8be0079c531659141344cd1fd0a4f28419497f9722a3daafe3b4186f6b6457e060405160405180910390a35050565b6000600760008460ff1660ff16815260200190815260200160002060008573ffffffffffffffffffffffffffffffffffffffff1673ffffffffffffffffffffffffffffffffffffffff1681526020019081526020016000209050600081600001541415612076576040517f08c379a000000000000000000000000000000000000000000000000000000000815260040161206d90613146565b60405180910390fd5b6000600560008560ff1660ff1681526020019081526020016000209050600082600301549050600082600184805490506120b091906131c6565b815481106120c1576120c0612ca5565b5b9060005260206000200160009054906101000a900473ffffffffffffffffffffffffffffffffffffffff1690508083838154811061210257612101612ca5565b5b9060005260206000200160006101000a81548173ffffffffffffffffffffffffffffffffffffffff021916908373ffffffffffffffffffffffffffffffffffffffff16021790555081600760008860ff1660ff16815260200190815260200160002060008373ffffffffffffffffffffffffffffffffffffffff1673ffffffffffffffffffffffffffffffffffffffff16815260200190815260200160002060030181905550828054806121b9576121b8613689565b5b6001900381819060005260206000200160006101000a81549073ffffffffffffffffffffffffffffffffffffffff02191690559055600760008760ff1660ff16815260200190815260200160002060008873ffffffffffffffffffffffffffffffffffffffff1673ffffffffffffffffffffffffffffffffffffffff16815260200190815260200160002060008082016000905560018201600090556002820160006101000a81549060ff0219169055600382016000905550507fa77c3f0be762e28b92e364efe13b244cfdeb18f5576caaf56d7ad7c6c05fa09e878742886040516122a894939291906136b8565b60405180910390a150505050505050565b8280546122c590612b9b565b90600052602060002090601f0160209004810192826122e7576000855561232e565b82601f1061230057805160ff191683800117855561232e565b8280016001018555821561232e579182015b8281111561232d578251825591602001919060010190612312565b5b50905061233b919061233f565b5090565b5b80821115612358576000816000905550600101612340565b5090565b6000604051905090565b600080fd5b600080fd5b600060ff82169050919050565b61238681612370565b811461239157600080fd5b50565b6000813590506123a38161237d565b92915050565b6000602082840312156123bf576123be612366565b5b60006123cd84828501612394565b91505092915050565b600073ffffffffffffffffffffffffffffffffffffffff82169050919050565b6000612401826123d6565b9050919050565b612411816123f6565b82525050565b600060208201905061242c6000830184612408565b92915050565b600081519050919050565b600082825260208201905092915050565b60005b8381101561246c578082015181840152602081019050612451565b8381111561247b576000848401525b50505050565b6000601f19601f8301169050919050565b600061249d82612432565b6124a7818561243d565b93506124b781856020860161244e565b6124c081612481565b840191505092915050565b600060208201905081810360008301526124e58184612492565b905092915050565b600080fd5b7f4e487b7100000000000000000000000000000000000000000000000000000000600052604160045260246000fd5b61252a82612481565b810181811067ffffffffffffffff82111715612549576125486124f2565b5b80604052505050565b600061255c61235c565b90506125688282612521565b919050565b600067ffffffffffffffff821115612588576125876124f2565b5b602082029050602081019050919050565b600080fd5b600080fd5b6125ac816123f6565b81146125b757600080fd5b50565b6000813590506125c9816125a3565b92915050565b6000604082840312156125e5576125e461259e565b5b6125ef6040612552565b905060006125ff848285016125ba565b600083015250602061261384828501612394565b60208301525092915050565b600061263261262d8461256d565b612552565b9050808382526020820190506040840283018581111561265557612654612599565b5b835b8181101561267e578061266a88826125cf565b845260208401935050604081019050612657565b5050509392505050565b600082601f83011261269d5761269c6124ed565b5b81356126ad84826020860161261f565b91505092915050565b6000602082840312156126cc576126cb612366565b5b600082013567ffffffffffffffff8111156126ea576126e961236b565b5b6126f684828501612688565b91505092915050565b61270881612370565b82525050565b600060208201905061272360008301846126ff565b92915050565b60006fffffffffffffffffffffffffffffffff82169050919050565b61274e81612729565b82525050565b600063ffffffff82169050919050565b61276d81612754565b82525050565b60008115159050919050565b61278881612773565b82525050565b600060a08201905081810360008301526127a88188612492565b90506127b76020830187612408565b6127c46040830186612745565b6127d16060830185612764565b6127de608083018461277f565b9695505050505050565b600080604083850312156127ff576127fe612366565b5b600061280d85828601612394565b925050602061281e858286016125ba565b9150509250929050565b6000819050919050565b61283b81612828565b82525050565b60006080820190506128566000830187612832565b6128636020830186612832565b612870604083018561277f565b61287d6060830184612832565b95945050505050565b600080fd5b600067ffffffffffffffff8211156128a6576128a56124f2565b5b6128af82612481565b9050602081019050919050565b82818337600083830152505050565b60006128de6128d98461288b565b612552565b9050828152602081018484840111156128fa576128f9612886565b5b6129058482856128bc565b509392505050565b600082601f830112612922576129216124ed565b5b81356129328482602086016128cb565b91505092915050565b60006020828403121561295157612950612366565b5b600082013567ffffffffffffffff81111561296f5761296e61236b565b5b61297b8482850161290d565b91505092915050565b61298d81612729565b811461299857600080fd5b50565b6000813590506129aa81612984565b92915050565b6129b981612754565b81146129c457600080fd5b50565b6000813590506129d6816129b0565b92915050565b600080600080608085870312156129f6576129f5612366565b5b600085013567ffffffffffffffff811115612a1457612a1361236b565b5b612a208782880161290d565b9450506020612a31878288016125ba565b9350506040612a428782880161299b565b9250506060612a53878288016129c7565b91505092959194509250565b600060208284031215612a7557612a74612366565b5b6000612a83848285016125ba565b91505092915050565b600081519050919050565b600082825260208201905092915050565b6000819050602082019050919050565b612ac1816123f6565b82525050565b6000612ad38383612ab8565b60208301905092915050565b6000602082019050919050565b6000612af782612a8c565b612b018185612a97565b9350612b0c83612aa8565b8060005b83811015612b3d578151612b248882612ac7565b9750612b2f83612adf565b925050600181019050612b10565b5085935050505092915050565b60006020820190508181036000830152612b648184612aec565b905092915050565b7f4e487b7100000000000000000000000000000000000000000000000000000000600052602260045260246000fd5b60006002820490506001821680612bb357607f821691505b60208210811415612bc757612bc6612b6c565b5b50919050565b7f4875683f00000000000000000000000000000000000000000000000000000000600082015250565b6000612c0360048361243d565b9150612c0e82612bcd565b602082019050919050565b60006020820190508181036000830152612c3281612bf6565b9050919050565b7f5265656e7472616e637947756172643a207265656e7472616e742063616c6c00600082015250565b6000612c6f601f8361243d565b9150612c7a82612c39565b602082019050919050565b60006020820190508181036000830152612c9e81612c62565b9050919050565b7f4e487b7100000000000000000000000000000000000000000000000000000000600052603260045260246000fd5b7f4e487b7100000000000000000000000000000000000000000000000000000000600052601160045260246000fd5b6000612d0e82612828565b91507fffffffffffffffffffffffffffffffffffffffffffffffffffffffffffffffff821415612d4157612d40612cd4565b5b600182019050919050565b7f4f776e61626c653a2063616c6c6572206973206e6f7420746865206f776e6572600082015250565b6000612d8260208361243d565b9150612d8d82612d4c565b602082019050919050565b60006020820190508181036000830152612db181612d75565b9050919050565b7f616464726573732063616e6e6f74206265206e756c6c20616464726573730000600082015250565b6000612dee601e8361243d565b9150612df982612db8565b602082019050919050565b60006020820190508181036000830152612e1d81612de1565b9050919050565b7f616d6f756e74206e6565647320746f206265203e203000000000000000000000600082015250565b6000612e5a60168361243d565b9150612e6582612e24565b602082019050919050565b60006020820190508181036000830152612e8981612e4d565b9050919050565b7f6672657175656e6379206e6565647320746f2062652067726561746572206f7260008201527f20657175616c20746f20323420686f7572730000000000000000000000000000602082015250565b6000612eec60328361243d565b9150612ef782612e90565b604082019050919050565b60006020820190508181036000830152612f1b81612edf565b9050919050565b60008190508160005260206000209050919050565b60008154612f4481612b9b565b612f4e818661243d565b94506001821660008114612f695760018114612f7b57612fae565b60ff1983168652602086019350612fae565b612f8485612f22565b60005b83811015612fa657815481890152600182019150602081019050612f87565b808801955050505b50505092915050565b6000819050919050565b6000612fdc612fd7612fd284612754565b612fb7565b612729565b9050919050565b612fec81612fc1565b82525050565b6000608082019050818103600083015261300c8187612f37565b905061301b6020830186612408565b6130286040830185612745565b6130356060830184612fe3565b95945050505050565b600061304982612370565b915060ff82141561305d5761305c612cd4565b5b600182019050919050565b7f4f776e61626c653a206e6577206f776e657220697320746865207a65726f206160008201527f6464726573730000000000000000000000000000000000000000000000000000602082015250565b60006130c460268361243d565b91506130cf82613068565b604082019050919050565b600060208201905081810360008301526130f3816130b7565b9050919050565b7f7468697320737562736372697074696f6e20646f6573206e6f74206578697374600082015250565b600061313060208361243d565b915061313b826130fa565b602082019050919050565b6000602082019050818103600083015261315f81613123565b9050919050565b7f4e487b7100000000000000000000000000000000000000000000000000000000600052601260045260246000fd5b60006131a082612729565b91506131ab83612729565b9250826131bb576131ba613166565b5b828204905092915050565b60006131d182612828565b91506131dc83612828565b9250828210156131ef576131ee612cd4565b5b828203905092915050565b7f6e6f742064756520796574000000000000000000000000000000000000000000600082015250565b6000613230600b8361243d565b915061323b826131fa565b602082019050919050565b6000602082019050818103600083015261325f81613223565b9050919050565b7f506c616e2069732068616c746564000000000000000000000000000000000000600082015250565b600061329c600e8361243d565b91506132a782613266565b602082019050919050565b600060208201905081810360008301526132cb8161328f565b9050919050565b7f53756273637269626572206f7074656420746f2073746f70207061796d656e7460008201527f733b2064656c65746520737562736372697074696f6e00000000000000000000602082015250565b600061332e60368361243d565b9150613339826132d2565b604082019050919050565b6000602082019050818103600083015261335d81613321565b9050919050565b61336d81612828565b811461337857600080fd5b50565b60008151905061338a81613364565b92915050565b6000602082840312156133a6576133a5612366565b5b60006133b48482850161337b565b91505092915050565b7f537562736372696265722068617320696e737566666963656e742066756e647360008201527f3b2064656c65746520737562736372697074696f6e0000000000000000000000602082015250565b600061341960358361243d565b9150613424826133bd565b604082019050919050565b600060208201905081810360008301526134488161340c565b9050919050565b60006060820190506134646000830186612408565b6134716020830185612408565b61347e6040830184612832565b949350505050565b61348f81612773565b811461349a57600080fd5b50565b6000815190506134ac81613486565b92915050565b6000602082840312156134c8576134c7612366565b5b60006134d68482850161349d565b91505092915050565b60006134ea82612828565b91506134f583612828565b9250827fffffffffffffffffffffffffffffffffffffffffffffffffffffffffffffffff0382111561352a57613529612cd4565b5b828201905092915050565b600060808201905061354a6000830187612408565b6135576020830186612745565b61356460408301856126ff565b6135716060830184612832565b95945050505050565b7f7468697320706c616e20646f6573206e6f742065786973740000000000000000600082015250565b60006135b060188361243d565b91506135bb8261357a565b602082019050919050565b600060208201905081810360008301526135df816135a3565b9050919050565b7f706c616e2069732068616c746564000000000000000000000000000000000000600082015250565b600061361c600e8361243d565b9150613627826135e6565b602082019050919050565b6000602082019050818103600083015261364b8161360f565b9050919050565b60006060820190506136676000830186612408565b61367460208301856126ff565b6136816040830184612832565b949350505050565b7f4e487b7100000000000000000000000000000000000000000000000000000000600052603160045260246000fd5b60006080820190506136cd6000830187612408565b6136da60208301866126ff565b6136e76040830185612832565b81810360608301526136f98184612492565b90509594505050505056fe596f752063616e6e6f742073746f7020737562736372697074696f6e2061667465722066756e647320617265206f7765642c20737562736372697074696f6e2064656c657465644f776e65722f4f70657261746f722044656c6574656420537562736372697074696f6ea264697066735822122050b5b5b576c5b0d4df8747d8aec127fa2fb4fe24891afff2b8ee590e8639344264736f6c63430008080033a26469706673582212209ccf3b510ebc6400faba235aa2660af3805557e5fce0eec2e1341b1dd099062c64736f6c63430008080033",
  "immutableReferences": {},
  "source": "// SPDX-License-Identifier: Business Source License 1.1\npragma solidity ^0.8.8;\n\nimport \"@openzeppelin/contracts/token/ERC20/extensions/IERC20Metadata.sol\";\nimport \"@openzeppelin/contracts/access/Ownable.sol\";\nimport \"./SubscribeeV1.sol\";\n\ncontract BeehiveV1 is Ownable {\n\n  mapping(string => address) public slugs;\n  mapping(address => bool) public verifiedSubscribeeContract;\n\n  address public honeyJar;\n  uint256 public adminFund;\n  uint256 public deployFee;\n  uint256 public slugFee;\n\n  event NewContract(\n    address contractAddress,\n    string slug,\n    uint256 time\n  );\n\n  event slugChanged(\n    address contractAddress,\n    string oldSlug,\n    string newSlug\n  );\n\n  event honeySent(\n    string token,\n    uint256 tokenAmount,\n    uint256 time\n  );\n\n  event adminFundsCollected(\n    address toAddress,\n    uint256 amount,\n    uint256 time\n  );\n\n  constructor(address honeyJarAddress, uint256 deployfee, uint256 slugfee){\n    honeyJar = honeyJarAddress;\n    deployFee = deployfee;\n    slugFee = slugfee;\n  }\n\n  function harvestHoney(address tokenAddress) external {\n    IERC20Metadata token = IERC20Metadata(tokenAddress);\n    uint256 honey = token.balanceOf(address(this));\n    require(token.transfer(honeyJar, honey));\n    emit honeySent(token.name(), honey, block.timestamp);\n  }\n\n  function setAdminFees(uint256 deployfee, uint256 slugfee) external onlyOwner{\n    deployFee = deployfee;\n    slugFee = slugfee;\n  }\n\n  function collectAdminFees(address toAddress) external onlyOwner{\n    payable(toAddress).transfer(adminFund);\n    emit adminFundsCollected(toAddress, adminFund, block.timestamp);\n    adminFund = 0;\n  }\n\n\n  function changeSlug(string memory oldslug, string memory newslug) external payable{\n    SubscribeeV1 subscribeeContract = SubscribeeV1(slugs[oldslug]);\n    require(subscribeeContract.owner() == msg.sender, 'Only the Owner of the contract can do this');\n    require(slugs[newslug] == address(0), 'Slug has been taken');\n    require(msg.value == slugFee || msg.sender == owner(), 'Please pay the appropiate amount...');\n\n    adminFund += msg.value;\n    slugs[newslug] = slugs[oldslug];\n    emit slugChanged(slugs[oldslug], oldslug, newslug);\n    delete slugs[oldslug];\n  }\n\n\n  function deploySubscribeeContract(address operatorAddress, string memory title, string memory slug, string memory image) external payable{\n    require(slugs[slug] == address(0), 'Slug has been taken');\n    require(msg.value == deployFee || msg.sender == owner(), 'Please pay the appropiate amount...');\n\n    adminFund += msg.value;\n\n    SubscribeeV1 newContract = new SubscribeeV1(address(this), operatorAddress, title, image);\n    newContract.transferOwnership(msg.sender);\n\n    address contractAddress = address(newContract);\n    slugs[slug] = contractAddress;\n    verifiedSubscribeeContract[contractAddress] = true;\n\n    emit NewContract(contractAddress, slug, block.timestamp);\n  }\n\n\n\n}\n",
  "sourcePath": "/home/lavandor9/contracts/subscribee-official/contracts/BeehiveV1.sol",
  "compiler": {
    "name": "solc",
    "version": "0.8.8+commit.dddeac2f.Emscripten.clang"
  },
  "schemaVersion": "3.4.1",
  "updatedAt": "2022-05-27T20:38:09.500Z",
  "devdoc": {
    "kind": "dev",
    "methods": {
      "owner()": {
        "details": "Returns the address of the current owner."
      },
      "renounceOwnership()": {
        "details": "Leaves the contract without owner. It will not be possible to call `onlyOwner` functions anymore. Can only be called by the current owner. NOTE: Renouncing ownership will leave the contract without an owner, thereby removing any functionality that is only available to the owner."
      },
      "transferOwnership(address)": {
        "details": "Transfers ownership of the contract to a new account (`newOwner`). Can only be called by the current owner."
      }
    },
    "version": 1
  },
  "userdoc": {
    "kind": "user",
    "methods": {},
    "version": 1
  }
}