{
  "contractName": "BeehiveV1",
  "abi": [
    {
      "inputs": [
        {
          "internalType": "address",
          "name": "honeyPotAddress",
          "type": "address"
        },
        {
          "internalType": "uint256",
          "name": "fee",
          "type": "uint256"
        },
        {
          "internalType": "uint256",
          "name": "slugfee",
          "type": "uint256"
        }
      ],
      "stateMutability": "nonpayable",
      "type": "constructor"
    },
    {
      "anonymous": false,
      "inputs": [
        {
          "indexed": false,
          "internalType": "address",
          "name": "contractAddress",
          "type": "address"
        },
        {
          "indexed": false,
          "internalType": "string",
          "name": "slug",
          "type": "string"
        },
        {
          "indexed": false,
          "internalType": "uint256",
          "name": "time",
          "type": "uint256"
        }
      ],
      "name": "NewContract",
      "type": "event"
    },
    {
      "anonymous": false,
      "inputs": [
        {
          "indexed": true,
          "internalType": "address",
          "name": "previousOwner",
          "type": "address"
        },
        {
          "indexed": true,
          "internalType": "address",
          "name": "newOwner",
          "type": "address"
        }
      ],
      "name": "OwnershipTransferred",
      "type": "event"
    },
    {
      "anonymous": false,
      "inputs": [
        {
          "indexed": false,
          "internalType": "address",
          "name": "toAddress",
          "type": "address"
        },
        {
          "indexed": false,
          "internalType": "uint256",
          "name": "amount",
          "type": "uint256"
        },
        {
          "indexed": false,
          "internalType": "uint256",
          "name": "time",
          "type": "uint256"
        }
      ],
      "name": "adminFundsCollected",
      "type": "event"
    },
    {
      "anonymous": false,
      "inputs": [
        {
          "indexed": false,
          "internalType": "string",
          "name": "token",
          "type": "string"
        },
        {
          "indexed": false,
          "internalType": "uint256",
          "name": "tokenAmount",
          "type": "uint256"
        },
        {
          "indexed": false,
          "internalType": "uint256",
          "name": "time",
          "type": "uint256"
        }
      ],
      "name": "honeySent",
      "type": "event"
    },
    {
      "anonymous": false,
      "inputs": [
        {
          "indexed": false,
          "internalType": "address",
          "name": "contractAddress",
          "type": "address"
        },
        {
          "indexed": false,
          "internalType": "string",
          "name": "oldSlug",
          "type": "string"
        },
        {
          "indexed": false,
          "internalType": "string",
          "name": "newSlug",
          "type": "string"
        }
      ],
      "name": "slugChanged",
      "type": "event"
    },
    {
      "inputs": [],
      "name": "adminFund",
      "outputs": [
        {
          "internalType": "uint256",
          "name": "",
          "type": "uint256"
        }
      ],
      "stateMutability": "view",
      "type": "function"
    },
    {
      "inputs": [],
      "name": "deployFee",
      "outputs": [
        {
          "internalType": "uint256",
          "name": "",
          "type": "uint256"
        }
      ],
      "stateMutability": "view",
      "type": "function"
    },
    {
      "inputs": [],
      "name": "honeyPot",
      "outputs": [
        {
          "internalType": "address",
          "name": "",
          "type": "address"
        }
      ],
      "stateMutability": "view",
      "type": "function"
    },
    {
      "inputs": [],
      "name": "owner",
      "outputs": [
        {
          "internalType": "address",
          "name": "",
          "type": "address"
        }
      ],
      "stateMutability": "view",
      "type": "function"
    },
    {
      "inputs": [],
      "name": "renounceOwnership",
      "outputs": [],
      "stateMutability": "nonpayable",
      "type": "function"
    },
    {
      "inputs": [],
      "name": "slugFee",
      "outputs": [
        {
          "internalType": "uint256",
          "name": "",
          "type": "uint256"
        }
      ],
      "stateMutability": "view",
      "type": "function"
    },
    {
      "inputs": [
        {
          "internalType": "string",
          "name": "",
          "type": "string"
        }
      ],
      "name": "slugs",
      "outputs": [
        {
          "internalType": "address",
          "name": "",
          "type": "address"
        }
      ],
      "stateMutability": "view",
      "type": "function"
    },
    {
      "inputs": [
        {
          "internalType": "address",
          "name": "newOwner",
          "type": "address"
        }
      ],
      "name": "transferOwnership",
      "outputs": [],
      "stateMutability": "nonpayable",
      "type": "function"
    },
    {
      "inputs": [
        {
          "internalType": "address",
          "name": "",
          "type": "address"
        }
      ],
      "name": "verifiedSubscribeeContract",
      "outputs": [
        {
          "internalType": "bool",
          "name": "",
          "type": "bool"
        }
      ],
      "stateMutability": "view",
      "type": "function"
    },
    {
      "inputs": [
        {
          "internalType": "address",
          "name": "tokenAddress",
          "type": "address"
        }
      ],
      "name": "harvestHoney",
      "outputs": [],
      "stateMutability": "nonpayable",
      "type": "function"
    },
    {
      "inputs": [
        {
          "internalType": "uint256",
          "name": "deployfee",
          "type": "uint256"
        },
        {
          "internalType": "uint256",
          "name": "slugfee",
          "type": "uint256"
        }
      ],
      "name": "setAdminFees",
      "outputs": [],
      "stateMutability": "nonpayable",
      "type": "function"
    },
    {
      "inputs": [
        {
          "internalType": "address",
          "name": "toAddress",
          "type": "address"
        }
      ],
      "name": "collectAdminFees",
      "outputs": [],
      "stateMutability": "nonpayable",
      "type": "function"
    },
    {
      "inputs": [
        {
          "internalType": "string",
          "name": "oldslug",
          "type": "string"
        },
        {
          "internalType": "string",
          "name": "newslug",
          "type": "string"
        }
      ],
      "name": "changeSlug",
      "outputs": [],
      "stateMutability": "payable",
      "type": "function"
    },
    {
      "inputs": [
        {
          "internalType": "address",
          "name": "operatorAddress",
          "type": "address"
        },
        {
          "internalType": "string",
          "name": "title",
          "type": "string"
        },
        {
          "internalType": "string",
          "name": "slug",
          "type": "string"
        },
        {
          "internalType": "string",
          "name": "image",
          "type": "string"
        }
      ],
      "name": "deploySubscribeeContract",
      "outputs": [],
      "stateMutability": "payable",
      "type": "function"
    }
  ],
  "bytecode": "0x60806040523480156200001157600080fd5b5060405162005d4438038062005d44833981810160405281019062000037919062000220565b620000576200004b620000af60201b60201c565b620000b760201b60201c565b82600360006101000a81548173ffffffffffffffffffffffffffffffffffffffff021916908373ffffffffffffffffffffffffffffffffffffffff16021790555081600581905550806006819055505050506200027c565b600033905090565b60008060009054906101000a900473ffffffffffffffffffffffffffffffffffffffff169050816000806101000a81548173ffffffffffffffffffffffffffffffffffffffff021916908373ffffffffffffffffffffffffffffffffffffffff1602179055508173ffffffffffffffffffffffffffffffffffffffff168173ffffffffffffffffffffffffffffffffffffffff167f8be0079c531659141344cd1fd0a4f28419497f9722a3daafe3b4186f6b6457e060405160405180910390a35050565b600080fd5b600073ffffffffffffffffffffffffffffffffffffffff82169050919050565b6000620001ad8262000180565b9050919050565b620001bf81620001a0565b8114620001cb57600080fd5b50565b600081519050620001df81620001b4565b92915050565b6000819050919050565b620001fa81620001e5565b81146200020657600080fd5b50565b6000815190506200021a81620001ef565b92915050565b6000806000606084860312156200023c576200023b6200017b565b5b60006200024c86828701620001ce565b93505060206200025f8682870162000209565b9250506040620002728682870162000209565b9150509250925092565b615ab8806200028c6000396000f3fe608060405260043610620000f25760003560e01c8063a31d000b116200008b578063c350208a1162000061578063c350208a14620002bf578063e77d31fb1462000303578063eb2a5d2c1462000323578063f2fde38b146200035357620000f2565b8063a31d000b146200022b578063a68214c1146200025b578063af180825146200027b57620000f2565b80632db3a0f111620000cd5780632db3a0f11462000183578063479cb11b14620001b3578063715018a614620001e15780638da5cb5b14620001fb57620000f2565b80631bf9309014620000f7578063299f43e214620001255780632c064cd41462000155575b600080fd5b3480156200010457600080fd5b506200012360048036038101906200011d9190620011ed565b62000381565b005b3480156200013257600080fd5b506200013d62000498565b6040516200014c91906200123a565b60405180910390f35b3480156200016257600080fd5b506200018160048036038101906200017b9190620011ed565b6200049e565b005b3480156200019057600080fd5b506200019b620006b6565b604051620001aa91906200123a565b60405180910390f35b348015620001c057600080fd5b50620001df6004803603810190620001d9919062001288565b620006bc565b005b348015620001ee57600080fd5b50620001f962000751565b005b3480156200020857600080fd5b5062000213620007e2565b604051620002229190620012e0565b60405180910390f35b3480156200023857600080fd5b50620002436200080b565b604051620002529190620012e0565b60405180910390f35b6200027960048036038101906200027391906200145f565b62000831565b005b3480156200028857600080fd5b50620002a76004803603810190620002a19190620011ed565b62000b38565b604051620002b691906200154b565b60405180910390f35b348015620002cc57600080fd5b50620002eb6004803603810190620002e5919062001568565b62000b58565b604051620002fa9190620012e0565b60405180910390f35b6200032160048036038101906200031b9190620015b9565b62000ba1565b005b3480156200033057600080fd5b506200033b62000f90565b6040516200034a91906200123a565b60405180910390f35b3480156200036057600080fd5b506200037f6004803603810190620003799190620011ed565b62000f96565b005b6200038b6200109a565b73ffffffffffffffffffffffffffffffffffffffff16620003ab620007e2565b73ffffffffffffffffffffffffffffffffffffffff161462000404576040517f08c379a0000000000000000000000000000000000000000000000000000000008152600401620003fb906200169f565b60405180910390fd5b8073ffffffffffffffffffffffffffffffffffffffff166108fc6004549081150290604051600060405180830381858888f193505050501580156200044d573d6000803e3d6000fd5b507fce87565d00552926c1815eec93d6c0a6210efc4f2c209dd5cf944d343289721e81600454426040516200048593929190620016c1565b60405180910390a1600060048190555050565b60045481565b600081905060008173ffffffffffffffffffffffffffffffffffffffff166370a08231306040518263ffffffff1660e01b8152600401620004e09190620012e0565b60206040518083038186803b158015620004f957600080fd5b505afa1580156200050e573d6000803e3d6000fd5b505050506040513d601f19601f8201168201806040525081019062000534919062001715565b90508173ffffffffffffffffffffffffffffffffffffffff166323b872dd30600360009054906101000a900473ffffffffffffffffffffffffffffffffffffffff16846040518463ffffffff1660e01b8152600401620005979392919062001747565b602060405180830381600087803b158015620005b257600080fd5b505af1158015620005c7573d6000803e3d6000fd5b505050506040513d601f19601f82011682018060405250810190620005ed9190620017b5565b507f9dce9d05b45624cea67380740d0ee7bda37a06fd1211c7956e47b1b01cc715e78273ffffffffffffffffffffffffffffffffffffffff166306fdde036040518163ffffffff1660e01b815260040160006040518083038186803b1580156200065657600080fd5b505afa1580156200066b573d6000803e3d6000fd5b505050506040513d6000823e3d601f19601f820116820180604052508101906200069691906200189b565b8242604051620006a99392919062001938565b60405180910390a1505050565b60065481565b620006c66200109a565b73ffffffffffffffffffffffffffffffffffffffff16620006e6620007e2565b73ffffffffffffffffffffffffffffffffffffffff16146200073f576040517f08c379a000000000000000000000000000000000000000000000000000000000815260040162000736906200169f565b60405180910390fd5b81600581905550806006819055505050565b6200075b6200109a565b73ffffffffffffffffffffffffffffffffffffffff166200077b620007e2565b73ffffffffffffffffffffffffffffffffffffffff1614620007d4576040517f08c379a0000000000000000000000000000000000000000000000000000000008152600401620007cb906200169f565b60405180910390fd5b620007e06000620010a2565b565b60008060009054906101000a900473ffffffffffffffffffffffffffffffffffffffff16905090565b600360009054906101000a900473ffffffffffffffffffffffffffffffffffffffff1681565b600073ffffffffffffffffffffffffffffffffffffffff166001836040516200085b9190620019be565b908152602001604051809103902060009054906101000a900473ffffffffffffffffffffffffffffffffffffffff1673ffffffffffffffffffffffffffffffffffffffff1614620008e3576040517f08c379a0000000000000000000000000000000000000000000000000000000008152600401620008da9062001a27565b60405180910390fd5b600554341480620009285750620008f9620007e2565b73ffffffffffffffffffffffffffffffffffffffff163373ffffffffffffffffffffffffffffffffffffffff16145b6200096a576040517f08c379a0000000000000000000000000000000000000000000000000000000008152600401620009619062001abf565b60405180910390fd5b34600460008282546200097e919062001b10565b92505081905550600030858584604051620009999062001166565b620009a8949392919062001b6d565b604051809103906000f080158015620009c5573d6000803e3d6000fd5b5090508073ffffffffffffffffffffffffffffffffffffffff1663f2fde38b336040518263ffffffff1660e01b815260040162000a039190620012e0565b600060405180830381600087803b15801562000a1e57600080fd5b505af115801562000a33573d6000803e3d6000fd5b5050505060008190508060018560405162000a4f9190620019be565b908152602001604051809103902060006101000a81548173ffffffffffffffffffffffffffffffffffffffff021916908373ffffffffffffffffffffffffffffffffffffffff1602179055506001600260008373ffffffffffffffffffffffffffffffffffffffff1673ffffffffffffffffffffffffffffffffffffffff16815260200190815260200160002060006101000a81548160ff0219169083151502179055507f9b090710278fa2048c6c0e8366ecb399bef2d1a345462964d8f7f84a1d5171b281854260405162000b289392919062001bc8565b60405180910390a1505050505050565b60026020528060005260406000206000915054906101000a900460ff1681565b6001818051602081018201805184825260208301602085012081835280955050505050506000915054906101000a900473ffffffffffffffffffffffffffffffffffffffff1681565b600060018360405162000bb59190620019be565b908152602001604051809103902060009054906101000a900473ffffffffffffffffffffffffffffffffffffffff1690503373ffffffffffffffffffffffffffffffffffffffff168173ffffffffffffffffffffffffffffffffffffffff16638da5cb5b6040518163ffffffff1660e01b815260040160206040518083038186803b15801562000c4457600080fd5b505afa15801562000c59573d6000803e3d6000fd5b505050506040513d601f19601f8201168201806040525081019062000c7f919062001c23565b73ffffffffffffffffffffffffffffffffffffffff161462000cd8576040517f08c379a000000000000000000000000000000000000000000000000000000000815260040162000ccf9062001ccb565b60405180910390fd5b600073ffffffffffffffffffffffffffffffffffffffff1660018360405162000d029190620019be565b908152602001604051809103902060009054906101000a900473ffffffffffffffffffffffffffffffffffffffff1673ffffffffffffffffffffffffffffffffffffffff161462000d8a576040517f08c379a000000000000000000000000000000000000000000000000000000000815260040162000d819062001a27565b60405180910390fd5b60065434148062000dcf575062000da0620007e2565b73ffffffffffffffffffffffffffffffffffffffff163373ffffffffffffffffffffffffffffffffffffffff16145b62000e11576040517f08c379a000000000000000000000000000000000000000000000000000000000815260040162000e089062001abf565b60405180910390fd5b346004600082825462000e25919062001b10565b9250508190555060018360405162000e3e9190620019be565b908152602001604051809103902060009054906101000a900473ffffffffffffffffffffffffffffffffffffffff1660018360405162000e7f9190620019be565b908152602001604051809103902060006101000a81548173ffffffffffffffffffffffffffffffffffffffff021916908373ffffffffffffffffffffffffffffffffffffffff1602179055507f6a44563d0ddf71fd8c29b19a035b27624bd3e5d8642d5216f9a7126efa1c4b5d60018460405162000efe9190620019be565b908152602001604051809103902060009054906101000a900473ffffffffffffffffffffffffffffffffffffffff16848460405162000f409392919062001ced565b60405180910390a160018360405162000f5a9190620019be565b908152602001604051809103902060006101000a81549073ffffffffffffffffffffffffffffffffffffffff0219169055505050565b60055481565b62000fa06200109a565b73ffffffffffffffffffffffffffffffffffffffff1662000fc0620007e2565b73ffffffffffffffffffffffffffffffffffffffff161462001019576040517f08c379a000000000000000000000000000000000000000000000000000000000815260040162001010906200169f565b60405180910390fd5b600073ffffffffffffffffffffffffffffffffffffffff168173ffffffffffffffffffffffffffffffffffffffff1614156200108c576040517f08c379a0000000000000000000000000000000000000000000000000000000008152600401620010839062001dae565b60405180910390fd5b6200109781620010a2565b50565b600033905090565b60008060009054906101000a900473ffffffffffffffffffffffffffffffffffffffff169050816000806101000a81548173ffffffffffffffffffffffffffffffffffffffff021916908373ffffffffffffffffffffffffffffffffffffffff1602179055508173ffffffffffffffffffffffffffffffffffffffff168173ffffffffffffffffffffffffffffffffffffffff167f8be0079c531659141344cd1fd0a4f28419497f9722a3daafe3b4186f6b6457e060405160405180910390a35050565b613cb28062001dd183390190565b6000604051905090565b600080fd5b600080fd5b600073ffffffffffffffffffffffffffffffffffffffff82169050919050565b6000620011b58262001188565b9050919050565b620011c781620011a8565b8114620011d357600080fd5b50565b600081359050620011e781620011bc565b92915050565b6000602082840312156200120657620012056200117e565b5b60006200121684828501620011d6565b91505092915050565b6000819050919050565b62001234816200121f565b82525050565b600060208201905062001251600083018462001229565b92915050565b62001262816200121f565b81146200126e57600080fd5b50565b600081359050620012828162001257565b92915050565b60008060408385031215620012a257620012a16200117e565b5b6000620012b28582860162001271565b9250506020620012c58582860162001271565b9150509250929050565b620012da81620011a8565b82525050565b6000602082019050620012f76000830184620012cf565b92915050565b600080fd5b600080fd5b6000601f19601f8301169050919050565b7f4e487b7100000000000000000000000000000000000000000000000000000000600052604160045260246000fd5b620013528262001307565b810181811067ffffffffffffffff8211171562001374576200137362001318565b5b80604052505050565b60006200138962001174565b905062001397828262001347565b919050565b600067ffffffffffffffff821115620013ba57620013b962001318565b5b620013c58262001307565b9050602081019050919050565b82818337600083830152505050565b6000620013f8620013f2846200139c565b6200137d565b90508281526020810184848401111562001417576200141662001302565b5b62001424848285620013d2565b509392505050565b600082601f830112620014445762001443620012fd565b5b813562001456848260208601620013e1565b91505092915050565b600080600080608085870312156200147c576200147b6200117e565b5b60006200148c87828801620011d6565b945050602085013567ffffffffffffffff811115620014b057620014af62001183565b5b620014be878288016200142c565b935050604085013567ffffffffffffffff811115620014e257620014e162001183565b5b620014f0878288016200142c565b925050606085013567ffffffffffffffff81111562001514576200151362001183565b5b62001522878288016200142c565b91505092959194509250565b60008115159050919050565b62001545816200152e565b82525050565b60006020820190506200156260008301846200153a565b92915050565b6000602082840312156200158157620015806200117e565b5b600082013567ffffffffffffffff811115620015a257620015a162001183565b5b620015b0848285016200142c565b91505092915050565b60008060408385031215620015d357620015d26200117e565b5b600083013567ffffffffffffffff811115620015f457620015f362001183565b5b62001602858286016200142c565b925050602083013567ffffffffffffffff81111562001626576200162562001183565b5b62001634858286016200142c565b9150509250929050565b600082825260208201905092915050565b7f4f776e61626c653a2063616c6c6572206973206e6f7420746865206f776e6572600082015250565b6000620016876020836200163e565b915062001694826200164f565b602082019050919050565b60006020820190508181036000830152620016ba8162001678565b9050919050565b6000606082019050620016d86000830186620012cf565b620016e7602083018562001229565b620016f6604083018462001229565b949350505050565b6000815190506200170f8162001257565b92915050565b6000602082840312156200172e576200172d6200117e565b5b60006200173e84828501620016fe565b91505092915050565b60006060820190506200175e6000830186620012cf565b6200176d6020830185620012cf565b6200177c604083018462001229565b949350505050565b6200178f816200152e565b81146200179b57600080fd5b50565b600081519050620017af8162001784565b92915050565b600060208284031215620017ce57620017cd6200117e565b5b6000620017de848285016200179e565b91505092915050565b60005b8381101562001807578082015181840152602081019050620017ea565b8381111562001817576000848401525b50505050565b6000620018346200182e846200139c565b6200137d565b90508281526020810184848401111562001853576200185262001302565b5b62001860848285620017e7565b509392505050565b600082601f83011262001880576200187f620012fd565b5b8151620018928482602086016200181d565b91505092915050565b600060208284031215620018b457620018b36200117e565b5b600082015167ffffffffffffffff811115620018d557620018d462001183565b5b620018e38482850162001868565b91505092915050565b600081519050919050565b60006200190482620018ec565b6200191081856200163e565b935062001922818560208601620017e7565b6200192d8162001307565b840191505092915050565b60006060820190508181036000830152620019548186620018f7565b905062001965602083018562001229565b62001974604083018462001229565b949350505050565b600081905092915050565b60006200199482620018ec565b620019a081856200197c565b9350620019b2818560208601620017e7565b80840191505092915050565b6000620019cc828462001987565b915081905092915050565b7f536c756720686173206265656e2074616b656e00000000000000000000000000600082015250565b600062001a0f6013836200163e565b915062001a1c82620019d7565b602082019050919050565b6000602082019050818103600083015262001a428162001a00565b9050919050565b7f506c65617365207061792074686520617070726f706961746520616d6f756e7460008201527f2e2e2e0000000000000000000000000000000000000000000000000000000000602082015250565b600062001aa76023836200163e565b915062001ab48262001a49565b604082019050919050565b6000602082019050818103600083015262001ada8162001a98565b9050919050565b7f4e487b7100000000000000000000000000000000000000000000000000000000600052601160045260246000fd5b600062001b1d826200121f565b915062001b2a836200121f565b9250827fffffffffffffffffffffffffffffffffffffffffffffffffffffffffffffffff0382111562001b625762001b6162001ae1565b5b828201905092915050565b600060808201905062001b846000830187620012cf565b62001b936020830186620012cf565b818103604083015262001ba78185620018f7565b9050818103606083015262001bbd8184620018f7565b905095945050505050565b600060608201905062001bdf6000830186620012cf565b818103602083015262001bf38185620018f7565b905062001c04604083018462001229565b949350505050565b60008151905062001c1d81620011bc565b92915050565b60006020828403121562001c3c5762001c3b6200117e565b5b600062001c4c8482850162001c0c565b91505092915050565b7f4f6e6c7920746865204f776e6572206f662074686520636f6e7472616374206360008201527f616e20646f207468697300000000000000000000000000000000000000000000602082015250565b600062001cb3602a836200163e565b915062001cc08262001c55565b604082019050919050565b6000602082019050818103600083015262001ce68162001ca4565b9050919050565b600060608201905062001d046000830186620012cf565b818103602083015262001d188185620018f7565b9050818103604083015262001d2e8184620018f7565b9050949350505050565b7f4f776e61626c653a206e6577206f776e657220697320746865207a65726f206160008201527f6464726573730000000000000000000000000000000000000000000000000000602082015250565b600062001d966026836200163e565b915062001da38262001d38565b604082019050919050565b6000602082019050818103600083015262001dc98162001d87565b905091905056fe60806040523480156200001157600080fd5b5060405162003cb238038062003cb2833981810160405281019062000037919062000493565b620000576200004b6200011560201b60201c565b6200011d60201b60201c565b83600660006101000a81548173ffffffffffffffffffffffffffffffffffffffff021916908373ffffffffffffffffffffffffffffffffffffffff16021790555082600760006101000a81548173ffffffffffffffffffffffffffffffffffffffff021916908373ffffffffffffffffffffffffffffffffffffffff1602179055508160019080519060200190620000f1929190620001e1565b5080600290805190602001906200010a929190620001e1565b5050505050620005a8565b600033905090565b60008060009054906101000a900473ffffffffffffffffffffffffffffffffffffffff169050816000806101000a81548173ffffffffffffffffffffffffffffffffffffffff021916908373ffffffffffffffffffffffffffffffffffffffff1602179055508173ffffffffffffffffffffffffffffffffffffffff168173ffffffffffffffffffffffffffffffffffffffff167f8be0079c531659141344cd1fd0a4f28419497f9722a3daafe3b4186f6b6457e060405160405180910390a35050565b828054620001ef9062000572565b90600052602060002090601f0160209004810192826200021357600085556200025f565b82601f106200022e57805160ff19168380011785556200025f565b828001600101855582156200025f579182015b828111156200025e57825182559160200191906001019062000241565b5b5090506200026e919062000272565b5090565b5b808211156200028d57600081600090555060010162000273565b5090565b6000604051905090565b600080fd5b600080fd5b600073ffffffffffffffffffffffffffffffffffffffff82169050919050565b6000620002d282620002a5565b9050919050565b620002e481620002c5565b8114620002f057600080fd5b50565b6000815190506200030481620002d9565b92915050565b600080fd5b600080fd5b6000601f19601f8301169050919050565b7f4e487b7100000000000000000000000000000000000000000000000000000000600052604160045260246000fd5b6200035f8262000314565b810181811067ffffffffffffffff8211171562000381576200038062000325565b5b80604052505050565b60006200039662000291565b9050620003a4828262000354565b919050565b600067ffffffffffffffff821115620003c757620003c662000325565b5b620003d28262000314565b9050602081019050919050565b60005b83811015620003ff578082015181840152602081019050620003e2565b838111156200040f576000848401525b50505050565b60006200042c6200042684620003a9565b6200038a565b9050828152602081018484840111156200044b576200044a6200030f565b5b62000458848285620003df565b509392505050565b600082601f8301126200047857620004776200030a565b5b81516200048a84826020860162000415565b91505092915050565b60008060008060808587031215620004b057620004af6200029b565b5b6000620004c087828801620002f3565b9450506020620004d387828801620002f3565b935050604085015167ffffffffffffffff811115620004f757620004f6620002a0565b5b620005058782880162000460565b925050606085015167ffffffffffffffff811115620005295762000528620002a0565b5b620005378782880162000460565b91505092959194509250565b7f4e487b7100000000000000000000000000000000000000000000000000000000600052602260045260246000fd5b600060028204905060018216806200058b57607f821691505b60208210811415620005a257620005a162000543565b5b50919050565b6136fa80620005b86000396000f3fe608060405234801561001057600080fd5b50600436106101425760003560e01c8063715018a6116100b857806389c612b31161007c57806389c612b31461032c5780638da5cb5b14610348578063b3ab15fb14610366578063e9cb1faf14610382578063f2fde38b146103b2578063f3ccaac0146103ce57610142565b8063715018a6146102b257806371adb5e6146102bc57806372910be0146102d85780637573f9f5146102f45780637a9978821461031057610142565b8063566c93ab1161010a578063566c93ab146101d7578063570ca735146101f35780635f20b72d146102115780635f8d26b21461022d57806360a31a881461024b5780636be971481461027f57610142565b806316e5fb5b146101475780633395df251461016357806342bd94b01461018157806349c7e6391461019d5780634a79d50c146101b9575b600080fd5b610161600480360381019061015c919061236b565b6103ec565b005b61016b6103f8565b60405161017891906123d9565b60405180910390f35b61019b6004803603810190610196919061236b565b61041e565b005b6101b760048036038101906101b2919061236b565b61042b565b005b6101c1610437565b6040516101ce919061248d565b60405180910390f35b6101f160048036038101906101ec9190612678565b6104c5565b005b6101fb610607565b60405161020891906123d9565b60405180910390f35b61022b6004803603810190610226919061236b565b61062d565b005b61023561074b565b60405161024291906126d0565b60405180910390f35b6102656004803603810190610260919061236b565b61075e565b604051610276959493929190612750565b60405180910390f35b610299600480360381019061029491906127aa565b610875565b6040516102a99493929190612803565b60405180910390f35b6102ba6108bf565b005b6102d660048036038101906102d191906128fd565b610947565b005b6102f260048036038101906102ed91906128fd565b6109dd565b005b61030e60048036038101906103099190612678565b610a73565b005b61032a6004803603810190610325919061236b565b610bce565b005b6103466004803603810190610341919061299e565b610c11565b005b610350610f86565b60405161035d91906123d9565b60405180910390f35b610380600480360381019061037b9190612a21565b610faf565b005b61039c6004803603810190610397919061236b565b61106f565b6040516103a99190612b0c565b60405180910390f35b6103cc60048036038101906103c79190612a21565b6111e3565b005b6103d66112db565b6040516103e3919061248d565b60405180910390f35b6103f581611369565b50565b600660009054906101000a900473ffffffffffffffffffffffffffffffffffffffff1681565b6104283382611462565b50565b61043481611997565b50565b6001805461044490612b5d565b80601f016020809104026020016040519081016040528092919081815260200182805461047090612b5d565b80156104bd5780601f10610492576101008083540402835291602001916104bd565b820191906000526020600020905b8154815290600101906020018083116104a057829003601f168201915b505050505081565b600760009054906101000a900473ffffffffffffffffffffffffffffffffffffffff1673ffffffffffffffffffffffffffffffffffffffff163373ffffffffffffffffffffffffffffffffffffffff1614806105535750610524610f86565b73ffffffffffffffffffffffffffffffffffffffff163373ffffffffffffffffffffffffffffffffffffffff16145b610592576040517f08c379a000000000000000000000000000000000000000000000000000000000815260040161058990612bdb565b60405180910390fd5b60005b81518110156106035760008282815181106105b3576105b2612bfb565b5b602002602001015160000151905060008383815181106105d6576105d5612bfb565b5b60200260200101516020015190506105ee8282611462565b505080806105fb90612c59565b915050610595565b5050565b600760009054906101000a900473ffffffffffffffffffffffffffffffffffffffff1681565b610635611eca565b73ffffffffffffffffffffffffffffffffffffffff16610653610f86565b73ffffffffffffffffffffffffffffffffffffffff16146106a9576040517f08c379a00000000000000000000000000000000000000000000000000000000081526004016106a090612cee565b60405180910390fd5b600460008260ff1660ff16815260200190815260200160002060020160149054906101000a900460ff1615610712576000600460008360ff1660ff16815260200190815260200160002060020160146101000a81548160ff021916908315150217905550610748565b6001600460008360ff1660ff16815260200190815260200160002060020160146101000a81548160ff0219169083151502179055505b50565b600060149054906101000a900460ff1681565b600460205280600052604060002060009150905080600001805461078190612b5d565b80601f01602080910402602001604051908101604052809291908181526020018280546107ad90612b5d565b80156107fa5780601f106107cf576101008083540402835291602001916107fa565b820191906000526020600020905b8154815290600101906020018083116107dd57829003601f168201915b5050505050908060010160009054906101000a900473ffffffffffffffffffffffffffffffffffffffff16908060020160009054906101000a90046fffffffffffffffffffffffffffffffff16908060020160109054906101000a900463ffffffff16908060020160149054906101000a900460ff16905085565b6005602052816000526040600020602052806000526040600020600091509150508060000154908060010154908060020160009054906101000a900460ff16908060030154905084565b6108c7611eca565b73ffffffffffffffffffffffffffffffffffffffff166108e5610f86565b73ffffffffffffffffffffffffffffffffffffffff161461093b576040517f08c379a000000000000000000000000000000000000000000000000000000000815260040161093290612cee565b60405180910390fd5b6109456000611ed2565b565b61094f611eca565b73ffffffffffffffffffffffffffffffffffffffff1661096d610f86565b73ffffffffffffffffffffffffffffffffffffffff16146109c3576040517f08c379a00000000000000000000000000000000000000000000000000000000081526004016109ba90612cee565b60405180910390fd5b80600290805190602001906109d992919061227b565b5050565b6109e5611eca565b73ffffffffffffffffffffffffffffffffffffffff16610a03610f86565b73ffffffffffffffffffffffffffffffffffffffff1614610a59576040517f08c379a0000000000000000000000000000000000000000000000000000000008152600401610a5090612cee565b60405180910390fd5b8060019080519060200190610a6f92919061227b565b5050565b600760009054906101000a900473ffffffffffffffffffffffffffffffffffffffff1673ffffffffffffffffffffffffffffffffffffffff163373ffffffffffffffffffffffffffffffffffffffff161480610b015750610ad2610f86565b73ffffffffffffffffffffffffffffffffffffffff163373ffffffffffffffffffffffffffffffffffffffff16145b610b40576040517f08c379a0000000000000000000000000000000000000000000000000000000008152600401610b3790612bdb565b60405180910390fd5b60005b8151811015610bca576000828281518110610b6157610b60612bfb565b5b60200260200101516000015190506000838381518110610b8457610b83612bfb565b5b6020026020010151602001519050610bb582826040518060600160405280602381526020016136a260239139611f96565b50508080610bc290612c59565b915050610b43565b5050565b610c0e33826040518060400160405280601a81526020017f557365722044656c6574696e6720537562736372697074696f6e000000000000815250611f96565b50565b610c19611eca565b73ffffffffffffffffffffffffffffffffffffffff16610c37610f86565b73ffffffffffffffffffffffffffffffffffffffff1614610c8d576040517f08c379a0000000000000000000000000000000000000000000000000000000008152600401610c8490612cee565b60405180910390fd5b600073ffffffffffffffffffffffffffffffffffffffff168373ffffffffffffffffffffffffffffffffffffffff161415610cfd576040517f08c379a0000000000000000000000000000000000000000000000000000000008152600401610cf490612d5a565b60405180910390fd5b6000826fffffffffffffffffffffffffffffffff1611610d52576040517f08c379a0000000000000000000000000000000000000000000000000000000008152600401610d4990612dc6565b60405180910390fd5b620151808163ffffffff161015610d9e576040517f08c379a0000000000000000000000000000000000000000000000000000000008152600401610d9590612e58565b60405180910390fd5b6040518060a001604052808581526020018473ffffffffffffffffffffffffffffffffffffffff168152602001836fffffffffffffffffffffffffffffffff1681526020018263ffffffff16815260200160001515815250600460008060149054906101000a900460ff1660ff1660ff1681526020019081526020016000206000820151816000019080519060200190610e3992919061227b565b5060208201518160010160006101000a81548173ffffffffffffffffffffffffffffffffffffffff021916908373ffffffffffffffffffffffffffffffffffffffff16021790555060408201518160020160006101000a8154816fffffffffffffffffffffffffffffffff02191690836fffffffffffffffffffffffffffffffff16021790555060608201518160020160106101000a81548163ffffffff021916908363ffffffff16021790555060808201518160020160146101000a81548160ff0219169083151502179055509050507f2b2ac0164b2239021e55bc9bad56542210dd43092952070c7ef40280d609ce806001848484604051610f409493929190612f48565b60405180910390a16000601481819054906101000a900460ff1680929190610f6790612f94565b91906101000a81548160ff021916908360ff1602179055505050505050565b60008060009054906101000a900473ffffffffffffffffffffffffffffffffffffffff16905090565b610fb7611eca565b73ffffffffffffffffffffffffffffffffffffffff16610fd5610f86565b73ffffffffffffffffffffffffffffffffffffffff161461102b576040517f08c379a000000000000000000000000000000000000000000000000000000000815260040161102290612cee565b60405180910390fd5b80600760006101000a81548173ffffffffffffffffffffffffffffffffffffffff021916908373ffffffffffffffffffffffffffffffffffffffff16021790555050565b6060600760009054906101000a900473ffffffffffffffffffffffffffffffffffffffff1673ffffffffffffffffffffffffffffffffffffffff163373ffffffffffffffffffffffffffffffffffffffff1614806110ff57506110d0610f86565b73ffffffffffffffffffffffffffffffffffffffff163373ffffffffffffffffffffffffffffffffffffffff16145b61113e576040517f08c379a000000000000000000000000000000000000000000000000000000000815260040161113590612bdb565b60405180910390fd5b600360008360ff1660ff1681526020019081526020016000208054806020026020016040519081016040528092919081815260200182805480156111d757602002820191906000526020600020905b8160009054906101000a900473ffffffffffffffffffffffffffffffffffffffff1673ffffffffffffffffffffffffffffffffffffffff168152602001906001019080831161118d575b50505050509050919050565b6111eb611eca565b73ffffffffffffffffffffffffffffffffffffffff16611209610f86565b73ffffffffffffffffffffffffffffffffffffffff161461125f576040517f08c379a000000000000000000000000000000000000000000000000000000000815260040161125690612cee565b60405180910390fd5b600073ffffffffffffffffffffffffffffffffffffffff168173ffffffffffffffffffffffffffffffffffffffff1614156112cf576040517f08c379a00000000000000000000000000000000000000000000000000000000081526004016112c690613030565b60405180910390fd5b6112d881611ed2565b50565b600280546112e890612b5d565b80601f016020809104026020016040519081016040528092919081815260200182805461131490612b5d565b80156113615780601f1061133657610100808354040283529160200191611361565b820191906000526020600020905b81548152906001019060200180831161134457829003601f168201915b505050505081565b6000600560008360ff1660ff16815260200190815260200160002060003373ffffffffffffffffffffffffffffffffffffffff1673ffffffffffffffffffffffffffffffffffffffff168152602001908152602001600020905060008160000154141561140b576040517f08c379a00000000000000000000000000000000000000000000000000000000081526004016114029061309c565b60405180910390fd5b42816001015410156114405761143a338360405180608001604052806047815260200161365b60479139611f96565b5061145f565b60018160020160006101000a81548160ff021916908315150217905550505b50565b6000600560008360ff1660ff16815260200190815260200160002060008473ffffffffffffffffffffffffffffffffffffffff1673ffffffffffffffffffffffffffffffffffffffff16815260200190815260200160002090506000600460008460ff1660ff168152602001908152602001600020905060008160010160009054906101000a900473ffffffffffffffffffffffffffffffffffffffff169050600060328360020160009054906101000a90046fffffffffffffffffffffffffffffffff1661153191906130eb565b6fffffffffffffffffffffffffffffffff1690506000818460020160009054906101000a90046fffffffffffffffffffffffffffffffff166fffffffffffffffffffffffffffffffff16611585919061311c565b90506000856000015414156115cf576040517f08c379a00000000000000000000000000000000000000000000000000000000081526004016115c69061309c565b60405180910390fd5b84600101544211611615576040517f08c379a000000000000000000000000000000000000000000000000000000000815260040161160c9061319c565b60405180910390fd5b8360020160149054906101000a900460ff1615611667576040517f08c379a000000000000000000000000000000000000000000000000000000000815260040161165e90613208565b60405180910390fd5b8460020160009054906101000a900460ff16156116b9576040517f08c379a00000000000000000000000000000000000000000000000000000000081526004016116b09061329a565b60405180910390fd5b8360020160009054906101000a90046fffffffffffffffffffffffffffffffff166fffffffffffffffffffffffffffffffff168373ffffffffffffffffffffffffffffffffffffffff166370a08231896040518263ffffffff1660e01b815260040161172591906123d9565b60206040518083038186803b15801561173d57600080fd5b505afa158015611751573d6000803e3d6000fd5b505050506040513d601f19601f8201168201806040525081019061177591906132e6565b10156117b6576040517f08c379a00000000000000000000000000000000000000000000000000000000081526004016117ad90613385565b60405180910390fd5b8273ffffffffffffffffffffffffffffffffffffffff166323b872dd886117db610f86565b846040518463ffffffff1660e01b81526004016117fa939291906133a5565b602060405180830381600087803b15801561181457600080fd5b505af1158015611828573d6000803e3d6000fd5b505050506040513d601f19601f8201168201806040525081019061184c9190613408565b508273ffffffffffffffffffffffffffffffffffffffff166323b872dd88600660009054906101000a900473ffffffffffffffffffffffffffffffffffffffff16856040518463ffffffff1660e01b81526004016118ac939291906133a5565b602060405180830381600087803b1580156118c657600080fd5b505af11580156118da573d6000803e3d6000fd5b505050506040513d601f19601f820116820180604052508101906118fe9190613408565b508360020160109054906101000a900463ffffffff1663ffffffff1685600101546119299190613435565b85600101819055507fd9c2a3b5876793c06385d9ba016ce2870a7b27fbba6c5a2c6a34fa888ed4ac0e878560020160009054906101000a90046fffffffffffffffffffffffffffffffff168842604051611986949392919061348b565b60405180910390a150505050505050565b6000600460008360ff1660ff1681526020019081526020016000209050600073ffffffffffffffffffffffffffffffffffffffff168160010160009054906101000a900473ffffffffffffffffffffffffffffffffffffffff1673ffffffffffffffffffffffffffffffffffffffff161415611a48576040517f08c379a0000000000000000000000000000000000000000000000000000000008152600401611a3f9061351c565b60405180910390fd5b8060020160149054906101000a900460ff1615611a9a576040517f08c379a0000000000000000000000000000000000000000000000000000000008152600401611a9190613588565b60405180910390fd5b6000600460008460ff1660ff16815260200190815260200160002060010160009054906101000a900473ffffffffffffffffffffffffffffffffffffffff169050600060328360020160009054906101000a90046fffffffffffffffffffffffffffffffff16611b0a91906130eb565b6fffffffffffffffffffffffffffffffff1690506000818460020160009054906101000a90046fffffffffffffffffffffffffffffffff166fffffffffffffffffffffffffffffffff16611b5e919061311c565b90508273ffffffffffffffffffffffffffffffffffffffff166323b872dd33611b85610f86565b846040518463ffffffff1660e01b8152600401611ba4939291906133a5565b602060405180830381600087803b158015611bbe57600080fd5b505af1158015611bd2573d6000803e3d6000fd5b505050506040513d601f19601f82011682018060405250810190611bf69190613408565b508273ffffffffffffffffffffffffffffffffffffffff166323b872dd33600660009054906101000a900473ffffffffffffffffffffffffffffffffffffffff16856040518463ffffffff1660e01b8152600401611c56939291906133a5565b602060405180830381600087803b158015611c7057600080fd5b505af1158015611c84573d6000803e3d6000fd5b505050506040513d601f19601f82011682018060405250810190611ca89190613408565b50600360008660ff1660ff168152602001908152602001600020339080600181540180825580915050600190039060005260206000200160009091909190916101000a81548173ffffffffffffffffffffffffffffffffffffffff021916908373ffffffffffffffffffffffffffffffffffffffff16021790555060405180608001604052804281526020018560020160109054906101000a900463ffffffff1663ffffffff1642611d5a9190613435565b81526020016000151581526020016001600360008960ff1660ff16815260200190815260200160002080549050611d91919061311c565b815250600560008760ff1660ff16815260200190815260200160002060003373ffffffffffffffffffffffffffffffffffffffff1673ffffffffffffffffffffffffffffffffffffffff168152602001908152602001600020600082015181600001556020820151816001015560408201518160020160006101000a81548160ff021916908315150217905550606082015181600301559050507fb32d0ee4f7c649974c4703f12139c6581d4dfc9df7fcbe3ebc75de386319075b338642604051611e5e939291906135a8565b60405180910390a17fd9c2a3b5876793c06385d9ba016ce2870a7b27fbba6c5a2c6a34fa888ed4ac0e338560020160009054906101000a90046fffffffffffffffffffffffffffffffff168742604051611ebb949392919061348b565b60405180910390a15050505050565b600033905090565b60008060009054906101000a900473ffffffffffffffffffffffffffffffffffffffff169050816000806101000a81548173ffffffffffffffffffffffffffffffffffffffff021916908373ffffffffffffffffffffffffffffffffffffffff1602179055508173ffffffffffffffffffffffffffffffffffffffff168173ffffffffffffffffffffffffffffffffffffffff167f8be0079c531659141344cd1fd0a4f28419497f9722a3daafe3b4186f6b6457e060405160405180910390a35050565b6000600560008460ff1660ff16815260200190815260200160002060008573ffffffffffffffffffffffffffffffffffffffff1673ffffffffffffffffffffffffffffffffffffffff1681526020019081526020016000209050600081600001541415612038576040517f08c379a000000000000000000000000000000000000000000000000000000000815260040161202f9061309c565b60405180910390fd5b6000600360008560ff1660ff168152602001908152602001600020905060008260030154905060008260018480549050612072919061311c565b8154811061208357612082612bfb565b5b9060005260206000200160009054906101000a900473ffffffffffffffffffffffffffffffffffffffff169050808383815481106120c4576120c3612bfb565b5b9060005260206000200160006101000a81548173ffffffffffffffffffffffffffffffffffffffff021916908373ffffffffffffffffffffffffffffffffffffffff16021790555081600560008860ff1660ff16815260200190815260200160002060008373ffffffffffffffffffffffffffffffffffffffff1673ffffffffffffffffffffffffffffffffffffffff168152602001908152602001600020600301819055508280548061217b5761217a6135df565b5b6001900381819060005260206000200160006101000a81549073ffffffffffffffffffffffffffffffffffffffff02191690559055600560008760ff1660ff16815260200190815260200160002060008873ffffffffffffffffffffffffffffffffffffffff1673ffffffffffffffffffffffffffffffffffffffff16815260200190815260200160002060008082016000905560018201600090556002820160006101000a81549060ff0219169055600382016000905550507fa77c3f0be762e28b92e364efe13b244cfdeb18f5576caaf56d7ad7c6c05fa09e8787428860405161226a949392919061360e565b60405180910390a150505050505050565b82805461228790612b5d565b90600052602060002090601f0160209004810192826122a957600085556122f0565b82601f106122c257805160ff19168380011785556122f0565b828001600101855582156122f0579182015b828111156122ef5782518255916020019190600101906122d4565b5b5090506122fd9190612301565b5090565b5b8082111561231a576000816000905550600101612302565b5090565b6000604051905090565b600080fd5b600080fd5b600060ff82169050919050565b61234881612332565b811461235357600080fd5b50565b6000813590506123658161233f565b92915050565b60006020828403121561238157612380612328565b5b600061238f84828501612356565b91505092915050565b600073ffffffffffffffffffffffffffffffffffffffff82169050919050565b60006123c382612398565b9050919050565b6123d3816123b8565b82525050565b60006020820190506123ee60008301846123ca565b92915050565b600081519050919050565b600082825260208201905092915050565b60005b8381101561242e578082015181840152602081019050612413565b8381111561243d576000848401525b50505050565b6000601f19601f8301169050919050565b600061245f826123f4565b61246981856123ff565b9350612479818560208601612410565b61248281612443565b840191505092915050565b600060208201905081810360008301526124a78184612454565b905092915050565b600080fd5b7f4e487b7100000000000000000000000000000000000000000000000000000000600052604160045260246000fd5b6124ec82612443565b810181811067ffffffffffffffff8211171561250b5761250a6124b4565b5b80604052505050565b600061251e61231e565b905061252a82826124e3565b919050565b600067ffffffffffffffff82111561254a576125496124b4565b5b602082029050602081019050919050565b600080fd5b600080fd5b61256e816123b8565b811461257957600080fd5b50565b60008135905061258b81612565565b92915050565b6000604082840312156125a7576125a6612560565b5b6125b16040612514565b905060006125c18482850161257c565b60008301525060206125d584828501612356565b60208301525092915050565b60006125f46125ef8461252f565b612514565b905080838252602082019050604084028301858111156126175761261661255b565b5b835b81811015612640578061262c8882612591565b845260208401935050604081019050612619565b5050509392505050565b600082601f83011261265f5761265e6124af565b5b813561266f8482602086016125e1565b91505092915050565b60006020828403121561268e5761268d612328565b5b600082013567ffffffffffffffff8111156126ac576126ab61232d565b5b6126b88482850161264a565b91505092915050565b6126ca81612332565b82525050565b60006020820190506126e560008301846126c1565b92915050565b60006fffffffffffffffffffffffffffffffff82169050919050565b612710816126eb565b82525050565b600063ffffffff82169050919050565b61272f81612716565b82525050565b60008115159050919050565b61274a81612735565b82525050565b600060a082019050818103600083015261276a8188612454565b905061277960208301876123ca565b6127866040830186612707565b6127936060830185612726565b6127a06080830184612741565b9695505050505050565b600080604083850312156127c1576127c0612328565b5b60006127cf85828601612356565b92505060206127e08582860161257c565b9150509250929050565b6000819050919050565b6127fd816127ea565b82525050565b600060808201905061281860008301876127f4565b61282560208301866127f4565b6128326040830185612741565b61283f60608301846127f4565b95945050505050565b600080fd5b600067ffffffffffffffff821115612868576128676124b4565b5b61287182612443565b9050602081019050919050565b82818337600083830152505050565b60006128a061289b8461284d565b612514565b9050828152602081018484840111156128bc576128bb612848565b5b6128c784828561287e565b509392505050565b600082601f8301126128e4576128e36124af565b5b81356128f484826020860161288d565b91505092915050565b60006020828403121561291357612912612328565b5b600082013567ffffffffffffffff8111156129315761293061232d565b5b61293d848285016128cf565b91505092915050565b61294f816126eb565b811461295a57600080fd5b50565b60008135905061296c81612946565b92915050565b61297b81612716565b811461298657600080fd5b50565b60008135905061299881612972565b92915050565b600080600080608085870312156129b8576129b7612328565b5b600085013567ffffffffffffffff8111156129d6576129d561232d565b5b6129e2878288016128cf565b94505060206129f38782880161257c565b9350506040612a048782880161295d565b9250506060612a1587828801612989565b91505092959194509250565b600060208284031215612a3757612a36612328565b5b6000612a458482850161257c565b91505092915050565b600081519050919050565b600082825260208201905092915050565b6000819050602082019050919050565b612a83816123b8565b82525050565b6000612a958383612a7a565b60208301905092915050565b6000602082019050919050565b6000612ab982612a4e565b612ac38185612a59565b9350612ace83612a6a565b8060005b83811015612aff578151612ae68882612a89565b9750612af183612aa1565b925050600181019050612ad2565b5085935050505092915050565b60006020820190508181036000830152612b268184612aae565b905092915050565b7f4e487b7100000000000000000000000000000000000000000000000000000000600052602260045260246000fd5b60006002820490506001821680612b7557607f821691505b60208210811415612b8957612b88612b2e565b5b50919050565b7f4875683f00000000000000000000000000000000000000000000000000000000600082015250565b6000612bc56004836123ff565b9150612bd082612b8f565b602082019050919050565b60006020820190508181036000830152612bf481612bb8565b9050919050565b7f4e487b7100000000000000000000000000000000000000000000000000000000600052603260045260246000fd5b7f4e487b7100000000000000000000000000000000000000000000000000000000600052601160045260246000fd5b6000612c64826127ea565b91507fffffffffffffffffffffffffffffffffffffffffffffffffffffffffffffffff821415612c9757612c96612c2a565b5b600182019050919050565b7f4f776e61626c653a2063616c6c6572206973206e6f7420746865206f776e6572600082015250565b6000612cd86020836123ff565b9150612ce382612ca2565b602082019050919050565b60006020820190508181036000830152612d0781612ccb565b9050919050565b7f616464726573732063616e6e6f74206265206e756c6c20616464726573730000600082015250565b6000612d44601e836123ff565b9150612d4f82612d0e565b602082019050919050565b60006020820190508181036000830152612d7381612d37565b9050919050565b7f616d6f756e74206e6565647320746f206265203e203000000000000000000000600082015250565b6000612db06016836123ff565b9150612dbb82612d7a565b602082019050919050565b60006020820190508181036000830152612ddf81612da3565b9050919050565b7f6672657175656e6379206e6565647320746f206265206772656174657220746860008201527f656e20323420686f757273000000000000000000000000000000000000000000602082015250565b6000612e42602b836123ff565b9150612e4d82612de6565b604082019050919050565b60006020820190508181036000830152612e7181612e35565b9050919050565b60008190508160005260206000209050919050565b60008154612e9a81612b5d565b612ea481866123ff565b94506001821660008114612ebf5760018114612ed157612f04565b60ff1983168652602086019350612f04565b612eda85612e78565b60005b83811015612efc57815481890152600182019150602081019050612edd565b808801955050505b50505092915050565b6000819050919050565b6000612f32612f2d612f2884612716565b612f0d565b6126eb565b9050919050565b612f4281612f17565b82525050565b60006080820190508181036000830152612f628187612e8d565b9050612f7160208301866123ca565b612f7e6040830185612707565b612f8b6060830184612f39565b95945050505050565b6000612f9f82612332565b915060ff821415612fb357612fb2612c2a565b5b600182019050919050565b7f4f776e61626c653a206e6577206f776e657220697320746865207a65726f206160008201527f6464726573730000000000000000000000000000000000000000000000000000602082015250565b600061301a6026836123ff565b915061302582612fbe565b604082019050919050565b600060208201905081810360008301526130498161300d565b9050919050565b7f7468697320737562736372697074696f6e20646f6573206e6f74206578697374600082015250565b60006130866020836123ff565b915061309182613050565b602082019050919050565b600060208201905081810360008301526130b581613079565b9050919050565b7f4e487b7100000000000000000000000000000000000000000000000000000000600052601260045260246000fd5b60006130f6826126eb565b9150613101836126eb565b925082613111576131106130bc565b5b828204905092915050565b6000613127826127ea565b9150613132836127ea565b92508282101561314557613144612c2a565b5b828203905092915050565b7f6e6f742064756520796574000000000000000000000000000000000000000000600082015250565b6000613186600b836123ff565b915061319182613150565b602082019050919050565b600060208201905081810360008301526131b581613179565b9050919050565b7f506c616e2069732068616c746564000000000000000000000000000000000000600082015250565b60006131f2600e836123ff565b91506131fd826131bc565b602082019050919050565b60006020820190508181036000830152613221816131e5565b9050919050565b7f53756273637269626572206f7074656420746f2073746f70207061796d656e7460008201527f733b2064656c65746520737562736372697074696f6e00000000000000000000602082015250565b60006132846036836123ff565b915061328f82613228565b604082019050919050565b600060208201905081810360008301526132b381613277565b9050919050565b6132c3816127ea565b81146132ce57600080fd5b50565b6000815190506132e0816132ba565b92915050565b6000602082840312156132fc576132fb612328565b5b600061330a848285016132d1565b91505092915050565b7f537562736372696265722068617320696e737566666963656e742066756e647360008201527f3b2064656c65746520737562736372697074696f6e0000000000000000000000602082015250565b600061336f6035836123ff565b915061337a82613313565b604082019050919050565b6000602082019050818103600083015261339e81613362565b9050919050565b60006060820190506133ba60008301866123ca565b6133c760208301856123ca565b6133d460408301846127f4565b949350505050565b6133e581612735565b81146133f057600080fd5b50565b600081519050613402816133dc565b92915050565b60006020828403121561341e5761341d612328565b5b600061342c848285016133f3565b91505092915050565b6000613440826127ea565b915061344b836127ea565b9250827fffffffffffffffffffffffffffffffffffffffffffffffffffffffffffffffff038211156134805761347f612c2a565b5b828201905092915050565b60006080820190506134a060008301876123ca565b6134ad6020830186612707565b6134ba60408301856126c1565b6134c760608301846127f4565b95945050505050565b7f7468697320706c616e20646f6573206e6f742065786973740000000000000000600082015250565b60006135066018836123ff565b9150613511826134d0565b602082019050919050565b60006020820190508181036000830152613535816134f9565b9050919050565b7f706c616e2069732068616c746564000000000000000000000000000000000000600082015250565b6000613572600e836123ff565b915061357d8261353c565b602082019050919050565b600060208201905081810360008301526135a181613565565b9050919050565b60006060820190506135bd60008301866123ca565b6135ca60208301856126c1565b6135d760408301846127f4565b949350505050565b7f4e487b7100000000000000000000000000000000000000000000000000000000600052603160045260246000fd5b600060808201905061362360008301876123ca565b61363060208301866126c1565b61363d60408301856127f4565b818103606083015261364f8184612454565b90509594505050505056fe596f752063616e6e6f742073746f7020737562736372697074696f6e2061667465722066756e647320617265206f7765642c20737562736372697074696f6e2064656c657465644f776e65722f4f70657261746f722044656c6574656420537562736372697074696f6ea2646970667358221220cec2ade3e1498d314123f5d0990f184ffc79e01d916a2bb441bfdfc4477f4c8964736f6c63430008080033a2646970667358221220c34e623445a06660ecee09b1f5223f1afe30b337d281195121dd566d8360734e64736f6c63430008080033",
  "immutableReferences": {},
  "source": "// SPDX-License-Identifier: Business Source License 1.1\npragma solidity ^0.8.8;\n\nimport \"@openzeppelin/contracts/token/ERC20/extensions/IERC20Metadata.sol\";\nimport \"@openzeppelin/contracts/access/Ownable.sol\";\nimport \"./SubscribeeV1.sol\";\n\ncontract BeehiveV1 is Ownable {\n\n  mapping(string => address) public slugs;\n  mapping(address => bool) public verifiedSubscribeeContract;\n\n  address public honeyPot;\n  uint256 public adminFund;\n  uint256 public deployFee;\n  uint256 public slugFee;\n\n  event NewContract(\n    address contractAddress,\n    string slug,\n    uint256 time\n  );\n\n  event slugChanged(\n    address contractAddress,\n    string oldSlug,\n    string newSlug\n  );\n\n  event honeySent(\n    string token,\n    uint256 tokenAmount,\n    uint256 time\n  );\n\n  event adminFundsCollected(\n    address toAddress,\n    uint256 amount,\n    uint256 time\n  );\n\n  constructor(address honeyPotAddress, uint256 fee, uint256 slugfee){\n    honeyPot = honeyPotAddress;\n    deployFee = fee;\n    slugFee = slugfee;\n  }\n\n  function harvestHoney(address tokenAddress) external {\n    IERC20Metadata token = IERC20Metadata(tokenAddress);\n    uint256 honey = token.balanceOf(address(this));\n    token.transferFrom(address(this), honeyPot, honey);\n    emit honeySent(token.name(), honey, block.timestamp);\n  }\n\n  function setAdminFees(uint256 deployfee, uint256 slugfee) external onlyOwner{\n    deployFee = deployfee;\n    slugFee = slugfee;\n  }\n\n  function collectAdminFees(address toAddress) external onlyOwner{\n    payable(toAddress).transfer(adminFund);\n    emit adminFundsCollected(toAddress, adminFund, block.timestamp);\n    adminFund = 0;\n  }\n\n\n  function changeSlug(string memory oldslug, string memory newslug) external payable{\n    SubscribeeV1 subscribeeContract = SubscribeeV1(slugs[oldslug]);\n    require(subscribeeContract.owner() == msg.sender, 'Only the Owner of the contract can do this');\n    require(slugs[newslug] == address(0), 'Slug has been taken');\n    require(msg.value == slugFee || msg.sender == owner(), 'Please pay the appropiate amount...');\n\n    adminFund += msg.value;\n    slugs[newslug] = slugs[oldslug];\n    emit slugChanged(slugs[oldslug], oldslug, newslug);\n    delete slugs[oldslug];\n  }\n\n\n  function deploySubscribeeContract(address operatorAddress, string memory title, string memory slug, string memory image) external payable{\n    require(slugs[slug] == address(0), 'Slug has been taken');\n    require(msg.value == deployFee || msg.sender == owner(), 'Please pay the appropiate amount...');\n\n    adminFund += msg.value;\n\n    SubscribeeV1 newContract = new SubscribeeV1(address(this), operatorAddress, title, image);\n    newContract.transferOwnership(msg.sender);\n\n    address contractAddress = address(newContract);\n    slugs[slug] = contractAddress;\n    verifiedSubscribeeContract[contractAddress] = true;\n\n    emit NewContract(contractAddress, slug, block.timestamp);\n  }\n\n\n\n}\n",
  "sourcePath": "/home/lavandor9/contracts/subscribee-official/contracts/BeehiveV1.sol",
  "compiler": {
    "name": "solc",
    "version": "0.8.8+commit.dddeac2f.Emscripten.clang"
  },
  "schemaVersion": "3.4.1",
  "updatedAt": "2022-05-09T20:03:53.125Z",
  "devdoc": {
    "kind": "dev",
    "methods": {
      "owner()": {
        "details": "Returns the address of the current owner."
      },
      "renounceOwnership()": {
        "details": "Leaves the contract without owner. It will not be possible to call `onlyOwner` functions anymore. Can only be called by the current owner. NOTE: Renouncing ownership will leave the contract without an owner, thereby removing any functionality that is only available to the owner."
      },
      "transferOwnership(address)": {
        "details": "Transfers ownership of the contract to a new account (`newOwner`). Can only be called by the current owner."
      }
    },
    "version": 1
  },
  "userdoc": {
    "kind": "user",
    "methods": {},
    "version": 1
  }
}