{
  "contractName": "HoneyJar",
  "abi": [
    {
      "inputs": [
        {
          "internalType": "string",
          "name": "name",
          "type": "string"
        },
        {
          "internalType": "string",
          "name": "symbol",
          "type": "string"
        },
        {
          "internalType": "uint256",
          "name": "cap",
          "type": "uint256"
        },
        {
          "internalType": "uint256",
          "name": "initialBalance",
          "type": "uint256"
        },
        {
          "internalType": "uint256",
          "name": "fee",
          "type": "uint256"
        }
      ],
      "stateMutability": "nonpayable",
      "type": "constructor"
    },
    {
      "anonymous": false,
      "inputs": [
        {
          "indexed": true,
          "internalType": "address",
          "name": "owner",
          "type": "address"
        },
        {
          "indexed": true,
          "internalType": "address",
          "name": "spender",
          "type": "address"
        },
        {
          "indexed": false,
          "internalType": "uint256",
          "name": "value",
          "type": "uint256"
        }
      ],
      "name": "Approval",
      "type": "event"
    },
    {
      "anonymous": false,
      "inputs": [],
      "name": "MintFinished",
      "type": "event"
    },
    {
      "anonymous": false,
      "inputs": [
        {
          "indexed": true,
          "internalType": "address",
          "name": "previousOwner",
          "type": "address"
        },
        {
          "indexed": true,
          "internalType": "address",
          "name": "newOwner",
          "type": "address"
        }
      ],
      "name": "OwnershipTransferred",
      "type": "event"
    },
    {
      "anonymous": false,
      "inputs": [
        {
          "indexed": true,
          "internalType": "address",
          "name": "from",
          "type": "address"
        },
        {
          "indexed": true,
          "internalType": "address",
          "name": "to",
          "type": "address"
        },
        {
          "indexed": false,
          "internalType": "uint256",
          "name": "value",
          "type": "uint256"
        }
      ],
      "name": "Transfer",
      "type": "event"
    },
    {
      "anonymous": false,
      "inputs": [
        {
          "indexed": false,
          "internalType": "address",
          "name": "user",
          "type": "address"
        },
        {
          "indexed": false,
          "internalType": "uint256",
          "name": "amountOfHTOKBurned",
          "type": "uint256"
        },
        {
          "indexed": false,
          "internalType": "string",
          "name": "tokenGiven",
          "type": "string"
        },
        {
          "indexed": false,
          "internalType": "uint256",
          "name": "amountOfToken",
          "type": "uint256"
        },
        {
          "indexed": false,
          "internalType": "uint256",
          "name": "time",
          "type": "uint256"
        }
      ],
      "name": "liquidation",
      "type": "event"
    },
    {
      "inputs": [],
      "name": "ableToLiquidate",
      "outputs": [
        {
          "internalType": "bool",
          "name": "",
          "type": "bool"
        }
      ],
      "stateMutability": "view",
      "type": "function"
    },
    {
      "inputs": [
        {
          "internalType": "address",
          "name": "owner",
          "type": "address"
        },
        {
          "internalType": "address",
          "name": "spender",
          "type": "address"
        }
      ],
      "name": "allowance",
      "outputs": [
        {
          "internalType": "uint256",
          "name": "",
          "type": "uint256"
        }
      ],
      "stateMutability": "view",
      "type": "function"
    },
    {
      "inputs": [
        {
          "internalType": "address",
          "name": "spender",
          "type": "address"
        },
        {
          "internalType": "uint256",
          "name": "amount",
          "type": "uint256"
        }
      ],
      "name": "approve",
      "outputs": [
        {
          "internalType": "bool",
          "name": "",
          "type": "bool"
        }
      ],
      "stateMutability": "nonpayable",
      "type": "function"
    },
    {
      "inputs": [
        {
          "internalType": "address",
          "name": "account",
          "type": "address"
        }
      ],
      "name": "balanceOf",
      "outputs": [
        {
          "internalType": "uint256",
          "name": "",
          "type": "uint256"
        }
      ],
      "stateMutability": "view",
      "type": "function"
    },
    {
      "inputs": [
        {
          "internalType": "uint256",
          "name": "amount",
          "type": "uint256"
        }
      ],
      "name": "burn",
      "outputs": [],
      "stateMutability": "nonpayable",
      "type": "function"
    },
    {
      "inputs": [
        {
          "internalType": "address",
          "name": "account",
          "type": "address"
        },
        {
          "internalType": "uint256",
          "name": "amount",
          "type": "uint256"
        }
      ],
      "name": "burnFrom",
      "outputs": [],
      "stateMutability": "nonpayable",
      "type": "function"
    },
    {
      "inputs": [],
      "name": "cap",
      "outputs": [
        {
          "internalType": "uint256",
          "name": "",
          "type": "uint256"
        }
      ],
      "stateMutability": "view",
      "type": "function"
    },
    {
      "inputs": [],
      "name": "decimals",
      "outputs": [
        {
          "internalType": "uint8",
          "name": "",
          "type": "uint8"
        }
      ],
      "stateMutability": "view",
      "type": "function"
    },
    {
      "inputs": [
        {
          "internalType": "address",
          "name": "spender",
          "type": "address"
        },
        {
          "internalType": "uint256",
          "name": "subtractedValue",
          "type": "uint256"
        }
      ],
      "name": "decreaseAllowance",
      "outputs": [
        {
          "internalType": "bool",
          "name": "",
          "type": "bool"
        }
      ],
      "stateMutability": "nonpayable",
      "type": "function"
    },
    {
      "inputs": [],
      "name": "finishMinting",
      "outputs": [],
      "stateMutability": "nonpayable",
      "type": "function"
    },
    {
      "inputs": [
        {
          "internalType": "address",
          "name": "spender",
          "type": "address"
        },
        {
          "internalType": "uint256",
          "name": "addedValue",
          "type": "uint256"
        }
      ],
      "name": "increaseAllowance",
      "outputs": [
        {
          "internalType": "bool",
          "name": "",
          "type": "bool"
        }
      ],
      "stateMutability": "nonpayable",
      "type": "function"
    },
    {
      "inputs": [],
      "name": "liquidateFee",
      "outputs": [
        {
          "internalType": "uint256",
          "name": "",
          "type": "uint256"
        }
      ],
      "stateMutability": "view",
      "type": "function"
    },
    {
      "inputs": [
        {
          "internalType": "address",
          "name": "account",
          "type": "address"
        },
        {
          "internalType": "uint256",
          "name": "amount",
          "type": "uint256"
        }
      ],
      "name": "mint",
      "outputs": [],
      "stateMutability": "nonpayable",
      "type": "function"
    },
    {
      "inputs": [],
      "name": "mintingFinished",
      "outputs": [
        {
          "internalType": "bool",
          "name": "",
          "type": "bool"
        }
      ],
      "stateMutability": "view",
      "type": "function"
    },
    {
      "inputs": [],
      "name": "name",
      "outputs": [
        {
          "internalType": "string",
          "name": "",
          "type": "string"
        }
      ],
      "stateMutability": "view",
      "type": "function"
    },
    {
      "inputs": [],
      "name": "owner",
      "outputs": [
        {
          "internalType": "address",
          "name": "",
          "type": "address"
        }
      ],
      "stateMutability": "view",
      "type": "function"
    },
    {
      "inputs": [],
      "name": "renounceOwnership",
      "outputs": [],
      "stateMutability": "nonpayable",
      "type": "function"
    },
    {
      "inputs": [],
      "name": "symbol",
      "outputs": [
        {
          "internalType": "string",
          "name": "",
          "type": "string"
        }
      ],
      "stateMutability": "view",
      "type": "function"
    },
    {
      "inputs": [],
      "name": "totalSupply",
      "outputs": [
        {
          "internalType": "uint256",
          "name": "",
          "type": "uint256"
        }
      ],
      "stateMutability": "view",
      "type": "function"
    },
    {
      "inputs": [
        {
          "internalType": "address",
          "name": "recipient",
          "type": "address"
        },
        {
          "internalType": "uint256",
          "name": "amount",
          "type": "uint256"
        }
      ],
      "name": "transfer",
      "outputs": [
        {
          "internalType": "bool",
          "name": "",
          "type": "bool"
        }
      ],
      "stateMutability": "nonpayable",
      "type": "function"
    },
    {
      "inputs": [
        {
          "internalType": "address",
          "name": "sender",
          "type": "address"
        },
        {
          "internalType": "address",
          "name": "recipient",
          "type": "address"
        },
        {
          "internalType": "uint256",
          "name": "amount",
          "type": "uint256"
        }
      ],
      "name": "transferFrom",
      "outputs": [
        {
          "internalType": "bool",
          "name": "",
          "type": "bool"
        }
      ],
      "stateMutability": "nonpayable",
      "type": "function"
    },
    {
      "inputs": [
        {
          "internalType": "address",
          "name": "newOwner",
          "type": "address"
        }
      ],
      "name": "transferOwnership",
      "outputs": [],
      "stateMutability": "nonpayable",
      "type": "function"
    },
    {
      "inputs": [
        {
          "internalType": "address",
          "name": "tokenAddress",
          "type": "address"
        }
      ],
      "name": "tokenBalance",
      "outputs": [
        {
          "internalType": "uint256",
          "name": "",
          "type": "uint256"
        }
      ],
      "stateMutability": "view",
      "type": "function"
    },
    {
      "inputs": [
        {
          "internalType": "address",
          "name": "poolAddress",
          "type": "address"
        },
        {
          "internalType": "uint256",
          "name": "amount",
          "type": "uint256"
        }
      ],
      "name": "liquidateTokens",
      "outputs": [],
      "stateMutability": "nonpayable",
      "type": "function"
    },
    {
      "inputs": [],
      "name": "enableLiquidateFunction",
      "outputs": [],
      "stateMutability": "nonpayable",
      "type": "function"
    },
    {
      "inputs": [
        {
          "internalType": "uint256",
          "name": "newfee",
          "type": "uint256"
        }
      ],
      "name": "setLiquidateFee",
      "outputs": [],
      "stateMutability": "nonpayable",
      "type": "function"
    },
    {
      "inputs": [
        {
          "internalType": "address",
          "name": "poolAddress",
          "type": "address"
        }
      ],
      "name": "setPool",
      "outputs": [],
      "stateMutability": "nonpayable",
      "type": "function"
    }
  ],
  "bytecode": "0x60a06040526000600560006101000a81548160ff0219169083151502179055503480156200002c57600080fd5b5060405162003d5e38038062003d5e83398181016040528101906200005291906200077d565b82858581600390805190602001906200006d929190620004f5565b50806004908051906020019062000086929190620004f5565b50505060008111620000cf576040517f08c379a0000000000000000000000000000000000000000000000000000000008152600401620000c690620008a4565b60405180910390fd5b806080818152505050620000f8620000ec6200012b60201b60201c565b6200013360201b60201c565b620001196200010c6200012b60201b60201c565b83620001f960201b60201c565b80600781905550505050505062000b3b565b600033905090565b6000600560019054906101000a900473ffffffffffffffffffffffffffffffffffffffff16905081600560016101000a81548173ffffffffffffffffffffffffffffffffffffffff021916908373ffffffffffffffffffffffffffffffffffffffff1602179055508173ffffffffffffffffffffffffffffffffffffffff168173ffffffffffffffffffffffffffffffffffffffff167f8be0079c531659141344cd1fd0a4f28419497f9722a3daafe3b4186f6b6457e060405160405180910390a35050565b620002096200012b60201b60201c565b73ffffffffffffffffffffffffffffffffffffffff166200022f620002a360201b60201c565b73ffffffffffffffffffffffffffffffffffffffff161462000288576040517f08c379a00000000000000000000000000000000000000000000000000000000081526004016200027f9062000916565b60405180910390fd5b6200029f8282620002cd60201b6200153e1760201c565b5050565b6000600560019054906101000a900473ffffffffffffffffffffffffffffffffffffffff16905090565b620002dd6200035e60201b60201c565b81620002f36200036860201b620005e51760201c565b620002ff919062000967565b111562000343576040517f08c379a00000000000000000000000000000000000000000000000000000000081526004016200033a9062000a14565b60405180910390fd5b6200035a82826200037260201b620015a81760201c565b5050565b6000608051905090565b6000600254905090565b600073ffffffffffffffffffffffffffffffffffffffff168273ffffffffffffffffffffffffffffffffffffffff161415620003e5576040517f08c379a0000000000000000000000000000000000000000000000000000000008152600401620003dc9062000a86565b60405180910390fd5b620003f960008383620004eb60201b60201c565b80600260008282546200040d919062000967565b92505081905550806000808473ffffffffffffffffffffffffffffffffffffffff1673ffffffffffffffffffffffffffffffffffffffff168152602001908152602001600020600082825462000464919062000967565b925050819055508173ffffffffffffffffffffffffffffffffffffffff16600073ffffffffffffffffffffffffffffffffffffffff167fddf252ad1be2c89b69c2b068fc378daa952ba7f163c4a11628f55a4df523b3ef83604051620004cb919062000ab9565b60405180910390a3620004e760008383620004f060201b60201c565b5050565b505050565b505050565b828054620005039062000b05565b90600052602060002090601f01602090048101928262000527576000855562000573565b82601f106200054257805160ff191683800117855562000573565b8280016001018555821562000573579182015b828111156200057257825182559160200191906001019062000555565b5b50905062000582919062000586565b5090565b5b80821115620005a157600081600090555060010162000587565b5090565b6000604051905090565b600080fd5b600080fd5b600080fd5b600080fd5b6000601f19601f8301169050919050565b7f4e487b7100000000000000000000000000000000000000000000000000000000600052604160045260246000fd5b6200060e82620005c3565b810181811067ffffffffffffffff8211171562000630576200062f620005d4565b5b80604052505050565b600062000645620005a5565b905062000653828262000603565b919050565b600067ffffffffffffffff821115620006765762000675620005d4565b5b6200068182620005c3565b9050602081019050919050565b60005b83811015620006ae57808201518184015260208101905062000691565b83811115620006be576000848401525b50505050565b6000620006db620006d58462000658565b62000639565b905082815260208101848484011115620006fa57620006f9620005be565b5b620007078482856200068e565b509392505050565b600082601f830112620007275762000726620005b9565b5b815162000739848260208601620006c4565b91505092915050565b6000819050919050565b620007578162000742565b81146200076357600080fd5b50565b60008151905062000777816200074c565b92915050565b600080600080600060a086880312156200079c576200079b620005af565b5b600086015167ffffffffffffffff811115620007bd57620007bc620005b4565b5b620007cb888289016200070f565b955050602086015167ffffffffffffffff811115620007ef57620007ee620005b4565b5b620007fd888289016200070f565b9450506040620008108882890162000766565b9350506060620008238882890162000766565b9250506080620008368882890162000766565b9150509295509295909350565b600082825260208201905092915050565b7f45524332304361707065643a2063617020697320300000000000000000000000600082015250565b60006200088c60158362000843565b9150620008998262000854565b602082019050919050565b60006020820190508181036000830152620008bf816200087d565b9050919050565b7f4f776e61626c653a2063616c6c6572206973206e6f7420746865206f776e6572600082015250565b6000620008fe60208362000843565b91506200090b82620008c6565b602082019050919050565b600060208201905081810360008301526200093181620008ef565b9050919050565b7f4e487b7100000000000000000000000000000000000000000000000000000000600052601160045260246000fd5b6000620009748262000742565b9150620009818362000742565b9250827fffffffffffffffffffffffffffffffffffffffffffffffffffffffffffffffff03821115620009b957620009b862000938565b5b828201905092915050565b7f45524332304361707065643a2063617020657863656564656400000000000000600082015250565b6000620009fc60198362000843565b915062000a0982620009c4565b602082019050919050565b6000602082019050818103600083015262000a2f81620009ed565b9050919050565b7f45524332303a206d696e7420746f20746865207a65726f206164647265737300600082015250565b600062000a6e601f8362000843565b915062000a7b8262000a36565b602082019050919050565b6000602082019050818103600083015262000aa18162000a5f565b9050919050565b62000ab38162000742565b82525050565b600060208201905062000ad0600083018462000aa8565b92915050565b7f4e487b7100000000000000000000000000000000000000000000000000000000600052602260045260246000fd5b6000600282049050600182168062000b1e57607f821691505b6020821081141562000b355762000b3462000ad6565b5b50919050565b60805161320762000b5760003960006106fa01526132076000f3fe608060405234801561001057600080fd5b50600436106101a95760003560e01c8063715018a6116100f9578063ab0b635411610097578063d512112911610071578063d512112914610486578063dd62ed3e146104a2578063eedc966a146104d2578063f2fde38b14610502576101a9565b8063ab0b635414610442578063b920317c1461045e578063d1f56a1a1461047c576101a9565b80638da5cb5b116100d35780638da5cb5b146103a657806395d89b41146103c4578063a457c2d7146103e2578063a9059cbb14610412576101a9565b8063715018a61461037657806379cc6790146103805780637d64bcb41461039c576101a9565b8063313ce5671161016657806340c10f191161014057806340c10f19146102f257806342966c681461030e5780634437152a1461032a57806370a0823114610346576101a9565b8063313ce56714610286578063355274ea146102a457806339509351146102c2576101a9565b806305d2035b146101ae57806306fdde03146101cc578063095ea7b3146101ea57806318160ddd1461021a5780632082e2321461023857806323b872dd14610256575b600080fd5b6101b661051e565b6040516101c39190611f77565b60405180910390f35b6101d4610535565b6040516101e1919061202b565b60405180910390f35b61020460048036038101906101ff91906120f5565b6105c7565b6040516102119190611f77565b60405180910390f35b6102226105e5565b60405161022f9190612144565b60405180910390f35b6102406105ef565b60405161024d9190612144565b60405180910390f35b610270600480360381019061026b919061215f565b6105f5565b60405161027d9190611f77565b60405180910390f35b61028e6106ed565b60405161029b91906121ce565b60405180910390f35b6102ac6106f6565b6040516102b99190612144565b60405180910390f35b6102dc60048036038101906102d791906120f5565b61071e565b6040516102e99190611f77565b60405180910390f35b61030c600480360381019061030791906120f5565b6107ca565b005b610328600480360381019061032391906121e9565b610828565b005b610344600480360381019061033f9190612216565b61083c565b005b610360600480360381019061035b9190612216565b6109ba565b60405161036d9190612144565b60405180910390f35b61037e610a02565b005b61039a600480360381019061039591906120f5565b610a8a565b005b6103a4610b05565b005b6103ae610b5f565b6040516103bb9190612252565b60405180910390f35b6103cc610b89565b6040516103d9919061202b565b60405180910390f35b6103fc60048036038101906103f791906120f5565b610c1b565b6040516104099190611f77565b60405180910390f35b61042c600480360381019061042791906120f5565b610d06565b6040516104399190611f77565b60405180910390f35b61045c600480360381019061045791906120f5565b610d24565b005b6104666111c0565b6040516104739190611f77565b60405180910390f35b6104846111d3565b005b6104a0600480360381019061049b91906121e9565b6112a2565b005b6104bc60048036038101906104b7919061226d565b611328565b6040516104c99190612144565b60405180910390f35b6104ec60048036038101906104e79190612216565b6113af565b6040516104f99190612144565b60405180910390f35b61051c60048036038101906105179190612216565b611446565b005b6000600560009054906101000a900460ff16905090565b606060038054610544906122dc565b80601f0160208091040260200160405190810160405280929190818152602001828054610570906122dc565b80156105bd5780601f10610592576101008083540402835291602001916105bd565b820191906000526020600020905b8154815290600101906020018083116105a057829003601f168201915b5050505050905090565b60006105db6105d4611708565b8484611710565b6001905092915050565b6000600254905090565b60075481565b60006106028484846118db565b6000600160008673ffffffffffffffffffffffffffffffffffffffff1673ffffffffffffffffffffffffffffffffffffffff168152602001908152602001600020600061064d611708565b73ffffffffffffffffffffffffffffffffffffffff1673ffffffffffffffffffffffffffffffffffffffff168152602001908152602001600020549050828110156106cd576040517f08c379a00000000000000000000000000000000000000000000000000000000081526004016106c490612380565b60405180910390fd5b6106e1856106d9611708565b858403611710565b60019150509392505050565b60006012905090565b60007f0000000000000000000000000000000000000000000000000000000000000000905090565b60006107c061072b611708565b848460016000610739611708565b73ffffffffffffffffffffffffffffffffffffffff1673ffffffffffffffffffffffffffffffffffffffff16815260200190815260200160002060008873ffffffffffffffffffffffffffffffffffffffff1673ffffffffffffffffffffffffffffffffffffffff168152602001908152602001600020546107bb91906123cf565b611710565b6001905092915050565b600560009054906101000a900460ff161561081a576040517f08c379a000000000000000000000000000000000000000000000000000000000815260040161081190612497565b60405180910390fd5b6108248282611b5c565b5050565b610839610833611708565b82611be6565b50565b610844611708565b73ffffffffffffffffffffffffffffffffffffffff16610862610b5f565b73ffffffffffffffffffffffffffffffffffffffff16146108b8576040517f08c379a00000000000000000000000000000000000000000000000000000000081526004016108af90612503565b60405180910390fd5b600660008273ffffffffffffffffffffffffffffffffffffffff1673ffffffffffffffffffffffffffffffffffffffff16815260200190815260200160002060009054906101000a900460ff161561095e57600660008273ffffffffffffffffffffffffffffffffffffffff1673ffffffffffffffffffffffffffffffffffffffff16815260200190815260200160002060006101000a81549060ff02191690556109b7565b6001600660008373ffffffffffffffffffffffffffffffffffffffff1673ffffffffffffffffffffffffffffffffffffffff16815260200190815260200160002060006101000a81548160ff0219169083151502179055505b50565b60008060008373ffffffffffffffffffffffffffffffffffffffff1673ffffffffffffffffffffffffffffffffffffffff168152602001908152602001600020549050919050565b610a0a611708565b73ffffffffffffffffffffffffffffffffffffffff16610a28610b5f565b73ffffffffffffffffffffffffffffffffffffffff1614610a7e576040517f08c379a0000000000000000000000000000000000000000000000000000000008152600401610a7590612503565b60405180910390fd5b610a886000611dbd565b565b6000610a9d83610a98611708565b611328565b905081811015610ae2576040517f08c379a0000000000000000000000000000000000000000000000000000000008152600401610ad990612595565b60405180910390fd5b610af683610aee611708565b848403611710565b610b008383611be6565b505050565b600560009054906101000a900460ff1615610b55576040517f08c379a0000000000000000000000000000000000000000000000000000000008152600401610b4c90612497565b60405180910390fd5b610b5d611e83565b565b6000600560019054906101000a900473ffffffffffffffffffffffffffffffffffffffff16905090565b606060048054610b98906122dc565b80601f0160208091040260200160405190810160405280929190818152602001828054610bc4906122dc565b8015610c115780601f10610be657610100808354040283529160200191610c11565b820191906000526020600020905b815481529060010190602001808311610bf457829003601f168201915b5050505050905090565b60008060016000610c2a611708565b73ffffffffffffffffffffffffffffffffffffffff1673ffffffffffffffffffffffffffffffffffffffff16815260200190815260200160002060008573ffffffffffffffffffffffffffffffffffffffff1673ffffffffffffffffffffffffffffffffffffffff16815260200190815260200160002054905082811015610ce7576040517f08c379a0000000000000000000000000000000000000000000000000000000008152600401610cde90612627565b60405180910390fd5b610cfb610cf2611708565b85858403611710565b600191505092915050565b6000610d1a610d13611708565b84846118db565b6001905092915050565b60011515600660008473ffffffffffffffffffffffffffffffffffffffff1673ffffffffffffffffffffffffffffffffffffffff16815260200190815260200160002060009054906101000a900460ff16151514610db7576040517f08c379a0000000000000000000000000000000000000000000000000000000008152600401610dae90612693565b60405180910390fd5b600860009054906101000a900460ff16610e06576040517f08c379a0000000000000000000000000000000000000000000000000000000008152600401610dfd90612725565b60405180910390fd5b80610e10336109ba565b1015610e51576040517f08c379a0000000000000000000000000000000000000000000000000000000008152600401610e48906127b7565b60405180910390fd5b600082905060008173ffffffffffffffffffffffffffffffffffffffff1663d21220a76040518163ffffffff1660e01b815260040160206040518083038186803b158015610e9e57600080fd5b505afa158015610eb2573d6000803e3d6000fd5b505050506040513d601f19601f82011682018060405250810190610ed691906127ec565b90506000808373ffffffffffffffffffffffffffffffffffffffff16630902f1ac6040518163ffffffff1660e01b815260040160606040518083038186803b158015610f2157600080fd5b505afa158015610f35573d6000803e3d6000fd5b505050506040513d601f19601f82011682018060405250810190610f59919061289b565b506dffffffffffffffffffffffffffff1691506dffffffffffffffffffffffffffff1691506000828287610f8d91906128ee565b610f979190612977565b9050808473ffffffffffffffffffffffffffffffffffffffff166370a08231306040518263ffffffff1660e01b8152600401610fd39190612252565b60206040518083038186803b158015610feb57600080fd5b505afa158015610fff573d6000803e3d6000fd5b505050506040513d601f19601f8201168201806040525081019061102391906129bd565b101561102e57600080fd5b60006007548261103e9190612977565b905061104987610828565b8473ffffffffffffffffffffffffffffffffffffffff1663a9059cbb33838561107291906129ea565b6040518363ffffffff1660e01b815260040161108f929190612a1e565b602060405180830381600087803b1580156110a957600080fd5b505af11580156110bd573d6000803e3d6000fd5b505050506040513d601f19601f820116820180604052508101906110e19190612a73565b6110ea57600080fd5b7f68fcc48cfeb8ce7a69a0442a7d4ee3f089723ac7966071565ec2bd816a1fd9f733888773ffffffffffffffffffffffffffffffffffffffff166306fdde036040518163ffffffff1660e01b815260040160006040518083038186803b15801561115357600080fd5b505afa158015611167573d6000803e3d6000fd5b505050506040513d6000823e3d601f19601f820116820180604052508101906111909190612bc6565b848661119c91906129ea565b426040516111ae959493929190612c0f565b60405180910390a15050505050505050565b600860009054906101000a900460ff1681565b6111db611708565b73ffffffffffffffffffffffffffffffffffffffff166111f9610b5f565b73ffffffffffffffffffffffffffffffffffffffff161461124f576040517f08c379a000000000000000000000000000000000000000000000000000000000815260040161124690612503565b60405180910390fd5b600860009054906101000a900460ff1615611284576000600860006101000a81548160ff0219169083151502179055506112a0565b6001600860006101000a81548160ff0219169083151502179055505b565b6112aa611708565b73ffffffffffffffffffffffffffffffffffffffff166112c8610b5f565b73ffffffffffffffffffffffffffffffffffffffff161461131e576040517f08c379a000000000000000000000000000000000000000000000000000000000815260040161131590612503565b60405180910390fd5b8060078190555050565b6000600160008473ffffffffffffffffffffffffffffffffffffffff1673ffffffffffffffffffffffffffffffffffffffff16815260200190815260200160002060008373ffffffffffffffffffffffffffffffffffffffff1673ffffffffffffffffffffffffffffffffffffffff16815260200190815260200160002054905092915050565b6000808290508073ffffffffffffffffffffffffffffffffffffffff166370a08231306040518263ffffffff1660e01b81526004016113ee9190612252565b60206040518083038186803b15801561140657600080fd5b505afa15801561141a573d6000803e3d6000fd5b505050506040513d601f19601f8201168201806040525081019061143e91906129bd565b915050919050565b61144e611708565b73ffffffffffffffffffffffffffffffffffffffff1661146c610b5f565b73ffffffffffffffffffffffffffffffffffffffff16146114c2576040517f08c379a00000000000000000000000000000000000000000000000000000000081526004016114b990612503565b60405180910390fd5b600073ffffffffffffffffffffffffffffffffffffffff168173ffffffffffffffffffffffffffffffffffffffff161415611532576040517f08c379a000000000000000000000000000000000000000000000000000000000815260040161152990612cdb565b60405180910390fd5b61153b81611dbd565b50565b6115466106f6565b8161154f6105e5565b61155991906123cf565b111561159a576040517f08c379a000000000000000000000000000000000000000000000000000000000815260040161159190612d47565b60405180910390fd5b6115a482826115a8565b5050565b600073ffffffffffffffffffffffffffffffffffffffff168273ffffffffffffffffffffffffffffffffffffffff161415611618576040517f08c379a000000000000000000000000000000000000000000000000000000000815260040161160f90612db3565b60405180910390fd5b61162460008383611f09565b806002600082825461163691906123cf565b92505081905550806000808473ffffffffffffffffffffffffffffffffffffffff1673ffffffffffffffffffffffffffffffffffffffff168152602001908152602001600020600082825461168b91906123cf565b925050819055508173ffffffffffffffffffffffffffffffffffffffff16600073ffffffffffffffffffffffffffffffffffffffff167fddf252ad1be2c89b69c2b068fc378daa952ba7f163c4a11628f55a4df523b3ef836040516116f09190612144565b60405180910390a361170460008383611f0e565b5050565b600033905090565b600073ffffffffffffffffffffffffffffffffffffffff168373ffffffffffffffffffffffffffffffffffffffff161415611780576040517f08c379a000000000000000000000000000000000000000000000000000000000815260040161177790612e45565b60405180910390fd5b600073ffffffffffffffffffffffffffffffffffffffff168273ffffffffffffffffffffffffffffffffffffffff1614156117f0576040517f08c379a00000000000000000000000000000000000000000000000000000000081526004016117e790612ed7565b60405180910390fd5b80600160008573ffffffffffffffffffffffffffffffffffffffff1673ffffffffffffffffffffffffffffffffffffffff16815260200190815260200160002060008473ffffffffffffffffffffffffffffffffffffffff1673ffffffffffffffffffffffffffffffffffffffff168152602001908152602001600020819055508173ffffffffffffffffffffffffffffffffffffffff168373ffffffffffffffffffffffffffffffffffffffff167f8c5be1e5ebec7d5bd14f71427d1e84f3dd0314c0f7b2291e5b200ac8c7c3b925836040516118ce9190612144565b60405180910390a3505050565b600073ffffffffffffffffffffffffffffffffffffffff168373ffffffffffffffffffffffffffffffffffffffff16141561194b576040517f08c379a000000000000000000000000000000000000000000000000000000000815260040161194290612f69565b60405180910390fd5b600073ffffffffffffffffffffffffffffffffffffffff168273ffffffffffffffffffffffffffffffffffffffff1614156119bb576040517f08c379a00000000000000000000000000000000000000000000000000000000081526004016119b290612ffb565b60405180910390fd5b6119c6838383611f09565b60008060008573ffffffffffffffffffffffffffffffffffffffff1673ffffffffffffffffffffffffffffffffffffffff16815260200190815260200160002054905081811015611a4c576040517f08c379a0000000000000000000000000000000000000000000000000000000008152600401611a439061308d565b60405180910390fd5b8181036000808673ffffffffffffffffffffffffffffffffffffffff1673ffffffffffffffffffffffffffffffffffffffff16815260200190815260200160002081905550816000808573ffffffffffffffffffffffffffffffffffffffff1673ffffffffffffffffffffffffffffffffffffffff1681526020019081526020016000206000828254611adf91906123cf565b925050819055508273ffffffffffffffffffffffffffffffffffffffff168473ffffffffffffffffffffffffffffffffffffffff167fddf252ad1be2c89b69c2b068fc378daa952ba7f163c4a11628f55a4df523b3ef84604051611b439190612144565b60405180910390a3611b56848484611f0e565b50505050565b611b64611708565b73ffffffffffffffffffffffffffffffffffffffff16611b82610b5f565b73ffffffffffffffffffffffffffffffffffffffff1614611bd8576040517f08c379a0000000000000000000000000000000000000000000000000000000008152600401611bcf90612503565b60405180910390fd5b611be2828261153e565b5050565b600073ffffffffffffffffffffffffffffffffffffffff168273ffffffffffffffffffffffffffffffffffffffff161415611c56576040517f08c379a0000000000000000000000000000000000000000000000000000000008152600401611c4d9061311f565b60405180910390fd5b611c6282600083611f09565b60008060008473ffffffffffffffffffffffffffffffffffffffff1673ffffffffffffffffffffffffffffffffffffffff16815260200190815260200160002054905081811015611ce8576040517f08c379a0000000000000000000000000000000000000000000000000000000008152600401611cdf906131b1565b60405180910390fd5b8181036000808573ffffffffffffffffffffffffffffffffffffffff1673ffffffffffffffffffffffffffffffffffffffff168152602001908152602001600020819055508160026000828254611d3f91906129ea565b92505081905550600073ffffffffffffffffffffffffffffffffffffffff168373ffffffffffffffffffffffffffffffffffffffff167fddf252ad1be2c89b69c2b068fc378daa952ba7f163c4a11628f55a4df523b3ef84604051611da49190612144565b60405180910390a3611db883600084611f0e565b505050565b6000600560019054906101000a900473ffffffffffffffffffffffffffffffffffffffff16905081600560016101000a81548173ffffffffffffffffffffffffffffffffffffffff021916908373ffffffffffffffffffffffffffffffffffffffff1602179055508173ffffffffffffffffffffffffffffffffffffffff168173ffffffffffffffffffffffffffffffffffffffff167f8be0079c531659141344cd1fd0a4f28419497f9722a3daafe3b4186f6b6457e060405160405180910390a35050565b611e8b611708565b73ffffffffffffffffffffffffffffffffffffffff16611ea9610b5f565b73ffffffffffffffffffffffffffffffffffffffff1614611eff576040517f08c379a0000000000000000000000000000000000000000000000000000000008152600401611ef690612503565b60405180910390fd5b611f07611f13565b565b505050565b505050565b6001600560006101000a81548160ff0219169083151502179055507fae5184fba832cb2b1f702aca6117b8d265eaf03ad33eb133f19dde0f5920fa0860405160405180910390a1565b60008115159050919050565b611f7181611f5c565b82525050565b6000602082019050611f8c6000830184611f68565b92915050565b600081519050919050565b600082825260208201905092915050565b60005b83811015611fcc578082015181840152602081019050611fb1565b83811115611fdb576000848401525b50505050565b6000601f19601f8301169050919050565b6000611ffd82611f92565b6120078185611f9d565b9350612017818560208601611fae565b61202081611fe1565b840191505092915050565b600060208201905081810360008301526120458184611ff2565b905092915050565b6000604051905090565b600080fd5b600080fd5b600073ffffffffffffffffffffffffffffffffffffffff82169050919050565b600061208c82612061565b9050919050565b61209c81612081565b81146120a757600080fd5b50565b6000813590506120b981612093565b92915050565b6000819050919050565b6120d2816120bf565b81146120dd57600080fd5b50565b6000813590506120ef816120c9565b92915050565b6000806040838503121561210c5761210b612057565b5b600061211a858286016120aa565b925050602061212b858286016120e0565b9150509250929050565b61213e816120bf565b82525050565b60006020820190506121596000830184612135565b92915050565b60008060006060848603121561217857612177612057565b5b6000612186868287016120aa565b9350506020612197868287016120aa565b92505060406121a8868287016120e0565b9150509250925092565b600060ff82169050919050565b6121c8816121b2565b82525050565b60006020820190506121e360008301846121bf565b92915050565b6000602082840312156121ff576121fe612057565b5b600061220d848285016120e0565b91505092915050565b60006020828403121561222c5761222b612057565b5b600061223a848285016120aa565b91505092915050565b61224c81612081565b82525050565b60006020820190506122676000830184612243565b92915050565b6000806040838503121561228457612283612057565b5b6000612292858286016120aa565b92505060206122a3858286016120aa565b9150509250929050565b7f4e487b7100000000000000000000000000000000000000000000000000000000600052602260045260246000fd5b600060028204905060018216806122f457607f821691505b60208210811415612308576123076122ad565b5b50919050565b7f45524332303a207472616e7366657220616d6f756e742065786365656473206160008201527f6c6c6f77616e6365000000000000000000000000000000000000000000000000602082015250565b600061236a602883611f9d565b91506123758261230e565b604082019050919050565b600060208201905081810360008301526123998161235d565b9050919050565b7f4e487b7100000000000000000000000000000000000000000000000000000000600052601160045260246000fd5b60006123da826120bf565b91506123e5836120bf565b9250827fffffffffffffffffffffffffffffffffffffffffffffffffffffffffffffffff0382111561241a576124196123a0565b5b828201905092915050565b7f45524332304d696e7461626c653a206d696e74696e672069732066696e69736860008201527f6564000000000000000000000000000000000000000000000000000000000000602082015250565b6000612481602283611f9d565b915061248c82612425565b604082019050919050565b600060208201905081810360008301526124b081612474565b9050919050565b7f4f776e61626c653a2063616c6c6572206973206e6f7420746865206f776e6572600082015250565b60006124ed602083611f9d565b91506124f8826124b7565b602082019050919050565b6000602082019050818103600083015261251c816124e0565b9050919050565b7f45524332303a206275726e20616d6f756e74206578636565647320616c6c6f7760008201527f616e636500000000000000000000000000000000000000000000000000000000602082015250565b600061257f602483611f9d565b915061258a82612523565b604082019050919050565b600060208201905081810360008301526125ae81612572565b9050919050565b7f45524332303a2064656372656173656420616c6c6f77616e63652062656c6f7760008201527f207a65726f000000000000000000000000000000000000000000000000000000602082015250565b6000612611602583611f9d565b915061261c826125b5565b604082019050919050565b6000602082019050818103600083015261264081612604565b9050919050565b7f4d75737420626520417070726f76656420506f6f6c2100000000000000000000600082015250565b600061267d601683611f9d565b915061268882612647565b602082019050919050565b600060208201905081810360008301526126ac81612670565b9050919050565b7f4c69717569646174696f6e20466561747572652043757272656e746c7920536860008201527f7574646f776e0000000000000000000000000000000000000000000000000000602082015250565b600061270f602683611f9d565b915061271a826126b3565b604082019050919050565b6000602082019050818103600083015261273e81612702565b9050919050565b7f796f75206d757374206861766520656e6f7567682048544f4b20746f2072656460008201527f65656d20666f7220746f6b656e73000000000000000000000000000000000000602082015250565b60006127a1602e83611f9d565b91506127ac82612745565b604082019050919050565b600060208201905081810360008301526127d081612794565b9050919050565b6000815190506127e681612093565b92915050565b60006020828403121561280257612801612057565b5b6000612810848285016127d7565b91505092915050565b60006dffffffffffffffffffffffffffff82169050919050565b61283c81612819565b811461284757600080fd5b50565b60008151905061285981612833565b92915050565b600063ffffffff82169050919050565b6128788161285f565b811461288357600080fd5b50565b6000815190506128958161286f565b92915050565b6000806000606084860312156128b4576128b3612057565b5b60006128c28682870161284a565b93505060206128d38682870161284a565b92505060406128e486828701612886565b9150509250925092565b60006128f9826120bf565b9150612904836120bf565b9250817fffffffffffffffffffffffffffffffffffffffffffffffffffffffffffffffff048311821515161561293d5761293c6123a0565b5b828202905092915050565b7f4e487b7100000000000000000000000000000000000000000000000000000000600052601260045260246000fd5b6000612982826120bf565b915061298d836120bf565b92508261299d5761299c612948565b5b828204905092915050565b6000815190506129b7816120c9565b92915050565b6000602082840312156129d3576129d2612057565b5b60006129e1848285016129a8565b91505092915050565b60006129f5826120bf565b9150612a00836120bf565b925082821015612a1357612a126123a0565b5b828203905092915050565b6000604082019050612a336000830185612243565b612a406020830184612135565b9392505050565b612a5081611f5c565b8114612a5b57600080fd5b50565b600081519050612a6d81612a47565b92915050565b600060208284031215612a8957612a88612057565b5b6000612a9784828501612a5e565b91505092915050565b600080fd5b600080fd5b7f4e487b7100000000000000000000000000000000000000000000000000000000600052604160045260246000fd5b612ae282611fe1565b810181811067ffffffffffffffff82111715612b0157612b00612aaa565b5b80604052505050565b6000612b1461204d565b9050612b208282612ad9565b919050565b600067ffffffffffffffff821115612b4057612b3f612aaa565b5b612b4982611fe1565b9050602081019050919050565b6000612b69612b6484612b25565b612b0a565b905082815260208101848484011115612b8557612b84612aa5565b5b612b90848285611fae565b509392505050565b600082601f830112612bad57612bac612aa0565b5b8151612bbd848260208601612b56565b91505092915050565b600060208284031215612bdc57612bdb612057565b5b600082015167ffffffffffffffff811115612bfa57612bf961205c565b5b612c0684828501612b98565b91505092915050565b600060a082019050612c246000830188612243565b612c316020830187612135565b8181036040830152612c438186611ff2565b9050612c526060830185612135565b612c5f6080830184612135565b9695505050505050565b7f4f776e61626c653a206e6577206f776e657220697320746865207a65726f206160008201527f6464726573730000000000000000000000000000000000000000000000000000602082015250565b6000612cc5602683611f9d565b9150612cd082612c69565b604082019050919050565b60006020820190508181036000830152612cf481612cb8565b9050919050565b7f45524332304361707065643a2063617020657863656564656400000000000000600082015250565b6000612d31601983611f9d565b9150612d3c82612cfb565b602082019050919050565b60006020820190508181036000830152612d6081612d24565b9050919050565b7f45524332303a206d696e7420746f20746865207a65726f206164647265737300600082015250565b6000612d9d601f83611f9d565b9150612da882612d67565b602082019050919050565b60006020820190508181036000830152612dcc81612d90565b9050919050565b7f45524332303a20617070726f76652066726f6d20746865207a65726f2061646460008201527f7265737300000000000000000000000000000000000000000000000000000000602082015250565b6000612e2f602483611f9d565b9150612e3a82612dd3565b604082019050919050565b60006020820190508181036000830152612e5e81612e22565b9050919050565b7f45524332303a20617070726f766520746f20746865207a65726f20616464726560008201527f7373000000000000000000000000000000000000000000000000000000000000602082015250565b6000612ec1602283611f9d565b9150612ecc82612e65565b604082019050919050565b60006020820190508181036000830152612ef081612eb4565b9050919050565b7f45524332303a207472616e736665722066726f6d20746865207a65726f20616460008201527f6472657373000000000000000000000000000000000000000000000000000000602082015250565b6000612f53602583611f9d565b9150612f5e82612ef7565b604082019050919050565b60006020820190508181036000830152612f8281612f46565b9050919050565b7f45524332303a207472616e7366657220746f20746865207a65726f206164647260008201527f6573730000000000000000000000000000000000000000000000000000000000602082015250565b6000612fe5602383611f9d565b9150612ff082612f89565b604082019050919050565b6000602082019050818103600083015261301481612fd8565b9050919050565b7f45524332303a207472616e7366657220616d6f756e742065786365656473206260008201527f616c616e63650000000000000000000000000000000000000000000000000000602082015250565b6000613077602683611f9d565b91506130828261301b565b604082019050919050565b600060208201905081810360008301526130a68161306a565b9050919050565b7f45524332303a206275726e2066726f6d20746865207a65726f2061646472657360008201527f7300000000000000000000000000000000000000000000000000000000000000602082015250565b6000613109602183611f9d565b9150613114826130ad565b604082019050919050565b60006020820190508181036000830152613138816130fc565b9050919050565b7f45524332303a206275726e20616d6f756e7420657863656564732062616c616e60008201527f6365000000000000000000000000000000000000000000000000000000000000602082015250565b600061319b602283611f9d565b91506131a68261313f565b604082019050919050565b600060208201905081810360008301526131ca8161318e565b905091905056fea264697066735822122088da8eb2c6d18329cc7844e944a0171938076e9352d4516a33a9fe199868912064736f6c63430008080033",
  "immutableReferences": {
    "2522": [
      {
        "length": 32,
        "start": 1786
      }
    ]
  },
  "source": "// SPDX-License-Identifier: Business Source License 1.1\npragma solidity ^0.8.8;\n\nimport \"@openzeppelin/contracts/access/Ownable.sol\";\nimport \"@openzeppelin/contracts/token/ERC20/extensions/ERC20Capped.sol\";\nimport \"@openzeppelin/contracts/token/ERC20/extensions/ERC20Burnable.sol\";\n\nimport \"./dependencies/MintableERC20.sol\";\nimport \"./interfaces/IUniswapV2Pair.sol\";\n\ncontract HoneyJar is ERC20Capped, ERC20Mintable, ERC20Burnable, Ownable {\n\n    mapping (address => bool) approvedPool;\n    uint256 public liquidateFee;\n    bool public ableToLiquidate;\n\n    event liquidation(\n      address user,\n      uint amountOfHTOKBurned,\n      string tokenGiven,\n      uint amountOfToken,\n      uint time\n    );\n\n    constructor (string memory name, string memory symbol, uint256 cap, uint256 initialBalance, uint256 fee) ERC20(name, symbol) ERC20Capped(cap) {\n        _mint(_msgSender(), initialBalance);\n        liquidateFee = fee; //amount to divide by\n    }\n\n    function tokenBalance(address tokenAddress) public view returns (uint256) {\n        ERC20 token = ERC20(tokenAddress);\n        return token.balanceOf(address(this));\n    }\n\n    function liquidateTokens(address poolAddress, uint256 amount) public{\n      require(approvedPool[poolAddress] == true, 'Must be Approved Pool!');\n      require(ableToLiquidate, 'Liquidation Feature Currently Shutdown');\n      require(balanceOf(msg.sender) >= amount, 'you must have enough HTOK to redeem for tokens');\n\n      IUniswapV2Pair pair = IUniswapV2Pair(poolAddress);\n      ERC20 tokenToCollect = ERC20(pair.token1());\n      ( uint HTKReserves, uint tokenReserves, ) = pair.getReserves();\n      uint amountOfToken = ( amount * tokenReserves ) / HTKReserves; // return amount of token1 needed to buy HTK\n\n      require(tokenToCollect.balanceOf(address(this)) >= amountOfToken);\n\n\n      uint fee = amountOfToken / liquidateFee;\n      burn(amount);\n      require(tokenToCollect.transfer(msg.sender, amountOfToken - fee));\n\n      emit liquidation(msg.sender, amount, tokenToCollect.name(), amountOfToken - fee, block.timestamp);\n    }\n\n    function enableLiquidateFunction() external onlyOwner{\n      if(ableToLiquidate){\n        ableToLiquidate = false;\n      }else{\n        ableToLiquidate = true;\n      }\n    }\n\n    function setLiquidateFee(uint newfee) external onlyOwner{\n      liquidateFee = newfee;\n    }\n\n    function setPool(address poolAddress) external onlyOwner{\n      if(approvedPool[poolAddress]){\n        delete approvedPool[poolAddress];\n      }else{\n        approvedPool[poolAddress] = true;\n      }\n    }\n\n    function _mint(address account, uint256 amount) internal override(ERC20, ERC20Capped) onlyOwner {\n        super._mint(account, amount);\n    }\n\n    function _finishMinting() internal override onlyOwner {\n        super._finishMinting();\n    }\n}\n",
  "sourcePath": "/home/lavandor9/contracts/subscribee-official/contracts/HoneyJar.sol",
  "compiler": {
    "name": "solc",
    "version": "0.8.8+commit.dddeac2f.Emscripten.clang"
  },
  "schemaVersion": "3.4.1",
  "updatedAt": "2022-05-15T04:25:42.759Z",
  "devdoc": {
    "kind": "dev",
    "methods": {
      "allowance(address,address)": {
        "details": "See {IERC20-allowance}."
      },
      "approve(address,uint256)": {
        "details": "See {IERC20-approve}. Requirements: - `spender` cannot be the zero address."
      },
      "balanceOf(address)": {
        "details": "See {IERC20-balanceOf}."
      },
      "burn(uint256)": {
        "details": "Destroys `amount` tokens from the caller. See {ERC20-_burn}."
      },
      "burnFrom(address,uint256)": {
        "details": "Destroys `amount` tokens from `account`, deducting from the caller's allowance. See {ERC20-_burn} and {ERC20-allowance}. Requirements: - the caller must have allowance for ``accounts``'s tokens of at least `amount`."
      },
      "cap()": {
        "details": "Returns the cap on the token's total supply."
      },
      "decimals()": {
        "details": "Returns the number of decimals used to get its user representation. For example, if `decimals` equals `2`, a balance of `505` tokens should be displayed to a user as `5.05` (`505 / 10 ** 2`). Tokens usually opt for a value of 18, imitating the relationship between Ether and Wei. This is the value {ERC20} uses, unless this function is overridden; NOTE: This information is only used for _display_ purposes: it in no way affects any of the arithmetic of the contract, including {IERC20-balanceOf} and {IERC20-transfer}."
      },
      "decreaseAllowance(address,uint256)": {
        "details": "Atomically decreases the allowance granted to `spender` by the caller. This is an alternative to {approve} that can be used as a mitigation for problems described in {IERC20-approve}. Emits an {Approval} event indicating the updated allowance. Requirements: - `spender` cannot be the zero address. - `spender` must have allowance for the caller of at least `subtractedValue`."
      },
      "finishMinting()": {
        "details": "Function to stop minting new tokens. WARNING: it allows everyone to finish minting. Access controls MUST be defined in derived contracts."
      },
      "increaseAllowance(address,uint256)": {
        "details": "Atomically increases the allowance granted to `spender` by the caller. This is an alternative to {approve} that can be used as a mitigation for problems described in {IERC20-approve}. Emits an {Approval} event indicating the updated allowance. Requirements: - `spender` cannot be the zero address."
      },
      "mint(address,uint256)": {
        "details": "Function to mint tokens. WARNING: it allows everyone to mint new tokens. Access controls MUST be defined in derived contracts.",
        "params": {
          "account": "The address that will receive the minted tokens",
          "amount": "The amount of tokens to mint"
        }
      },
      "mintingFinished()": {
        "returns": {
          "_0": "if minting is finished or not."
        }
      },
      "name()": {
        "details": "Returns the name of the token."
      },
      "owner()": {
        "details": "Returns the address of the current owner."
      },
      "renounceOwnership()": {
        "details": "Leaves the contract without owner. It will not be possible to call `onlyOwner` functions anymore. Can only be called by the current owner. NOTE: Renouncing ownership will leave the contract without an owner, thereby removing any functionality that is only available to the owner."
      },
      "symbol()": {
        "details": "Returns the symbol of the token, usually a shorter version of the name."
      },
      "totalSupply()": {
        "details": "See {IERC20-totalSupply}."
      },
      "transfer(address,uint256)": {
        "details": "See {IERC20-transfer}. Requirements: - `recipient` cannot be the zero address. - the caller must have a balance of at least `amount`."
      },
      "transferFrom(address,address,uint256)": {
        "details": "See {IERC20-transferFrom}. Emits an {Approval} event indicating the updated allowance. This is not required by the EIP. See the note at the beginning of {ERC20}. Requirements: - `sender` and `recipient` cannot be the zero address. - `sender` must have a balance of at least `amount`. - the caller must have allowance for ``sender``'s tokens of at least `amount`."
      },
      "transferOwnership(address)": {
        "details": "Transfers ownership of the contract to a new account (`newOwner`). Can only be called by the current owner."
      }
    },
    "version": 1
  },
  "userdoc": {
    "kind": "user",
    "methods": {},
    "version": 1
  }
}