{
  "contractName": "SubscribeeV1",
  "abi": [
    {
      "inputs": [
        {
          "internalType": "address",
          "name": "beehiveAddress",
          "type": "address"
        },
        {
          "internalType": "address",
          "name": "operatorAddress",
          "type": "address"
        },
        {
          "internalType": "string",
          "name": "newTitle",
          "type": "string"
        },
        {
          "internalType": "string",
          "name": "newSlug",
          "type": "string"
        },
        {
          "internalType": "string",
          "name": "newImage",
          "type": "string"
        }
      ],
      "stateMutability": "nonpayable",
      "type": "constructor"
    },
    {
      "anonymous": false,
      "inputs": [
        {
          "indexed": true,
          "internalType": "address",
          "name": "previousOwner",
          "type": "address"
        },
        {
          "indexed": true,
          "internalType": "address",
          "name": "newOwner",
          "type": "address"
        }
      ],
      "name": "OwnershipTransferred",
      "type": "event"
    },
    {
      "anonymous": false,
      "inputs": [
        {
          "indexed": false,
          "internalType": "address",
          "name": "from",
          "type": "address"
        },
        {
          "indexed": false,
          "internalType": "address",
          "name": "to",
          "type": "address"
        },
        {
          "indexed": false,
          "internalType": "uint128",
          "name": "amount",
          "type": "uint128"
        },
        {
          "indexed": false,
          "internalType": "uint64",
          "name": "planId",
          "type": "uint64"
        },
        {
          "indexed": false,
          "internalType": "uint256",
          "name": "date",
          "type": "uint256"
        }
      ],
      "name": "PaymentSent",
      "type": "event"
    },
    {
      "anonymous": false,
      "inputs": [
        {
          "indexed": false,
          "internalType": "address",
          "name": "merchant",
          "type": "address"
        },
        {
          "indexed": false,
          "internalType": "uint64",
          "name": "planId",
          "type": "uint64"
        },
        {
          "indexed": false,
          "internalType": "uint256",
          "name": "date",
          "type": "uint256"
        },
        {
          "indexed": false,
          "internalType": "uint64",
          "name": "terms",
          "type": "uint64"
        }
      ],
      "name": "PlanCreated",
      "type": "event"
    },
    {
      "anonymous": false,
      "inputs": [
        {
          "indexed": false,
          "internalType": "address",
          "name": "subscriber",
          "type": "address"
        },
        {
          "indexed": false,
          "internalType": "uint64",
          "name": "planId",
          "type": "uint64"
        },
        {
          "indexed": false,
          "internalType": "uint256",
          "name": "date",
          "type": "uint256"
        }
      ],
      "name": "SubscriptionCreated",
      "type": "event"
    },
    {
      "anonymous": false,
      "inputs": [
        {
          "indexed": false,
          "internalType": "address",
          "name": "subscriber",
          "type": "address"
        },
        {
          "indexed": false,
          "internalType": "uint64",
          "name": "planId",
          "type": "uint64"
        },
        {
          "indexed": false,
          "internalType": "uint256",
          "name": "date",
          "type": "uint256"
        },
        {
          "indexed": false,
          "internalType": "string",
          "name": "reason",
          "type": "string"
        }
      ],
      "name": "SubscriptionDeleted",
      "type": "event"
    },
    {
      "inputs": [],
      "name": "beehive",
      "outputs": [
        {
          "internalType": "address",
          "name": "",
          "type": "address"
        }
      ],
      "stateMutability": "view",
      "type": "function"
    },
    {
      "inputs": [],
      "name": "image",
      "outputs": [
        {
          "internalType": "string",
          "name": "",
          "type": "string"
        }
      ],
      "stateMutability": "view",
      "type": "function"
    },
    {
      "inputs": [],
      "name": "nextPlanId",
      "outputs": [
        {
          "internalType": "uint64",
          "name": "",
          "type": "uint64"
        }
      ],
      "stateMutability": "view",
      "type": "function"
    },
    {
      "inputs": [],
      "name": "operator",
      "outputs": [
        {
          "internalType": "address",
          "name": "",
          "type": "address"
        }
      ],
      "stateMutability": "view",
      "type": "function"
    },
    {
      "inputs": [],
      "name": "owner",
      "outputs": [
        {
          "internalType": "address",
          "name": "",
          "type": "address"
        }
      ],
      "stateMutability": "view",
      "type": "function"
    },
    {
      "inputs": [
        {
          "internalType": "uint64",
          "name": "",
          "type": "uint64"
        }
      ],
      "name": "plans",
      "outputs": [
        {
          "internalType": "string",
          "name": "title",
          "type": "string"
        },
        {
          "internalType": "address",
          "name": "merchant",
          "type": "address"
        },
        {
          "internalType": "address",
          "name": "token",
          "type": "address"
        },
        {
          "internalType": "uint128",
          "name": "amount",
          "type": "uint128"
        },
        {
          "internalType": "uint128",
          "name": "frequency",
          "type": "uint128"
        },
        {
          "internalType": "bool",
          "name": "halted",
          "type": "bool"
        }
      ],
      "stateMutability": "view",
      "type": "function"
    },
    {
      "inputs": [],
      "name": "renounceOwnership",
      "outputs": [],
      "stateMutability": "nonpayable",
      "type": "function"
    },
    {
      "inputs": [],
      "name": "slug",
      "outputs": [
        {
          "internalType": "string",
          "name": "",
          "type": "string"
        }
      ],
      "stateMutability": "view",
      "type": "function"
    },
    {
      "inputs": [
        {
          "internalType": "uint64",
          "name": "",
          "type": "uint64"
        },
        {
          "internalType": "address",
          "name": "",
          "type": "address"
        }
      ],
      "name": "subscriptions",
      "outputs": [
        {
          "internalType": "uint256",
          "name": "start",
          "type": "uint256"
        },
        {
          "internalType": "uint256",
          "name": "nextPayment",
          "type": "uint256"
        },
        {
          "internalType": "bool",
          "name": "stopped",
          "type": "bool"
        }
      ],
      "stateMutability": "view",
      "type": "function"
    },
    {
      "inputs": [],
      "name": "suspended",
      "outputs": [
        {
          "internalType": "bool",
          "name": "",
          "type": "bool"
        }
      ],
      "stateMutability": "view",
      "type": "function"
    },
    {
      "inputs": [],
      "name": "title",
      "outputs": [
        {
          "internalType": "string",
          "name": "",
          "type": "string"
        }
      ],
      "stateMutability": "view",
      "type": "function"
    },
    {
      "inputs": [
        {
          "internalType": "address",
          "name": "newOwner",
          "type": "address"
        }
      ],
      "name": "transferOwnership",
      "outputs": [],
      "stateMutability": "nonpayable",
      "type": "function"
    },
    {
      "inputs": [
        {
          "internalType": "address",
          "name": "newOperator",
          "type": "address"
        }
      ],
      "name": "setOperator",
      "outputs": [],
      "stateMutability": "nonpayable",
      "type": "function"
    },
    {
      "inputs": [],
      "name": "toggleSuspend",
      "outputs": [],
      "stateMutability": "nonpayable",
      "type": "function"
    },
    {
      "inputs": [
        {
          "internalType": "uint64",
          "name": "planId",
          "type": "uint64"
        }
      ],
      "name": "getSubscriberArray",
      "outputs": [
        {
          "internalType": "address[]",
          "name": "",
          "type": "address[]"
        }
      ],
      "stateMutability": "view",
      "type": "function"
    },
    {
      "inputs": [
        {
          "internalType": "string",
          "name": "newTitle",
          "type": "string"
        }
      ],
      "name": "setTitle",
      "outputs": [],
      "stateMutability": "nonpayable",
      "type": "function"
    },
    {
      "inputs": [
        {
          "internalType": "string",
          "name": "newImage",
          "type": "string"
        }
      ],
      "name": "setImage",
      "outputs": [],
      "stateMutability": "nonpayable",
      "type": "function"
    },
    {
      "inputs": [
        {
          "internalType": "uint64",
          "name": "planId",
          "type": "uint64"
        }
      ],
      "name": "togglePlanHalt",
      "outputs": [],
      "stateMutability": "nonpayable",
      "type": "function"
    },
    {
      "inputs": [
        {
          "internalType": "string",
          "name": "planTitle",
          "type": "string"
        },
        {
          "internalType": "address",
          "name": "merchant",
          "type": "address"
        },
        {
          "internalType": "address",
          "name": "token",
          "type": "address"
        },
        {
          "internalType": "uint128",
          "name": "amount",
          "type": "uint128"
        },
        {
          "internalType": "uint128",
          "name": "frequency",
          "type": "uint128"
        }
      ],
      "name": "createPlan",
      "outputs": [],
      "stateMutability": "nonpayable",
      "type": "function"
    },
    {
      "inputs": [
        {
          "internalType": "uint64",
          "name": "planId",
          "type": "uint64"
        }
      ],
      "name": "subscribe",
      "outputs": [],
      "stateMutability": "nonpayable",
      "type": "function"
    },
    {
      "inputs": [
        {
          "internalType": "uint64",
          "name": "planId",
          "type": "uint64"
        }
      ],
      "name": "stopPay",
      "outputs": [],
      "stateMutability": "nonpayable",
      "type": "function"
    },
    {
      "inputs": [
        {
          "internalType": "uint64",
          "name": "planId",
          "type": "uint64"
        }
      ],
      "name": "selfDelete",
      "outputs": [],
      "stateMutability": "nonpayable",
      "type": "function"
    },
    {
      "inputs": [
        {
          "internalType": "uint64",
          "name": "planId",
          "type": "uint64"
        },
        {
          "internalType": "address",
          "name": "user",
          "type": "address"
        }
      ],
      "name": "deleteUser",
      "outputs": [],
      "stateMutability": "nonpayable",
      "type": "function"
    },
    {
      "inputs": [
        {
          "internalType": "uint64",
          "name": "planId",
          "type": "uint64"
        }
      ],
      "name": "selfPay",
      "outputs": [],
      "stateMutability": "nonpayable",
      "type": "function"
    },
    {
      "inputs": [
        {
          "internalType": "address",
          "name": "subscriber",
          "type": "address"
        },
        {
          "internalType": "uint64",
          "name": "planId",
          "type": "uint64"
        }
      ],
      "name": "pay",
      "outputs": [],
      "stateMutability": "nonpayable",
      "type": "function"
    },
    {
      "inputs": [
        {
          "components": [
            {
              "internalType": "address",
              "name": "subscriber",
              "type": "address"
            },
            {
              "internalType": "uint64",
              "name": "planId",
              "type": "uint64"
            }
          ],
          "internalType": "struct SubscribeeV1.UserObject[]",
          "name": "users",
          "type": "tuple[]"
        }
      ],
      "name": "multiPay",
      "outputs": [],
      "stateMutability": "nonpayable",
      "type": "function"
    }
  ],
  "bytecode": "0x6080604052600080601c6101000a81548160ff0219169083151502179055503480156200002b57600080fd5b50604051620041c8380380620041c883398181016040528101906200005191906200035a565b62000071620000656200014960201b60201c565b6200015160201b60201c565b84600760006101000a81548173ffffffffffffffffffffffffffffffffffffffff021916908373ffffffffffffffffffffffffffffffffffffffff16021790555083600860006101000a81548173ffffffffffffffffffffffffffffffffffffffff021916908373ffffffffffffffffffffffffffffffffffffffff16021790555081600290805190602001906200010b92919062000215565b5082600190805190602001906200012492919062000215565b5080600390805190602001906200013d92919062000215565b50505050505062000611565b600033905090565b60008060009054906101000a900473ffffffffffffffffffffffffffffffffffffffff169050816000806101000a81548173ffffffffffffffffffffffffffffffffffffffff021916908373ffffffffffffffffffffffffffffffffffffffff1602179055508173ffffffffffffffffffffffffffffffffffffffff168173ffffffffffffffffffffffffffffffffffffffff167f8be0079c531659141344cd1fd0a4f28419497f9722a3daafe3b4186f6b6457e060405160405180910390a35050565b828054620002239062000508565b90600052602060002090601f01602090048101928262000247576000855562000293565b82601f106200026257805160ff191683800117855562000293565b8280016001018555821562000293579182015b828111156200029257825182559160200191906001019062000275565b5b509050620002a29190620002a6565b5090565b5b80821115620002c1576000816000905550600101620002a7565b5090565b6000620002dc620002d68462000468565b6200043f565b905082815260208101848484011115620002fb57620002fa620005d7565b5b62000308848285620004d2565b509392505050565b6000815190506200032181620005f7565b92915050565b600082601f8301126200033f576200033e620005d2565b5b815162000351848260208601620002c5565b91505092915050565b600080600080600060a08688031215620003795762000378620005e1565b5b6000620003898882890162000310565b95505060206200039c8882890162000310565b945050604086015167ffffffffffffffff811115620003c057620003bf620005dc565b5b620003ce8882890162000327565b935050606086015167ffffffffffffffff811115620003f257620003f1620005dc565b5b620004008882890162000327565b925050608086015167ffffffffffffffff811115620004245762000423620005dc565b5b620004328882890162000327565b9150509295509295909350565b60006200044b6200045e565b90506200045982826200053e565b919050565b6000604051905090565b600067ffffffffffffffff821115620004865762000485620005a3565b5b6200049182620005e6565b9050602081019050919050565b6000620004ab82620004b2565b9050919050565b600073ffffffffffffffffffffffffffffffffffffffff82169050919050565b60005b83811015620004f2578082015181840152602081019050620004d5565b8381111562000502576000848401525b50505050565b600060028204905060018216806200052157607f821691505b6020821081141562000538576200053762000574565b5b50919050565b6200054982620005e6565b810181811067ffffffffffffffff821117156200056b576200056a620005a3565b5b80604052505050565b7f4e487b7100000000000000000000000000000000000000000000000000000000600052602260045260246000fd5b7f4e487b7100000000000000000000000000000000000000000000000000000000600052604160045260246000fd5b600080fd5b600080fd5b600080fd5b600080fd5b6000601f19601f8301169050919050565b62000602816200049e565b81146200060e57600080fd5b50565b613ba780620006216000396000f3fe608060405234801561001057600080fd5b506004361061018e5760003560e01c80637a6e4822116100de578063b5dce25411610097578063dde99d3311610071578063dde99d331461043a578063e061e7c014610456578063f2fde38b14610460578063f3ccaac01461047c5761018e565b8063b5dce254146103d0578063c083183314610402578063cea2f07b1461041e5761018e565b80637a6e48221461030d5780638da5cb5b146103295780639ad3802814610347578063aba7aeea14610363578063af619bbd14610398578063b3ab15fb146103b45761018e565b8063570ca7351161014b578063702efdf311610125578063702efdf3146102ad578063715018a6146102cb57806371adb5e6146102d557806372910be0146102f15761018e565b8063570ca735146102535780635f8d26b2146102715780636beb79591461028f5761018e565b80631086b96e146101935780632b0f07bc146101af5780632fa8ec13146101cb5780633395df25146101fb578063410aea57146102195780634a79d50c14610235575b600080fd5b6101ad60048036038101906101a89190612d5b565b61049a565b005b6101c960048036038101906101c49190612d5b565b61063a565b005b6101e560048036038101906101e09190612d5b565b610697565b6040516101f2919061317a565b60405180910390f35b610203610819565b6040516102109190613052565b60405180910390f35b610233600480360381019061022e9190612d5b565b61083f565b005b61023d610913565b60405161024a91906131b7565b60405180910390f35b61025b6109a1565b6040516102689190613052565b60405180910390f35b6102796109c7565b60405161028691906133d8565b60405180910390f35b6102976109e1565b6040516102a491906131b7565b60405180910390f35b6102b5610a6f565b6040516102c2919061319c565b60405180910390f35b6102d3610a82565b005b6102ef60048036038101906102ea9190612c4e565b610b0a565b005b61030b60048036038101906103069190612c4e565b610bf1565b005b61032760048036038101906103229190612c97565b610cd8565b005b61033161111b565b60405161033e9190613052565b60405180910390f35b610361600480360381019061035c9190612d5b565b611144565b005b61037d60048036038101906103789190612d5b565b611187565b60405161038f969594939291906131d9565b60405180910390f35b6103b260048036038101906103ad9190612b98565b6112d0565b005b6103ce60048036038101906103c99190612b6b565b611473565b005b6103ea60048036038101906103e59190612d88565b611533565b6040516103f9939291906133a1565b60405180910390f35b61041c60048036038101906104179190612d88565b611577565b005b61043860048036038101906104339190612d5b565b61166b565b005b610454600480360381019061044f9190612bd8565b611677565b005b61045e6117b9565b005b61047a60048036038101906104759190612b6b565b61188e565b005b610484611986565b60405161049191906131b7565b60405180910390f35b600860009054906101000a900473ffffffffffffffffffffffffffffffffffffffff1673ffffffffffffffffffffffffffffffffffffffff163373ffffffffffffffffffffffffffffffffffffffff16148061052857506104f961111b565b73ffffffffffffffffffffffffffffffffffffffff163373ffffffffffffffffffffffffffffffffffffffff16145b610567576040517f08c379a000000000000000000000000000000000000000000000000000000000815260040161055e906132a1565b60405180910390fd5b60011515600560008367ffffffffffffffff1667ffffffffffffffff16815260200190815260200160002060040160009054906101000a900460ff16151514156105f3576000600560008367ffffffffffffffff1667ffffffffffffffff16815260200190815260200160002060040160006101000a81548160ff021916908315150217905550610637565b6001600560008367ffffffffffffffff1667ffffffffffffffff16815260200190815260200160002060040160006101000a81548160ff0219169083151502179055505b50565b6000601c9054906101000a900460ff161561068a576040517f08c379a000000000000000000000000000000000000000000000000000000000815260040161068190613341565b60405180910390fd5b6106943382611a14565b50565b6060600860009054906101000a900473ffffffffffffffffffffffffffffffffffffffff1673ffffffffffffffffffffffffffffffffffffffff163373ffffffffffffffffffffffffffffffffffffffff16148061072757506106f861111b565b73ffffffffffffffffffffffffffffffffffffffff163373ffffffffffffffffffffffffffffffffffffffff16145b610766576040517f08c379a000000000000000000000000000000000000000000000000000000000815260040161075d906132a1565b60405180910390fd5b600460008367ffffffffffffffff1667ffffffffffffffff16815260200190815260200160002080548060200260200160405190810160405280929190818152602001828054801561080d57602002820191906000526020600020905b8160009054906101000a900473ffffffffffffffffffffffffffffffffffffffff1673ffffffffffffffffffffffffffffffffffffffff16815260200190600101908083116107c3575b50505050509050919050565b600760009054906101000a900473ffffffffffffffffffffffffffffffffffffffff1681565b6000601c9054906101000a900460ff161561088f576040517f08c379a000000000000000000000000000000000000000000000000000000000815260040161088690613341565b60405180910390fd5b600560008267ffffffffffffffff1667ffffffffffffffff16815260200190815260200160002060040160009054906101000a900460ff1615610907576040517f08c379a00000000000000000000000000000000000000000000000000000000081526004016108fe90613241565b60405180910390fd5b61091081611f73565b50565b600180546109209061363f565b80601f016020809104026020016040519081016040528092919081815260200182805461094c9061363f565b80156109995780601f1061096e57610100808354040283529160200191610999565b820191906000526020600020905b81548152906001019060200180831161097c57829003601f168201915b505050505081565b600860009054906101000a900473ffffffffffffffffffffffffffffffffffffffff1681565b600060149054906101000a900467ffffffffffffffff1681565b600280546109ee9061363f565b80601f0160208091040260200160405190810160405280929190818152602001828054610a1a9061363f565b8015610a675780601f10610a3c57610100808354040283529160200191610a67565b820191906000526020600020905b815481529060010190602001808311610a4a57829003601f168201915b505050505081565b6000601c9054906101000a900460ff1681565b610a8a6124af565b73ffffffffffffffffffffffffffffffffffffffff16610aa861111b565b73ffffffffffffffffffffffffffffffffffffffff1614610afe576040517f08c379a0000000000000000000000000000000000000000000000000000000008152600401610af590613321565b60405180910390fd5b610b0860006124b7565b565b600860009054906101000a900473ffffffffffffffffffffffffffffffffffffffff1673ffffffffffffffffffffffffffffffffffffffff163373ffffffffffffffffffffffffffffffffffffffff161480610b985750610b6961111b565b73ffffffffffffffffffffffffffffffffffffffff163373ffffffffffffffffffffffffffffffffffffffff16145b610bd7576040517f08c379a0000000000000000000000000000000000000000000000000000000008152600401610bce906132a1565b60405180910390fd5b8060039080519060200190610bed929190612901565b5050565b600860009054906101000a900473ffffffffffffffffffffffffffffffffffffffff1673ffffffffffffffffffffffffffffffffffffffff163373ffffffffffffffffffffffffffffffffffffffff161480610c7f5750610c5061111b565b73ffffffffffffffffffffffffffffffffffffffff163373ffffffffffffffffffffffffffffffffffffffff16145b610cbe576040517f08c379a0000000000000000000000000000000000000000000000000000000008152600401610cb5906132a1565b60405180910390fd5b8060019080519060200190610cd4929190612901565b5050565b600860009054906101000a900473ffffffffffffffffffffffffffffffffffffffff1673ffffffffffffffffffffffffffffffffffffffff163373ffffffffffffffffffffffffffffffffffffffff161480610d665750610d3761111b565b73ffffffffffffffffffffffffffffffffffffffff163373ffffffffffffffffffffffffffffffffffffffff16145b610da5576040517f08c379a0000000000000000000000000000000000000000000000000000000008152600401610d9c906132a1565b60405180910390fd5b600073ffffffffffffffffffffffffffffffffffffffff168373ffffffffffffffffffffffffffffffffffffffff161415610e15576040517f08c379a0000000000000000000000000000000000000000000000000000000008152600401610e0c90613361565b60405180910390fd5b6000826fffffffffffffffffffffffffffffffff1611610e6a576040517f08c379a0000000000000000000000000000000000000000000000000000000008152600401610e61906132c1565b60405180910390fd5b6000816fffffffffffffffffffffffffffffffff1611610ebf576040517f08c379a0000000000000000000000000000000000000000000000000000000008152600401610eb690613281565b60405180910390fd5b6040518060c001604052808681526020018573ffffffffffffffffffffffffffffffffffffffff1681526020018473ffffffffffffffffffffffffffffffffffffffff168152602001836fffffffffffffffffffffffffffffffff168152602001826fffffffffffffffffffffffffffffffff16815260200160001515815250600560008060149054906101000a900467ffffffffffffffff1667ffffffffffffffff1667ffffffffffffffff1681526020019081526020016000206000820151816000019080519060200190610f97929190612901565b5060208201518160010160006101000a81548173ffffffffffffffffffffffffffffffffffffffff021916908373ffffffffffffffffffffffffffffffffffffffff16021790555060408201518160020160006101000a81548173ffffffffffffffffffffffffffffffffffffffff021916908373ffffffffffffffffffffffffffffffffffffffff16021790555060608201518160030160006101000a8154816fffffffffffffffffffffffffffffffff02191690836fffffffffffffffffffffffffffffffff16021790555060808201518160030160106101000a8154816fffffffffffffffffffffffffffffffff02191690836fffffffffffffffffffffffffffffffff16021790555060a08201518160040160006101000a81548160ff0219169083151502179055509050506000601481819054906101000a900467ffffffffffffffff16809291906110ed906136eb565b91906101000a81548167ffffffffffffffff021916908367ffffffffffffffff160217905550505050505050565b60008060009054906101000a900473ffffffffffffffffffffffffffffffffffffffff16905090565b61118433826040518060400160405280601a81526020017f557365722044656c6574696e6720537562736372697074696f6e00000000000081525061257b565b50565b60056020528060005260406000206000915090508060000180546111aa9061363f565b80601f01602080910402602001604051908101604052809291908181526020018280546111d69061363f565b80156112235780601f106111f857610100808354040283529160200191611223565b820191906000526020600020905b81548152906001019060200180831161120657829003601f168201915b5050505050908060010160009054906101000a900473ffffffffffffffffffffffffffffffffffffffff16908060020160009054906101000a900473ffffffffffffffffffffffffffffffffffffffff16908060030160009054906101000a90046fffffffffffffffffffffffffffffffff16908060030160109054906101000a90046fffffffffffffffffffffffffffffffff16908060040160009054906101000a900460ff16905086565b600860009054906101000a900473ffffffffffffffffffffffffffffffffffffffff1673ffffffffffffffffffffffffffffffffffffffff163373ffffffffffffffffffffffffffffffffffffffff16148061135e575061132f61111b565b73ffffffffffffffffffffffffffffffffffffffff163373ffffffffffffffffffffffffffffffffffffffff16145b61139d576040517f08c379a0000000000000000000000000000000000000000000000000000000008152600401611394906132a1565b60405180910390fd5b6000601c9054906101000a900460ff16156113ed576040517f08c379a00000000000000000000000000000000000000000000000000000000081526004016113e490613341565b60405180910390fd5b600560008267ffffffffffffffff1667ffffffffffffffff16815260200190815260200160002060040160009054906101000a900460ff1615611465576040517f08c379a000000000000000000000000000000000000000000000000000000000815260040161145c90613241565b60405180910390fd5b61146f8282611a14565b5050565b61147b6124af565b73ffffffffffffffffffffffffffffffffffffffff1661149961111b565b73ffffffffffffffffffffffffffffffffffffffff16146114ef576040517f08c379a00000000000000000000000000000000000000000000000000000000081526004016114e690613321565b60405180910390fd5b80600860006101000a81548173ffffffffffffffffffffffffffffffffffffffff021916908373ffffffffffffffffffffffffffffffffffffffff16021790555050565b6006602052816000526040600020602052806000526040600020600091509150508060000154908060010154908060020160009054906101000a900460ff16905083565b600860009054906101000a900473ffffffffffffffffffffffffffffffffffffffff1673ffffffffffffffffffffffffffffffffffffffff163373ffffffffffffffffffffffffffffffffffffffff16148061160557506115d661111b565b73ffffffffffffffffffffffffffffffffffffffff163373ffffffffffffffffffffffffffffffffffffffff16145b611644576040517f08c379a000000000000000000000000000000000000000000000000000000000815260040161163b906132a1565b60405180910390fd5b6116678183604051806060016040528060238152602001613b276023913961257b565b5050565b611674816127fa565b50565b600860009054906101000a900473ffffffffffffffffffffffffffffffffffffffff1673ffffffffffffffffffffffffffffffffffffffff163373ffffffffffffffffffffffffffffffffffffffff16148061170557506116d661111b565b73ffffffffffffffffffffffffffffffffffffffff163373ffffffffffffffffffffffffffffffffffffffff16145b611744576040517f08c379a000000000000000000000000000000000000000000000000000000000815260040161173b906132a1565b60405180910390fd5b60005b81518110156117b5576000828281518110611765576117646137a9565b5b60200260200101516000015190506000838381518110611788576117876137a9565b5b60200260200101516020015190506117a08282611a14565b505080806117ad906136a2565b915050611747565b5050565b6117c16124af565b73ffffffffffffffffffffffffffffffffffffffff166117df61111b565b73ffffffffffffffffffffffffffffffffffffffff1614611835576040517f08c379a000000000000000000000000000000000000000000000000000000000815260040161182c90613321565b60405180910390fd5b600115156000601c9054906101000a900460ff161515141561187057600080601c6101000a81548160ff02191690831515021790555061188c565b60016000601c6101000a81548160ff0219169083151502179055505b565b6118966124af565b73ffffffffffffffffffffffffffffffffffffffff166118b461111b565b73ffffffffffffffffffffffffffffffffffffffff161461190a576040517f08c379a000000000000000000000000000000000000000000000000000000000815260040161190190613321565b60405180910390fd5b600073ffffffffffffffffffffffffffffffffffffffff168173ffffffffffffffffffffffffffffffffffffffff16141561197a576040517f08c379a000000000000000000000000000000000000000000000000000000000815260040161197190613261565b60405180910390fd5b611983816124b7565b50565b600380546119939061363f565b80601f01602080910402602001604051908101604052809291908181526020018280546119bf9061363f565b8015611a0c5780601f106119e157610100808354040283529160200191611a0c565b820191906000526020600020905b8154815290600101906020018083116119ef57829003601f168201915b505050505081565b6000600660008367ffffffffffffffff1667ffffffffffffffff16815260200190815260200160002060008473ffffffffffffffffffffffffffffffffffffffff1673ffffffffffffffffffffffffffffffffffffffff16815260200190815260200160002090506000600560008467ffffffffffffffff1667ffffffffffffffff168152602001908152602001600020905060008160020160009054906101000a900473ffffffffffffffffffffffffffffffffffffffff169050600060648360030160009054906101000a90046fffffffffffffffffffffffffffffffff16611aff9190613520565b6fffffffffffffffffffffffffffffffff169050600073ffffffffffffffffffffffffffffffffffffffff168673ffffffffffffffffffffffffffffffffffffffff161415611b83576040517f08c379a0000000000000000000000000000000000000000000000000000000008152600401611b7a906132e1565b60405180910390fd5b83600101544211611bc9576040517f08c379a0000000000000000000000000000000000000000000000000000000008152600401611bc090613381565b60405180910390fd5b8360020160009054906101000a900460ff1615611c0c57611c038686604051806060016040528060288152602001613b4a6028913961257b565b50505050611f6f565b8260030160009054906101000a90046fffffffffffffffffffffffffffffffff166fffffffffffffffffffffffffffffffff168273ffffffffffffffffffffffffffffffffffffffff166370a08231886040518263ffffffff1660e01b8152600401611c789190613052565b60206040518083038186803b158015611c9057600080fd5b505afa158015611ca4573d6000803e3d6000fd5b505050506040513d601f19601f82011682018060405250810190611cc89190612d2e565b1015611cfa57611cf18686604051806060016040528060278152602001613ab96027913961257b565b50505050611f6f565b8173ffffffffffffffffffffffffffffffffffffffff166323b872dd878560010160009054906101000a900473ffffffffffffffffffffffffffffffffffffffff16848760030160009054906101000a90046fffffffffffffffffffffffffffffffff166fffffffffffffffffffffffffffffffff16611d7a9190613551565b6040518463ffffffff1660e01b8152600401611d98939291906130c0565b602060405180830381600087803b158015611db257600080fd5b505af1158015611dc6573d6000803e3d6000fd5b505050506040513d601f19601f82011682018060405250810190611dea9190612c21565b508173ffffffffffffffffffffffffffffffffffffffff166323b872dd87600760009054906101000a900473ffffffffffffffffffffffffffffffffffffffff16846040518463ffffffff1660e01b8152600401611e4a939291906130c0565b602060405180830381600087803b158015611e6457600080fd5b505af1158015611e78573d6000803e3d6000fd5b505050506040513d601f19601f82011682018060405250810190611e9c9190612c21565b508260030160109054906101000a90046fffffffffffffffffffffffffffffffff166fffffffffffffffffffffffffffffffff168460010154611edf91906134ca565b84600101819055507fe4d9e5b6618d2c31b70b199db5b4f98b2b44360f69105fa823c84c2797c610c8868460010160009054906101000a900473ffffffffffffffffffffffffffffffffffffffff168560030160009054906101000a90046fffffffffffffffffffffffffffffffff168842604051611f6295949392919061306d565b60405180910390a1505050505b5050565b6000600560008367ffffffffffffffff1667ffffffffffffffff1681526020019081526020016000209050600073ffffffffffffffffffffffffffffffffffffffff168160010160009054906101000a900473ffffffffffffffffffffffffffffffffffffffff1673ffffffffffffffffffffffffffffffffffffffff161415612032576040517f08c379a000000000000000000000000000000000000000000000000000000000815260040161202990613301565b60405180910390fd5b6000600560008467ffffffffffffffff1667ffffffffffffffff16815260200190815260200160002060020160009054906101000a900473ffffffffffffffffffffffffffffffffffffffff169050600060648360030160009054906101000a90046fffffffffffffffffffffffffffffffff166120b09190613520565b6fffffffffffffffffffffffffffffffff1690508173ffffffffffffffffffffffffffffffffffffffff166323b872dd338560010160009054906101000a900473ffffffffffffffffffffffffffffffffffffffff16848760030160009054906101000a90046fffffffffffffffffffffffffffffffff166fffffffffffffffffffffffffffffffff166121449190613551565b6040518463ffffffff1660e01b8152600401612162939291906130c0565b602060405180830381600087803b15801561217c57600080fd5b505af1158015612190573d6000803e3d6000fd5b505050506040513d601f19601f820116820180604052508101906121b49190612c21565b508173ffffffffffffffffffffffffffffffffffffffff166323b872dd33600760009054906101000a900473ffffffffffffffffffffffffffffffffffffffff16846040518463ffffffff1660e01b8152600401612214939291906130c0565b602060405180830381600087803b15801561222e57600080fd5b505af1158015612242573d6000803e3d6000fd5b505050506040513d601f19601f820116820180604052508101906122669190612c21565b5060405180606001604052804281526020018460030160109054906101000a90046fffffffffffffffffffffffffffffffff166fffffffffffffffffffffffffffffffff16426122b691906134ca565b815260200160001515815250600660008667ffffffffffffffff1667ffffffffffffffff16815260200190815260200160002060003373ffffffffffffffffffffffffffffffffffffffff1673ffffffffffffffffffffffffffffffffffffffff168152602001908152602001600020600082015181600001556020820151816001015560408201518160020160006101000a81548160ff0219169083151502179055509050506000600460008667ffffffffffffffff1667ffffffffffffffff168152602001908152602001600020905080339080600181540180825580915050600190039060005260206000200160009091909190916101000a81548173ffffffffffffffffffffffffffffffffffffffff021916908373ffffffffffffffffffffffffffffffffffffffff1602179055507fce194244cebd83f83dc1524e46ae3cede1555b456ebd127d9abfda702712469c33864260405161241d939291906130f7565b60405180910390a17fe4d9e5b6618d2c31b70b199db5b4f98b2b44360f69105fa823c84c2797c610c8338560010160009054906101000a900473ffffffffffffffffffffffffffffffffffffffff168660030160009054906101000a90046fffffffffffffffffffffffffffffffff1688426040516124a095949392919061306d565b60405180910390a15050505050565b600033905090565b60008060009054906101000a900473ffffffffffffffffffffffffffffffffffffffff169050816000806101000a81548173ffffffffffffffffffffffffffffffffffffffff021916908373ffffffffffffffffffffffffffffffffffffffff1602179055508173ffffffffffffffffffffffffffffffffffffffff168173ffffffffffffffffffffffffffffffffffffffff167f8be0079c531659141344cd1fd0a4f28419497f9722a3daafe3b4186f6b6457e060405160405180910390a35050565b6000600660008467ffffffffffffffff1667ffffffffffffffff16815260200190815260200160002060008573ffffffffffffffffffffffffffffffffffffffff1673ffffffffffffffffffffffffffffffffffffffff168152602001908152602001600020905060008160000154141561262b576040517f08c379a0000000000000000000000000000000000000000000000000000000008152600401612622906132e1565b60405180910390fd5b600660008467ffffffffffffffff1667ffffffffffffffff16815260200190815260200160002060008573ffffffffffffffffffffffffffffffffffffffff1673ffffffffffffffffffffffffffffffffffffffff16815260200190815260200160002060008082016000905560018201600090556002820160006101000a81549060ff021916905550506000600460008567ffffffffffffffff1667ffffffffffffffff168152602001908152602001600020905060005b81805490508110156127b5573373ffffffffffffffffffffffffffffffffffffffff1682828154811061271a576127196137a9565b5b9060005260206000200160009054906101000a900473ffffffffffffffffffffffffffffffffffffffff1673ffffffffffffffffffffffffffffffffffffffff1614156127a257818181548110612774576127736137a9565b5b9060005260206000200160006101000a81549073ffffffffffffffffffffffffffffffffffffffff02191690555b80806127ad906136a2565b9150506126e4565b507fb4dc32643da3b2db5bc2e1cd6ffe1469ce448054e50ce9def009103398c69b99858542866040516127eb949392919061312e565b60405180910390a15050505050565b6000600660008367ffffffffffffffff1667ffffffffffffffff16815260200190815260200160002060003373ffffffffffffffffffffffffffffffffffffffff1673ffffffffffffffffffffffffffffffffffffffff16815260200190815260200160002090506000816000015414156128aa576040517f08c379a00000000000000000000000000000000000000000000000000000000081526004016128a1906132e1565b60405180910390fd5b42816001015410156128df576128d93383604051806080016040528060478152602001613ae06047913961257b565b506128fe565b60018160020160006101000a81548160ff021916908315150217905550505b50565b82805461290d9061363f565b90600052602060002090601f01602090048101928261292f5760008555612976565b82601f1061294857805160ff1916838001178555612976565b82800160010185558215612976579182015b8281111561297557825182559160200191906001019061295a565b5b5090506129839190612987565b5090565b5b808211156129a0576000816000905550600101612988565b5090565b60006129b76129b284613418565b6133f3565b905080838252602082019050828560408602820111156129da576129d9613811565b5b60005b85811015612a0a57816129f08882612adc565b8452602084019350604083019250506001810190506129dd565b5050509392505050565b6000612a27612a2284613444565b6133f3565b905082815260208101848484011115612a4357612a42613816565b5b612a4e8482856135fd565b509392505050565b600081359050612a6581613a45565b92915050565b600082601f830112612a8057612a7f613807565b5b8135612a908482602086016129a4565b91505092915050565b600081519050612aa881613a5c565b92915050565b600082601f830112612ac357612ac2613807565b5b8135612ad3848260208601612a14565b91505092915050565b600060408284031215612af257612af161380c565b5b612afc60406133f3565b90506000612b0c84828501612a56565b6000830152506020612b2084828501612b56565b60208301525092915050565b600081359050612b3b81613a73565b92915050565b600081519050612b5081613a8a565b92915050565b600081359050612b6581613aa1565b92915050565b600060208284031215612b8157612b80613820565b5b6000612b8f84828501612a56565b91505092915050565b60008060408385031215612baf57612bae613820565b5b6000612bbd85828601612a56565b9250506020612bce85828601612b56565b9150509250929050565b600060208284031215612bee57612bed613820565b5b600082013567ffffffffffffffff811115612c0c57612c0b61381b565b5b612c1884828501612a6b565b91505092915050565b600060208284031215612c3757612c36613820565b5b6000612c4584828501612a99565b91505092915050565b600060208284031215612c6457612c63613820565b5b600082013567ffffffffffffffff811115612c8257612c8161381b565b5b612c8e84828501612aae565b91505092915050565b600080600080600060a08688031215612cb357612cb2613820565b5b600086013567ffffffffffffffff811115612cd157612cd061381b565b5b612cdd88828901612aae565b9550506020612cee88828901612a56565b9450506040612cff88828901612a56565b9350506060612d1088828901612b2c565b9250506080612d2188828901612b2c565b9150509295509295909350565b600060208284031215612d4457612d43613820565b5b6000612d5284828501612b41565b91505092915050565b600060208284031215612d7157612d70613820565b5b6000612d7f84828501612b56565b91505092915050565b60008060408385031215612d9f57612d9e613820565b5b6000612dad85828601612b56565b9250506020612dbe85828601612a56565b9150509250929050565b6000612dd48383612de0565b60208301905092915050565b612de981613585565b82525050565b612df881613585565b82525050565b6000612e0982613485565b612e1381856134a8565b9350612e1e83613475565b8060005b83811015612e4f578151612e368882612dc8565b9750612e418361349b565b925050600181019050612e22565b5085935050505092915050565b612e6581613597565b82525050565b6000612e7682613490565b612e8081856134b9565b9350612e9081856020860161360c565b612e9981613825565b840191505092915050565b6000612eb1600e836134b9565b9150612ebc82613836565b602082019050919050565b6000612ed46026836134b9565b9150612edf8261385f565b604082019050919050565b6000612ef7602b836134b9565b9150612f02826138ae565b604082019050919050565b6000612f1a6004836134b9565b9150612f25826138fd565b602082019050919050565b6000612f3d6016836134b9565b9150612f4882613926565b602082019050919050565b6000612f606020836134b9565b9150612f6b8261394f565b602082019050919050565b6000612f836018836134b9565b9150612f8e82613978565b602082019050919050565b6000612fa66020836134b9565b9150612fb1826139a1565b602082019050919050565b6000612fc96015836134b9565b9150612fd4826139ca565b602082019050919050565b6000612fec601e836134b9565b9150612ff7826139f3565b602082019050919050565b600061300f600b836134b9565b915061301a82613a1c565b602082019050919050565b61302e816135a3565b82525050565b61303d816135df565b82525050565b61304c816135e9565b82525050565b60006020820190506130676000830184612def565b92915050565b600060a0820190506130826000830188612def565b61308f6020830187612def565b61309c6040830186613025565b6130a96060830185613043565b6130b66080830184613034565b9695505050505050565b60006060820190506130d56000830186612def565b6130e26020830185612def565b6130ef6040830184613034565b949350505050565b600060608201905061310c6000830186612def565b6131196020830185613043565b6131266040830184613034565b949350505050565b60006080820190506131436000830187612def565b6131506020830186613043565b61315d6040830185613034565b818103606083015261316f8184612e6b565b905095945050505050565b600060208201905081810360008301526131948184612dfe565b905092915050565b60006020820190506131b16000830184612e5c565b92915050565b600060208201905081810360008301526131d18184612e6b565b905092915050565b600060c08201905081810360008301526131f38189612e6b565b90506132026020830188612def565b61320f6040830187612def565b61321c6060830186613025565b6132296080830185613025565b61323660a0830184612e5c565b979650505050505050565b6000602082019050818103600083015261325a81612ea4565b9050919050565b6000602082019050818103600083015261327a81612ec7565b9050919050565b6000602082019050818103600083015261329a81612eea565b9050919050565b600060208201905081810360008301526132ba81612f0d565b9050919050565b600060208201905081810360008301526132da81612f30565b9050919050565b600060208201905081810360008301526132fa81612f53565b9050919050565b6000602082019050818103600083015261331a81612f76565b9050919050565b6000602082019050818103600083015261333a81612f99565b9050919050565b6000602082019050818103600083015261335a81612fbc565b9050919050565b6000602082019050818103600083015261337a81612fdf565b9050919050565b6000602082019050818103600083015261339a81613002565b9050919050565b60006060820190506133b66000830186613034565b6133c36020830185613034565b6133d06040830184612e5c565b949350505050565b60006020820190506133ed6000830184613043565b92915050565b60006133fd61340e565b90506134098282613671565b919050565b6000604051905090565b600067ffffffffffffffff821115613433576134326137d8565b5b602082029050602081019050919050565b600067ffffffffffffffff82111561345f5761345e6137d8565b5b61346882613825565b9050602081019050919050565b6000819050602082019050919050565b600081519050919050565b600081519050919050565b6000602082019050919050565b600082825260208201905092915050565b600082825260208201905092915050565b60006134d5826135df565b91506134e0836135df565b9250827fffffffffffffffffffffffffffffffffffffffffffffffffffffffffffffffff038211156135155761351461371c565b5b828201905092915050565b600061352b826135a3565b9150613536836135a3565b9250826135465761354561374b565b5b828204905092915050565b600061355c826135df565b9150613567836135df565b92508282101561357a5761357961371c565b5b828203905092915050565b6000613590826135bf565b9050919050565b60008115159050919050565b60006fffffffffffffffffffffffffffffffff82169050919050565b600073ffffffffffffffffffffffffffffffffffffffff82169050919050565b6000819050919050565b600067ffffffffffffffff82169050919050565b82818337600083830152505050565b60005b8381101561362a57808201518184015260208101905061360f565b83811115613639576000848401525b50505050565b6000600282049050600182168061365757607f821691505b6020821081141561366b5761366a61377a565b5b50919050565b61367a82613825565b810181811067ffffffffffffffff82111715613699576136986137d8565b5b80604052505050565b60006136ad826135df565b91507fffffffffffffffffffffffffffffffffffffffffffffffffffffffffffffffff8214156136e0576136df61371c565b5b600182019050919050565b60006136f6826135e9565b915067ffffffffffffffff8214156137115761371061371c565b5b600182019050919050565b7f4e487b7100000000000000000000000000000000000000000000000000000000600052601160045260246000fd5b7f4e487b7100000000000000000000000000000000000000000000000000000000600052601260045260246000fd5b7f4e487b7100000000000000000000000000000000000000000000000000000000600052602260045260246000fd5b7f4e487b7100000000000000000000000000000000000000000000000000000000600052603260045260246000fd5b7f4e487b7100000000000000000000000000000000000000000000000000000000600052604160045260246000fd5b600080fd5b600080fd5b600080fd5b600080fd5b600080fd5b600080fd5b6000601f19601f8301169050919050565b7f706c616e2069732068616c746564000000000000000000000000000000000000600082015250565b7f4f776e61626c653a206e6577206f776e657220697320746865207a65726f206160008201527f6464726573730000000000000000000000000000000000000000000000000000602082015250565b7f6672657175656e6379206e6565647320746f206265206772656174657220746860008201527f656e20323420686f757273000000000000000000000000000000000000000000602082015250565b7f4875683f00000000000000000000000000000000000000000000000000000000600082015250565b7f616d6f756e74206e6565647320746f206265203e203000000000000000000000600082015250565b7f7468697320737562736372697074696f6e20646f6573206e6f74206578697374600082015250565b7f7468697320706c616e20646f6573206e6f742065786973740000000000000000600082015250565b7f4f776e61626c653a2063616c6c6572206973206e6f7420746865206f776e6572600082015250565b7f636f6e74726163742069732073757370656e6465640000000000000000000000600082015250565b7f616464726573732063616e6e6f74206265206e756c6c20616464726573730000600082015250565b7f6e6f742064756520796574000000000000000000000000000000000000000000600082015250565b613a4e81613585565b8114613a5957600080fd5b50565b613a6581613597565b8114613a7057600080fd5b50565b613a7c816135a3565b8114613a8757600080fd5b50565b613a93816135df565b8114613a9e57600080fd5b50565b613aaa816135e9565b8114613ab557600080fd5b5056fe696e737566666963656e742066756e64732c20737562736372697074696f6e2064656c65746564596f752063616e6e6f742073746f7020737562736372697074696f6e2061667465722066756e647320617265206f7765642c20737562736372697074696f6e2064656c657465644f776e65722f4f70657261746f722044656c6574656420537562736372697074696f6e706173742064756520262073746f707065642c20737562736372697074696f6e2064656c65746564a26469706673582212209d743258f0bf27adc0ea6227eafcf0ba2f63f48b3b87d5e983608e44afb2b1d464736f6c63430008060033",
  "immutableReferences": {},
  "source": "// SPDX-License-Identifier: Business Source License 1.1\npragma solidity ^0.8.6;\n\nimport \"@openzeppelin/contracts/token/ERC20/IERC20.sol\";\nimport \"@openzeppelin/contracts/access/Ownable.sol\";\n\ncontract SubscribeeV1 is Ownable{\n\n  uint64 public nextPlanId;\n  bool public suspended = false;\n  string public title;\n  string public slug;\n  string public image;\n\n  mapping(uint64 => address[]) private luSubscriptions;\n  mapping(uint64 => Plan) public plans;\n  mapping(uint64 => mapping(address => Subscription)) public subscriptions;\n\n  address public beehive;\n  address public operator;\n\n  // Structs\n\n  struct Plan {\n    string title;\n    address merchant;\n    address token;\n    uint128 amount;\n    uint128 frequency;\n    bool halted;\n  }\n\n  struct Subscription {\n    uint start;\n    uint nextPayment;\n    bool stopped;\n  }\n\n  struct UserObject {\n    address subscriber;\n    uint64 planId;\n  }\n\n\n  // Events\n\n\n  event PlanCreated(\n    address merchant,\n    uint64 planId,\n    uint date,\n    uint64 terms\n  );\n\n  event SubscriptionCreated(\n    address subscriber,\n    uint64 planId,\n    uint date\n  );\n\n  event SubscriptionDeleted(\n    address subscriber,\n    uint64 planId,\n    uint date,\n    string reason\n  );\n\n  event PaymentSent(\n    address from,\n    address to,\n    uint128 amount,\n    uint64 planId,\n    uint date\n  );\n\n  // Modifiers\n\n  modifier onlyOperatorOrOwner() {\n    require(msg.sender == operator || msg.sender == owner(), 'Huh?');\n    _;\n  }\n\n\n\n  // Constructor\n\n  constructor(address beehiveAddress, address operatorAddress, string memory newTitle, string memory newSlug, string memory newImage) {\n    beehive = beehiveAddress;\n    operator = operatorAddress;\n    slug = newSlug;\n    title = newTitle;\n    image = newImage;\n  }\n\n\n  // Functions\n\n  function setOperator(address newOperator) external onlyOwner{\n    operator = newOperator;\n  }\n\n  function toggleSuspend() external onlyOwner{\n    if(suspended == true){\n      suspended = false;\n    }else{\n      suspended = true;\n    }\n  }\n\n  function getSubscriberArray(uint64 planId) external view onlyOperatorOrOwner returns(address[] memory){\n    return luSubscriptions[planId];\n  }\n\n  function setTitle(string memory newTitle) external onlyOperatorOrOwner{\n    title = newTitle;\n  }\n\n  function setImage(string memory newImage) external onlyOperatorOrOwner{\n    image = newImage;\n  }\n\n  function togglePlanHalt(uint64 planId) external onlyOperatorOrOwner{\n    if(plans[planId].halted == true){\n      plans[planId].halted = false;\n    }else{\n      plans[planId].halted = true;\n    }\n  }\n\n  function createPlan(string memory planTitle, address merchant, address token, uint128 amount, uint128 frequency) external onlyOperatorOrOwner{\n    require(token != address(0), 'address cannot be null address');\n    require(amount > 0, 'amount needs to be > 0');\n    require(frequency > 0, 'frequency needs to be greater then 24 hours');\n\n    plans[nextPlanId] = Plan(\n      planTitle,\n      merchant,\n      token,\n      amount,\n      frequency,\n      false\n    );\n    nextPlanId++;\n  }\n\n  function subscribe(uint64 planId) external {\n    require(!suspended, 'contract is suspended');\n    require(!plans[planId].halted, 'plan is halted');\n    _safeSubscribe(planId);\n  }\n\n  function stopPay(uint64 planId) external {\n    _safeStop(planId);\n  }\n\n  function selfDelete(uint64 planId) external {\n    _delete(msg.sender, planId, 'User Deleting Subscription');\n  }\n\n  function deleteUser(uint64 planId, address user) external onlyOperatorOrOwner{\n    _delete(user, planId, 'Owner/Operator Deleted Subscription');\n  }\n\n  function selfPay(uint64 planId) external {\n    require(!suspended, 'contract is suspended');\n    _safePay(msg.sender, planId);\n  }\n\n  function pay(address subscriber, uint64 planId) external onlyOperatorOrOwner {\n    require(!suspended, 'contract is suspended');\n    require(!plans[planId].halted, 'plan is halted');\n    _safePay(subscriber, planId);\n  }\n\n  function multiPay(UserObject[] memory users) external onlyOperatorOrOwner{\n    for(uint i = 0; i < users.length; i++){\n      address subscriber = users[i].subscriber;\n      uint64 planId = users[i].planId;\n      _safePay(subscriber, planId);\n    }\n  }\n\n  // Internal Functions\n\n\n  function _safePay(address subscriber, uint64 planId) internal {\n    // call from storage\n    Subscription storage subscription = subscriptions[planId][subscriber];\n    Plan storage plan = plans[planId];\n    IERC20 token = IERC20(plan.token);\n    uint PollenFee = plan.amount / 100;\n\n    // conditionals for storage\n    require(\n       subscriber != address(0),\n      'this subscription does not exist'\n    );\n\n    require(\n      block.timestamp > subscription.nextPayment,\n      'not due yet'\n    );\n\n    // check for stopped subscription, will delete here due to the previous check of being past the timestamp\n    if(subscription.stopped){\n      _delete(subscriber, planId, 'past due & stopped, subscription deleted');\n      return;\n    }\n\n    // Will check if user has funds, if not will delete subscription\n    if(token.balanceOf(subscriber) < plan.amount){\n      _delete(subscriber, planId, 'insufficent funds, subscription deleted');\n      return;\n    }\n\n    // send to Contract Owner & BeeHive\n    token.transferFrom(subscriber, plan.merchant, plan.amount - PollenFee);\n    token.transferFrom(subscriber, beehive, PollenFee);\n\n    // set next payment\n    subscription.nextPayment = subscription.nextPayment + plan.frequency;\n\n    // emit event\n      emit PaymentSent(\n        subscriber,\n        plan.merchant,\n        plan.amount,\n        planId,\n        block.timestamp\n      );\n    }\n\n  function _safeSubscribe(uint64 planId) internal {\n    // calls plan from storage and check if it exists\n    Plan storage plan = plans[planId];\n    require(plan.merchant != address(0), 'this plan does not exist');\n\n    // set token and fee\n    IERC20 token = IERC20(plans[planId].token);\n    uint PollenFee = plan.amount / 100;\n\n    // send to Contract Owner & BeeHive\n    token.transferFrom(msg.sender, plan.merchant, plan.amount - PollenFee);\n    token.transferFrom(msg.sender, beehive, PollenFee);\n\n    // add new subscription\n    subscriptions[planId][msg.sender] = Subscription(\n      block.timestamp,\n      block.timestamp + plan.frequency,\n      false\n    );\n\n    // add user to lookup array\n    address[] storage subscriptionUsers = luSubscriptions[planId];\n    subscriptionUsers.push(msg.sender);\n\n    // emit Subscription and Payment events\n    emit SubscriptionCreated(address(msg.sender), planId, block.timestamp);\n\n    emit PaymentSent(\n      msg.sender,\n      plan.merchant,\n      plan.amount,\n      planId,\n      block.timestamp\n    );\n\n  }\n\n  function _delete(address user, uint64 planId, string memory reason) internal {\n    // Grab user subscription data & check if it exists\n    Subscription storage subscription = subscriptions[planId][user];\n    require(subscription.start != 0, 'this subscription does not exist');\n\n    // delete from mapping\n    delete subscriptions[planId][user];\n\n    // delete from arrayLookup\n    address[] storage subscriptionUsers = luSubscriptions[planId];\n    for(uint i = 0; i < subscriptionUsers.length; i++){\n      if(subscriptionUsers[i] == msg.sender){\n          delete subscriptionUsers[i];\n      }\n    }\n\n    emit SubscriptionDeleted(user, planId, block.timestamp, reason);\n  }\n\n  function _safeStop(uint64 planId) internal {\n    // Grab user subscription data & check if it exists\n    Subscription storage subscription = subscriptions[planId][msg.sender];\n    require(subscription.start != 0, 'this subscription does not exist');\n\n    // Check if user owes funds and is trying to stop, will delete\n    if(subscription.nextPayment < block.timestamp){\n      _delete(msg.sender, planId, 'You cannot stop subscription after funds are owed, subscription deleted');\n      return;\n    }\n\n    // If user does not have to pay yet, stop subscription\n    subscription.stopped = true;\n  }\n}\n",
  "sourcePath": "/home/lavandor9/contracts/subscribee-official/contracts/SubscribeeV1.sol",
  "compiler": {
    "name": "solc",
    "version": "0.8.6+commit.11564f7e.Emscripten.clang"
  },
  "schemaVersion": "3.4.1",
  "updatedAt": "2022-03-23T16:57:06.710Z",
  "devdoc": {
    "kind": "dev",
    "methods": {
      "owner()": {
        "details": "Returns the address of the current owner."
      },
      "renounceOwnership()": {
        "details": "Leaves the contract without owner. It will not be possible to call `onlyOwner` functions anymore. Can only be called by the current owner. NOTE: Renouncing ownership will leave the contract without an owner, thereby removing any functionality that is only available to the owner."
      },
      "transferOwnership(address)": {
        "details": "Transfers ownership of the contract to a new account (`newOwner`). Can only be called by the current owner."
      }
    },
    "version": 1
  },
  "userdoc": {
    "kind": "user",
    "methods": {},
    "version": 1
  }
}