{
  "contractName": "Subscribee",
  "abi": [
    {
      "inputs": [
        {
          "internalType": "address",
          "name": "operatorAddress",
          "type": "address"
        },
        {
          "internalType": "address",
          "name": "beehiveAddress",
          "type": "address"
        }
      ],
      "stateMutability": "nonpayable",
      "type": "constructor"
    },
    {
      "anonymous": false,
      "inputs": [
        {
          "indexed": true,
          "internalType": "address",
          "name": "previousOwner",
          "type": "address"
        },
        {
          "indexed": true,
          "internalType": "address",
          "name": "newOwner",
          "type": "address"
        }
      ],
      "name": "OwnershipTransferred",
      "type": "event"
    },
    {
      "anonymous": false,
      "inputs": [
        {
          "indexed": false,
          "internalType": "address",
          "name": "token",
          "type": "address"
        },
        {
          "indexed": false,
          "internalType": "uint256",
          "name": "amount",
          "type": "uint256"
        },
        {
          "indexed": false,
          "internalType": "uint32",
          "name": "frequency",
          "type": "uint32"
        }
      ],
      "name": "PlanCreated",
      "type": "event"
    },
    {
      "anonymous": false,
      "inputs": [
        {
          "indexed": false,
          "internalType": "address",
          "name": "subscriber",
          "type": "address"
        },
        {
          "indexed": false,
          "internalType": "uint16",
          "name": "planId",
          "type": "uint16"
        },
        {
          "indexed": false,
          "internalType": "uint256",
          "name": "date",
          "type": "uint256"
        }
      ],
      "name": "SubscriptionCreated",
      "type": "event"
    },
    {
      "anonymous": false,
      "inputs": [
        {
          "indexed": false,
          "internalType": "address",
          "name": "subscriber",
          "type": "address"
        },
        {
          "indexed": false,
          "internalType": "uint16",
          "name": "planId",
          "type": "uint16"
        },
        {
          "indexed": false,
          "internalType": "uint256",
          "name": "date",
          "type": "uint256"
        }
      ],
      "name": "SubscriptionDeleted",
      "type": "event"
    },
    {
      "anonymous": false,
      "inputs": [
        {
          "indexed": false,
          "internalType": "address",
          "name": "from",
          "type": "address"
        },
        {
          "indexed": false,
          "internalType": "address",
          "name": "token",
          "type": "address"
        },
        {
          "indexed": false,
          "internalType": "uint256",
          "name": "amount",
          "type": "uint256"
        },
        {
          "indexed": false,
          "internalType": "uint16",
          "name": "planId",
          "type": "uint16"
        },
        {
          "indexed": false,
          "internalType": "uint256",
          "name": "date",
          "type": "uint256"
        }
      ],
      "name": "SubscriptionPayment",
      "type": "event"
    },
    {
      "inputs": [],
      "name": "beehive",
      "outputs": [
        {
          "internalType": "address",
          "name": "",
          "type": "address"
        }
      ],
      "stateMutability": "view",
      "type": "function"
    },
    {
      "inputs": [],
      "name": "nextPlanId",
      "outputs": [
        {
          "internalType": "uint16",
          "name": "",
          "type": "uint16"
        }
      ],
      "stateMutability": "view",
      "type": "function"
    },
    {
      "inputs": [],
      "name": "operator",
      "outputs": [
        {
          "internalType": "address",
          "name": "",
          "type": "address"
        }
      ],
      "stateMutability": "view",
      "type": "function"
    },
    {
      "inputs": [],
      "name": "owner",
      "outputs": [
        {
          "internalType": "address",
          "name": "",
          "type": "address"
        }
      ],
      "stateMutability": "view",
      "type": "function"
    },
    {
      "inputs": [
        {
          "internalType": "uint16",
          "name": "",
          "type": "uint16"
        }
      ],
      "name": "plans",
      "outputs": [
        {
          "internalType": "address",
          "name": "token",
          "type": "address"
        },
        {
          "internalType": "uint256",
          "name": "amount",
          "type": "uint256"
        },
        {
          "internalType": "uint32",
          "name": "frequency",
          "type": "uint32"
        },
        {
          "internalType": "bool",
          "name": "stopped",
          "type": "bool"
        },
        {
          "internalType": "bool",
          "name": "limited",
          "type": "bool"
        }
      ],
      "stateMutability": "view",
      "type": "function"
    },
    {
      "inputs": [],
      "name": "renounceOwnership",
      "outputs": [],
      "stateMutability": "nonpayable",
      "type": "function"
    },
    {
      "inputs": [
        {
          "internalType": "uint16",
          "name": "",
          "type": "uint16"
        },
        {
          "internalType": "address",
          "name": "",
          "type": "address"
        }
      ],
      "name": "subscriptions",
      "outputs": [
        {
          "internalType": "uint256",
          "name": "start",
          "type": "uint256"
        },
        {
          "internalType": "uint256",
          "name": "nextPayment",
          "type": "uint256"
        },
        {
          "internalType": "bool",
          "name": "stopped",
          "type": "bool"
        }
      ],
      "stateMutability": "view",
      "type": "function"
    },
    {
      "inputs": [
        {
          "internalType": "address",
          "name": "newOwner",
          "type": "address"
        }
      ],
      "name": "transferOwnership",
      "outputs": [],
      "stateMutability": "nonpayable",
      "type": "function"
    },
    {
      "inputs": [
        {
          "internalType": "uint16",
          "name": "planId",
          "type": "uint16"
        }
      ],
      "name": "subscribe",
      "outputs": [],
      "stateMutability": "nonpayable",
      "type": "function"
    },
    {
      "inputs": [
        {
          "internalType": "uint16",
          "name": "planId",
          "type": "uint16"
        }
      ],
      "name": "toggleStop",
      "outputs": [],
      "stateMutability": "nonpayable",
      "type": "function"
    },
    {
      "inputs": [
        {
          "internalType": "uint16",
          "name": "planId",
          "type": "uint16"
        }
      ],
      "name": "deleteSubscription",
      "outputs": [],
      "stateMutability": "nonpayable",
      "type": "function"
    },
    {
      "inputs": [
        {
          "internalType": "uint16",
          "name": "planId",
          "type": "uint16"
        }
      ],
      "name": "paySubscription",
      "outputs": [],
      "stateMutability": "nonpayable",
      "type": "function"
    },
    {
      "inputs": [
        {
          "internalType": "address",
          "name": "tokenToCollect",
          "type": "address"
        },
        {
          "internalType": "address",
          "name": "recieverAddress",
          "type": "address"
        }
      ],
      "name": "collectToken",
      "outputs": [],
      "stateMutability": "nonpayable",
      "type": "function"
    },
    {
      "inputs": [
        {
          "internalType": "address",
          "name": "newOperator",
          "type": "address"
        }
      ],
      "name": "setOperator",
      "outputs": [],
      "stateMutability": "nonpayable",
      "type": "function"
    },
    {
      "inputs": [
        {
          "internalType": "uint16",
          "name": "planId",
          "type": "uint16"
        }
      ],
      "name": "togglePlanStop",
      "outputs": [],
      "stateMutability": "nonpayable",
      "type": "function"
    },
    {
      "inputs": [
        {
          "internalType": "uint16",
          "name": "planId",
          "type": "uint16"
        }
      ],
      "name": "togglePlanLimited",
      "outputs": [],
      "stateMutability": "nonpayable",
      "type": "function"
    },
    {
      "inputs": [
        {
          "internalType": "address",
          "name": "token",
          "type": "address"
        },
        {
          "internalType": "uint256",
          "name": "amount",
          "type": "uint256"
        },
        {
          "internalType": "uint32",
          "name": "frequency",
          "type": "uint32"
        }
      ],
      "name": "createPlan",
      "outputs": [],
      "stateMutability": "nonpayable",
      "type": "function"
    },
    {
      "inputs": [
        {
          "components": [
            {
              "internalType": "address",
              "name": "subscriber",
              "type": "address"
            },
            {
              "internalType": "uint16",
              "name": "planId",
              "type": "uint16"
            }
          ],
          "internalType": "struct Subscribee.UserObject[]",
          "name": "users",
          "type": "tuple[]"
        }
      ],
      "name": "collectSubscriptionPayments",
      "outputs": [],
      "stateMutability": "nonpayable",
      "type": "function"
    },
    {
      "inputs": [
        {
          "components": [
            {
              "internalType": "address",
              "name": "subscriber",
              "type": "address"
            },
            {
              "internalType": "uint16",
              "name": "planId",
              "type": "uint16"
            }
          ],
          "internalType": "struct Subscribee.UserObject[]",
          "name": "users",
          "type": "tuple[]"
        }
      ],
      "name": "multiDelete",
      "outputs": [],
      "stateMutability": "nonpayable",
      "type": "function"
    }
  ],
  "bytecode": "0x60806040523480156200001157600080fd5b50604051620033903803806200339083398181016040528101906200003791906200021e565b620000576200004b620000e860201b60201c565b620000f060201b60201c565b6001808190555081600560006101000a81548173ffffffffffffffffffffffffffffffffffffffff021916908373ffffffffffffffffffffffffffffffffffffffff16021790555080600660006101000a81548173ffffffffffffffffffffffffffffffffffffffff021916908373ffffffffffffffffffffffffffffffffffffffff160217905550505062000265565b600033905090565b60008060009054906101000a900473ffffffffffffffffffffffffffffffffffffffff169050816000806101000a81548173ffffffffffffffffffffffffffffffffffffffff021916908373ffffffffffffffffffffffffffffffffffffffff1602179055508173ffffffffffffffffffffffffffffffffffffffff168173ffffffffffffffffffffffffffffffffffffffff167f8be0079c531659141344cd1fd0a4f28419497f9722a3daafe3b4186f6b6457e060405160405180910390a35050565b600080fd5b600073ffffffffffffffffffffffffffffffffffffffff82169050919050565b6000620001e682620001b9565b9050919050565b620001f881620001d9565b81146200020457600080fd5b50565b6000815190506200021881620001ed565b92915050565b60008060408385031215620002385762000237620001b4565b5b6000620002488582860162000207565b92505060206200025b8582860162000207565b9150509250929050565b61311b80620002756000396000f3fe608060405234801561001057600080fd5b50600436106101215760003560e01c80636b1e78ac116100ad578063a18da39011610071578063a18da390146102d2578063b3ab15fb146102ee578063dc5ea9d51461030a578063f2fde38b14610326578063fe2b7bd11461034257610121565b80636b1e78ac14610240578063715018a61461025c5780638da5cb5b1461026657806390f454bc1461028457806398e9f0f6146102b657610121565b80633bdddb56116100f45780633bdddb561461019857806340dc4197146101b45780634ae5b38c146101d0578063570ca735146102045780635f8d26b21461022257610121565b80631ee2b3f91461012657806327c149ff1461014257806330d46b1a1461015e5780633395df251461017a575b600080fd5b610140600480360381019061013b91906120b7565b61035e565b005b61015c600480360381019061015791906122f0565b6104d3565b005b610178600480360381019061017391906120b7565b610615565b005b610182610621565b60405161018f9190612348565b60405180910390f35b6101b260048036038101906101ad91906120b7565b610647565b005b6101ce60048036038101906101c99190612363565b610654565b005b6101ea60048036038101906101e591906120b7565b610a11565b6040516101fb9594939291906123f6565b60405180910390f35b61020c610a91565b6040516102199190612348565b60405180910390f35b61022a610ab7565b6040516102379190612458565b60405180910390f35b61025a600480360381019061025591906120b7565b610acb565b005b610264610c40565b005b61026e610cc8565b60405161027b9190612348565b60405180910390f35b61029e60048036038101906102999190612473565b610cf1565b6040516102ad939291906124b3565b60405180910390f35b6102d060048036038101906102cb91906122f0565b610d35565b005b6102ec60048036038101906102e79190612542565b610ecc565b005b61030860048036038101906103039190612595565b61129a565b005b610324600480360381019061031f91906120b7565b6113ab565b005b610340600480360381019061033b9190612595565b6113b8565b005b61035c600480360381019061035791906120b7565b6114b0565b005b600560009054906101000a900473ffffffffffffffffffffffffffffffffffffffff1673ffffffffffffffffffffffffffffffffffffffff163373ffffffffffffffffffffffffffffffffffffffff1614806103ec57506103bd610cc8565b73ffffffffffffffffffffffffffffffffffffffff163373ffffffffffffffffffffffffffffffffffffffff16145b61042b576040517f08c379a00000000000000000000000000000000000000000000000000000000081526004016104229061261f565b60405180910390fd5b600360008261ffff1661ffff16815260200190815260200160002060020160059054906101000a900460ff1615610498576000600360008361ffff1661ffff16815260200190815260200160002060020160056101000a81548160ff0219169083151502179055506104d0565b6001600360008361ffff1661ffff16815260200190815260200160002060020160056101000a81548160ff0219169083151502179055505b50565b600560009054906101000a900473ffffffffffffffffffffffffffffffffffffffff1673ffffffffffffffffffffffffffffffffffffffff163373ffffffffffffffffffffffffffffffffffffffff1614806105615750610532610cc8565b73ffffffffffffffffffffffffffffffffffffffff163373ffffffffffffffffffffffffffffffffffffffff16145b6105a0576040517f08c379a00000000000000000000000000000000000000000000000000000000081526004016105979061261f565b60405180910390fd5b60005b81518110156106115760008282815181106105c1576105c061263f565b5b602002602001015160000151905060008383815181106105e4576105e361263f565b5b60200260200101516020015190506105fc82826114bc565b505080806106099061269d565b9150506105a3565b5050565b61061e8161161f565b50565b600660009054906101000a900473ffffffffffffffffffffffffffffffffffffffff1681565b61065133826114bc565b50565b600660009054906101000a900473ffffffffffffffffffffffffffffffffffffffff1673ffffffffffffffffffffffffffffffffffffffff16638da5cb5b6040518163ffffffff1660e01b815260040160206040518083038186803b1580156106bc57600080fd5b505afa1580156106d0573d6000803e3d6000fd5b505050506040513d601f19601f820116820180604052508101906106f491906126fb565b73ffffffffffffffffffffffffffffffffffffffff163373ffffffffffffffffffffffffffffffffffffffff1614806107f75750600660009054906101000a900473ffffffffffffffffffffffffffffffffffffffff1673ffffffffffffffffffffffffffffffffffffffff1663570ca7356040518163ffffffff1660e01b815260040160206040518083038186803b15801561079057600080fd5b505afa1580156107a4573d6000803e3d6000fd5b505050506040513d601f19601f820116820180604052508101906107c891906126fb565b73ffffffffffffffffffffffffffffffffffffffff163373ffffffffffffffffffffffffffffffffffffffff16145b8061084f5750600660009054906101000a900473ffffffffffffffffffffffffffffffffffffffff1673ffffffffffffffffffffffffffffffffffffffff163373ffffffffffffffffffffffffffffffffffffffff16145b61088e576040517f08c379a000000000000000000000000000000000000000000000000000000000815260040161088590612774565b60405180910390fd5b600260015414156108d4576040517f08c379a00000000000000000000000000000000000000000000000000000000081526004016108cb906127e0565b60405180910390fd5b6002600181905550600082905060008173ffffffffffffffffffffffffffffffffffffffff166370a08231306040518263ffffffff1660e01b815260040161091c9190612348565b60206040518083038186803b15801561093457600080fd5b505afa158015610948573d6000803e3d6000fd5b505050506040513d601f19601f8201168201806040525081019061096c9190612815565b90508173ffffffffffffffffffffffffffffffffffffffff1663a9059cbb84836040518363ffffffff1660e01b81526004016109a9929190612842565b602060405180830381600087803b1580156109c357600080fd5b505af11580156109d7573d6000803e3d6000fd5b505050506040513d601f19601f820116820180604052508101906109fb9190612897565b610a0457600080fd5b5050600180819055505050565b60036020528060005260406000206000915090508060000160009054906101000a900473ffffffffffffffffffffffffffffffffffffffff16908060010154908060020160009054906101000a900463ffffffff16908060020160049054906101000a900460ff16908060020160059054906101000a900460ff16905085565b600560009054906101000a900473ffffffffffffffffffffffffffffffffffffffff1681565b600260009054906101000a900461ffff1681565b600560009054906101000a900473ffffffffffffffffffffffffffffffffffffffff1673ffffffffffffffffffffffffffffffffffffffff163373ffffffffffffffffffffffffffffffffffffffff161480610b595750610b2a610cc8565b73ffffffffffffffffffffffffffffffffffffffff163373ffffffffffffffffffffffffffffffffffffffff16145b610b98576040517f08c379a0000000000000000000000000000000000000000000000000000000008152600401610b8f9061261f565b60405180910390fd5b600360008261ffff1661ffff16815260200190815260200160002060020160049054906101000a900460ff1615610c05576000600360008361ffff1661ffff16815260200190815260200160002060020160046101000a81548160ff021916908315150217905550610c3d565b6001600360008361ffff1661ffff16815260200190815260200160002060020160046101000a81548160ff0219169083151502179055505b50565b610c4861175c565b73ffffffffffffffffffffffffffffffffffffffff16610c66610cc8565b73ffffffffffffffffffffffffffffffffffffffff1614610cbc576040517f08c379a0000000000000000000000000000000000000000000000000000000008152600401610cb390612910565b60405180910390fd5b610cc66000611764565b565b60008060009054906101000a900473ffffffffffffffffffffffffffffffffffffffff16905090565b6004602052816000526040600020602052806000526040600020600091509150508060000154908060010154908060020160009054906101000a900460ff16905083565b600560009054906101000a900473ffffffffffffffffffffffffffffffffffffffff1673ffffffffffffffffffffffffffffffffffffffff163373ffffffffffffffffffffffffffffffffffffffff161480610dc35750610d94610cc8565b73ffffffffffffffffffffffffffffffffffffffff163373ffffffffffffffffffffffffffffffffffffffff16145b610e02576040517f08c379a0000000000000000000000000000000000000000000000000000000008152600401610df99061261f565b60405180910390fd5b60026001541415610e48576040517f08c379a0000000000000000000000000000000000000000000000000000000008152600401610e3f906127e0565b60405180910390fd5b600260018190555060005b8151811015610ec1576000828281518110610e7157610e7061263f565b5b60200260200101516000015190506000838381518110610e9457610e9361263f565b5b6020026020010151602001519050610eac8282611828565b50508080610eb99061269d565b915050610e53565b506001808190555050565b600560009054906101000a900473ffffffffffffffffffffffffffffffffffffffff1673ffffffffffffffffffffffffffffffffffffffff163373ffffffffffffffffffffffffffffffffffffffff161480610f5a5750610f2b610cc8565b73ffffffffffffffffffffffffffffffffffffffff163373ffffffffffffffffffffffffffffffffffffffff16145b610f99576040517f08c379a0000000000000000000000000000000000000000000000000000000008152600401610f909061261f565b60405180910390fd5b600073ffffffffffffffffffffffffffffffffffffffff168373ffffffffffffffffffffffffffffffffffffffff161415611009576040517f08c379a00000000000000000000000000000000000000000000000000000000081526004016110009061297c565b60405180910390fd5b6000821161104c576040517f08c379a0000000000000000000000000000000000000000000000000000000008152600401611043906129e8565b60405180910390fd5b620151808163ffffffff161015611098576040517f08c379a000000000000000000000000000000000000000000000000000000000815260040161108f90612a7a565b60405180910390fd5b61ffff600260009054906101000a900461ffff1661ffff16106110f0576040517f08c379a00000000000000000000000000000000000000000000000000000000081526004016110e790612ae6565b60405180910390fd5b6040518060a001604052808473ffffffffffffffffffffffffffffffffffffffff1681526020018381526020018263ffffffff1681526020016000151581526020016000151581525060036000600260009054906101000a900461ffff1661ffff1661ffff16815260200190815260200160002060008201518160000160006101000a81548173ffffffffffffffffffffffffffffffffffffffff021916908373ffffffffffffffffffffffffffffffffffffffff1602179055506020820151816001015560408201518160020160006101000a81548163ffffffff021916908363ffffffff16021790555060608201518160020160046101000a81548160ff02191690831515021790555060808201518160020160056101000a81548160ff0219169083151502179055509050507f79e138a7450285bfbcb3734370dd42fe00c348c2d5736484c9c0b760e581643783838360405161125293929190612b06565b60405180910390a16002600081819054906101000a900461ffff168092919061127a90612b3d565b91906101000a81548161ffff021916908361ffff16021790555050505050565b600560009054906101000a900473ffffffffffffffffffffffffffffffffffffffff1673ffffffffffffffffffffffffffffffffffffffff163373ffffffffffffffffffffffffffffffffffffffff16148061132857506112f9610cc8565b73ffffffffffffffffffffffffffffffffffffffff163373ffffffffffffffffffffffffffffffffffffffff16145b611367576040517f08c379a000000000000000000000000000000000000000000000000000000000815260040161135e9061261f565b60405180910390fd5b80600560006101000a81548173ffffffffffffffffffffffffffffffffffffffff021916908373ffffffffffffffffffffffffffffffffffffffff16021790555050565b6113b53382611828565b50565b6113c061175c565b73ffffffffffffffffffffffffffffffffffffffff166113de610cc8565b73ffffffffffffffffffffffffffffffffffffffff1614611434576040517f08c379a000000000000000000000000000000000000000000000000000000000815260040161142b90612910565b60405180910390fd5b600073ffffffffffffffffffffffffffffffffffffffff168173ffffffffffffffffffffffffffffffffffffffff1614156114a4576040517f08c379a000000000000000000000000000000000000000000000000000000000815260040161149b90612bda565b60405180910390fd5b6114ad81611764565b50565b6114b981611aa7565b50565b6000600460008361ffff1661ffff16815260200190815260200160002060008473ffffffffffffffffffffffffffffffffffffffff1673ffffffffffffffffffffffffffffffffffffffff1681526020019081526020016000209050600081600001541415611560576040517f08c379a000000000000000000000000000000000000000000000000000000000815260040161155790612c46565b60405180910390fd5b600460008361ffff1661ffff16815260200190815260200160002060008473ffffffffffffffffffffffffffffffffffffffff1673ffffffffffffffffffffffffffffffffffffffff16815260200190815260200160002060008082016000905560018201600090556002820160006101000a81549060ff021916905550507f75fcf28899a727c2d872ce892b717edb56177aec80cd1b16a102639af236729d83834260405161161293929190612c66565b60405180910390a1505050565b6000600460008361ffff1661ffff16815260200190815260200160002060003373ffffffffffffffffffffffffffffffffffffffff1673ffffffffffffffffffffffffffffffffffffffff16815260200190815260200160002090506000816000015414156116c3576040517f08c379a00000000000000000000000000000000000000000000000000000000081526004016116ba90612c46565b60405180910390fd5b4281600101541080156116eb5750600015158160020160009054906101000a900460ff161515145b15611700576116fa33836114bc565b50611759565b8060020160009054906101000a900460ff16156117395760008160020160006101000a81548160ff021916908315150217905550611757565b60018160020160006101000a81548160ff0219169083151502179055505b505b50565b600033905090565b60008060009054906101000a900473ffffffffffffffffffffffffffffffffffffffff169050816000806101000a81548173ffffffffffffffffffffffffffffffffffffffff021916908373ffffffffffffffffffffffffffffffffffffffff1602179055508173ffffffffffffffffffffffffffffffffffffffff168173ffffffffffffffffffffffffffffffffffffffff167f8be0079c531659141344cd1fd0a4f28419497f9722a3daafe3b4186f6b6457e060405160405180910390a35050565b6000600360008361ffff1661ffff16815260200190815260200160002090506000600460008461ffff1661ffff16815260200190815260200160002060008573ffffffffffffffffffffffffffffffffffffffff1673ffffffffffffffffffffffffffffffffffffffff16815260200190815260200160002090508160020160049054906101000a900460ff16156118f5576040517f08c379a00000000000000000000000000000000000000000000000000000000081526004016118ec90612ce9565b60405180910390fd5b60008160000154141561193d576040517f08c379a000000000000000000000000000000000000000000000000000000000815260040161193490612c46565b60405180910390fd5b80600101544211611983576040517f08c379a000000000000000000000000000000000000000000000000000000000815260040161197a90612d55565b60405180910390fd5b8060020160009054906101000a900460ff16156119d5576040517f08c379a00000000000000000000000000000000000000000000000000000000081526004016119cc90612e0d565b60405180910390fd5b611a08848360000160009054906101000a900473ffffffffffffffffffffffffffffffffffffffff168460010154611da9565b8160020160009054906101000a900463ffffffff1663ffffffff168160010154611a329190612e2d565b81600101819055507f5fa023b4ff2cd723cb69ab514d5bb4bb86b6208e0379ec3e0f6aafa8f198e889848360000160009054906101000a900473ffffffffffffffffffffffffffffffffffffffff1684600101548642604051611a99959493929190612e83565b60405180910390a150505050565b6000600360008361ffff1661ffff1681526020019081526020016000209050600073ffffffffffffffffffffffffffffffffffffffff168160000160009054906101000a900473ffffffffffffffffffffffffffffffffffffffff1673ffffffffffffffffffffffffffffffffffffffff161415611b5a576040517f08c379a0000000000000000000000000000000000000000000000000000000008152600401611b5190612f22565b60405180910390fd5b8060020160049054906101000a900460ff1615611bac576040517f08c379a0000000000000000000000000000000000000000000000000000000008152600401611ba390612f8e565b60405180910390fd5b8060020160059054906101000a900460ff1615611bfe576040517f08c379a0000000000000000000000000000000000000000000000000000000008152600401611bf590612ffa565b60405180910390fd5b611c31338260000160009054906101000a900473ffffffffffffffffffffffffffffffffffffffff168360010154611da9565b60405180606001604052804281526020018260020160009054906101000a900463ffffffff1663ffffffff1642611c689190612e2d565b815260200160001515815250600460008461ffff1661ffff16815260200190815260200160002060003373ffffffffffffffffffffffffffffffffffffffff1673ffffffffffffffffffffffffffffffffffffffff168152602001908152602001600020600082015181600001556020820151816001015560408201518160020160006101000a81548160ff0219169083151502179055509050507f2aae8fed0a9c31112f71ae9a101dbfc987ba916f96be2848b7631bc8a271d05a338342604051611d3693929190612c66565b60405180910390a17f5fa023b4ff2cd723cb69ab514d5bb4bb86b6208e0379ec3e0f6aafa8f198e889338260000160009054906101000a900473ffffffffffffffffffffffffffffffffffffffff1683600101548542604051611d9d959493929190612e83565b60405180910390a15050565b6000604382611db89190613049565b90506000600660009054906101000a900473ffffffffffffffffffffffffffffffffffffffff1673ffffffffffffffffffffffffffffffffffffffff166371f5d1e5856040518263ffffffff1660e01b8152600401611e179190612348565b60206040518083038186803b158015611e2f57600080fd5b505afa158015611e43573d6000803e3d6000fd5b505050506040513d601f19601f82011682018060405250810190611e679190612897565b9050600081611f1557600660009054906101000a900473ffffffffffffffffffffffffffffffffffffffff1673ffffffffffffffffffffffffffffffffffffffff16638da5cb5b6040518163ffffffff1660e01b815260040160206040518083038186803b158015611ed857600080fd5b505afa158015611eec573d6000803e3d6000fd5b505050506040513d601f19601f82011682018060405250810190611f1091906126fb565b611f17565b305b905060008590508073ffffffffffffffffffffffffffffffffffffffff166323b872dd88611f43610cc8565b8789611f4f919061307a565b6040518463ffffffff1660e01b8152600401611f6d939291906130ae565b602060405180830381600087803b158015611f8757600080fd5b505af1158015611f9b573d6000803e3d6000fd5b505050506040513d601f19601f82011682018060405250810190611fbf9190612897565b611fc857600080fd5b8073ffffffffffffffffffffffffffffffffffffffff166323b872dd8884876040518463ffffffff1660e01b8152600401612005939291906130ae565b602060405180830381600087803b15801561201f57600080fd5b505af1158015612033573d6000803e3d6000fd5b505050506040513d601f19601f820116820180604052508101906120579190612897565b61206057600080fd5b50505050505050565b6000604051905090565b600080fd5b600080fd5b600061ffff82169050919050565b6120948161207d565b811461209f57600080fd5b50565b6000813590506120b18161208b565b92915050565b6000602082840312156120cd576120cc612073565b5b60006120db848285016120a2565b91505092915050565b600080fd5b6000601f19601f8301169050919050565b7f4e487b7100000000000000000000000000000000000000000000000000000000600052604160045260246000fd5b612132826120e9565b810181811067ffffffffffffffff82111715612151576121506120fa565b5b80604052505050565b6000612164612069565b90506121708282612129565b919050565b600067ffffffffffffffff8211156121905761218f6120fa565b5b602082029050602081019050919050565b600080fd5b600080fd5b600073ffffffffffffffffffffffffffffffffffffffff82169050919050565b60006121d6826121ab565b9050919050565b6121e6816121cb565b81146121f157600080fd5b50565b600081359050612203816121dd565b92915050565b60006040828403121561221f5761221e6121a6565b5b612229604061215a565b90506000612239848285016121f4565b600083015250602061224d848285016120a2565b60208301525092915050565b600061226c61226784612175565b61215a565b9050808382526020820190506040840283018581111561228f5761228e6121a1565b5b835b818110156122b857806122a48882612209565b845260208401935050604081019050612291565b5050509392505050565b600082601f8301126122d7576122d66120e4565b5b81356122e7848260208601612259565b91505092915050565b60006020828403121561230657612305612073565b5b600082013567ffffffffffffffff81111561232457612323612078565b5b612330848285016122c2565b91505092915050565b612342816121cb565b82525050565b600060208201905061235d6000830184612339565b92915050565b6000806040838503121561237a57612379612073565b5b6000612388858286016121f4565b9250506020612399858286016121f4565b9150509250929050565b6000819050919050565b6123b6816123a3565b82525050565b600063ffffffff82169050919050565b6123d5816123bc565b82525050565b60008115159050919050565b6123f0816123db565b82525050565b600060a08201905061240b6000830188612339565b61241860208301876123ad565b61242560408301866123cc565b61243260608301856123e7565b61243f60808301846123e7565b9695505050505050565b6124528161207d565b82525050565b600060208201905061246d6000830184612449565b92915050565b6000806040838503121561248a57612489612073565b5b6000612498858286016120a2565b92505060206124a9858286016121f4565b9150509250929050565b60006060820190506124c860008301866123ad565b6124d560208301856123ad565b6124e260408301846123e7565b949350505050565b6124f3816123a3565b81146124fe57600080fd5b50565b600081359050612510816124ea565b92915050565b61251f816123bc565b811461252a57600080fd5b50565b60008135905061253c81612516565b92915050565b60008060006060848603121561255b5761255a612073565b5b6000612569868287016121f4565b935050602061257a86828701612501565b925050604061258b8682870161252d565b9150509250925092565b6000602082840312156125ab576125aa612073565b5b60006125b9848285016121f4565b91505092915050565b600082825260208201905092915050565b7f4875683f00000000000000000000000000000000000000000000000000000000600082015250565b60006126096004836125c2565b9150612614826125d3565b602082019050919050565b60006020820190508181036000830152612638816125fc565b9050919050565b7f4e487b7100000000000000000000000000000000000000000000000000000000600052603260045260246000fd5b7f4e487b7100000000000000000000000000000000000000000000000000000000600052601160045260246000fd5b60006126a8826123a3565b91507fffffffffffffffffffffffffffffffffffffffffffffffffffffffffffffffff8214156126db576126da61266e565b5b600182019050919050565b6000815190506126f5816121dd565b92915050565b60006020828403121561271157612710612073565b5b600061271f848285016126e6565b91505092915050565b7f596f75204e6f20427a7a7a210000000000000000000000000000000000000000600082015250565b600061275e600c836125c2565b915061276982612728565b602082019050919050565b6000602082019050818103600083015261278d81612751565b9050919050565b7f5265656e7472616e637947756172643a207265656e7472616e742063616c6c00600082015250565b60006127ca601f836125c2565b91506127d582612794565b602082019050919050565b600060208201905081810360008301526127f9816127bd565b9050919050565b60008151905061280f816124ea565b92915050565b60006020828403121561282b5761282a612073565b5b600061283984828501612800565b91505092915050565b60006040820190506128576000830185612339565b61286460208301846123ad565b9392505050565b612874816123db565b811461287f57600080fd5b50565b6000815190506128918161286b565b92915050565b6000602082840312156128ad576128ac612073565b5b60006128bb84828501612882565b91505092915050565b7f4f776e61626c653a2063616c6c6572206973206e6f7420746865206f776e6572600082015250565b60006128fa6020836125c2565b9150612905826128c4565b602082019050919050565b60006020820190508181036000830152612929816128ed565b9050919050565b7f616464726573732063616e6e6f74206265206e756c6c20616464726573730000600082015250565b6000612966601e836125c2565b915061297182612930565b602082019050919050565b6000602082019050818103600083015261299581612959565b9050919050565b7f616d6f756e74206e6565647320746f206265203e203000000000000000000000600082015250565b60006129d26016836125c2565b91506129dd8261299c565b602082019050919050565b60006020820190508181036000830152612a01816129c5565b9050919050565b7f6672657175656e6379206e6565647320746f2062652067726561746572206f7260008201527f20657175616c20746f20323420686f7572730000000000000000000000000000602082015250565b6000612a646032836125c2565b9150612a6f82612a08565b604082019050919050565b60006020820190508181036000830152612a9381612a57565b9050919050565b7f596f752068617665206372656174656420746f6f206d616e7920706c616e7300600082015250565b6000612ad0601f836125c2565b9150612adb82612a9a565b602082019050919050565b60006020820190508181036000830152612aff81612ac3565b9050919050565b6000606082019050612b1b6000830186612339565b612b2860208301856123ad565b612b3560408301846123cc565b949350505050565b6000612b488261207d565b915061ffff821415612b5d57612b5c61266e565b5b600182019050919050565b7f4f776e61626c653a206e6577206f776e657220697320746865207a65726f206160008201527f6464726573730000000000000000000000000000000000000000000000000000602082015250565b6000612bc46026836125c2565b9150612bcf82612b68565b604082019050919050565b60006020820190508181036000830152612bf381612bb7565b9050919050565b7f7468697320737562736372697074696f6e20646f6573206e6f74206578697374600082015250565b6000612c306020836125c2565b9150612c3b82612bfa565b602082019050919050565b60006020820190508181036000830152612c5f81612c23565b9050919050565b6000606082019050612c7b6000830186612339565b612c886020830185612449565b612c9560408301846123ad565b949350505050565b7f506c616e2069732073746f707065640000000000000000000000000000000000600082015250565b6000612cd3600f836125c2565b9150612cde82612c9d565b602082019050919050565b60006020820190508181036000830152612d0281612cc6565b9050919050565b7f6e6f742064756520796574000000000000000000000000000000000000000000600082015250565b6000612d3f600b836125c2565b9150612d4a82612d09565b602082019050919050565b60006020820190508181036000830152612d6e81612d32565b9050919050565b7f53756273637269626572206f7074656420746f2073746f70207061796d656e7460008201527f733b20636f6e746163742075736572206f722064656c6574652073756273637260208201527f697074696f6e0000000000000000000000000000000000000000000000000000604082015250565b6000612df76046836125c2565b9150612e0282612d75565b606082019050919050565b60006020820190508181036000830152612e2681612dea565b9050919050565b6000612e38826123a3565b9150612e43836123a3565b9250827fffffffffffffffffffffffffffffffffffffffffffffffffffffffffffffffff03821115612e7857612e7761266e565b5b828201905092915050565b600060a082019050612e986000830188612339565b612ea56020830187612339565b612eb260408301866123ad565b612ebf6060830185612449565b612ecc60808301846123ad565b9695505050505050565b7f5468697320706c616e20646f6573206e6f742065786973740000000000000000600082015250565b6000612f0c6018836125c2565b9150612f1782612ed6565b602082019050919050565b60006020820190508181036000830152612f3b81612eff565b9050919050565b7f506c616e2069732053746f707065640000000000000000000000000000000000600082015250565b6000612f78600f836125c2565b9150612f8382612f42565b602082019050919050565b60006020820190508181036000830152612fa781612f6b565b9050919050565b7f506c616e206973204c696d697465640000000000000000000000000000000000600082015250565b6000612fe4600f836125c2565b9150612fef82612fae565b602082019050919050565b6000602082019050818103600083015261301381612fd7565b9050919050565b7f4e487b7100000000000000000000000000000000000000000000000000000000600052601260045260246000fd5b6000613054826123a3565b915061305f836123a3565b92508261306f5761306e61301a565b5b828204905092915050565b6000613085826123a3565b9150613090836123a3565b9250828210156130a3576130a261266e565b5b828203905092915050565b60006060820190506130c36000830186612339565b6130d06020830185612339565b6130dd60408301846123ad565b94935050505056fea26469706673582212207a1079ac977783111ec9754296debb664717288fd416c02bfe53e21e1c6e3c6764736f6c63430008080033",
  "immutableReferences": {},
  "source": "// SPDX-License-Identifier: Business Source License 1.1\npragma solidity ^0.8.8;\n\nimport \"@openzeppelin/contracts/token/ERC20/IERC20.sol\";\nimport \"@openzeppelin/contracts/access/Ownable.sol\";\nimport \"@openzeppelin/contracts/security/ReentrancyGuard.sol\";\n\ninterface IBeehive {\n    function owner() external view returns (address);\n    function operator() external view returns (address);\n    function specialToken(address) external view returns (bool);\n}\n\ncontract Subscribee is Ownable, ReentrancyGuard{\n\n  uint16 public nextPlanId;\n\n  mapping(uint16 => Plan) public plans;\n  mapping(uint16 => mapping(address => Subscription)) public subscriptions;\n\n  address public operator;\n  address public beehive;\n\n  // Structs\n\n  struct Plan {\n    address token;\n    uint256 amount;\n    uint32 frequency;\n    bool stopped;\n    bool limited;\n  }\n\n  struct Subscription {\n    uint256 start;\n    uint256 nextPayment;\n    bool stopped;\n  }\n\n  struct UserObject {\n    address subscriber;\n    uint16 planId;\n  }\n\n  // Events\n\n  event PlanCreated(\n    address token,\n    uint256 amount,\n    uint32 frequency\n  );\n\n  event SubscriptionCreated(\n    address subscriber,\n    uint16 planId,\n    uint256 date\n  );\n\n  event SubscriptionDeleted(\n    address subscriber,\n    uint16 planId,\n    uint256 date\n  );\n\n  event SubscriptionPayment(\n    address from,\n    address token,\n    uint256 amount,\n    uint16 planId,\n    uint256 date\n  );\n\n  // Modifiers\n\n  modifier onlyOperatorOrOwner() {\n    require(\n      msg.sender == operator ||\n      msg.sender == owner(), 'Huh?'\n    );\n    _;\n  }\n\n  modifier onlyBeehive() {\n    require(\n      msg.sender == IBeehive(beehive).owner() ||\n      msg.sender == IBeehive(beehive).operator() ||\n      msg.sender == beehive, \"You No Bzzz!\"\n    );\n    _;\n  }\n\n  // Constructor\n\n  constructor(address operatorAddress, address beehiveAddress) {\n    operator = operatorAddress;\n    beehive = beehiveAddress;\n  }\n\n  // External Functions\n\n  function subscribe(uint16 planId) external {\n    _firstSubscriptionPayment(planId);\n  }\n\n  function toggleStop(uint16 planId) external {\n    _stop(planId);\n  }\n\n  function deleteSubscription(uint16 planId) external {\n    _delete(msg.sender, planId);\n  }\n\n  function paySubscription(uint16 planId) external {\n    _makeSubscriptionPayment(msg.sender, planId);\n  }\n\n  function collectToken(address tokenToCollect, address recieverAddress) external onlyBeehive nonReentrant{\n    IERC20 token = IERC20(tokenToCollect);\n    uint256 balance = token.balanceOf( address(this) );\n    require(token.transfer(recieverAddress, balance));\n  }\n\n  function setOperator(address newOperator) external onlyOperatorOrOwner{\n    operator = newOperator;\n  }\n\n  function togglePlanStop(uint16 planId) external onlyOperatorOrOwner{\n    if(plans[planId].stopped){\n      plans[planId].stopped = false;\n    }else{\n      plans[planId].stopped = true;\n    }\n  }\n\n  function togglePlanLimited(uint16 planId) external onlyOperatorOrOwner{\n    if(plans[planId].limited){\n      plans[planId].limited = false;\n    }else{\n      plans[planId].limited = true;\n    }\n  }\n\n  function createPlan(address token, uint256 amount, uint32 frequency) external onlyOperatorOrOwner{\n    require(token != address(0), 'address cannot be null address');\n    require(amount > 0, 'amount needs to be > 0');\n    require(frequency >= 86400, 'frequency needs to be greater or equal to 24 hours');\n    require(nextPlanId < 65535, 'You have created too many plans');\n\n    plans[nextPlanId] = Plan(\n      token,\n      amount,\n      frequency,\n      false,\n      false\n    );\n\n    emit PlanCreated(token, amount, frequency);\n    nextPlanId++;\n  }\n\n  function collectSubscriptionPayments(UserObject[] memory users) external onlyOperatorOrOwner nonReentrant{\n    for(uint i = 0; i < users.length; i++){\n      address subscriber = users[i].subscriber;\n      uint16 planId = users[i].planId;\n      _makeSubscriptionPayment(subscriber, planId);\n    }\n  }\n\n  function multiDelete(UserObject[] memory users) external onlyOperatorOrOwner{\n    for(uint i = 0; i < users.length; i++){\n      address subscriber = users[i].subscriber;\n      uint16 planId = users[i].planId;\n      _delete(subscriber, planId);\n    }\n  }\n\n  // Private Functions\n\n  function _firstSubscriptionPayment(uint16 planId) private {\n    // call from storage\n    Plan storage plan = plans[planId];\n\n    require(plan.token != address(0), 'This plan does not exist');\n    require(!plan.stopped, 'Plan is Stopped');\n    require(!plan.limited, 'Plan is Limited');\n\n    _collectTokenPayment(msg.sender, plan.token, plan.amount);\n\n    subscriptions[planId][msg.sender] = Subscription(\n      block.timestamp,\n      block.timestamp + plan.frequency,\n      false\n    );\n\n    emit SubscriptionCreated(\n      msg.sender,\n      planId,\n      block.timestamp\n    );\n\n    // emit Payment Receipt event\n      emit SubscriptionPayment(\n        msg.sender,\n        plan.token,\n        plan.amount,\n        planId,\n        block.timestamp\n      );\n    }\n\n  function _makeSubscriptionPayment(address subscriber, uint16 planId) private {\n      // call from storage\n    Plan storage plan = plans[planId];\n    Subscription storage subscription = subscriptions[planId][subscriber];\n\n    require(!plan.stopped, 'Plan is stopped');\n    require(subscription.start != 0, 'this subscription does not exist');\n    require(block.timestamp > subscription.nextPayment, 'not due yet');\n    require(!subscription.stopped, 'Subscriber opted to stop payments; contact user or delete subscription');\n\n    _collectTokenPayment(subscriber, plan.token, plan.amount);\n\n    subscription.nextPayment = subscription.nextPayment + plan.frequency;\n\n\n      // emit Payment Receipt event\n      emit SubscriptionPayment(\n        subscriber,\n        plan.token,\n        plan.amount,\n        planId,\n        block.timestamp\n      );\n    }\n\n  function _collectTokenPayment(address sender, address tokenAddress, uint256 amount) private {\n    uint256 fee = amount / 67;\n    bool isSpecialToken = IBeehive(beehive).specialToken(tokenAddress);\n    address beehiveAdmin = isSpecialToken ? address(this) : IBeehive(beehive).owner();\n\n    // set Token\n    IERC20 token = IERC20(tokenAddress);\n\n    // send to Contract Owner & BeeHive\n    require(token.transferFrom(sender, owner(), amount - fee));\n    require(token.transferFrom(sender, beehiveAdmin, fee));\n\n  }\n\n  function _delete(address user, uint16 planId) private {\n    // Grab user subscription data & check if it exists\n    Subscription storage subscription = subscriptions[planId][user];\n    require(subscription.start != 0, 'this subscription does not exist');\n\n    // Delete subscription and emit delete event\n    delete subscriptions[planId][user];\n\n    emit SubscriptionDeleted(user, planId, block.timestamp);\n  }\n\n  function _stop(uint16 planId) private {\n    // Grab user subscription data & check if it exists\n    Subscription storage subscription = subscriptions[planId][msg.sender];\n    require(subscription.start != 0, 'this subscription does not exist');\n\n    // Check if user owes funds and is trying to stop, will delete\n    if(subscription.nextPayment < block.timestamp && subscription.stopped == false){\n      _delete(msg.sender, planId);\n      return;\n    }\n\n    if(subscription.stopped){\n      subscription.stopped = false;\n    }else{\n      subscription.stopped = true;\n    }\n\n  }\n}\n",
  "sourcePath": "/home/lavandor9/contracts/subscribee-official/contracts/Subscribee.sol",
  "compiler": {
    "name": "solc",
    "version": "0.8.8+commit.dddeac2f.Emscripten.clang"
  },
  "schemaVersion": "3.4.1",
  "updatedAt": "2023-03-18T04:06:48.206Z",
  "devdoc": {
    "kind": "dev",
    "methods": {
      "owner()": {
        "details": "Returns the address of the current owner."
      },
      "renounceOwnership()": {
        "details": "Leaves the contract without owner. It will not be possible to call `onlyOwner` functions anymore. Can only be called by the current owner. NOTE: Renouncing ownership will leave the contract without an owner, thereby removing any functionality that is only available to the owner."
      },
      "transferOwnership(address)": {
        "details": "Transfers ownership of the contract to a new account (`newOwner`). Can only be called by the current owner."
      }
    },
    "version": 1
  },
  "userdoc": {
    "kind": "user",
    "methods": {},
    "version": 1
  }
}