{
  "contractName": "SubscribeeV1",
  "abi": [
    {
      "inputs": [
        {
          "internalType": "address",
          "name": "beehiveAddress",
          "type": "address"
        },
        {
          "internalType": "address",
          "name": "operatorAddress",
          "type": "address"
        },
        {
          "internalType": "string",
          "name": "newTitle",
          "type": "string"
        },
        {
          "internalType": "string",
          "name": "newSlug",
          "type": "string"
        },
        {
          "internalType": "string",
          "name": "newImage",
          "type": "string"
        }
      ],
      "stateMutability": "nonpayable",
      "type": "constructor"
    },
    {
      "anonymous": false,
      "inputs": [
        {
          "indexed": true,
          "internalType": "address",
          "name": "previousOwner",
          "type": "address"
        },
        {
          "indexed": true,
          "internalType": "address",
          "name": "newOwner",
          "type": "address"
        }
      ],
      "name": "OwnershipTransferred",
      "type": "event"
    },
    {
      "anonymous": false,
      "inputs": [
        {
          "indexed": false,
          "internalType": "address",
          "name": "from",
          "type": "address"
        },
        {
          "indexed": false,
          "internalType": "address",
          "name": "to",
          "type": "address"
        },
        {
          "indexed": false,
          "internalType": "uint128",
          "name": "amount",
          "type": "uint128"
        },
        {
          "indexed": false,
          "internalType": "uint64",
          "name": "planId",
          "type": "uint64"
        },
        {
          "indexed": false,
          "internalType": "uint256",
          "name": "date",
          "type": "uint256"
        }
      ],
      "name": "PaymentSent",
      "type": "event"
    },
    {
      "anonymous": false,
      "inputs": [
        {
          "indexed": false,
          "internalType": "address",
          "name": "merchant",
          "type": "address"
        },
        {
          "indexed": false,
          "internalType": "uint64",
          "name": "planId",
          "type": "uint64"
        },
        {
          "indexed": false,
          "internalType": "uint256",
          "name": "date",
          "type": "uint256"
        },
        {
          "indexed": false,
          "internalType": "uint64",
          "name": "terms",
          "type": "uint64"
        }
      ],
      "name": "PlanCreated",
      "type": "event"
    },
    {
      "anonymous": false,
      "inputs": [
        {
          "indexed": false,
          "internalType": "address",
          "name": "subscriber",
          "type": "address"
        },
        {
          "indexed": false,
          "internalType": "uint64",
          "name": "planId",
          "type": "uint64"
        },
        {
          "indexed": false,
          "internalType": "uint256",
          "name": "date",
          "type": "uint256"
        }
      ],
      "name": "SubscriptionCreated",
      "type": "event"
    },
    {
      "anonymous": false,
      "inputs": [
        {
          "indexed": false,
          "internalType": "address",
          "name": "subscriber",
          "type": "address"
        },
        {
          "indexed": false,
          "internalType": "uint64",
          "name": "planId",
          "type": "uint64"
        },
        {
          "indexed": false,
          "internalType": "uint256",
          "name": "date",
          "type": "uint256"
        },
        {
          "indexed": false,
          "internalType": "string",
          "name": "reason",
          "type": "string"
        }
      ],
      "name": "SubscriptionDeleted",
      "type": "event"
    },
    {
      "inputs": [],
      "name": "beehive",
      "outputs": [
        {
          "internalType": "address",
          "name": "",
          "type": "address"
        }
      ],
      "stateMutability": "view",
      "type": "function"
    },
    {
      "inputs": [],
      "name": "image",
      "outputs": [
        {
          "internalType": "string",
          "name": "",
          "type": "string"
        }
      ],
      "stateMutability": "view",
      "type": "function"
    },
    {
      "inputs": [],
      "name": "nextPlanId",
      "outputs": [
        {
          "internalType": "uint64",
          "name": "",
          "type": "uint64"
        }
      ],
      "stateMutability": "view",
      "type": "function"
    },
    {
      "inputs": [],
      "name": "operator",
      "outputs": [
        {
          "internalType": "address",
          "name": "",
          "type": "address"
        }
      ],
      "stateMutability": "view",
      "type": "function"
    },
    {
      "inputs": [],
      "name": "owner",
      "outputs": [
        {
          "internalType": "address",
          "name": "",
          "type": "address"
        }
      ],
      "stateMutability": "view",
      "type": "function"
    },
    {
      "inputs": [
        {
          "internalType": "uint64",
          "name": "",
          "type": "uint64"
        }
      ],
      "name": "plans",
      "outputs": [
        {
          "internalType": "string",
          "name": "title",
          "type": "string"
        },
        {
          "internalType": "address",
          "name": "merchant",
          "type": "address"
        },
        {
          "internalType": "address",
          "name": "token",
          "type": "address"
        },
        {
          "internalType": "uint128",
          "name": "amount",
          "type": "uint128"
        },
        {
          "internalType": "uint128",
          "name": "frequency",
          "type": "uint128"
        },
        {
          "internalType": "bool",
          "name": "halted",
          "type": "bool"
        }
      ],
      "stateMutability": "view",
      "type": "function"
    },
    {
      "inputs": [],
      "name": "renounceOwnership",
      "outputs": [],
      "stateMutability": "nonpayable",
      "type": "function"
    },
    {
      "inputs": [],
      "name": "slug",
      "outputs": [
        {
          "internalType": "string",
          "name": "",
          "type": "string"
        }
      ],
      "stateMutability": "view",
      "type": "function"
    },
    {
      "inputs": [
        {
          "internalType": "uint64",
          "name": "",
          "type": "uint64"
        },
        {
          "internalType": "address",
          "name": "",
          "type": "address"
        }
      ],
      "name": "subscriptions",
      "outputs": [
        {
          "internalType": "uint256",
          "name": "start",
          "type": "uint256"
        },
        {
          "internalType": "uint256",
          "name": "nextPayment",
          "type": "uint256"
        },
        {
          "internalType": "bool",
          "name": "stopped",
          "type": "bool"
        }
      ],
      "stateMutability": "view",
      "type": "function"
    },
    {
      "inputs": [],
      "name": "suspended",
      "outputs": [
        {
          "internalType": "bool",
          "name": "",
          "type": "bool"
        }
      ],
      "stateMutability": "view",
      "type": "function"
    },
    {
      "inputs": [],
      "name": "title",
      "outputs": [
        {
          "internalType": "string",
          "name": "",
          "type": "string"
        }
      ],
      "stateMutability": "view",
      "type": "function"
    },
    {
      "inputs": [
        {
          "internalType": "address",
          "name": "newOwner",
          "type": "address"
        }
      ],
      "name": "transferOwnership",
      "outputs": [],
      "stateMutability": "nonpayable",
      "type": "function"
    },
    {
      "inputs": [
        {
          "internalType": "address",
          "name": "newOperator",
          "type": "address"
        }
      ],
      "name": "setOperator",
      "outputs": [],
      "stateMutability": "nonpayable",
      "type": "function"
    },
    {
      "inputs": [],
      "name": "toggleSuspend",
      "outputs": [],
      "stateMutability": "nonpayable",
      "type": "function"
    },
    {
      "inputs": [
        {
          "internalType": "uint64",
          "name": "planId",
          "type": "uint64"
        }
      ],
      "name": "getSubscriberArray",
      "outputs": [
        {
          "internalType": "address[]",
          "name": "",
          "type": "address[]"
        }
      ],
      "stateMutability": "view",
      "type": "function"
    },
    {
      "inputs": [
        {
          "internalType": "string",
          "name": "newTitle",
          "type": "string"
        }
      ],
      "name": "setTitle",
      "outputs": [],
      "stateMutability": "nonpayable",
      "type": "function"
    },
    {
      "inputs": [
        {
          "internalType": "string",
          "name": "newImage",
          "type": "string"
        }
      ],
      "name": "setImage",
      "outputs": [],
      "stateMutability": "nonpayable",
      "type": "function"
    },
    {
      "inputs": [
        {
          "internalType": "uint64",
          "name": "planId",
          "type": "uint64"
        }
      ],
      "name": "togglePlanHalt",
      "outputs": [],
      "stateMutability": "nonpayable",
      "type": "function"
    },
    {
      "inputs": [
        {
          "internalType": "string",
          "name": "planTitle",
          "type": "string"
        },
        {
          "internalType": "address",
          "name": "merchant",
          "type": "address"
        },
        {
          "internalType": "address",
          "name": "token",
          "type": "address"
        },
        {
          "internalType": "uint128",
          "name": "amount",
          "type": "uint128"
        },
        {
          "internalType": "uint128",
          "name": "frequency",
          "type": "uint128"
        }
      ],
      "name": "createPlan",
      "outputs": [],
      "stateMutability": "nonpayable",
      "type": "function"
    },
    {
      "inputs": [
        {
          "internalType": "uint64",
          "name": "planId",
          "type": "uint64"
        }
      ],
      "name": "subscribe",
      "outputs": [],
      "stateMutability": "nonpayable",
      "type": "function"
    },
    {
      "inputs": [
        {
          "internalType": "uint64",
          "name": "planId",
          "type": "uint64"
        }
      ],
      "name": "stopPay",
      "outputs": [],
      "stateMutability": "nonpayable",
      "type": "function"
    },
    {
      "inputs": [
        {
          "internalType": "uint64",
          "name": "planId",
          "type": "uint64"
        }
      ],
      "name": "selfDelete",
      "outputs": [],
      "stateMutability": "nonpayable",
      "type": "function"
    },
    {
      "inputs": [
        {
          "internalType": "uint64",
          "name": "planId",
          "type": "uint64"
        }
      ],
      "name": "selfPay",
      "outputs": [],
      "stateMutability": "nonpayable",
      "type": "function"
    },
    {
      "inputs": [
        {
          "components": [
            {
              "internalType": "address",
              "name": "subscriber",
              "type": "address"
            },
            {
              "internalType": "uint64",
              "name": "planId",
              "type": "uint64"
            }
          ],
          "internalType": "struct SubscribeeV1.UserObject[]",
          "name": "users",
          "type": "tuple[]"
        }
      ],
      "name": "multiPay",
      "outputs": [],
      "stateMutability": "nonpayable",
      "type": "function"
    },
    {
      "inputs": [
        {
          "components": [
            {
              "internalType": "address",
              "name": "subscriber",
              "type": "address"
            },
            {
              "internalType": "uint64",
              "name": "planId",
              "type": "uint64"
            }
          ],
          "internalType": "struct SubscribeeV1.UserObject[]",
          "name": "users",
          "type": "tuple[]"
        }
      ],
      "name": "multiDelete",
      "outputs": [],
      "stateMutability": "nonpayable",
      "type": "function"
    }
  ],
  "bytecode": "0x6080604052600080601c6101000a81548160ff0219169083151502179055503480156200002b57600080fd5b50604051620040653803806200406583398181016040528101906200005191906200035a565b62000071620000656200014960201b60201c565b6200015160201b60201c565b84600760006101000a81548173ffffffffffffffffffffffffffffffffffffffff021916908373ffffffffffffffffffffffffffffffffffffffff16021790555083600860006101000a81548173ffffffffffffffffffffffffffffffffffffffff021916908373ffffffffffffffffffffffffffffffffffffffff16021790555081600290805190602001906200010b92919062000215565b5082600190805190602001906200012492919062000215565b5080600390805190602001906200013d92919062000215565b50505050505062000611565b600033905090565b60008060009054906101000a900473ffffffffffffffffffffffffffffffffffffffff169050816000806101000a81548173ffffffffffffffffffffffffffffffffffffffff021916908373ffffffffffffffffffffffffffffffffffffffff1602179055508173ffffffffffffffffffffffffffffffffffffffff168173ffffffffffffffffffffffffffffffffffffffff167f8be0079c531659141344cd1fd0a4f28419497f9722a3daafe3b4186f6b6457e060405160405180910390a35050565b828054620002239062000508565b90600052602060002090601f01602090048101928262000247576000855562000293565b82601f106200026257805160ff191683800117855562000293565b8280016001018555821562000293579182015b828111156200029257825182559160200191906001019062000275565b5b509050620002a29190620002a6565b5090565b5b80821115620002c1576000816000905550600101620002a7565b5090565b6000620002dc620002d68462000468565b6200043f565b905082815260208101848484011115620002fb57620002fa620005d7565b5b62000308848285620004d2565b509392505050565b6000815190506200032181620005f7565b92915050565b600082601f8301126200033f576200033e620005d2565b5b815162000351848260208601620002c5565b91505092915050565b600080600080600060a08688031215620003795762000378620005e1565b5b6000620003898882890162000310565b95505060206200039c8882890162000310565b945050604086015167ffffffffffffffff811115620003c057620003bf620005dc565b5b620003ce8882890162000327565b935050606086015167ffffffffffffffff811115620003f257620003f1620005dc565b5b620004008882890162000327565b925050608086015167ffffffffffffffff811115620004245762000423620005dc565b5b620004328882890162000327565b9150509295509295909350565b60006200044b6200045e565b90506200045982826200053e565b919050565b6000604051905090565b600067ffffffffffffffff821115620004865762000485620005a3565b5b6200049182620005e6565b9050602081019050919050565b6000620004ab82620004b2565b9050919050565b600073ffffffffffffffffffffffffffffffffffffffff82169050919050565b60005b83811015620004f2578082015181840152602081019050620004d5565b8381111562000502576000848401525b50505050565b600060028204905060018216806200052157607f821691505b6020821081141562000538576200053762000574565b5b50919050565b6200054982620005e6565b810181811067ffffffffffffffff821117156200056b576200056a620005a3565b5b80604052505050565b7f4e487b7100000000000000000000000000000000000000000000000000000000600052602260045260246000fd5b7f4e487b7100000000000000000000000000000000000000000000000000000000600052604160045260246000fd5b600080fd5b600080fd5b600080fd5b600080fd5b6000601f19601f8301169050919050565b62000602816200049e565b81146200060e57600080fd5b50565b613a4480620006216000396000f3fe608060405234801561001057600080fd5b50600436106101735760003560e01c806372910be0116100de578063b5dce25411610097578063df69101b11610071578063df69101b14610403578063e061e7c01461041f578063f2fde38b14610429578063f3ccaac01461044557610173565b8063b5dce25414610399578063cea2f07b146103cb578063dde99d33146103e757610173565b806372910be0146102d65780637a6e4822146102f25780638da5cb5b1461030e5780639ad380281461032c578063aba7aeea14610348578063b3ab15fb1461037d57610173565b8063570ca73511610130578063570ca735146102385780635f8d26b2146102565780636beb795914610274578063702efdf314610292578063715018a6146102b057806371adb5e6146102ba57610173565b80631086b96e146101785780632b0f07bc146101945780632fa8ec13146101b05780633395df25146101e0578063410aea57146101fe5780634a79d50c1461021a575b600080fd5b610192600480360381019061018d9190612bf8565b610463565b005b6101ae60048036038101906101a99190612bf8565b610603565b005b6101ca60048036038101906101c59190612bf8565b610660565b6040516101d79190613017565b60405180910390f35b6101e86107e2565b6040516101f59190612eef565b60405180910390f35b61021860048036038101906102139190612bf8565b610808565b005b6102226108dc565b60405161022f9190613054565b60405180910390f35b61024061096a565b60405161024d9190612eef565b60405180910390f35b61025e610990565b60405161026b9190613275565b60405180910390f35b61027c6109aa565b6040516102899190613054565b60405180910390f35b61029a610a38565b6040516102a79190613039565b60405180910390f35b6102b8610a4b565b005b6102d460048036038101906102cf9190612aeb565b610ad3565b005b6102f060048036038101906102eb9190612aeb565b610bba565b005b61030c60048036038101906103079190612b34565b610ca1565b005b6103166110e4565b6040516103239190612eef565b60405180910390f35b61034660048036038101906103419190612bf8565b61110d565b005b610362600480360381019061035d9190612bf8565b611150565b60405161037496959493929190613076565b60405180910390f35b61039760048036038101906103929190612a48565b611299565b005b6103b360048036038101906103ae9190612c25565b611359565b6040516103c29392919061323e565b60405180910390f35b6103e560048036038101906103e09190612bf8565b61139d565b005b61040160048036038101906103fc9190612a75565b6113a9565b005b61041d60048036038101906104189190612a75565b61153b565b005b610427611696565b005b610443600480360381019061043e9190612a48565b61176b565b005b61044d611863565b60405161045a9190613054565b60405180910390f35b600860009054906101000a900473ffffffffffffffffffffffffffffffffffffffff1673ffffffffffffffffffffffffffffffffffffffff163373ffffffffffffffffffffffffffffffffffffffff1614806104f157506104c26110e4565b73ffffffffffffffffffffffffffffffffffffffff163373ffffffffffffffffffffffffffffffffffffffff16145b610530576040517f08c379a00000000000000000000000000000000000000000000000000000000081526004016105279061313e565b60405180910390fd5b60011515600560008367ffffffffffffffff1667ffffffffffffffff16815260200190815260200160002060040160009054906101000a900460ff16151514156105bc576000600560008367ffffffffffffffff1667ffffffffffffffff16815260200190815260200160002060040160006101000a81548160ff021916908315150217905550610600565b6001600560008367ffffffffffffffff1667ffffffffffffffff16815260200190815260200160002060040160006101000a81548160ff0219169083151502179055505b50565b6000601c9054906101000a900460ff1615610653576040517f08c379a000000000000000000000000000000000000000000000000000000000815260040161064a906131de565b60405180910390fd5b61065d33826118f1565b50565b6060600860009054906101000a900473ffffffffffffffffffffffffffffffffffffffff1673ffffffffffffffffffffffffffffffffffffffff163373ffffffffffffffffffffffffffffffffffffffff1614806106f057506106c16110e4565b73ffffffffffffffffffffffffffffffffffffffff163373ffffffffffffffffffffffffffffffffffffffff16145b61072f576040517f08c379a00000000000000000000000000000000000000000000000000000000081526004016107269061313e565b60405180910390fd5b600460008367ffffffffffffffff1667ffffffffffffffff1681526020019081526020016000208054806020026020016040519081016040528092919081815260200182805480156107d657602002820191906000526020600020905b8160009054906101000a900473ffffffffffffffffffffffffffffffffffffffff1673ffffffffffffffffffffffffffffffffffffffff168152602001906001019080831161078c575b50505050509050919050565b600760009054906101000a900473ffffffffffffffffffffffffffffffffffffffff1681565b6000601c9054906101000a900460ff1615610858576040517f08c379a000000000000000000000000000000000000000000000000000000000815260040161084f906131de565b60405180910390fd5b600560008267ffffffffffffffff1667ffffffffffffffff16815260200190815260200160002060040160009054906101000a900460ff16156108d0576040517f08c379a00000000000000000000000000000000000000000000000000000000081526004016108c7906130de565b60405180910390fd5b6108d981611e50565b50565b600180546108e9906134dc565b80601f0160208091040260200160405190810160405280929190818152602001828054610915906134dc565b80156109625780601f1061093757610100808354040283529160200191610962565b820191906000526020600020905b81548152906001019060200180831161094557829003601f168201915b505050505081565b600860009054906101000a900473ffffffffffffffffffffffffffffffffffffffff1681565b600060149054906101000a900467ffffffffffffffff1681565b600280546109b7906134dc565b80601f01602080910402602001604051908101604052809291908181526020018280546109e3906134dc565b8015610a305780601f10610a0557610100808354040283529160200191610a30565b820191906000526020600020905b815481529060010190602001808311610a1357829003601f168201915b505050505081565b6000601c9054906101000a900460ff1681565b610a5361238c565b73ffffffffffffffffffffffffffffffffffffffff16610a716110e4565b73ffffffffffffffffffffffffffffffffffffffff1614610ac7576040517f08c379a0000000000000000000000000000000000000000000000000000000008152600401610abe906131be565b60405180910390fd5b610ad16000612394565b565b600860009054906101000a900473ffffffffffffffffffffffffffffffffffffffff1673ffffffffffffffffffffffffffffffffffffffff163373ffffffffffffffffffffffffffffffffffffffff161480610b615750610b326110e4565b73ffffffffffffffffffffffffffffffffffffffff163373ffffffffffffffffffffffffffffffffffffffff16145b610ba0576040517f08c379a0000000000000000000000000000000000000000000000000000000008152600401610b979061313e565b60405180910390fd5b8060039080519060200190610bb69291906127de565b5050565b600860009054906101000a900473ffffffffffffffffffffffffffffffffffffffff1673ffffffffffffffffffffffffffffffffffffffff163373ffffffffffffffffffffffffffffffffffffffff161480610c485750610c196110e4565b73ffffffffffffffffffffffffffffffffffffffff163373ffffffffffffffffffffffffffffffffffffffff16145b610c87576040517f08c379a0000000000000000000000000000000000000000000000000000000008152600401610c7e9061313e565b60405180910390fd5b8060019080519060200190610c9d9291906127de565b5050565b600860009054906101000a900473ffffffffffffffffffffffffffffffffffffffff1673ffffffffffffffffffffffffffffffffffffffff163373ffffffffffffffffffffffffffffffffffffffff161480610d2f5750610d006110e4565b73ffffffffffffffffffffffffffffffffffffffff163373ffffffffffffffffffffffffffffffffffffffff16145b610d6e576040517f08c379a0000000000000000000000000000000000000000000000000000000008152600401610d659061313e565b60405180910390fd5b600073ffffffffffffffffffffffffffffffffffffffff168373ffffffffffffffffffffffffffffffffffffffff161415610dde576040517f08c379a0000000000000000000000000000000000000000000000000000000008152600401610dd5906131fe565b60405180910390fd5b6000826fffffffffffffffffffffffffffffffff1611610e33576040517f08c379a0000000000000000000000000000000000000000000000000000000008152600401610e2a9061315e565b60405180910390fd5b6000816fffffffffffffffffffffffffffffffff1611610e88576040517f08c379a0000000000000000000000000000000000000000000000000000000008152600401610e7f9061311e565b60405180910390fd5b6040518060c001604052808681526020018573ffffffffffffffffffffffffffffffffffffffff1681526020018473ffffffffffffffffffffffffffffffffffffffff168152602001836fffffffffffffffffffffffffffffffff168152602001826fffffffffffffffffffffffffffffffff16815260200160001515815250600560008060149054906101000a900467ffffffffffffffff1667ffffffffffffffff1667ffffffffffffffff1681526020019081526020016000206000820151816000019080519060200190610f609291906127de565b5060208201518160010160006101000a81548173ffffffffffffffffffffffffffffffffffffffff021916908373ffffffffffffffffffffffffffffffffffffffff16021790555060408201518160020160006101000a81548173ffffffffffffffffffffffffffffffffffffffff021916908373ffffffffffffffffffffffffffffffffffffffff16021790555060608201518160030160006101000a8154816fffffffffffffffffffffffffffffffff02191690836fffffffffffffffffffffffffffffffff16021790555060808201518160030160106101000a8154816fffffffffffffffffffffffffffffffff02191690836fffffffffffffffffffffffffffffffff16021790555060a08201518160040160006101000a81548160ff0219169083151502179055509050506000601481819054906101000a900467ffffffffffffffff16809291906110b690613588565b91906101000a81548167ffffffffffffffff021916908367ffffffffffffffff160217905550505050505050565b60008060009054906101000a900473ffffffffffffffffffffffffffffffffffffffff16905090565b61114d33826040518060400160405280601a81526020017f557365722044656c6574696e6720537562736372697074696f6e000000000000815250612458565b50565b6005602052806000526040600020600091509050806000018054611173906134dc565b80601f016020809104026020016040519081016040528092919081815260200182805461119f906134dc565b80156111ec5780601f106111c1576101008083540402835291602001916111ec565b820191906000526020600020905b8154815290600101906020018083116111cf57829003601f168201915b5050505050908060010160009054906101000a900473ffffffffffffffffffffffffffffffffffffffff16908060020160009054906101000a900473ffffffffffffffffffffffffffffffffffffffff16908060030160009054906101000a90046fffffffffffffffffffffffffffffffff16908060030160109054906101000a90046fffffffffffffffffffffffffffffffff16908060040160009054906101000a900460ff16905086565b6112a161238c565b73ffffffffffffffffffffffffffffffffffffffff166112bf6110e4565b73ffffffffffffffffffffffffffffffffffffffff1614611315576040517f08c379a000000000000000000000000000000000000000000000000000000000815260040161130c906131be565b60405180910390fd5b80600860006101000a81548173ffffffffffffffffffffffffffffffffffffffff021916908373ffffffffffffffffffffffffffffffffffffffff16021790555050565b6006602052816000526040600020602052806000526040600020600091509150508060000154908060010154908060020160009054906101000a900460ff16905083565b6113a6816126d7565b50565b600860009054906101000a900473ffffffffffffffffffffffffffffffffffffffff1673ffffffffffffffffffffffffffffffffffffffff163373ffffffffffffffffffffffffffffffffffffffff16148061143757506114086110e4565b73ffffffffffffffffffffffffffffffffffffffff163373ffffffffffffffffffffffffffffffffffffffff16145b611476576040517f08c379a000000000000000000000000000000000000000000000000000000000815260040161146d9061313e565b60405180910390fd5b6000601c9054906101000a900460ff16156114c6576040517f08c379a00000000000000000000000000000000000000000000000000000000081526004016114bd906131de565b60405180910390fd5b60005b81518110156115375760008282815181106114e7576114e6613646565b5b6020026020010151600001519050600083838151811061150a57611509613646565b5b602002602001015160200151905061152282826118f1565b5050808061152f9061353f565b9150506114c9565b5050565b600860009054906101000a900473ffffffffffffffffffffffffffffffffffffffff1673ffffffffffffffffffffffffffffffffffffffff163373ffffffffffffffffffffffffffffffffffffffff1614806115c9575061159a6110e4565b73ffffffffffffffffffffffffffffffffffffffff163373ffffffffffffffffffffffffffffffffffffffff16145b611608576040517f08c379a00000000000000000000000000000000000000000000000000000000081526004016115ff9061313e565b60405180910390fd5b60005b815181101561169257600082828151811061162957611628613646565b5b6020026020010151600001519050600083838151811061164c5761164b613646565b5b602002602001015160200151905061167d82826040518060600160405280602381526020016139c460239139612458565b5050808061168a9061353f565b91505061160b565b5050565b61169e61238c565b73ffffffffffffffffffffffffffffffffffffffff166116bc6110e4565b73ffffffffffffffffffffffffffffffffffffffff1614611712576040517f08c379a0000000000000000000000000000000000000000000000000000000008152600401611709906131be565b60405180910390fd5b600115156000601c9054906101000a900460ff161515141561174d57600080601c6101000a81548160ff021916908315150217905550611769565b60016000601c6101000a81548160ff0219169083151502179055505b565b61177361238c565b73ffffffffffffffffffffffffffffffffffffffff166117916110e4565b73ffffffffffffffffffffffffffffffffffffffff16146117e7576040517f08c379a00000000000000000000000000000000000000000000000000000000081526004016117de906131be565b60405180910390fd5b600073ffffffffffffffffffffffffffffffffffffffff168173ffffffffffffffffffffffffffffffffffffffff161415611857576040517f08c379a000000000000000000000000000000000000000000000000000000000815260040161184e906130fe565b60405180910390fd5b61186081612394565b50565b60038054611870906134dc565b80601f016020809104026020016040519081016040528092919081815260200182805461189c906134dc565b80156118e95780601f106118be576101008083540402835291602001916118e9565b820191906000526020600020905b8154815290600101906020018083116118cc57829003601f168201915b505050505081565b6000600660008367ffffffffffffffff1667ffffffffffffffff16815260200190815260200160002060008473ffffffffffffffffffffffffffffffffffffffff1673ffffffffffffffffffffffffffffffffffffffff16815260200190815260200160002090506000600560008467ffffffffffffffff1667ffffffffffffffff168152602001908152602001600020905060008160020160009054906101000a900473ffffffffffffffffffffffffffffffffffffffff169050600060648360030160009054906101000a90046fffffffffffffffffffffffffffffffff166119dc91906133bd565b6fffffffffffffffffffffffffffffffff169050600073ffffffffffffffffffffffffffffffffffffffff168673ffffffffffffffffffffffffffffffffffffffff161415611a60576040517f08c379a0000000000000000000000000000000000000000000000000000000008152600401611a579061317e565b60405180910390fd5b83600101544211611aa6576040517f08c379a0000000000000000000000000000000000000000000000000000000008152600401611a9d9061321e565b60405180910390fd5b8360020160009054906101000a900460ff1615611ae957611ae086866040518060600160405280602881526020016139e760289139612458565b50505050611e4c565b8260030160009054906101000a90046fffffffffffffffffffffffffffffffff166fffffffffffffffffffffffffffffffff168273ffffffffffffffffffffffffffffffffffffffff166370a08231886040518263ffffffff1660e01b8152600401611b559190612eef565b60206040518083038186803b158015611b6d57600080fd5b505afa158015611b81573d6000803e3d6000fd5b505050506040513d601f19601f82011682018060405250810190611ba59190612bcb565b1015611bd757611bce868660405180606001604052806027815260200161395660279139612458565b50505050611e4c565b8173ffffffffffffffffffffffffffffffffffffffff166323b872dd878560010160009054906101000a900473ffffffffffffffffffffffffffffffffffffffff16848760030160009054906101000a90046fffffffffffffffffffffffffffffffff166fffffffffffffffffffffffffffffffff16611c5791906133ee565b6040518463ffffffff1660e01b8152600401611c7593929190612f5d565b602060405180830381600087803b158015611c8f57600080fd5b505af1158015611ca3573d6000803e3d6000fd5b505050506040513d601f19601f82011682018060405250810190611cc79190612abe565b508173ffffffffffffffffffffffffffffffffffffffff166323b872dd87600760009054906101000a900473ffffffffffffffffffffffffffffffffffffffff16846040518463ffffffff1660e01b8152600401611d2793929190612f5d565b602060405180830381600087803b158015611d4157600080fd5b505af1158015611d55573d6000803e3d6000fd5b505050506040513d601f19601f82011682018060405250810190611d799190612abe565b508260030160109054906101000a90046fffffffffffffffffffffffffffffffff166fffffffffffffffffffffffffffffffff168460010154611dbc9190613367565b84600101819055507fe4d9e5b6618d2c31b70b199db5b4f98b2b44360f69105fa823c84c2797c610c8868460010160009054906101000a900473ffffffffffffffffffffffffffffffffffffffff168560030160009054906101000a90046fffffffffffffffffffffffffffffffff168842604051611e3f959493929190612f0a565b60405180910390a1505050505b5050565b6000600560008367ffffffffffffffff1667ffffffffffffffff1681526020019081526020016000209050600073ffffffffffffffffffffffffffffffffffffffff168160010160009054906101000a900473ffffffffffffffffffffffffffffffffffffffff1673ffffffffffffffffffffffffffffffffffffffff161415611f0f576040517f08c379a0000000000000000000000000000000000000000000000000000000008152600401611f069061319e565b60405180910390fd5b6000600560008467ffffffffffffffff1667ffffffffffffffff16815260200190815260200160002060020160009054906101000a900473ffffffffffffffffffffffffffffffffffffffff169050600060648360030160009054906101000a90046fffffffffffffffffffffffffffffffff16611f8d91906133bd565b6fffffffffffffffffffffffffffffffff1690508173ffffffffffffffffffffffffffffffffffffffff166323b872dd338560010160009054906101000a900473ffffffffffffffffffffffffffffffffffffffff16848760030160009054906101000a90046fffffffffffffffffffffffffffffffff166fffffffffffffffffffffffffffffffff1661202191906133ee565b6040518463ffffffff1660e01b815260040161203f93929190612f5d565b602060405180830381600087803b15801561205957600080fd5b505af115801561206d573d6000803e3d6000fd5b505050506040513d601f19601f820116820180604052508101906120919190612abe565b508173ffffffffffffffffffffffffffffffffffffffff166323b872dd33600760009054906101000a900473ffffffffffffffffffffffffffffffffffffffff16846040518463ffffffff1660e01b81526004016120f193929190612f5d565b602060405180830381600087803b15801561210b57600080fd5b505af115801561211f573d6000803e3d6000fd5b505050506040513d601f19601f820116820180604052508101906121439190612abe565b5060405180606001604052804281526020018460030160109054906101000a90046fffffffffffffffffffffffffffffffff166fffffffffffffffffffffffffffffffff16426121939190613367565b815260200160001515815250600660008667ffffffffffffffff1667ffffffffffffffff16815260200190815260200160002060003373ffffffffffffffffffffffffffffffffffffffff1673ffffffffffffffffffffffffffffffffffffffff168152602001908152602001600020600082015181600001556020820151816001015560408201518160020160006101000a81548160ff0219169083151502179055509050506000600460008667ffffffffffffffff1667ffffffffffffffff168152602001908152602001600020905080339080600181540180825580915050600190039060005260206000200160009091909190916101000a81548173ffffffffffffffffffffffffffffffffffffffff021916908373ffffffffffffffffffffffffffffffffffffffff1602179055507fce194244cebd83f83dc1524e46ae3cede1555b456ebd127d9abfda702712469c3386426040516122fa93929190612f94565b60405180910390a17fe4d9e5b6618d2c31b70b199db5b4f98b2b44360f69105fa823c84c2797c610c8338560010160009054906101000a900473ffffffffffffffffffffffffffffffffffffffff168660030160009054906101000a90046fffffffffffffffffffffffffffffffff16884260405161237d959493929190612f0a565b60405180910390a15050505050565b600033905090565b60008060009054906101000a900473ffffffffffffffffffffffffffffffffffffffff169050816000806101000a81548173ffffffffffffffffffffffffffffffffffffffff021916908373ffffffffffffffffffffffffffffffffffffffff1602179055508173ffffffffffffffffffffffffffffffffffffffff168173ffffffffffffffffffffffffffffffffffffffff167f8be0079c531659141344cd1fd0a4f28419497f9722a3daafe3b4186f6b6457e060405160405180910390a35050565b6000600660008467ffffffffffffffff1667ffffffffffffffff16815260200190815260200160002060008573ffffffffffffffffffffffffffffffffffffffff1673ffffffffffffffffffffffffffffffffffffffff1681526020019081526020016000209050600081600001541415612508576040517f08c379a00000000000000000000000000000000000000000000000000000000081526004016124ff9061317e565b60405180910390fd5b600660008467ffffffffffffffff1667ffffffffffffffff16815260200190815260200160002060008573ffffffffffffffffffffffffffffffffffffffff1673ffffffffffffffffffffffffffffffffffffffff16815260200190815260200160002060008082016000905560018201600090556002820160006101000a81549060ff021916905550506000600460008567ffffffffffffffff1667ffffffffffffffff168152602001908152602001600020905060005b8180549050811015612692573373ffffffffffffffffffffffffffffffffffffffff168282815481106125f7576125f6613646565b5b9060005260206000200160009054906101000a900473ffffffffffffffffffffffffffffffffffffffff1673ffffffffffffffffffffffffffffffffffffffff16141561267f5781818154811061265157612650613646565b5b9060005260206000200160006101000a81549073ffffffffffffffffffffffffffffffffffffffff02191690555b808061268a9061353f565b9150506125c1565b507fb4dc32643da3b2db5bc2e1cd6ffe1469ce448054e50ce9def009103398c69b99858542866040516126c89493929190612fcb565b60405180910390a15050505050565b6000600660008367ffffffffffffffff1667ffffffffffffffff16815260200190815260200160002060003373ffffffffffffffffffffffffffffffffffffffff1673ffffffffffffffffffffffffffffffffffffffff1681526020019081526020016000209050600081600001541415612787576040517f08c379a000000000000000000000000000000000000000000000000000000000815260040161277e9061317e565b60405180910390fd5b42816001015410156127bc576127b6338360405180608001604052806047815260200161397d60479139612458565b506127db565b60018160020160006101000a81548160ff021916908315150217905550505b50565b8280546127ea906134dc565b90600052602060002090601f01602090048101928261280c5760008555612853565b82601f1061282557805160ff1916838001178555612853565b82800160010185558215612853579182015b82811115612852578251825591602001919060010190612837565b5b5090506128609190612864565b5090565b5b8082111561287d576000816000905550600101612865565b5090565b600061289461288f846132b5565b613290565b905080838252602082019050828560408602820111156128b7576128b66136ae565b5b60005b858110156128e757816128cd88826129b9565b8452602084019350604083019250506001810190506128ba565b5050509392505050565b60006129046128ff846132e1565b613290565b9050828152602081018484840111156129205761291f6136b3565b5b61292b84828561349a565b509392505050565b600081359050612942816138e2565b92915050565b600082601f83011261295d5761295c6136a4565b5b813561296d848260208601612881565b91505092915050565b600081519050612985816138f9565b92915050565b600082601f8301126129a05761299f6136a4565b5b81356129b08482602086016128f1565b91505092915050565b6000604082840312156129cf576129ce6136a9565b5b6129d96040613290565b905060006129e984828501612933565b60008301525060206129fd84828501612a33565b60208301525092915050565b600081359050612a1881613910565b92915050565b600081519050612a2d81613927565b92915050565b600081359050612a428161393e565b92915050565b600060208284031215612a5e57612a5d6136bd565b5b6000612a6c84828501612933565b91505092915050565b600060208284031215612a8b57612a8a6136bd565b5b600082013567ffffffffffffffff811115612aa957612aa86136b8565b5b612ab584828501612948565b91505092915050565b600060208284031215612ad457612ad36136bd565b5b6000612ae284828501612976565b91505092915050565b600060208284031215612b0157612b006136bd565b5b600082013567ffffffffffffffff811115612b1f57612b1e6136b8565b5b612b2b8482850161298b565b91505092915050565b600080600080600060a08688031215612b5057612b4f6136bd565b5b600086013567ffffffffffffffff811115612b6e57612b6d6136b8565b5b612b7a8882890161298b565b9550506020612b8b88828901612933565b9450506040612b9c88828901612933565b9350506060612bad88828901612a09565b9250506080612bbe88828901612a09565b9150509295509295909350565b600060208284031215612be157612be06136bd565b5b6000612bef84828501612a1e565b91505092915050565b600060208284031215612c0e57612c0d6136bd565b5b6000612c1c84828501612a33565b91505092915050565b60008060408385031215612c3c57612c3b6136bd565b5b6000612c4a85828601612a33565b9250506020612c5b85828601612933565b9150509250929050565b6000612c718383612c7d565b60208301905092915050565b612c8681613422565b82525050565b612c9581613422565b82525050565b6000612ca682613322565b612cb08185613345565b9350612cbb83613312565b8060005b83811015612cec578151612cd38882612c65565b9750612cde83613338565b925050600181019050612cbf565b5085935050505092915050565b612d0281613434565b82525050565b6000612d138261332d565b612d1d8185613356565b9350612d2d8185602086016134a9565b612d36816136c2565b840191505092915050565b6000612d4e600e83613356565b9150612d59826136d3565b602082019050919050565b6000612d71602683613356565b9150612d7c826136fc565b604082019050919050565b6000612d94602b83613356565b9150612d9f8261374b565b604082019050919050565b6000612db7600483613356565b9150612dc28261379a565b602082019050919050565b6000612dda601683613356565b9150612de5826137c3565b602082019050919050565b6000612dfd602083613356565b9150612e08826137ec565b602082019050919050565b6000612e20601883613356565b9150612e2b82613815565b602082019050919050565b6000612e43602083613356565b9150612e4e8261383e565b602082019050919050565b6000612e66601583613356565b9150612e7182613867565b602082019050919050565b6000612e89601e83613356565b9150612e9482613890565b602082019050919050565b6000612eac600b83613356565b9150612eb7826138b9565b602082019050919050565b612ecb81613440565b82525050565b612eda8161347c565b82525050565b612ee981613486565b82525050565b6000602082019050612f046000830184612c8c565b92915050565b600060a082019050612f1f6000830188612c8c565b612f2c6020830187612c8c565b612f396040830186612ec2565b612f466060830185612ee0565b612f536080830184612ed1565b9695505050505050565b6000606082019050612f726000830186612c8c565b612f7f6020830185612c8c565b612f8c6040830184612ed1565b949350505050565b6000606082019050612fa96000830186612c8c565b612fb66020830185612ee0565b612fc36040830184612ed1565b949350505050565b6000608082019050612fe06000830187612c8c565b612fed6020830186612ee0565b612ffa6040830185612ed1565b818103606083015261300c8184612d08565b905095945050505050565b600060208201905081810360008301526130318184612c9b565b905092915050565b600060208201905061304e6000830184612cf9565b92915050565b6000602082019050818103600083015261306e8184612d08565b905092915050565b600060c08201905081810360008301526130908189612d08565b905061309f6020830188612c8c565b6130ac6040830187612c8c565b6130b96060830186612ec2565b6130c66080830185612ec2565b6130d360a0830184612cf9565b979650505050505050565b600060208201905081810360008301526130f781612d41565b9050919050565b6000602082019050818103600083015261311781612d64565b9050919050565b6000602082019050818103600083015261313781612d87565b9050919050565b6000602082019050818103600083015261315781612daa565b9050919050565b6000602082019050818103600083015261317781612dcd565b9050919050565b6000602082019050818103600083015261319781612df0565b9050919050565b600060208201905081810360008301526131b781612e13565b9050919050565b600060208201905081810360008301526131d781612e36565b9050919050565b600060208201905081810360008301526131f781612e59565b9050919050565b6000602082019050818103600083015261321781612e7c565b9050919050565b6000602082019050818103600083015261323781612e9f565b9050919050565b60006060820190506132536000830186612ed1565b6132606020830185612ed1565b61326d6040830184612cf9565b949350505050565b600060208201905061328a6000830184612ee0565b92915050565b600061329a6132ab565b90506132a6828261350e565b919050565b6000604051905090565b600067ffffffffffffffff8211156132d0576132cf613675565b5b602082029050602081019050919050565b600067ffffffffffffffff8211156132fc576132fb613675565b5b613305826136c2565b9050602081019050919050565b6000819050602082019050919050565b600081519050919050565b600081519050919050565b6000602082019050919050565b600082825260208201905092915050565b600082825260208201905092915050565b60006133728261347c565b915061337d8361347c565b9250827fffffffffffffffffffffffffffffffffffffffffffffffffffffffffffffffff038211156133b2576133b16135b9565b5b828201905092915050565b60006133c882613440565b91506133d383613440565b9250826133e3576133e26135e8565b5b828204905092915050565b60006133f98261347c565b91506134048361347c565b925082821015613417576134166135b9565b5b828203905092915050565b600061342d8261345c565b9050919050565b60008115159050919050565b60006fffffffffffffffffffffffffffffffff82169050919050565b600073ffffffffffffffffffffffffffffffffffffffff82169050919050565b6000819050919050565b600067ffffffffffffffff82169050919050565b82818337600083830152505050565b60005b838110156134c75780820151818401526020810190506134ac565b838111156134d6576000848401525b50505050565b600060028204905060018216806134f457607f821691505b6020821081141561350857613507613617565b5b50919050565b613517826136c2565b810181811067ffffffffffffffff8211171561353657613535613675565b5b80604052505050565b600061354a8261347c565b91507fffffffffffffffffffffffffffffffffffffffffffffffffffffffffffffffff82141561357d5761357c6135b9565b5b600182019050919050565b600061359382613486565b915067ffffffffffffffff8214156135ae576135ad6135b9565b5b600182019050919050565b7f4e487b7100000000000000000000000000000000000000000000000000000000600052601160045260246000fd5b7f4e487b7100000000000000000000000000000000000000000000000000000000600052601260045260246000fd5b7f4e487b7100000000000000000000000000000000000000000000000000000000600052602260045260246000fd5b7f4e487b7100000000000000000000000000000000000000000000000000000000600052603260045260246000fd5b7f4e487b7100000000000000000000000000000000000000000000000000000000600052604160045260246000fd5b600080fd5b600080fd5b600080fd5b600080fd5b600080fd5b600080fd5b6000601f19601f8301169050919050565b7f706c616e2069732068616c746564000000000000000000000000000000000000600082015250565b7f4f776e61626c653a206e6577206f776e657220697320746865207a65726f206160008201527f6464726573730000000000000000000000000000000000000000000000000000602082015250565b7f6672657175656e6379206e6565647320746f206265206772656174657220746860008201527f656e20323420686f757273000000000000000000000000000000000000000000602082015250565b7f4875683f00000000000000000000000000000000000000000000000000000000600082015250565b7f616d6f756e74206e6565647320746f206265203e203000000000000000000000600082015250565b7f7468697320737562736372697074696f6e20646f6573206e6f74206578697374600082015250565b7f7468697320706c616e20646f6573206e6f742065786973740000000000000000600082015250565b7f4f776e61626c653a2063616c6c6572206973206e6f7420746865206f776e6572600082015250565b7f636f6e74726163742069732073757370656e6465640000000000000000000000600082015250565b7f616464726573732063616e6e6f74206265206e756c6c20616464726573730000600082015250565b7f6e6f742064756520796574000000000000000000000000000000000000000000600082015250565b6138eb81613422565b81146138f657600080fd5b50565b61390281613434565b811461390d57600080fd5b50565b61391981613440565b811461392457600080fd5b50565b6139308161347c565b811461393b57600080fd5b50565b61394781613486565b811461395257600080fd5b5056fe696e737566666963656e742066756e64732c20737562736372697074696f6e2064656c65746564596f752063616e6e6f742073746f7020737562736372697074696f6e2061667465722066756e647320617265206f7765642c20737562736372697074696f6e2064656c657465644f776e65722f4f70657261746f722044656c6574656420537562736372697074696f6e706173742064756520262073746f707065642c20737562736372697074696f6e2064656c65746564a2646970667358221220ffc96aca70c2d017c0a9c883d59c9da84b19312a0310bd8eccfec4b075afa95a64736f6c63430008060033",
  "immutableReferences": {},
  "source": "// SPDX-License-Identifier: Business Source License 1.1\npragma solidity ^0.8.6;\n\nimport \"@openzeppelin/contracts/token/ERC20/IERC20.sol\";\nimport \"@openzeppelin/contracts/access/Ownable.sol\";\n\ncontract SubscribeeV1 is Ownable{\n\n  uint64 public nextPlanId;\n  bool public suspended = false;\n  string public title;\n  string public slug;\n  string public image;\n\n  mapping(uint64 => address[]) private luSubscriptions;\n  mapping(uint64 => Plan) public plans;\n  mapping(uint64 => mapping(address => Subscription)) public subscriptions;\n\n  address public beehive;\n  address public operator;\n\n  // Structs\n\n  struct Plan {\n    string title;\n    address merchant;\n    address token;\n    uint128 amount;\n    uint128 frequency;\n    bool halted;\n  }\n\n  struct Subscription {\n    uint start;\n    uint nextPayment;\n    bool stopped;\n  }\n\n  struct UserObject {\n    address subscriber;\n    uint64 planId;\n  }\n\n\n  // Events\n\n\n  event PlanCreated(\n    address merchant,\n    uint64 planId,\n    uint date,\n    uint64 terms\n  );\n\n  event SubscriptionCreated(\n    address subscriber,\n    uint64 planId,\n    uint date\n  );\n\n  event SubscriptionDeleted(\n    address subscriber,\n    uint64 planId,\n    uint date,\n    string reason\n  );\n\n  event PaymentSent(\n    address from,\n    address to,\n    uint128 amount,\n    uint64 planId,\n    uint date\n  );\n\n  // Modifiers\n\n  modifier onlyOperatorOrOwner() {\n    require(msg.sender == operator || msg.sender == owner(), 'Huh?');\n    _;\n  }\n\n\n\n  // Constructor\n\n  constructor(address beehiveAddress, address operatorAddress, string memory newTitle, string memory newSlug, string memory newImage) {\n    beehive = beehiveAddress;\n    operator = operatorAddress;\n    slug = newSlug;\n    title = newTitle;\n    image = newImage;\n  }\n\n\n  // Functions\n\n  function setOperator(address newOperator) external onlyOwner{\n    operator = newOperator;\n  }\n\n  function toggleSuspend() external onlyOwner{\n    if(suspended == true){\n      suspended = false;\n    }else{\n      suspended = true;\n    }\n  }\n\n  function getSubscriberArray(uint64 planId) external view onlyOperatorOrOwner returns(address[] memory){\n    return luSubscriptions[planId];\n  }\n\n  function setTitle(string memory newTitle) external onlyOperatorOrOwner{\n    title = newTitle;\n  }\n\n  function setImage(string memory newImage) external onlyOperatorOrOwner{\n    image = newImage;\n  }\n\n  function togglePlanHalt(uint64 planId) external onlyOperatorOrOwner{\n    if(plans[planId].halted == true){\n      plans[planId].halted = false;\n    }else{\n      plans[planId].halted = true;\n    }\n  }\n\n  function createPlan(string memory planTitle, address merchant, address token, uint128 amount, uint128 frequency) external onlyOperatorOrOwner{\n    require(token != address(0), 'address cannot be null address');\n    require(amount > 0, 'amount needs to be > 0');\n    require(frequency > 0, 'frequency needs to be greater then 24 hours');\n\n    plans[nextPlanId] = Plan(\n      planTitle,\n      merchant,\n      token,\n      amount,\n      frequency,\n      false\n    );\n    nextPlanId++;\n  }\n\n  function subscribe(uint64 planId) external {\n    require(!suspended, 'contract is suspended');\n    require(!plans[planId].halted, 'plan is halted');\n    _safeSubscribe(planId);\n  }\n\n  function stopPay(uint64 planId) external {\n    _safeStop(planId);\n  }\n\n  function selfDelete(uint64 planId) external {\n    _delete(msg.sender, planId, 'User Deleting Subscription');\n  }\n\n  function selfPay(uint64 planId) external {\n    require(!suspended, 'contract is suspended');\n    _safePay(msg.sender, planId);\n  }\n\n  function multiPay(UserObject[] memory users) external onlyOperatorOrOwner{\n    require(!suspended, 'contract is suspended');\n    for(uint i = 0; i < users.length; i++){\n      address subscriber = users[i].subscriber;\n      uint64 planId = users[i].planId;\n      _safePay(subscriber, planId);\n    }\n  }\n\n  function multiDelete(UserObject[] memory users) external onlyOperatorOrOwner{\n    for(uint i = 0; i < users.length; i++){\n      address subscriber = users[i].subscriber;\n      uint64 planId = users[i].planId;\n      _delete(subscriber, planId, 'Owner/Operator Deleted Subscription');\n    }\n  }\n\n  // Internal Functions\n\n\n  function _safePay(address subscriber, uint64 planId) internal {\n    // call from storage\n    Subscription storage subscription = subscriptions[planId][subscriber];\n    Plan storage plan = plans[planId];\n    IERC20 token = IERC20(plan.token);\n    uint PollenFee = plan.amount / 100;\n\n    // conditionals for storage\n    require(\n       subscriber != address(0),\n      'this subscription does not exist'\n    );\n\n    require(\n      block.timestamp > subscription.nextPayment,\n      'not due yet'\n    );\n\n    // check for stopped subscription, will delete here due to the previous check of being past the timestamp\n    if(subscription.stopped){\n      _delete(subscriber, planId, 'past due & stopped, subscription deleted');\n      return;\n    }\n\n    // Will check if user has funds, if not will delete subscription\n    if(token.balanceOf(subscriber) < plan.amount){\n      _delete(subscriber, planId, 'insufficent funds, subscription deleted');\n      return;\n    }\n\n    // send to Contract Owner & BeeHive\n    token.transferFrom(subscriber, plan.merchant, plan.amount - PollenFee);\n    token.transferFrom(subscriber, beehive, PollenFee);\n\n    // set next payment\n    subscription.nextPayment = subscription.nextPayment + plan.frequency;\n\n    // emit event\n      emit PaymentSent(\n        subscriber,\n        plan.merchant,\n        plan.amount,\n        planId,\n        block.timestamp\n      );\n    }\n\n  function _safeSubscribe(uint64 planId) internal {\n    // calls plan from storage and check if it exists\n    Plan storage plan = plans[planId];\n    require(plan.merchant != address(0), 'this plan does not exist');\n\n    // set token and fee\n    IERC20 token = IERC20(plans[planId].token);\n    uint PollenFee = plan.amount / 100;\n\n    // send to Contract Owner & BeeHive\n    token.transferFrom(msg.sender, plan.merchant, plan.amount - PollenFee);\n    token.transferFrom(msg.sender, beehive, PollenFee);\n\n    // add new subscription\n    subscriptions[planId][msg.sender] = Subscription(\n      block.timestamp,\n      block.timestamp + plan.frequency,\n      false\n    );\n\n    // add user to lookup array\n    address[] storage subscriptionUsers = luSubscriptions[planId];\n    subscriptionUsers.push(msg.sender);\n\n    // emit Subscription and Payment events\n    emit SubscriptionCreated(address(msg.sender), planId, block.timestamp);\n\n    emit PaymentSent(\n      msg.sender,\n      plan.merchant,\n      plan.amount,\n      planId,\n      block.timestamp\n    );\n\n  }\n\n  function _delete(address user, uint64 planId, string memory reason) internal {\n    // Grab user subscription data & check if it exists\n    Subscription storage subscription = subscriptions[planId][user];\n    require(subscription.start != 0, 'this subscription does not exist');\n\n    // delete from mapping\n    delete subscriptions[planId][user];\n\n    // delete from arrayLookup\n    address[] storage subscriptionUsers = luSubscriptions[planId];\n    for(uint i = 0; i < subscriptionUsers.length; i++){\n      if(subscriptionUsers[i] == msg.sender){\n          delete subscriptionUsers[i];\n      }\n    }\n\n    emit SubscriptionDeleted(user, planId, block.timestamp, reason);\n  }\n\n  function _safeStop(uint64 planId) internal {\n    // Grab user subscription data & check if it exists\n    Subscription storage subscription = subscriptions[planId][msg.sender];\n    require(subscription.start != 0, 'this subscription does not exist');\n\n    // Check if user owes funds and is trying to stop, will delete\n    if(subscription.nextPayment < block.timestamp){\n      _delete(msg.sender, planId, 'You cannot stop subscription after funds are owed, subscription deleted');\n      return;\n    }\n\n    // If user does not have to pay yet, stop subscription\n    subscription.stopped = true;\n  }\n}\n",
  "sourcePath": "/home/lavandor9/contracts/subscribee-official/contracts/SubscribeeV1.sol",
  "compiler": {
    "name": "solc",
    "version": "0.8.6+commit.11564f7e.Emscripten.clang"
  },
  "schemaVersion": "3.4.1",
  "updatedAt": "2022-03-29T04:01:43.624Z",
  "devdoc": {
    "kind": "dev",
    "methods": {
      "owner()": {
        "details": "Returns the address of the current owner."
      },
      "renounceOwnership()": {
        "details": "Leaves the contract without owner. It will not be possible to call `onlyOwner` functions anymore. Can only be called by the current owner. NOTE: Renouncing ownership will leave the contract without an owner, thereby removing any functionality that is only available to the owner."
      },
      "transferOwnership(address)": {
        "details": "Transfers ownership of the contract to a new account (`newOwner`). Can only be called by the current owner."
      }
    },
    "version": 1
  },
  "userdoc": {
    "kind": "user",
    "methods": {},
    "version": 1
  }
}