{
  "contractName": "SubscribeeV1",
  "abi": [
    {
      "inputs": [
        {
          "internalType": "address",
          "name": "beehiveAddress",
          "type": "address"
        },
        {
          "internalType": "address",
          "name": "operatorAddress",
          "type": "address"
        },
        {
          "internalType": "string",
          "name": "newTitle",
          "type": "string"
        },
        {
          "internalType": "string",
          "name": "newSlug",
          "type": "string"
        },
        {
          "internalType": "string",
          "name": "newImage",
          "type": "string"
        }
      ],
      "stateMutability": "nonpayable",
      "type": "constructor"
    },
    {
      "anonymous": false,
      "inputs": [
        {
          "indexed": true,
          "internalType": "address",
          "name": "previousOwner",
          "type": "address"
        },
        {
          "indexed": true,
          "internalType": "address",
          "name": "newOwner",
          "type": "address"
        }
      ],
      "name": "OwnershipTransferred",
      "type": "event"
    },
    {
      "anonymous": false,
      "inputs": [
        {
          "indexed": false,
          "internalType": "address",
          "name": "from",
          "type": "address"
        },
        {
          "indexed": false,
          "internalType": "address",
          "name": "to",
          "type": "address"
        },
        {
          "indexed": false,
          "internalType": "uint128",
          "name": "amount",
          "type": "uint128"
        },
        {
          "indexed": false,
          "internalType": "uint64",
          "name": "planId",
          "type": "uint64"
        },
        {
          "indexed": false,
          "internalType": "uint256",
          "name": "date",
          "type": "uint256"
        }
      ],
      "name": "PaymentSent",
      "type": "event"
    },
    {
      "anonymous": false,
      "inputs": [
        {
          "indexed": false,
          "internalType": "string",
          "name": "title",
          "type": "string"
        },
        {
          "indexed": false,
          "internalType": "address",
          "name": "token",
          "type": "address"
        },
        {
          "indexed": false,
          "internalType": "uint128",
          "name": "amount",
          "type": "uint128"
        },
        {
          "indexed": false,
          "internalType": "uint128",
          "name": "frequency",
          "type": "uint128"
        }
      ],
      "name": "PlanCreated",
      "type": "event"
    },
    {
      "anonymous": false,
      "inputs": [
        {
          "indexed": false,
          "internalType": "address",
          "name": "subscriber",
          "type": "address"
        },
        {
          "indexed": false,
          "internalType": "uint64",
          "name": "planId",
          "type": "uint64"
        },
        {
          "indexed": false,
          "internalType": "uint256",
          "name": "date",
          "type": "uint256"
        }
      ],
      "name": "SubscriptionCreated",
      "type": "event"
    },
    {
      "anonymous": false,
      "inputs": [
        {
          "indexed": false,
          "internalType": "address",
          "name": "subscriber",
          "type": "address"
        },
        {
          "indexed": false,
          "internalType": "uint64",
          "name": "planId",
          "type": "uint64"
        },
        {
          "indexed": false,
          "internalType": "uint256",
          "name": "date",
          "type": "uint256"
        },
        {
          "indexed": false,
          "internalType": "string",
          "name": "reason",
          "type": "string"
        }
      ],
      "name": "SubscriptionDeleted",
      "type": "event"
    },
    {
      "inputs": [],
      "name": "beehive",
      "outputs": [
        {
          "internalType": "address",
          "name": "",
          "type": "address"
        }
      ],
      "stateMutability": "view",
      "type": "function"
    },
    {
      "inputs": [],
      "name": "image",
      "outputs": [
        {
          "internalType": "string",
          "name": "",
          "type": "string"
        }
      ],
      "stateMutability": "view",
      "type": "function"
    },
    {
      "inputs": [],
      "name": "nextPlanId",
      "outputs": [
        {
          "internalType": "uint64",
          "name": "",
          "type": "uint64"
        }
      ],
      "stateMutability": "view",
      "type": "function"
    },
    {
      "inputs": [],
      "name": "operator",
      "outputs": [
        {
          "internalType": "address",
          "name": "",
          "type": "address"
        }
      ],
      "stateMutability": "view",
      "type": "function"
    },
    {
      "inputs": [],
      "name": "owner",
      "outputs": [
        {
          "internalType": "address",
          "name": "",
          "type": "address"
        }
      ],
      "stateMutability": "view",
      "type": "function"
    },
    {
      "inputs": [
        {
          "internalType": "uint64",
          "name": "",
          "type": "uint64"
        }
      ],
      "name": "plans",
      "outputs": [
        {
          "internalType": "string",
          "name": "title",
          "type": "string"
        },
        {
          "internalType": "address",
          "name": "merchant",
          "type": "address"
        },
        {
          "internalType": "address",
          "name": "token",
          "type": "address"
        },
        {
          "internalType": "uint128",
          "name": "amount",
          "type": "uint128"
        },
        {
          "internalType": "uint128",
          "name": "frequency",
          "type": "uint128"
        },
        {
          "internalType": "bool",
          "name": "halted",
          "type": "bool"
        }
      ],
      "stateMutability": "view",
      "type": "function"
    },
    {
      "inputs": [],
      "name": "renounceOwnership",
      "outputs": [],
      "stateMutability": "nonpayable",
      "type": "function"
    },
    {
      "inputs": [],
      "name": "slug",
      "outputs": [
        {
          "internalType": "string",
          "name": "",
          "type": "string"
        }
      ],
      "stateMutability": "view",
      "type": "function"
    },
    {
      "inputs": [
        {
          "internalType": "uint64",
          "name": "",
          "type": "uint64"
        },
        {
          "internalType": "address",
          "name": "",
          "type": "address"
        }
      ],
      "name": "subscriptions",
      "outputs": [
        {
          "internalType": "uint256",
          "name": "start",
          "type": "uint256"
        },
        {
          "internalType": "uint256",
          "name": "nextPayment",
          "type": "uint256"
        },
        {
          "internalType": "bool",
          "name": "stopped",
          "type": "bool"
        }
      ],
      "stateMutability": "view",
      "type": "function"
    },
    {
      "inputs": [],
      "name": "suspended",
      "outputs": [
        {
          "internalType": "bool",
          "name": "",
          "type": "bool"
        }
      ],
      "stateMutability": "view",
      "type": "function"
    },
    {
      "inputs": [],
      "name": "title",
      "outputs": [
        {
          "internalType": "string",
          "name": "",
          "type": "string"
        }
      ],
      "stateMutability": "view",
      "type": "function"
    },
    {
      "inputs": [
        {
          "internalType": "address",
          "name": "newOwner",
          "type": "address"
        }
      ],
      "name": "transferOwnership",
      "outputs": [],
      "stateMutability": "nonpayable",
      "type": "function"
    },
    {
      "inputs": [
        {
          "internalType": "address",
          "name": "newOperator",
          "type": "address"
        }
      ],
      "name": "setOperator",
      "outputs": [],
      "stateMutability": "nonpayable",
      "type": "function"
    },
    {
      "inputs": [],
      "name": "toggleSuspend",
      "outputs": [],
      "stateMutability": "nonpayable",
      "type": "function"
    },
    {
      "inputs": [
        {
          "internalType": "uint64",
          "name": "planId",
          "type": "uint64"
        }
      ],
      "name": "getSubscriberArray",
      "outputs": [
        {
          "internalType": "address[]",
          "name": "",
          "type": "address[]"
        }
      ],
      "stateMutability": "view",
      "type": "function"
    },
    {
      "inputs": [
        {
          "internalType": "string",
          "name": "newTitle",
          "type": "string"
        }
      ],
      "name": "setTitle",
      "outputs": [],
      "stateMutability": "nonpayable",
      "type": "function"
    },
    {
      "inputs": [
        {
          "internalType": "string",
          "name": "newImage",
          "type": "string"
        }
      ],
      "name": "setImage",
      "outputs": [],
      "stateMutability": "nonpayable",
      "type": "function"
    },
    {
      "inputs": [
        {
          "internalType": "uint64",
          "name": "planId",
          "type": "uint64"
        }
      ],
      "name": "togglePlanHalt",
      "outputs": [],
      "stateMutability": "nonpayable",
      "type": "function"
    },
    {
      "inputs": [
        {
          "internalType": "string",
          "name": "planTitle",
          "type": "string"
        },
        {
          "internalType": "address",
          "name": "merchant",
          "type": "address"
        },
        {
          "internalType": "address",
          "name": "token",
          "type": "address"
        },
        {
          "internalType": "uint128",
          "name": "amount",
          "type": "uint128"
        },
        {
          "internalType": "uint128",
          "name": "frequency",
          "type": "uint128"
        }
      ],
      "name": "createPlan",
      "outputs": [],
      "stateMutability": "nonpayable",
      "type": "function"
    },
    {
      "inputs": [
        {
          "internalType": "uint64",
          "name": "planId",
          "type": "uint64"
        }
      ],
      "name": "subscribe",
      "outputs": [],
      "stateMutability": "nonpayable",
      "type": "function"
    },
    {
      "inputs": [
        {
          "internalType": "uint64",
          "name": "planId",
          "type": "uint64"
        }
      ],
      "name": "stopPay",
      "outputs": [],
      "stateMutability": "nonpayable",
      "type": "function"
    },
    {
      "inputs": [
        {
          "internalType": "uint64",
          "name": "planId",
          "type": "uint64"
        }
      ],
      "name": "selfDelete",
      "outputs": [],
      "stateMutability": "nonpayable",
      "type": "function"
    },
    {
      "inputs": [
        {
          "internalType": "uint64",
          "name": "planId",
          "type": "uint64"
        }
      ],
      "name": "selfPay",
      "outputs": [],
      "stateMutability": "nonpayable",
      "type": "function"
    },
    {
      "inputs": [
        {
          "components": [
            {
              "internalType": "address",
              "name": "subscriber",
              "type": "address"
            },
            {
              "internalType": "uint64",
              "name": "planId",
              "type": "uint64"
            }
          ],
          "internalType": "struct SubscribeeV1.UserObject[]",
          "name": "users",
          "type": "tuple[]"
        }
      ],
      "name": "multiPay",
      "outputs": [],
      "stateMutability": "nonpayable",
      "type": "function"
    },
    {
      "inputs": [
        {
          "components": [
            {
              "internalType": "address",
              "name": "subscriber",
              "type": "address"
            },
            {
              "internalType": "uint64",
              "name": "planId",
              "type": "uint64"
            }
          ],
          "internalType": "struct SubscribeeV1.UserObject[]",
          "name": "users",
          "type": "tuple[]"
        }
      ],
      "name": "multiDelete",
      "outputs": [],
      "stateMutability": "nonpayable",
      "type": "function"
    }
  ],
  "bytecode": "0x60806040523480156200001157600080fd5b506040516200418c3803806200418c833981810160405281019062000037919062000340565b620000576200004b6200012f60201b60201c565b6200013760201b60201c565b84600760006101000a81548173ffffffffffffffffffffffffffffffffffffffff021916908373ffffffffffffffffffffffffffffffffffffffff16021790555083600860006101000a81548173ffffffffffffffffffffffffffffffffffffffff021916908373ffffffffffffffffffffffffffffffffffffffff1602179055508160029080519060200190620000f1929190620001fb565b5082600190805190602001906200010a929190620001fb565b50806003908051906020019062000123929190620001fb565b505050505050620005f7565b600033905090565b60008060009054906101000a900473ffffffffffffffffffffffffffffffffffffffff169050816000806101000a81548173ffffffffffffffffffffffffffffffffffffffff021916908373ffffffffffffffffffffffffffffffffffffffff1602179055508173ffffffffffffffffffffffffffffffffffffffff168173ffffffffffffffffffffffffffffffffffffffff167f8be0079c531659141344cd1fd0a4f28419497f9722a3daafe3b4186f6b6457e060405160405180910390a35050565b8280546200020990620004ee565b90600052602060002090601f0160209004810192826200022d576000855562000279565b82601f106200024857805160ff191683800117855562000279565b8280016001018555821562000279579182015b82811115620002785782518255916020019190600101906200025b565b5b5090506200028891906200028c565b5090565b5b80821115620002a75760008160009055506001016200028d565b5090565b6000620002c2620002bc846200044e565b62000425565b905082815260208101848484011115620002e157620002e0620005bd565b5b620002ee848285620004b8565b509392505050565b6000815190506200030781620005dd565b92915050565b600082601f830112620003255762000324620005b8565b5b815162000337848260208601620002ab565b91505092915050565b600080600080600060a086880312156200035f576200035e620005c7565b5b60006200036f88828901620002f6565b95505060206200038288828901620002f6565b945050604086015167ffffffffffffffff811115620003a657620003a5620005c2565b5b620003b4888289016200030d565b935050606086015167ffffffffffffffff811115620003d857620003d7620005c2565b5b620003e6888289016200030d565b925050608086015167ffffffffffffffff8111156200040a5762000409620005c2565b5b62000418888289016200030d565b9150509295509295909350565b60006200043162000444565b90506200043f828262000524565b919050565b6000604051905090565b600067ffffffffffffffff8211156200046c576200046b62000589565b5b6200047782620005cc565b9050602081019050919050565b6000620004918262000498565b9050919050565b600073ffffffffffffffffffffffffffffffffffffffff82169050919050565b60005b83811015620004d8578082015181840152602081019050620004bb565b83811115620004e8576000848401525b50505050565b600060028204905060018216806200050757607f821691505b602082108114156200051e576200051d6200055a565b5b50919050565b6200052f82620005cc565b810181811067ffffffffffffffff8211171562000551576200055062000589565b5b80604052505050565b7f4e487b7100000000000000000000000000000000000000000000000000000000600052602260045260246000fd5b7f4e487b7100000000000000000000000000000000000000000000000000000000600052604160045260246000fd5b600080fd5b600080fd5b600080fd5b600080fd5b6000601f19601f8301169050919050565b620005e88162000484565b8114620005f457600080fd5b50565b613b8580620006076000396000f3fe608060405234801561001057600080fd5b50600436106101735760003560e01c806372910be0116100de578063b5dce25411610097578063df69101b11610071578063df69101b14610403578063e061e7c01461041f578063f2fde38b14610429578063f3ccaac01461044557610173565b8063b5dce25414610399578063cea2f07b146103cb578063dde99d33146103e757610173565b806372910be0146102d65780637a6e4822146102f25780638da5cb5b1461030e5780639ad380281461032c578063aba7aeea14610348578063b3ab15fb1461037d57610173565b8063570ca73511610130578063570ca735146102385780635f8d26b2146102565780636beb795914610274578063702efdf314610292578063715018a6146102b057806371adb5e6146102ba57610173565b80631086b96e146101785780632b0f07bc146101945780632fa8ec13146101b05780633395df25146101e0578063410aea57146101fe5780634a79d50c1461021a575b600080fd5b610192600480360381019061018d9190612cbe565b610463565b005b6101ae60048036038101906101a99190612cbe565b610603565b005b6101ca60048036038101906101c59190612cbe565b610660565b6040516101d791906130dd565b60405180910390f35b6101e86107e2565b6040516101f59190612fb5565b60405180910390f35b61021860048036038101906102139190612cbe565b610808565b005b6102226108dc565b60405161022f919061311a565b60405180910390f35b61024061096a565b60405161024d9190612fb5565b60405180910390f35b61025e610990565b60405161026b9190613387565b60405180910390f35b61027c6109aa565b604051610289919061311a565b60405180910390f35b61029a610a38565b6040516102a791906130ff565b60405180910390f35b6102b8610a4b565b005b6102d460048036038101906102cf9190612bb1565b610ad3565b005b6102f060048036038101906102eb9190612bb1565b610bba565b005b61030c60048036038101906103079190612bfa565b610ca1565b005b610316611123565b6040516103239190612fb5565b60405180910390f35b61034660048036038101906103419190612cbe565b61114c565b005b610362600480360381019061035d9190612cbe565b61118f565b6040516103749695949392919061313c565b60405180910390f35b61039760048036038101906103929190612b0e565b6112d8565b005b6103b360048036038101906103ae9190612ceb565b611398565b6040516103c293929190613350565b60405180910390f35b6103e560048036038101906103e09190612cbe565b6113dc565b005b61040160048036038101906103fc9190612b3b565b6113e8565b005b61041d60048036038101906104189190612b3b565b61157a565b005b6104276116d5565b005b610443600480360381019061043e9190612b0e565b6117aa565b005b61044d6118a2565b60405161045a919061311a565b60405180910390f35b600860009054906101000a900473ffffffffffffffffffffffffffffffffffffffff1673ffffffffffffffffffffffffffffffffffffffff163373ffffffffffffffffffffffffffffffffffffffff1614806104f157506104c2611123565b73ffffffffffffffffffffffffffffffffffffffff163373ffffffffffffffffffffffffffffffffffffffff16145b610530576040517f08c379a000000000000000000000000000000000000000000000000000000000815260040161052790613250565b60405180910390fd5b60011515600560008367ffffffffffffffff1667ffffffffffffffff16815260200190815260200160002060040160009054906101000a900460ff16151514156105bc576000600560008367ffffffffffffffff1667ffffffffffffffff16815260200190815260200160002060040160006101000a81548160ff021916908315150217905550610600565b6001600560008367ffffffffffffffff1667ffffffffffffffff16815260200190815260200160002060040160006101000a81548160ff0219169083151502179055505b50565b6000601c9054906101000a900460ff1615610653576040517f08c379a000000000000000000000000000000000000000000000000000000000815260040161064a906132f0565b60405180910390fd5b61065d3382611930565b50565b6060600860009054906101000a900473ffffffffffffffffffffffffffffffffffffffff1673ffffffffffffffffffffffffffffffffffffffff163373ffffffffffffffffffffffffffffffffffffffff1614806106f057506106c1611123565b73ffffffffffffffffffffffffffffffffffffffff163373ffffffffffffffffffffffffffffffffffffffff16145b61072f576040517f08c379a000000000000000000000000000000000000000000000000000000000815260040161072690613250565b60405180910390fd5b600460008367ffffffffffffffff1667ffffffffffffffff1681526020019081526020016000208054806020026020016040519081016040528092919081815260200182805480156107d657602002820191906000526020600020905b8160009054906101000a900473ffffffffffffffffffffffffffffffffffffffff1673ffffffffffffffffffffffffffffffffffffffff168152602001906001019080831161078c575b50505050509050919050565b600760009054906101000a900473ffffffffffffffffffffffffffffffffffffffff1681565b6000601c9054906101000a900460ff1615610858576040517f08c379a000000000000000000000000000000000000000000000000000000000815260040161084f906132f0565b60405180910390fd5b600560008267ffffffffffffffff1667ffffffffffffffff16815260200190815260200160002060040160009054906101000a900460ff16156108d0576040517f08c379a00000000000000000000000000000000000000000000000000000000081526004016108c7906131f0565b60405180910390fd5b6108d981611e67565b50565b600180546108e9906135ee565b80601f0160208091040260200160405190810160405280929190818152602001828054610915906135ee565b80156109625780601f1061093757610100808354040283529160200191610962565b820191906000526020600020905b81548152906001019060200180831161094557829003601f168201915b505050505081565b600860009054906101000a900473ffffffffffffffffffffffffffffffffffffffff1681565b600060149054906101000a900467ffffffffffffffff1681565b600280546109b7906135ee565b80601f01602080910402602001604051908101604052809291908181526020018280546109e3906135ee565b8015610a305780601f10610a0557610100808354040283529160200191610a30565b820191906000526020600020905b815481529060010190602001808311610a1357829003601f168201915b505050505081565b6000601c9054906101000a900460ff1681565b610a536123a3565b73ffffffffffffffffffffffffffffffffffffffff16610a71611123565b73ffffffffffffffffffffffffffffffffffffffff1614610ac7576040517f08c379a0000000000000000000000000000000000000000000000000000000008152600401610abe906132d0565b60405180910390fd5b610ad160006123ab565b565b600860009054906101000a900473ffffffffffffffffffffffffffffffffffffffff1673ffffffffffffffffffffffffffffffffffffffff163373ffffffffffffffffffffffffffffffffffffffff161480610b615750610b32611123565b73ffffffffffffffffffffffffffffffffffffffff163373ffffffffffffffffffffffffffffffffffffffff16145b610ba0576040517f08c379a0000000000000000000000000000000000000000000000000000000008152600401610b9790613250565b60405180910390fd5b8060039080519060200190610bb69291906128a4565b5050565b600860009054906101000a900473ffffffffffffffffffffffffffffffffffffffff1673ffffffffffffffffffffffffffffffffffffffff163373ffffffffffffffffffffffffffffffffffffffff161480610c485750610c19611123565b73ffffffffffffffffffffffffffffffffffffffff163373ffffffffffffffffffffffffffffffffffffffff16145b610c87576040517f08c379a0000000000000000000000000000000000000000000000000000000008152600401610c7e90613250565b60405180910390fd5b8060019080519060200190610c9d9291906128a4565b5050565b600860009054906101000a900473ffffffffffffffffffffffffffffffffffffffff1673ffffffffffffffffffffffffffffffffffffffff163373ffffffffffffffffffffffffffffffffffffffff161480610d2f5750610d00611123565b73ffffffffffffffffffffffffffffffffffffffff163373ffffffffffffffffffffffffffffffffffffffff16145b610d6e576040517f08c379a0000000000000000000000000000000000000000000000000000000008152600401610d6590613250565b60405180910390fd5b600073ffffffffffffffffffffffffffffffffffffffff168373ffffffffffffffffffffffffffffffffffffffff161415610dde576040517f08c379a0000000000000000000000000000000000000000000000000000000008152600401610dd590613310565b60405180910390fd5b6000826fffffffffffffffffffffffffffffffff1611610e33576040517f08c379a0000000000000000000000000000000000000000000000000000000008152600401610e2a90613270565b60405180910390fd5b62015180816fffffffffffffffffffffffffffffffff1611610e8a576040517f08c379a0000000000000000000000000000000000000000000000000000000008152600401610e8190613230565b60405180910390fd5b6040518060c001604052808681526020018573ffffffffffffffffffffffffffffffffffffffff1681526020018473ffffffffffffffffffffffffffffffffffffffff168152602001836fffffffffffffffffffffffffffffffff168152602001826fffffffffffffffffffffffffffffffff16815260200160001515815250600560008060149054906101000a900467ffffffffffffffff1667ffffffffffffffff1667ffffffffffffffff1681526020019081526020016000206000820151816000019080519060200190610f629291906128a4565b5060208201518160010160006101000a81548173ffffffffffffffffffffffffffffffffffffffff021916908373ffffffffffffffffffffffffffffffffffffffff16021790555060408201518160020160006101000a81548173ffffffffffffffffffffffffffffffffffffffff021916908373ffffffffffffffffffffffffffffffffffffffff16021790555060608201518160030160006101000a8154816fffffffffffffffffffffffffffffffff02191690836fffffffffffffffffffffffffffffffff16021790555060808201518160030160106101000a8154816fffffffffffffffffffffffffffffffff02191690836fffffffffffffffffffffffffffffffff16021790555060a08201518160040160006101000a81548160ff0219169083151502179055509050507f2b2ac0164b2239021e55bc9bad56542210dd43092952070c7ef40280d609ce80858484846040516110c794939291906131a4565b60405180910390a16000601481819054906101000a900467ffffffffffffffff16809291906110f59061369a565b91906101000a81548167ffffffffffffffff021916908367ffffffffffffffff160217905550505050505050565b60008060009054906101000a900473ffffffffffffffffffffffffffffffffffffffff16905090565b61118c33826040518060400160405280601a81526020017f557365722044656c6574696e6720537562736372697074696f6e00000000000081525061246f565b50565b60056020528060005260406000206000915090508060000180546111b2906135ee565b80601f01602080910402602001604051908101604052809291908181526020018280546111de906135ee565b801561122b5780601f106112005761010080835404028352916020019161122b565b820191906000526020600020905b81548152906001019060200180831161120e57829003601f168201915b5050505050908060010160009054906101000a900473ffffffffffffffffffffffffffffffffffffffff16908060020160009054906101000a900473ffffffffffffffffffffffffffffffffffffffff16908060030160009054906101000a90046fffffffffffffffffffffffffffffffff16908060030160109054906101000a90046fffffffffffffffffffffffffffffffff16908060040160009054906101000a900460ff16905086565b6112e06123a3565b73ffffffffffffffffffffffffffffffffffffffff166112fe611123565b73ffffffffffffffffffffffffffffffffffffffff1614611354576040517f08c379a000000000000000000000000000000000000000000000000000000000815260040161134b906132d0565b60405180910390fd5b80600860006101000a81548173ffffffffffffffffffffffffffffffffffffffff021916908373ffffffffffffffffffffffffffffffffffffffff16021790555050565b6006602052816000526040600020602052806000526040600020600091509150508060000154908060010154908060020160009054906101000a900460ff16905083565b6113e58161279d565b50565b600860009054906101000a900473ffffffffffffffffffffffffffffffffffffffff1673ffffffffffffffffffffffffffffffffffffffff163373ffffffffffffffffffffffffffffffffffffffff1614806114765750611447611123565b73ffffffffffffffffffffffffffffffffffffffff163373ffffffffffffffffffffffffffffffffffffffff16145b6114b5576040517f08c379a00000000000000000000000000000000000000000000000000000000081526004016114ac90613250565b60405180910390fd5b6000601c9054906101000a900460ff1615611505576040517f08c379a00000000000000000000000000000000000000000000000000000000081526004016114fc906132f0565b60405180910390fd5b60005b815181101561157657600082828151811061152657611525613787565b5b6020026020010151600001519050600083838151811061154957611548613787565b5b60200260200101516020015190506115618282611930565b5050808061156e90613651565b915050611508565b5050565b600860009054906101000a900473ffffffffffffffffffffffffffffffffffffffff1673ffffffffffffffffffffffffffffffffffffffff163373ffffffffffffffffffffffffffffffffffffffff16148061160857506115d9611123565b73ffffffffffffffffffffffffffffffffffffffff163373ffffffffffffffffffffffffffffffffffffffff16145b611647576040517f08c379a000000000000000000000000000000000000000000000000000000000815260040161163e90613250565b60405180910390fd5b60005b81518110156116d157600082828151811061166857611667613787565b5b6020026020010151600001519050600083838151811061168b5761168a613787565b5b60200260200101516020015190506116bc8282604051806060016040528060238152602001613b056023913961246f565b505080806116c990613651565b91505061164a565b5050565b6116dd6123a3565b73ffffffffffffffffffffffffffffffffffffffff166116fb611123565b73ffffffffffffffffffffffffffffffffffffffff1614611751576040517f08c379a0000000000000000000000000000000000000000000000000000000008152600401611748906132d0565b60405180910390fd5b600115156000601c9054906101000a900460ff161515141561178c57600080601c6101000a81548160ff0219169083151502179055506117a8565b60016000601c6101000a81548160ff0219169083151502179055505b565b6117b26123a3565b73ffffffffffffffffffffffffffffffffffffffff166117d0611123565b73ffffffffffffffffffffffffffffffffffffffff1614611826576040517f08c379a000000000000000000000000000000000000000000000000000000000815260040161181d906132d0565b60405180910390fd5b600073ffffffffffffffffffffffffffffffffffffffff168173ffffffffffffffffffffffffffffffffffffffff161415611896576040517f08c379a000000000000000000000000000000000000000000000000000000000815260040161188d90613210565b60405180910390fd5b61189f816123ab565b50565b600380546118af906135ee565b80601f01602080910402602001604051908101604052809291908181526020018280546118db906135ee565b80156119285780601f106118fd57610100808354040283529160200191611928565b820191906000526020600020905b81548152906001019060200180831161190b57829003601f168201915b505050505081565b6000600660008367ffffffffffffffff1667ffffffffffffffff16815260200190815260200160002060008473ffffffffffffffffffffffffffffffffffffffff1673ffffffffffffffffffffffffffffffffffffffff16815260200190815260200160002090506000600560008467ffffffffffffffff1667ffffffffffffffff168152602001908152602001600020905060008160020160009054906101000a900473ffffffffffffffffffffffffffffffffffffffff169050600060648360030160009054906101000a90046fffffffffffffffffffffffffffffffff16611a1b91906134cf565b6fffffffffffffffffffffffffffffffff169050600084600001541415611a77576040517f08c379a0000000000000000000000000000000000000000000000000000000008152600401611a6e90613290565b60405180910390fd5b83600101544211611abd576040517f08c379a0000000000000000000000000000000000000000000000000000000008152600401611ab490613330565b60405180910390fd5b8360020160009054906101000a900460ff1615611b0057611af78686604051806060016040528060288152602001613b286028913961246f565b50505050611e63565b8260030160009054906101000a90046fffffffffffffffffffffffffffffffff166fffffffffffffffffffffffffffffffff168273ffffffffffffffffffffffffffffffffffffffff166370a08231886040518263ffffffff1660e01b8152600401611b6c9190612fb5565b60206040518083038186803b158015611b8457600080fd5b505afa158015611b98573d6000803e3d6000fd5b505050506040513d601f19601f82011682018060405250810190611bbc9190612c91565b1015611bee57611be58686604051806060016040528060278152602001613a976027913961246f565b50505050611e63565b8173ffffffffffffffffffffffffffffffffffffffff166323b872dd878560010160009054906101000a900473ffffffffffffffffffffffffffffffffffffffff16848760030160009054906101000a90046fffffffffffffffffffffffffffffffff166fffffffffffffffffffffffffffffffff16611c6e9190613500565b6040518463ffffffff1660e01b8152600401611c8c93929190613023565b602060405180830381600087803b158015611ca657600080fd5b505af1158015611cba573d6000803e3d6000fd5b505050506040513d601f19601f82011682018060405250810190611cde9190612b84565b508173ffffffffffffffffffffffffffffffffffffffff166323b872dd87600760009054906101000a900473ffffffffffffffffffffffffffffffffffffffff16846040518463ffffffff1660e01b8152600401611d3e93929190613023565b602060405180830381600087803b158015611d5857600080fd5b505af1158015611d6c573d6000803e3d6000fd5b505050506040513d601f19601f82011682018060405250810190611d909190612b84565b508260030160109054906101000a90046fffffffffffffffffffffffffffffffff166fffffffffffffffffffffffffffffffff168460010154611dd39190613479565b84600101819055507fe4d9e5b6618d2c31b70b199db5b4f98b2b44360f69105fa823c84c2797c610c8868460010160009054906101000a900473ffffffffffffffffffffffffffffffffffffffff168560030160009054906101000a90046fffffffffffffffffffffffffffffffff168842604051611e56959493929190612fd0565b60405180910390a1505050505b5050565b6000600560008367ffffffffffffffff1667ffffffffffffffff1681526020019081526020016000209050600073ffffffffffffffffffffffffffffffffffffffff168160010160009054906101000a900473ffffffffffffffffffffffffffffffffffffffff1673ffffffffffffffffffffffffffffffffffffffff161415611f26576040517f08c379a0000000000000000000000000000000000000000000000000000000008152600401611f1d906132b0565b60405180910390fd5b6000600560008467ffffffffffffffff1667ffffffffffffffff16815260200190815260200160002060020160009054906101000a900473ffffffffffffffffffffffffffffffffffffffff169050600060648360030160009054906101000a90046fffffffffffffffffffffffffffffffff16611fa491906134cf565b6fffffffffffffffffffffffffffffffff1690508173ffffffffffffffffffffffffffffffffffffffff166323b872dd338560010160009054906101000a900473ffffffffffffffffffffffffffffffffffffffff16848760030160009054906101000a90046fffffffffffffffffffffffffffffffff166fffffffffffffffffffffffffffffffff166120389190613500565b6040518463ffffffff1660e01b815260040161205693929190613023565b602060405180830381600087803b15801561207057600080fd5b505af1158015612084573d6000803e3d6000fd5b505050506040513d601f19601f820116820180604052508101906120a89190612b84565b508173ffffffffffffffffffffffffffffffffffffffff166323b872dd33600760009054906101000a900473ffffffffffffffffffffffffffffffffffffffff16846040518463ffffffff1660e01b815260040161210893929190613023565b602060405180830381600087803b15801561212257600080fd5b505af1158015612136573d6000803e3d6000fd5b505050506040513d601f19601f8201168201806040525081019061215a9190612b84565b5060405180606001604052804281526020018460030160109054906101000a90046fffffffffffffffffffffffffffffffff166fffffffffffffffffffffffffffffffff16426121aa9190613479565b815260200160001515815250600660008667ffffffffffffffff1667ffffffffffffffff16815260200190815260200160002060003373ffffffffffffffffffffffffffffffffffffffff1673ffffffffffffffffffffffffffffffffffffffff168152602001908152602001600020600082015181600001556020820151816001015560408201518160020160006101000a81548160ff0219169083151502179055509050506000600460008667ffffffffffffffff1667ffffffffffffffff168152602001908152602001600020905080339080600181540180825580915050600190039060005260206000200160009091909190916101000a81548173ffffffffffffffffffffffffffffffffffffffff021916908373ffffffffffffffffffffffffffffffffffffffff1602179055507fce194244cebd83f83dc1524e46ae3cede1555b456ebd127d9abfda702712469c3386426040516123119392919061305a565b60405180910390a17fe4d9e5b6618d2c31b70b199db5b4f98b2b44360f69105fa823c84c2797c610c8338560010160009054906101000a900473ffffffffffffffffffffffffffffffffffffffff168660030160009054906101000a90046fffffffffffffffffffffffffffffffff168842604051612394959493929190612fd0565b60405180910390a15050505050565b600033905090565b60008060009054906101000a900473ffffffffffffffffffffffffffffffffffffffff169050816000806101000a81548173ffffffffffffffffffffffffffffffffffffffff021916908373ffffffffffffffffffffffffffffffffffffffff1602179055508173ffffffffffffffffffffffffffffffffffffffff168173ffffffffffffffffffffffffffffffffffffffff167f8be0079c531659141344cd1fd0a4f28419497f9722a3daafe3b4186f6b6457e060405160405180910390a35050565b6000600660008467ffffffffffffffff1667ffffffffffffffff16815260200190815260200160002060008573ffffffffffffffffffffffffffffffffffffffff1673ffffffffffffffffffffffffffffffffffffffff168152602001908152602001600020905060008160000154141561251f576040517f08c379a000000000000000000000000000000000000000000000000000000000815260040161251690613290565b60405180910390fd5b600660008467ffffffffffffffff1667ffffffffffffffff16815260200190815260200160002060008573ffffffffffffffffffffffffffffffffffffffff1673ffffffffffffffffffffffffffffffffffffffff16815260200190815260200160002060008082016000905560018201600090556002820160006101000a81549060ff021916905550506000600460008567ffffffffffffffff1667ffffffffffffffff168152602001908152602001600020905060005b8180549050811015612758578573ffffffffffffffffffffffffffffffffffffffff1682828154811061260e5761260d613787565b5b9060005260206000200160009054906101000a900473ffffffffffffffffffffffffffffffffffffffff1673ffffffffffffffffffffffffffffffffffffffff1614156127455781600183805490506126679190613500565b8154811061267857612677613787565b5b9060005260206000200160009054906101000a900473ffffffffffffffffffffffffffffffffffffffff168282815481106126b6576126b5613787565b5b9060005260206000200160006101000a81548173ffffffffffffffffffffffffffffffffffffffff021916908373ffffffffffffffffffffffffffffffffffffffff1602179055508180548061270f5761270e613758565b5b6001900381819060005260206000200160006101000a81549073ffffffffffffffffffffffffffffffffffffffff021916905590555b808061275090613651565b9150506125d8565b507fb4dc32643da3b2db5bc2e1cd6ffe1469ce448054e50ce9def009103398c69b998585428660405161278e9493929190613091565b60405180910390a15050505050565b6000600660008367ffffffffffffffff1667ffffffffffffffff16815260200190815260200160002060003373ffffffffffffffffffffffffffffffffffffffff1673ffffffffffffffffffffffffffffffffffffffff168152602001908152602001600020905060008160000154141561284d576040517f08c379a000000000000000000000000000000000000000000000000000000000815260040161284490613290565b60405180910390fd5b42816001015410156128825761287c3383604051806080016040528060478152602001613abe6047913961246f565b506128a1565b60018160020160006101000a81548160ff021916908315150217905550505b50565b8280546128b0906135ee565b90600052602060002090601f0160209004810192826128d25760008555612919565b82601f106128eb57805160ff1916838001178555612919565b82800160010185558215612919579182015b828111156129185782518255916020019190600101906128fd565b5b509050612926919061292a565b5090565b5b8082111561294357600081600090555060010161292b565b5090565b600061295a612955846133c7565b6133a2565b9050808382526020820190508285604086028201111561297d5761297c6137ef565b5b60005b858110156129ad57816129938882612a7f565b845260208401935060408301925050600181019050612980565b5050509392505050565b60006129ca6129c5846133f3565b6133a2565b9050828152602081018484840111156129e6576129e56137f4565b5b6129f18482856135ac565b509392505050565b600081359050612a0881613a23565b92915050565b600082601f830112612a2357612a226137e5565b5b8135612a33848260208601612947565b91505092915050565b600081519050612a4b81613a3a565b92915050565b600082601f830112612a6657612a656137e5565b5b8135612a768482602086016129b7565b91505092915050565b600060408284031215612a9557612a946137ea565b5b612a9f60406133a2565b90506000612aaf848285016129f9565b6000830152506020612ac384828501612af9565b60208301525092915050565b600081359050612ade81613a51565b92915050565b600081519050612af381613a68565b92915050565b600081359050612b0881613a7f565b92915050565b600060208284031215612b2457612b236137fe565b5b6000612b32848285016129f9565b91505092915050565b600060208284031215612b5157612b506137fe565b5b600082013567ffffffffffffffff811115612b6f57612b6e6137f9565b5b612b7b84828501612a0e565b91505092915050565b600060208284031215612b9a57612b996137fe565b5b6000612ba884828501612a3c565b91505092915050565b600060208284031215612bc757612bc66137fe565b5b600082013567ffffffffffffffff811115612be557612be46137f9565b5b612bf184828501612a51565b91505092915050565b600080600080600060a08688031215612c1657612c156137fe565b5b600086013567ffffffffffffffff811115612c3457612c336137f9565b5b612c4088828901612a51565b9550506020612c51888289016129f9565b9450506040612c62888289016129f9565b9350506060612c7388828901612acf565b9250506080612c8488828901612acf565b9150509295509295909350565b600060208284031215612ca757612ca66137fe565b5b6000612cb584828501612ae4565b91505092915050565b600060208284031215612cd457612cd36137fe565b5b6000612ce284828501612af9565b91505092915050565b60008060408385031215612d0257612d016137fe565b5b6000612d1085828601612af9565b9250506020612d21858286016129f9565b9150509250929050565b6000612d378383612d43565b60208301905092915050565b612d4c81613534565b82525050565b612d5b81613534565b82525050565b6000612d6c82613434565b612d768185613457565b9350612d8183613424565b8060005b83811015612db2578151612d998882612d2b565b9750612da48361344a565b925050600181019050612d85565b5085935050505092915050565b612dc881613546565b82525050565b6000612dd98261343f565b612de38185613468565b9350612df38185602086016135bb565b612dfc81613803565b840191505092915050565b6000612e14600e83613468565b9150612e1f82613814565b602082019050919050565b6000612e37602683613468565b9150612e428261383d565b604082019050919050565b6000612e5a602b83613468565b9150612e658261388c565b604082019050919050565b6000612e7d600483613468565b9150612e88826138db565b602082019050919050565b6000612ea0601683613468565b9150612eab82613904565b602082019050919050565b6000612ec3602083613468565b9150612ece8261392d565b602082019050919050565b6000612ee6601883613468565b9150612ef182613956565b602082019050919050565b6000612f09602083613468565b9150612f148261397f565b602082019050919050565b6000612f2c601583613468565b9150612f37826139a8565b602082019050919050565b6000612f4f601e83613468565b9150612f5a826139d1565b602082019050919050565b6000612f72600b83613468565b9150612f7d826139fa565b602082019050919050565b612f9181613552565b82525050565b612fa08161358e565b82525050565b612faf81613598565b82525050565b6000602082019050612fca6000830184612d52565b92915050565b600060a082019050612fe56000830188612d52565b612ff26020830187612d52565b612fff6040830186612f88565b61300c6060830185612fa6565b6130196080830184612f97565b9695505050505050565b60006060820190506130386000830186612d52565b6130456020830185612d52565b6130526040830184612f97565b949350505050565b600060608201905061306f6000830186612d52565b61307c6020830185612fa6565b6130896040830184612f97565b949350505050565b60006080820190506130a66000830187612d52565b6130b36020830186612fa6565b6130c06040830185612f97565b81810360608301526130d28184612dce565b905095945050505050565b600060208201905081810360008301526130f78184612d61565b905092915050565b60006020820190506131146000830184612dbf565b92915050565b600060208201905081810360008301526131348184612dce565b905092915050565b600060c08201905081810360008301526131568189612dce565b90506131656020830188612d52565b6131726040830187612d52565b61317f6060830186612f88565b61318c6080830185612f88565b61319960a0830184612dbf565b979650505050505050565b600060808201905081810360008301526131be8187612dce565b90506131cd6020830186612d52565b6131da6040830185612f88565b6131e76060830184612f88565b95945050505050565b6000602082019050818103600083015261320981612e07565b9050919050565b6000602082019050818103600083015261322981612e2a565b9050919050565b6000602082019050818103600083015261324981612e4d565b9050919050565b6000602082019050818103600083015261326981612e70565b9050919050565b6000602082019050818103600083015261328981612e93565b9050919050565b600060208201905081810360008301526132a981612eb6565b9050919050565b600060208201905081810360008301526132c981612ed9565b9050919050565b600060208201905081810360008301526132e981612efc565b9050919050565b6000602082019050818103600083015261330981612f1f565b9050919050565b6000602082019050818103600083015261332981612f42565b9050919050565b6000602082019050818103600083015261334981612f65565b9050919050565b60006060820190506133656000830186612f97565b6133726020830185612f97565b61337f6040830184612dbf565b949350505050565b600060208201905061339c6000830184612fa6565b92915050565b60006133ac6133bd565b90506133b88282613620565b919050565b6000604051905090565b600067ffffffffffffffff8211156133e2576133e16137b6565b5b602082029050602081019050919050565b600067ffffffffffffffff82111561340e5761340d6137b6565b5b61341782613803565b9050602081019050919050565b6000819050602082019050919050565b600081519050919050565b600081519050919050565b6000602082019050919050565b600082825260208201905092915050565b600082825260208201905092915050565b60006134848261358e565b915061348f8361358e565b9250827fffffffffffffffffffffffffffffffffffffffffffffffffffffffffffffffff038211156134c4576134c36136cb565b5b828201905092915050565b60006134da82613552565b91506134e583613552565b9250826134f5576134f46136fa565b5b828204905092915050565b600061350b8261358e565b91506135168361358e565b925082821015613529576135286136cb565b5b828203905092915050565b600061353f8261356e565b9050919050565b60008115159050919050565b60006fffffffffffffffffffffffffffffffff82169050919050565b600073ffffffffffffffffffffffffffffffffffffffff82169050919050565b6000819050919050565b600067ffffffffffffffff82169050919050565b82818337600083830152505050565b60005b838110156135d95780820151818401526020810190506135be565b838111156135e8576000848401525b50505050565b6000600282049050600182168061360657607f821691505b6020821081141561361a57613619613729565b5b50919050565b61362982613803565b810181811067ffffffffffffffff82111715613648576136476137b6565b5b80604052505050565b600061365c8261358e565b91507fffffffffffffffffffffffffffffffffffffffffffffffffffffffffffffffff82141561368f5761368e6136cb565b5b600182019050919050565b60006136a582613598565b915067ffffffffffffffff8214156136c0576136bf6136cb565b5b600182019050919050565b7f4e487b7100000000000000000000000000000000000000000000000000000000600052601160045260246000fd5b7f4e487b7100000000000000000000000000000000000000000000000000000000600052601260045260246000fd5b7f4e487b7100000000000000000000000000000000000000000000000000000000600052602260045260246000fd5b7f4e487b7100000000000000000000000000000000000000000000000000000000600052603160045260246000fd5b7f4e487b7100000000000000000000000000000000000000000000000000000000600052603260045260246000fd5b7f4e487b7100000000000000000000000000000000000000000000000000000000600052604160045260246000fd5b600080fd5b600080fd5b600080fd5b600080fd5b600080fd5b600080fd5b6000601f19601f8301169050919050565b7f706c616e2069732068616c746564000000000000000000000000000000000000600082015250565b7f4f776e61626c653a206e6577206f776e657220697320746865207a65726f206160008201527f6464726573730000000000000000000000000000000000000000000000000000602082015250565b7f6672657175656e6379206e6565647320746f206265206772656174657220746860008201527f656e20323420686f757273000000000000000000000000000000000000000000602082015250565b7f4875683f00000000000000000000000000000000000000000000000000000000600082015250565b7f616d6f756e74206e6565647320746f206265203e203000000000000000000000600082015250565b7f7468697320737562736372697074696f6e20646f6573206e6f74206578697374600082015250565b7f7468697320706c616e20646f6573206e6f742065786973740000000000000000600082015250565b7f4f776e61626c653a2063616c6c6572206973206e6f7420746865206f776e6572600082015250565b7f636f6e74726163742069732073757370656e6465640000000000000000000000600082015250565b7f616464726573732063616e6e6f74206265206e756c6c20616464726573730000600082015250565b7f6e6f742064756520796574000000000000000000000000000000000000000000600082015250565b613a2c81613534565b8114613a3757600080fd5b50565b613a4381613546565b8114613a4e57600080fd5b50565b613a5a81613552565b8114613a6557600080fd5b50565b613a718161358e565b8114613a7c57600080fd5b50565b613a8881613598565b8114613a9357600080fd5b5056fe696e737566666963656e742066756e64732c20737562736372697074696f6e2064656c65746564596f752063616e6e6f742073746f7020737562736372697074696f6e2061667465722066756e647320617265206f7765642c20737562736372697074696f6e2064656c657465644f776e65722f4f70657261746f722044656c6574656420537562736372697074696f6e706173742064756520262073746f707065642c20737562736372697074696f6e2064656c65746564a26469706673582212207bf3e5d635ff26a1a394344e2573e655ad2a10b999f7ddeeb4f9961d5c579c0f64736f6c63430008060033",
  "immutableReferences": {},
  "source": "// SPDX-License-Identifier: Business Source License 1.1\npragma solidity ^0.8.6;\n\nimport \"@openzeppelin/contracts/token/ERC20/IERC20.sol\";\nimport \"@openzeppelin/contracts/access/Ownable.sol\";\n\ncontract SubscribeeV1 is Ownable{\n\n  uint64 public nextPlanId;\n  bool public suspended;\n  string public title;\n  string public slug;\n  string public image;\n\n  mapping(uint64 => address[]) private luSubscriptions;\n  mapping(uint64 => Plan) public plans;\n  mapping(uint64 => mapping(address => Subscription)) public subscriptions;\n\n  address public beehive;\n  address public operator;\n\n  // Structs\n\n  struct Plan {\n    string title;\n    address merchant;\n    address token;\n    uint128 amount;\n    uint128 frequency;\n    bool halted;\n  }\n\n  struct Subscription {\n    uint start;\n    uint nextPayment;\n    bool stopped;\n  }\n\n  struct UserObject {\n    address subscriber;\n    uint64 planId;\n  }\n\n\n  // Events\n\n\n  event PlanCreated(\n    string title,\n    address token,\n    uint128 amount,\n    uint128 frequency\n  );\n\n  event SubscriptionCreated(\n    address subscriber,\n    uint64 planId,\n    uint date\n  );\n\n  event SubscriptionDeleted(\n    address subscriber,\n    uint64 planId,\n    uint date,\n    string reason\n  );\n\n  event PaymentSent(\n    address from,\n    address to,\n    uint128 amount,\n    uint64 planId,\n    uint date\n  );\n\n  // Modifiers\n\n  modifier onlyOperatorOrOwner() {\n    require(msg.sender == operator || msg.sender == owner(), 'Huh?');\n    _;\n  }\n\n\n\n  // Constructor\n\n  constructor(address beehiveAddress, address operatorAddress, string memory newTitle, string memory newSlug, string memory newImage) {\n    beehive = beehiveAddress;\n    operator = operatorAddress;\n    slug = newSlug;\n    title = newTitle;\n    image = newImage;\n  }\n\n\n  // Functions\n\n  function setOperator(address newOperator) external onlyOwner{\n    operator = newOperator;\n  }\n\n  function toggleSuspend() external onlyOwner{\n    if(suspended == true){\n      suspended = false;\n    }else{\n      suspended = true;\n    }\n  }\n\n  function getSubscriberArray(uint64 planId) external view onlyOperatorOrOwner returns(address[] memory){\n    return luSubscriptions[planId];\n  }\n\n  function setTitle(string memory newTitle) external onlyOperatorOrOwner{\n    title = newTitle;\n  }\n\n  function setImage(string memory newImage) external onlyOperatorOrOwner{\n    image = newImage;\n  }\n\n  function togglePlanHalt(uint64 planId) external onlyOperatorOrOwner{\n    if(plans[planId].halted == true){\n      plans[planId].halted = false;\n    }else{\n      plans[planId].halted = true;\n    }\n  }\n\n  function createPlan(string memory planTitle, address merchant, address token, uint128 amount, uint128 frequency) external onlyOperatorOrOwner{\n    require(token != address(0), 'address cannot be null address');\n    require(amount > 0, 'amount needs to be > 0');\n    require(frequency > 86400, 'frequency needs to be greater then 24 hours');\n\n    plans[nextPlanId] = Plan(\n      planTitle,\n      merchant,\n      token,\n      amount,\n      frequency,\n      false\n    );\n\n    emit PlanCreated(planTitle, token, amount, frequency);\n    nextPlanId++;\n  }\n\n  function subscribe(uint64 planId) external {\n    require(!suspended, 'contract is suspended');\n    require(!plans[planId].halted, 'plan is halted');\n    _safeSubscribe(planId);\n  }\n\n  function stopPay(uint64 planId) external {\n    _safeStop(planId);\n  }\n\n  function selfDelete(uint64 planId) external {\n    _delete(msg.sender, planId, 'User Deleting Subscription');\n  }\n\n  function selfPay(uint64 planId) external {\n    require(!suspended, 'contract is suspended');\n    _safePay(msg.sender, planId);\n  }\n\n  function multiPay(UserObject[] memory users) external onlyOperatorOrOwner{\n    require(!suspended, 'contract is suspended');\n    for(uint i = 0; i < users.length; i++){\n      address subscriber = users[i].subscriber;\n      uint64 planId = users[i].planId;\n      _safePay(subscriber, planId);\n    }\n  }\n\n  function multiDelete(UserObject[] memory users) external onlyOperatorOrOwner{\n    for(uint i = 0; i < users.length; i++){\n      address subscriber = users[i].subscriber;\n      uint64 planId = users[i].planId;\n      _delete(subscriber, planId, 'Owner/Operator Deleted Subscription');\n    }\n  }\n\n  // Internal Functions\n\n\n  function _safePay(address subscriber, uint64 planId) internal {\n    // call from storage\n    Subscription storage subscription = subscriptions[planId][subscriber];\n    Plan storage plan = plans[planId];\n    IERC20 token = IERC20(plan.token);\n    uint PollenFee = plan.amount / 100;\n\n    // conditionals for storage\n    require(\n       subscription.start != 0,\n      'this subscription does not exist'\n    );\n\n    require(\n      block.timestamp > subscription.nextPayment,\n      'not due yet'\n    );\n\n    // check for stopped subscription, will delete here due to the previous check of being past the timestamp\n    if(subscription.stopped){\n      _delete(subscriber, planId, 'past due & stopped, subscription deleted');\n      return;\n    }\n\n    // Will check if user has funds, if not will delete subscription\n    if(token.balanceOf(subscriber) < plan.amount){\n      _delete(subscriber, planId, 'insufficent funds, subscription deleted');\n      return;\n    }\n\n    // send to Contract Owner & BeeHive\n    token.transferFrom(subscriber, plan.merchant, plan.amount - PollenFee);\n    token.transferFrom(subscriber, beehive, PollenFee);\n\n    // set next payment\n    subscription.nextPayment = subscription.nextPayment + plan.frequency;\n\n    // emit event\n      emit PaymentSent(\n        subscriber,\n        plan.merchant,\n        plan.amount,\n        planId,\n        block.timestamp\n      );\n    }\n\n  function _safeSubscribe(uint64 planId) internal {\n    // calls plan from storage and check if it exists\n    Plan storage plan = plans[planId];\n    require(plan.merchant != address(0), 'this plan does not exist');\n\n    // set token and fee\n    IERC20 token = IERC20(plans[planId].token);\n    uint PollenFee = plan.amount / 100;\n\n    // send to Contract Owner & BeeHive\n    token.transferFrom(msg.sender, plan.merchant, plan.amount - PollenFee);\n    token.transferFrom(msg.sender, beehive, PollenFee);\n\n    // add new subscription\n    subscriptions[planId][msg.sender] = Subscription(\n      block.timestamp,\n      block.timestamp + plan.frequency,\n      false\n    );\n\n    // add user to lookup array\n    address[] storage subscriptionUsers = luSubscriptions[planId];\n    subscriptionUsers.push(msg.sender);\n\n    // emit Subscription and Payment events\n    emit SubscriptionCreated(address(msg.sender), planId, block.timestamp);\n\n    emit PaymentSent(\n      msg.sender,\n      plan.merchant,\n      plan.amount,\n      planId,\n      block.timestamp\n    );\n\n  }\n\n  function _delete(address user, uint64 planId, string memory reason) internal {\n    // Grab user subscription data & check if it exists\n    Subscription storage subscription = subscriptions[planId][user];\n    require(subscription.start != 0, 'this subscription does not exist');\n\n    // delete from mapping\n    delete subscriptions[planId][user];\n\n    // delete from arrayLookup\n    address[] storage subscriptionUsers = luSubscriptions[planId];\n    for(uint i = 0; i < subscriptionUsers.length; i++){\n      if(subscriptionUsers[i] == user){\n          subscriptionUsers[i] = subscriptionUsers[subscriptionUsers.length - 1];\n          subscriptionUsers.pop();\n      }\n    }\n\n    emit SubscriptionDeleted(user, planId, block.timestamp, reason);\n  }\n\n  function _safeStop(uint64 planId) internal {\n    // Grab user subscription data & check if it exists\n    Subscription storage subscription = subscriptions[planId][msg.sender];\n    require(subscription.start != 0, 'this subscription does not exist');\n\n    // Check if user owes funds and is trying to stop, will delete\n    if(subscription.nextPayment < block.timestamp){\n      _delete(msg.sender, planId, 'You cannot stop subscription after funds are owed, subscription deleted');\n      return;\n    }\n\n    // If user does not have to pay yet, stop subscription\n    subscription.stopped = true;\n  }\n}\n",
  "sourcePath": "/home/lavandor9/contracts/subscribee-official/contracts/SubscribeeV1.sol",
  "compiler": {
    "name": "solc",
    "version": "0.8.6+commit.11564f7e.Emscripten.clang"
  },
  "schemaVersion": "3.4.1",
  "updatedAt": "2022-04-15T17:02:22.977Z",
  "devdoc": {
    "kind": "dev",
    "methods": {
      "owner()": {
        "details": "Returns the address of the current owner."
      },
      "renounceOwnership()": {
        "details": "Leaves the contract without owner. It will not be possible to call `onlyOwner` functions anymore. Can only be called by the current owner. NOTE: Renouncing ownership will leave the contract without an owner, thereby removing any functionality that is only available to the owner."
      },
      "transferOwnership(address)": {
        "details": "Transfers ownership of the contract to a new account (`newOwner`). Can only be called by the current owner."
      }
    },
    "version": 1
  },
  "userdoc": {
    "kind": "user",
    "methods": {},
    "version": 1
  }
}