{
  "contractName": "SubscribeeV1",
  "abi": [
    {
      "inputs": [
        {
          "internalType": "address",
          "name": "beehiveAddress",
          "type": "address"
        },
        {
          "internalType": "address",
          "name": "operatorAddress",
          "type": "address"
        },
        {
          "internalType": "string",
          "name": "newTitle",
          "type": "string"
        },
        {
          "internalType": "string",
          "name": "newImage",
          "type": "string"
        }
      ],
      "stateMutability": "nonpayable",
      "type": "constructor"
    },
    {
      "anonymous": false,
      "inputs": [
        {
          "indexed": true,
          "internalType": "address",
          "name": "previousOwner",
          "type": "address"
        },
        {
          "indexed": true,
          "internalType": "address",
          "name": "newOwner",
          "type": "address"
        }
      ],
      "name": "OwnershipTransferred",
      "type": "event"
    },
    {
      "anonymous": false,
      "inputs": [
        {
          "indexed": false,
          "internalType": "address",
          "name": "from",
          "type": "address"
        },
        {
          "indexed": false,
          "internalType": "address",
          "name": "to",
          "type": "address"
        },
        {
          "indexed": false,
          "internalType": "uint128",
          "name": "amount",
          "type": "uint128"
        },
        {
          "indexed": false,
          "internalType": "uint8",
          "name": "planId",
          "type": "uint8"
        },
        {
          "indexed": false,
          "internalType": "uint256",
          "name": "date",
          "type": "uint256"
        }
      ],
      "name": "PaymentSent",
      "type": "event"
    },
    {
      "anonymous": false,
      "inputs": [
        {
          "indexed": false,
          "internalType": "string",
          "name": "title",
          "type": "string"
        },
        {
          "indexed": false,
          "internalType": "address",
          "name": "token",
          "type": "address"
        },
        {
          "indexed": false,
          "internalType": "uint128",
          "name": "amount",
          "type": "uint128"
        },
        {
          "indexed": false,
          "internalType": "uint128",
          "name": "frequency",
          "type": "uint128"
        }
      ],
      "name": "PlanCreated",
      "type": "event"
    },
    {
      "anonymous": false,
      "inputs": [
        {
          "indexed": false,
          "internalType": "address",
          "name": "subscriber",
          "type": "address"
        },
        {
          "indexed": false,
          "internalType": "uint8",
          "name": "planId",
          "type": "uint8"
        },
        {
          "indexed": false,
          "internalType": "uint256",
          "name": "date",
          "type": "uint256"
        }
      ],
      "name": "SubscriptionCreated",
      "type": "event"
    },
    {
      "anonymous": false,
      "inputs": [
        {
          "indexed": false,
          "internalType": "address",
          "name": "subscriber",
          "type": "address"
        },
        {
          "indexed": false,
          "internalType": "uint8",
          "name": "planId",
          "type": "uint8"
        },
        {
          "indexed": false,
          "internalType": "uint256",
          "name": "date",
          "type": "uint256"
        },
        {
          "indexed": false,
          "internalType": "string",
          "name": "reason",
          "type": "string"
        }
      ],
      "name": "SubscriptionDeleted",
      "type": "event"
    },
    {
      "inputs": [],
      "name": "beehive",
      "outputs": [
        {
          "internalType": "address",
          "name": "",
          "type": "address"
        }
      ],
      "stateMutability": "view",
      "type": "function"
    },
    {
      "inputs": [],
      "name": "image",
      "outputs": [
        {
          "internalType": "string",
          "name": "",
          "type": "string"
        }
      ],
      "stateMutability": "view",
      "type": "function"
    },
    {
      "inputs": [],
      "name": "nextPlanId",
      "outputs": [
        {
          "internalType": "uint8",
          "name": "",
          "type": "uint8"
        }
      ],
      "stateMutability": "view",
      "type": "function"
    },
    {
      "inputs": [],
      "name": "operator",
      "outputs": [
        {
          "internalType": "address",
          "name": "",
          "type": "address"
        }
      ],
      "stateMutability": "view",
      "type": "function"
    },
    {
      "inputs": [],
      "name": "owner",
      "outputs": [
        {
          "internalType": "address",
          "name": "",
          "type": "address"
        }
      ],
      "stateMutability": "view",
      "type": "function"
    },
    {
      "inputs": [
        {
          "internalType": "uint8",
          "name": "",
          "type": "uint8"
        }
      ],
      "name": "plans",
      "outputs": [
        {
          "internalType": "string",
          "name": "title",
          "type": "string"
        },
        {
          "internalType": "address",
          "name": "merchant",
          "type": "address"
        },
        {
          "internalType": "address",
          "name": "token",
          "type": "address"
        },
        {
          "internalType": "uint128",
          "name": "amount",
          "type": "uint128"
        },
        {
          "internalType": "uint128",
          "name": "frequency",
          "type": "uint128"
        },
        {
          "internalType": "bool",
          "name": "halted",
          "type": "bool"
        }
      ],
      "stateMutability": "view",
      "type": "function"
    },
    {
      "inputs": [],
      "name": "renounceOwnership",
      "outputs": [],
      "stateMutability": "nonpayable",
      "type": "function"
    },
    {
      "inputs": [
        {
          "internalType": "uint8",
          "name": "",
          "type": "uint8"
        },
        {
          "internalType": "address",
          "name": "",
          "type": "address"
        }
      ],
      "name": "subscriptions",
      "outputs": [
        {
          "internalType": "uint256",
          "name": "start",
          "type": "uint256"
        },
        {
          "internalType": "uint256",
          "name": "nextPayment",
          "type": "uint256"
        },
        {
          "internalType": "bool",
          "name": "stopped",
          "type": "bool"
        },
        {
          "internalType": "uint256",
          "name": "userId",
          "type": "uint256"
        }
      ],
      "stateMutability": "view",
      "type": "function"
    },
    {
      "inputs": [],
      "name": "title",
      "outputs": [
        {
          "internalType": "string",
          "name": "",
          "type": "string"
        }
      ],
      "stateMutability": "view",
      "type": "function"
    },
    {
      "inputs": [
        {
          "internalType": "address",
          "name": "newOwner",
          "type": "address"
        }
      ],
      "name": "transferOwnership",
      "outputs": [],
      "stateMutability": "nonpayable",
      "type": "function"
    },
    {
      "inputs": [
        {
          "internalType": "uint8",
          "name": "planId",
          "type": "uint8"
        }
      ],
      "name": "subscribe",
      "outputs": [],
      "stateMutability": "nonpayable",
      "type": "function"
    },
    {
      "inputs": [
        {
          "internalType": "uint8",
          "name": "planId",
          "type": "uint8"
        }
      ],
      "name": "stopPay",
      "outputs": [],
      "stateMutability": "nonpayable",
      "type": "function"
    },
    {
      "inputs": [
        {
          "internalType": "uint8",
          "name": "planId",
          "type": "uint8"
        }
      ],
      "name": "selfDelete",
      "outputs": [],
      "stateMutability": "nonpayable",
      "type": "function"
    },
    {
      "inputs": [
        {
          "internalType": "uint8",
          "name": "planId",
          "type": "uint8"
        }
      ],
      "name": "selfPay",
      "outputs": [],
      "stateMutability": "nonpayable",
      "type": "function"
    },
    {
      "inputs": [
        {
          "internalType": "address",
          "name": "newOperator",
          "type": "address"
        }
      ],
      "name": "setOperator",
      "outputs": [],
      "stateMutability": "nonpayable",
      "type": "function"
    },
    {
      "inputs": [
        {
          "internalType": "string",
          "name": "newTitle",
          "type": "string"
        }
      ],
      "name": "setTitle",
      "outputs": [],
      "stateMutability": "nonpayable",
      "type": "function"
    },
    {
      "inputs": [
        {
          "internalType": "string",
          "name": "newImage",
          "type": "string"
        }
      ],
      "name": "setImage",
      "outputs": [],
      "stateMutability": "nonpayable",
      "type": "function"
    },
    {
      "inputs": [
        {
          "internalType": "uint8",
          "name": "planId",
          "type": "uint8"
        }
      ],
      "name": "togglePlanHalt",
      "outputs": [],
      "stateMutability": "nonpayable",
      "type": "function"
    },
    {
      "inputs": [
        {
          "internalType": "string",
          "name": "planTitle",
          "type": "string"
        },
        {
          "internalType": "address",
          "name": "merchant",
          "type": "address"
        },
        {
          "internalType": "address",
          "name": "token",
          "type": "address"
        },
        {
          "internalType": "uint128",
          "name": "amount",
          "type": "uint128"
        },
        {
          "internalType": "uint128",
          "name": "frequency",
          "type": "uint128"
        }
      ],
      "name": "createPlan",
      "outputs": [],
      "stateMutability": "nonpayable",
      "type": "function"
    },
    {
      "inputs": [
        {
          "internalType": "uint8",
          "name": "planId",
          "type": "uint8"
        },
        {
          "internalType": "address",
          "name": "merchant",
          "type": "address"
        }
      ],
      "name": "changePlanMerchant",
      "outputs": [],
      "stateMutability": "nonpayable",
      "type": "function"
    },
    {
      "inputs": [
        {
          "internalType": "uint8",
          "name": "planId",
          "type": "uint8"
        }
      ],
      "name": "getSubscriberArray",
      "outputs": [
        {
          "internalType": "address[]",
          "name": "",
          "type": "address[]"
        }
      ],
      "stateMutability": "view",
      "type": "function"
    },
    {
      "inputs": [
        {
          "components": [
            {
              "internalType": "address",
              "name": "subscriber",
              "type": "address"
            },
            {
              "internalType": "uint8",
              "name": "planId",
              "type": "uint8"
            }
          ],
          "internalType": "struct SubscribeeV1.UserObject[]",
          "name": "users",
          "type": "tuple[]"
        }
      ],
      "name": "multiPay",
      "outputs": [],
      "stateMutability": "nonpayable",
      "type": "function"
    },
    {
      "inputs": [
        {
          "components": [
            {
              "internalType": "address",
              "name": "subscriber",
              "type": "address"
            },
            {
              "internalType": "uint8",
              "name": "planId",
              "type": "uint8"
            }
          ],
          "internalType": "struct SubscribeeV1.UserObject[]",
          "name": "users",
          "type": "tuple[]"
        }
      ],
      "name": "multiDelete",
      "outputs": [],
      "stateMutability": "nonpayable",
      "type": "function"
    }
  ],
  "bytecode": "0x60806040523480156200001157600080fd5b5060405162003ee238038062003ee2833981810160405281019062000037919062000326565b620000576200004b6200011560201b60201c565b6200011d60201b60201c565b83600660006101000a81548173ffffffffffffffffffffffffffffffffffffffff021916908373ffffffffffffffffffffffffffffffffffffffff16021790555082600760006101000a81548173ffffffffffffffffffffffffffffffffffffffff021916908373ffffffffffffffffffffffffffffffffffffffff1602179055508160019080519060200190620000f1929190620001e1565b5080600290805190602001906200010a929190620001e1565b5050505050620005a8565b600033905090565b60008060009054906101000a900473ffffffffffffffffffffffffffffffffffffffff169050816000806101000a81548173ffffffffffffffffffffffffffffffffffffffff021916908373ffffffffffffffffffffffffffffffffffffffff1602179055508173ffffffffffffffffffffffffffffffffffffffff168173ffffffffffffffffffffffffffffffffffffffff167f8be0079c531659141344cd1fd0a4f28419497f9722a3daafe3b4186f6b6457e060405160405180910390a35050565b828054620001ef906200049f565b90600052602060002090601f0160209004810192826200021357600085556200025f565b82601f106200022e57805160ff19168380011785556200025f565b828001600101855582156200025f579182015b828111156200025e57825182559160200191906001019062000241565b5b5090506200026e919062000272565b5090565b5b808211156200028d57600081600090555060010162000273565b5090565b6000620002a8620002a284620003ff565b620003d6565b905082815260208101848484011115620002c757620002c66200056e565b5b620002d484828562000469565b509392505050565b600081519050620002ed816200058e565b92915050565b600082601f8301126200030b576200030a62000569565b5b81516200031d84826020860162000291565b91505092915050565b6000806000806080858703121562000343576200034262000578565b5b60006200035387828801620002dc565b94505060206200036687828801620002dc565b935050604085015167ffffffffffffffff8111156200038a576200038962000573565b5b6200039887828801620002f3565b925050606085015167ffffffffffffffff811115620003bc57620003bb62000573565b5b620003ca87828801620002f3565b91505092959194509250565b6000620003e2620003f5565b9050620003f08282620004d5565b919050565b6000604051905090565b600067ffffffffffffffff8211156200041d576200041c6200053a565b5b62000428826200057d565b9050602081019050919050565b6000620004428262000449565b9050919050565b600073ffffffffffffffffffffffffffffffffffffffff82169050919050565b60005b83811015620004895780820151818401526020810190506200046c565b8381111562000499576000848401525b50505050565b60006002820490506001821680620004b857607f821691505b60208210811415620004cf57620004ce6200050b565b5b50919050565b620004e0826200057d565b810181811067ffffffffffffffff821117156200050257620005016200053a565b5b80604052505050565b7f4e487b7100000000000000000000000000000000000000000000000000000000600052602260045260246000fd5b7f4e487b7100000000000000000000000000000000000000000000000000000000600052604160045260246000fd5b600080fd5b600080fd5b600080fd5b600080fd5b6000601f19601f8301169050919050565b620005998162000435565b8114620005a557600080fd5b50565b61392a80620005b86000396000f3fe608060405234801561001057600080fd5b506004361061014d5760003560e01c80636be97148116100c35780637a9978821161007c5780637a997882146103545780638da5cb5b14610370578063b3ab15fb1461038e578063e9cb1faf146103aa578063f2fde38b146103da578063f3ccaac0146103f65761014d565b80636be97148146102a7578063715018a6146102da57806371adb5e6146102e457806372910be0146103005780637573f9f51461031c5780637a6e4822146103385761014d565b80634a79d50c116101155780634a79d50c146101e0578063566c93ab146101fe578063570ca7351461021a5780635f20b72d146102385780635f8d26b21461025457806360a31a88146102725761014d565b806305b222421461015257806316e5fb5b1461016e5780633395df251461018a57806342bd94b0146101a857806349c7e639146101c4575b600080fd5b61016c60048036038101906101679190612941565b610414565b005b61018860048036038101906101839190612914565b6104f5565b005b610192610501565b60405161019f9190612cd1565b60405180910390f35b6101c260048036038101906101bd9190612914565b610527565b005b6101de60048036038101906101d99190612914565b610534565b005b6101e8610540565b6040516101f59190612e1b565b60405180910390f35b61021860048036038101906102139190612791565b6105ce565b005b610222610710565b60405161022f9190612cd1565b60405180910390f35b610252600480360381019061024d9190612914565b610736565b005b61025c61085b565b60405161026991906130d6565b60405180910390f35b61028c60048036038101906102879190612914565b61086e565b60405161029e96959493929190612e3d565b60405180910390f35b6102c160048036038101906102bc9190612941565b6109b7565b6040516102d19493929190613091565b60405180910390f35b6102e2610a01565b005b6102fe60048036038101906102f99190612807565b610a89565b005b61031a60048036038101906103159190612807565b610b1f565b005b61033660048036038101906103319190612791565b610bb5565b005b610352600480360381019061034d9190612850565b610d10565b005b61036e60048036038101906103699190612914565b611118565b005b61037861115b565b6040516103859190612cd1565b60405180910390f35b6103a860048036038101906103a39190612764565b611184565b005b6103c460048036038101906103bf9190612914565b611244565b6040516103d19190612df9565b60405180910390f35b6103f460048036038101906103ef9190612764565b6113b8565b005b6103fe6114b0565b60405161040b9190612e1b565b60405180910390f35b61041c61153e565b73ffffffffffffffffffffffffffffffffffffffff1661043a61115b565b73ffffffffffffffffffffffffffffffffffffffff1614610490576040517f08c379a000000000000000000000000000000000000000000000000000000000815260040161048790613031565b60405180910390fd5b6000600460008460ff1660ff1681526020019081526020016000209050818160010160006101000a81548173ffffffffffffffffffffffffffffffffffffffff021916908373ffffffffffffffffffffffffffffffffffffffff160217905550505050565b6104fe81611546565b50565b600660009054906101000a900473ffffffffffffffffffffffffffffffffffffffff1681565b610531338261163f565b50565b61053d81611bc9565b50565b6001805461054d9061334b565b80601f01602080910402602001604051908101604052809291908181526020018280546105799061334b565b80156105c65780601f1061059b576101008083540402835291602001916105c6565b820191906000526020600020905b8154815290600101906020018083116105a957829003601f168201915b505050505081565b600760009054906101000a900473ffffffffffffffffffffffffffffffffffffffff1673ffffffffffffffffffffffffffffffffffffffff163373ffffffffffffffffffffffffffffffffffffffff16148061065c575061062d61115b565b73ffffffffffffffffffffffffffffffffffffffff163373ffffffffffffffffffffffffffffffffffffffff16145b61069b576040517f08c379a000000000000000000000000000000000000000000000000000000000815260040161069290612f91565b60405180910390fd5b60005b815181101561070c5760008282815181106106bc576106bb6134dd565b5b602002602001015160000151905060008383815181106106df576106de6134dd565b5b60200260200101516020015190506106f7828261163f565b50508080610704906133ae565b91505061069e565b5050565b600760009054906101000a900473ffffffffffffffffffffffffffffffffffffffff1681565b61073e61153e565b73ffffffffffffffffffffffffffffffffffffffff1661075c61115b565b73ffffffffffffffffffffffffffffffffffffffff16146107b2576040517f08c379a00000000000000000000000000000000000000000000000000000000081526004016107a990613031565b60405180910390fd5b60011515600460008360ff1660ff16815260200190815260200160002060040160009054906101000a900460ff1615151415610822576000600460008360ff1660ff16815260200190815260200160002060040160006101000a81548160ff021916908315150217905550610858565b6001600460008360ff1660ff16815260200190815260200160002060040160006101000a81548160ff0219169083151502179055505b50565b600060149054906101000a900460ff1681565b60046020528060005260406000206000915090508060000180546108919061334b565b80601f01602080910402602001604051908101604052809291908181526020018280546108bd9061334b565b801561090a5780601f106108df5761010080835404028352916020019161090a565b820191906000526020600020905b8154815290600101906020018083116108ed57829003601f168201915b5050505050908060010160009054906101000a900473ffffffffffffffffffffffffffffffffffffffff16908060020160009054906101000a900473ffffffffffffffffffffffffffffffffffffffff16908060030160009054906101000a90046fffffffffffffffffffffffffffffffff16908060030160109054906101000a90046fffffffffffffffffffffffffffffffff16908060040160009054906101000a900460ff16905086565b6005602052816000526040600020602052806000526040600020600091509150508060000154908060010154908060020160009054906101000a900460ff16908060030154905084565b610a0961153e565b73ffffffffffffffffffffffffffffffffffffffff16610a2761115b565b73ffffffffffffffffffffffffffffffffffffffff1614610a7d576040517f08c379a0000000000000000000000000000000000000000000000000000000008152600401610a7490613031565b60405180910390fd5b610a876000612151565b565b610a9161153e565b73ffffffffffffffffffffffffffffffffffffffff16610aaf61115b565b73ffffffffffffffffffffffffffffffffffffffff1614610b05576040517f08c379a0000000000000000000000000000000000000000000000000000000008152600401610afc90613031565b60405180910390fd5b8060029080519060200190610b1b9291906124fa565b5050565b610b2761153e565b73ffffffffffffffffffffffffffffffffffffffff16610b4561115b565b73ffffffffffffffffffffffffffffffffffffffff1614610b9b576040517f08c379a0000000000000000000000000000000000000000000000000000000008152600401610b9290613031565b60405180910390fd5b8060019080519060200190610bb19291906124fa565b5050565b600760009054906101000a900473ffffffffffffffffffffffffffffffffffffffff1673ffffffffffffffffffffffffffffffffffffffff163373ffffffffffffffffffffffffffffffffffffffff161480610c435750610c1461115b565b73ffffffffffffffffffffffffffffffffffffffff163373ffffffffffffffffffffffffffffffffffffffff16145b610c82576040517f08c379a0000000000000000000000000000000000000000000000000000000008152600401610c7990612f91565b60405180910390fd5b60005b8151811015610d0c576000828281518110610ca357610ca26134dd565b5b60200260200101516000015190506000838381518110610cc657610cc56134dd565b5b6020026020010151602001519050610cf782826040518060600160405280602381526020016138d260239139612215565b50508080610d04906133ae565b915050610c85565b5050565b610d1861153e565b73ffffffffffffffffffffffffffffffffffffffff16610d3661115b565b73ffffffffffffffffffffffffffffffffffffffff1614610d8c576040517f08c379a0000000000000000000000000000000000000000000000000000000008152600401610d8390613031565b60405180910390fd5b600073ffffffffffffffffffffffffffffffffffffffff168373ffffffffffffffffffffffffffffffffffffffff161415610dfc576040517f08c379a0000000000000000000000000000000000000000000000000000000008152600401610df390613051565b60405180910390fd5b6000826fffffffffffffffffffffffffffffffff1611610e51576040517f08c379a0000000000000000000000000000000000000000000000000000000008152600401610e4890612fb1565b60405180910390fd5b62015180816fffffffffffffffffffffffffffffffff1611610ea8576040517f08c379a0000000000000000000000000000000000000000000000000000000008152600401610e9f90612f51565b60405180910390fd5b6040518060c001604052808681526020018573ffffffffffffffffffffffffffffffffffffffff1681526020018473ffffffffffffffffffffffffffffffffffffffff168152602001836fffffffffffffffffffffffffffffffff168152602001826fffffffffffffffffffffffffffffffff16815260200160001515815250600460008060149054906101000a900460ff1660ff1660ff1681526020019081526020016000206000820151816000019080519060200190610f6b9291906124fa565b5060208201518160010160006101000a81548173ffffffffffffffffffffffffffffffffffffffff021916908373ffffffffffffffffffffffffffffffffffffffff16021790555060408201518160020160006101000a81548173ffffffffffffffffffffffffffffffffffffffff021916908373ffffffffffffffffffffffffffffffffffffffff16021790555060608201518160030160006101000a8154816fffffffffffffffffffffffffffffffff02191690836fffffffffffffffffffffffffffffffff16021790555060808201518160030160106101000a8154816fffffffffffffffffffffffffffffffff02191690836fffffffffffffffffffffffffffffffff16021790555060a08201518160040160006101000a81548160ff0219169083151502179055509050507f2b2ac0164b2239021e55bc9bad56542210dd43092952070c7ef40280d609ce8060018484846040516110d19493929190612ea5565b60405180910390a16000601481819054906101000a900460ff16809291906110f8906133f7565b91906101000a81548160ff021916908360ff160217905550505050505050565b61115833826040518060400160405280601a81526020017f557365722044656c6574696e6720537562736372697074696f6e000000000000815250612215565b50565b60008060009054906101000a900473ffffffffffffffffffffffffffffffffffffffff16905090565b61118c61153e565b73ffffffffffffffffffffffffffffffffffffffff166111aa61115b565b73ffffffffffffffffffffffffffffffffffffffff1614611200576040517f08c379a00000000000000000000000000000000000000000000000000000000081526004016111f790613031565b60405180910390fd5b80600760006101000a81548173ffffffffffffffffffffffffffffffffffffffff021916908373ffffffffffffffffffffffffffffffffffffffff16021790555050565b6060600760009054906101000a900473ffffffffffffffffffffffffffffffffffffffff1673ffffffffffffffffffffffffffffffffffffffff163373ffffffffffffffffffffffffffffffffffffffff1614806112d457506112a561115b565b73ffffffffffffffffffffffffffffffffffffffff163373ffffffffffffffffffffffffffffffffffffffff16145b611313576040517f08c379a000000000000000000000000000000000000000000000000000000000815260040161130a90612f91565b60405180910390fd5b600360008360ff1660ff1681526020019081526020016000208054806020026020016040519081016040528092919081815260200182805480156113ac57602002820191906000526020600020905b8160009054906101000a900473ffffffffffffffffffffffffffffffffffffffff1673ffffffffffffffffffffffffffffffffffffffff1681526020019060010190808311611362575b50505050509050919050565b6113c061153e565b73ffffffffffffffffffffffffffffffffffffffff166113de61115b565b73ffffffffffffffffffffffffffffffffffffffff1614611434576040517f08c379a000000000000000000000000000000000000000000000000000000000815260040161142b90613031565b60405180910390fd5b600073ffffffffffffffffffffffffffffffffffffffff168173ffffffffffffffffffffffffffffffffffffffff1614156114a4576040517f08c379a000000000000000000000000000000000000000000000000000000000815260040161149b90612f31565b60405180910390fd5b6114ad81612151565b50565b600280546114bd9061334b565b80601f01602080910402602001604051908101604052809291908181526020018280546114e99061334b565b80156115365780601f1061150b57610100808354040283529160200191611536565b820191906000526020600020905b81548152906001019060200180831161151957829003601f168201915b505050505081565b600033905090565b6000600560008360ff1660ff16815260200190815260200160002060003373ffffffffffffffffffffffffffffffffffffffff1673ffffffffffffffffffffffffffffffffffffffff16815260200190815260200160002090506000816000015414156115e8576040517f08c379a00000000000000000000000000000000000000000000000000000000081526004016115df90612ff1565b60405180910390fd5b428160010154101561161d57611617338360405180608001604052806047815260200161388b60479139612215565b5061163c565b60018160020160006101000a81548160ff021916908315150217905550505b50565b6000600560008360ff1660ff16815260200190815260200160002060008473ffffffffffffffffffffffffffffffffffffffff1673ffffffffffffffffffffffffffffffffffffffff16815260200190815260200160002090506000600460008460ff1660ff168152602001908152602001600020905060008160020160009054906101000a900473ffffffffffffffffffffffffffffffffffffffff169050600060328360030160009054906101000a90046fffffffffffffffffffffffffffffffff1661170e9190613233565b6fffffffffffffffffffffffffffffffff16905060008460000154141561176a576040517f08c379a000000000000000000000000000000000000000000000000000000000815260040161176190612ff1565b60405180910390fd5b836001015442116117b0576040517f08c379a00000000000000000000000000000000000000000000000000000000081526004016117a790613071565b60405180910390fd5b8260040160009054906101000a900460ff1615611802576040517f08c379a00000000000000000000000000000000000000000000000000000000081526004016117f990612f71565b60405180910390fd5b8360020160009054906101000a900460ff1615611854576040517f08c379a000000000000000000000000000000000000000000000000000000000815260040161184b90612fd1565b60405180910390fd5b8260030160009054906101000a90046fffffffffffffffffffffffffffffffff166fffffffffffffffffffffffffffffffff168273ffffffffffffffffffffffffffffffffffffffff166370a08231886040518263ffffffff1660e01b81526004016118c09190612cd1565b60206040518083038186803b1580156118d857600080fd5b505afa1580156118ec573d6000803e3d6000fd5b505050506040513d601f19601f8201168201806040525081019061191091906128e7565b1015611951576040517f08c379a000000000000000000000000000000000000000000000000000000000815260040161194890612f11565b60405180910390fd5b8173ffffffffffffffffffffffffffffffffffffffff166323b872dd878560010160009054906101000a900473ffffffffffffffffffffffffffffffffffffffff16848760030160009054906101000a90046fffffffffffffffffffffffffffffffff166fffffffffffffffffffffffffffffffff166119d19190613264565b6040518463ffffffff1660e01b81526004016119ef93929190612d3f565b602060405180830381600087803b158015611a0957600080fd5b505af1158015611a1d573d6000803e3d6000fd5b505050506040513d601f19601f82011682018060405250810190611a4191906127da565b508173ffffffffffffffffffffffffffffffffffffffff166323b872dd87600660009054906101000a900473ffffffffffffffffffffffffffffffffffffffff16846040518463ffffffff1660e01b8152600401611aa193929190612d3f565b602060405180830381600087803b158015611abb57600080fd5b505af1158015611acf573d6000803e3d6000fd5b505050506040513d601f19601f82011682018060405250810190611af391906127da565b508260030160109054906101000a90046fffffffffffffffffffffffffffffffff166fffffffffffffffffffffffffffffffff168460010154611b3691906131dd565b84600101819055507fe8ec14174caffe5f6c0656761b5f6b40d0a196b033f31d89ab9b8a20fbc695a8868460010160009054906101000a900473ffffffffffffffffffffffffffffffffffffffff168560030160009054906101000a90046fffffffffffffffffffffffffffffffff168842604051611bb9959493929190612cec565b60405180910390a1505050505050565b6000600460008360ff1660ff1681526020019081526020016000209050600073ffffffffffffffffffffffffffffffffffffffff168160010160009054906101000a900473ffffffffffffffffffffffffffffffffffffffff1673ffffffffffffffffffffffffffffffffffffffff161415611c7a576040517f08c379a0000000000000000000000000000000000000000000000000000000008152600401611c7190613011565b60405180910390fd5b8060040160009054906101000a900460ff1615611ccc576040517f08c379a0000000000000000000000000000000000000000000000000000000008152600401611cc390612ef1565b60405180910390fd5b6000600460008460ff1660ff16815260200190815260200160002060020160009054906101000a900473ffffffffffffffffffffffffffffffffffffffff169050600060328360030160009054906101000a90046fffffffffffffffffffffffffffffffff16611d3c9190613233565b6fffffffffffffffffffffffffffffffff1690508173ffffffffffffffffffffffffffffffffffffffff166323b872dd338560010160009054906101000a900473ffffffffffffffffffffffffffffffffffffffff16848760030160009054906101000a90046fffffffffffffffffffffffffffffffff166fffffffffffffffffffffffffffffffff16611dd09190613264565b6040518463ffffffff1660e01b8152600401611dee93929190612d3f565b602060405180830381600087803b158015611e0857600080fd5b505af1158015611e1c573d6000803e3d6000fd5b505050506040513d601f19601f82011682018060405250810190611e4091906127da565b508173ffffffffffffffffffffffffffffffffffffffff166323b872dd33600660009054906101000a900473ffffffffffffffffffffffffffffffffffffffff16846040518463ffffffff1660e01b8152600401611ea093929190612d3f565b602060405180830381600087803b158015611eba57600080fd5b505af1158015611ece573d6000803e3d6000fd5b505050506040513d601f19601f82011682018060405250810190611ef291906127da565b50600360008560ff1660ff168152602001908152602001600020339080600181540180825580915050600190039060005260206000200160009091909190916101000a81548173ffffffffffffffffffffffffffffffffffffffff021916908373ffffffffffffffffffffffffffffffffffffffff16021790555060405180608001604052804281526020018460030160109054906101000a90046fffffffffffffffffffffffffffffffff166fffffffffffffffffffffffffffffffff1642611fbc91906131dd565b81526020016000151581526020016001600360008860ff1660ff16815260200190815260200160002080549050611ff39190613264565b815250600560008660ff1660ff16815260200190815260200160002060003373ffffffffffffffffffffffffffffffffffffffff1673ffffffffffffffffffffffffffffffffffffffff168152602001908152602001600020600082015181600001556020820151816001015560408201518160020160006101000a81548160ff021916908315150217905550606082015181600301559050507fb32d0ee4f7c649974c4703f12139c6581d4dfc9df7fcbe3ebc75de386319075b3385426040516120c093929190612d76565b60405180910390a17fe8ec14174caffe5f6c0656761b5f6b40d0a196b033f31d89ab9b8a20fbc695a8338460010160009054906101000a900473ffffffffffffffffffffffffffffffffffffffff168560030160009054906101000a90046fffffffffffffffffffffffffffffffff168742604051612143959493929190612cec565b60405180910390a150505050565b60008060009054906101000a900473ffffffffffffffffffffffffffffffffffffffff169050816000806101000a81548173ffffffffffffffffffffffffffffffffffffffff021916908373ffffffffffffffffffffffffffffffffffffffff1602179055508173ffffffffffffffffffffffffffffffffffffffff168173ffffffffffffffffffffffffffffffffffffffff167f8be0079c531659141344cd1fd0a4f28419497f9722a3daafe3b4186f6b6457e060405160405180910390a35050565b6000600560008460ff1660ff16815260200190815260200160002060008573ffffffffffffffffffffffffffffffffffffffff1673ffffffffffffffffffffffffffffffffffffffff16815260200190815260200160002090506000816000015414156122b7576040517f08c379a00000000000000000000000000000000000000000000000000000000081526004016122ae90612ff1565b60405180910390fd5b6000600360008560ff1660ff1681526020019081526020016000209050600082600301549050600082600184805490506122f19190613264565b81548110612302576123016134dd565b5b9060005260206000200160009054906101000a900473ffffffffffffffffffffffffffffffffffffffff16905080838381548110612343576123426134dd565b5b9060005260206000200160006101000a81548173ffffffffffffffffffffffffffffffffffffffff021916908373ffffffffffffffffffffffffffffffffffffffff16021790555081600560008860ff1660ff16815260200190815260200160002060008373ffffffffffffffffffffffffffffffffffffffff1673ffffffffffffffffffffffffffffffffffffffff16815260200190815260200160002060030181905550828054806123fa576123f96134ae565b5b6001900381819060005260206000200160006101000a81549073ffffffffffffffffffffffffffffffffffffffff02191690559055600560008760ff1660ff16815260200190815260200160002060008873ffffffffffffffffffffffffffffffffffffffff1673ffffffffffffffffffffffffffffffffffffffff16815260200190815260200160002060008082016000905560018201600090556002820160006101000a81549060ff0219169055600382016000905550507fa77c3f0be762e28b92e364efe13b244cfdeb18f5576caaf56d7ad7c6c05fa09e878742886040516124e99493929190612dad565b60405180910390a150505050505050565b8280546125069061334b565b90600052602060002090601f016020900481019282612528576000855561256f565b82601f1061254157805160ff191683800117855561256f565b8280016001018555821561256f579182015b8281111561256e578251825591602001919060010190612553565b5b50905061257c9190612580565b5090565b5b80821115612599576000816000905550600101612581565b5090565b60006125b06125ab84613116565b6130f1565b905080838252602082019050828560408602820111156125d3576125d2613545565b5b60005b8581101561260357816125e988826126d5565b8452602084019350604083019250506001810190506125d6565b5050509392505050565b600061262061261b84613142565b6130f1565b90508281526020810184848401111561263c5761263b61354a565b5b612647848285613309565b509392505050565b60008135905061265e81613817565b92915050565b600082601f8301126126795761267861353b565b5b813561268984826020860161259d565b91505092915050565b6000815190506126a18161382e565b92915050565b600082601f8301126126bc576126bb61353b565b5b81356126cc84826020860161260d565b91505092915050565b6000604082840312156126eb576126ea613540565b5b6126f560406130f1565b905060006127058482850161264f565b60008301525060206127198482850161274f565b60208301525092915050565b60008135905061273481613845565b92915050565b6000815190506127498161385c565b92915050565b60008135905061275e81613873565b92915050565b60006020828403121561277a57612779613554565b5b60006127888482850161264f565b91505092915050565b6000602082840312156127a7576127a6613554565b5b600082013567ffffffffffffffff8111156127c5576127c461354f565b5b6127d184828501612664565b91505092915050565b6000602082840312156127f0576127ef613554565b5b60006127fe84828501612692565b91505092915050565b60006020828403121561281d5761281c613554565b5b600082013567ffffffffffffffff81111561283b5761283a61354f565b5b612847848285016126a7565b91505092915050565b600080600080600060a0868803121561286c5761286b613554565b5b600086013567ffffffffffffffff81111561288a5761288961354f565b5b612896888289016126a7565b95505060206128a78882890161264f565b94505060406128b88882890161264f565b93505060606128c988828901612725565b92505060806128da88828901612725565b9150509295509295909350565b6000602082840312156128fd576128fc613554565b5b600061290b8482850161273a565b91505092915050565b60006020828403121561292a57612929613554565b5b60006129388482850161274f565b91505092915050565b6000806040838503121561295857612957613554565b5b60006129668582860161274f565b92505060206129778582860161264f565b9150509250929050565b600061298d8383612999565b60208301905092915050565b6129a281613298565b82525050565b6129b181613298565b82525050565b60006129c282613198565b6129cc81856131bb565b93506129d783613173565b8060005b83811015612a085781516129ef8882612981565b97506129fa836131ae565b9250506001810190506129db565b5085935050505092915050565b612a1e816132aa565b82525050565b6000612a2f826131a3565b612a3981856131cc565b9350612a49818560208601613318565b612a5281613559565b840191505092915050565b60008154612a6a8161334b565b612a7481866131cc565b94506001821660008114612a8f5760018114612aa157612ad4565b60ff1983168652602086019350612ad4565b612aaa85613183565b60005b83811015612acc57815481890152600182019150602081019050612aad565b808801955050505b50505092915050565b6000612aea600e836131cc565b9150612af58261356a565b602082019050919050565b6000612b0d6035836131cc565b9150612b1882613593565b604082019050919050565b6000612b306026836131cc565b9150612b3b826135e2565b604082019050919050565b6000612b53602b836131cc565b9150612b5e82613631565b604082019050919050565b6000612b76600e836131cc565b9150612b8182613680565b602082019050919050565b6000612b996004836131cc565b9150612ba4826136a9565b602082019050919050565b6000612bbc6016836131cc565b9150612bc7826136d2565b602082019050919050565b6000612bdf6036836131cc565b9150612bea826136fb565b604082019050919050565b6000612c026020836131cc565b9150612c0d8261374a565b602082019050919050565b6000612c256018836131cc565b9150612c3082613773565b602082019050919050565b6000612c486020836131cc565b9150612c538261379c565b602082019050919050565b6000612c6b601e836131cc565b9150612c76826137c5565b602082019050919050565b6000612c8e600b836131cc565b9150612c99826137ee565b602082019050919050565b612cad816132b6565b82525050565b612cbc816132f2565b82525050565b612ccb816132fc565b82525050565b6000602082019050612ce660008301846129a8565b92915050565b600060a082019050612d0160008301886129a8565b612d0e60208301876129a8565b612d1b6040830186612ca4565b612d286060830185612cc2565b612d356080830184612cb3565b9695505050505050565b6000606082019050612d5460008301866129a8565b612d6160208301856129a8565b612d6e6040830184612cb3565b949350505050565b6000606082019050612d8b60008301866129a8565b612d986020830185612cc2565b612da56040830184612cb3565b949350505050565b6000608082019050612dc260008301876129a8565b612dcf6020830186612cc2565b612ddc6040830185612cb3565b8181036060830152612dee8184612a24565b905095945050505050565b60006020820190508181036000830152612e1381846129b7565b905092915050565b60006020820190508181036000830152612e358184612a24565b905092915050565b600060c0820190508181036000830152612e578189612a24565b9050612e6660208301886129a8565b612e7360408301876129a8565b612e806060830186612ca4565b612e8d6080830185612ca4565b612e9a60a0830184612a15565b979650505050505050565b60006080820190508181036000830152612ebf8187612a5d565b9050612ece60208301866129a8565b612edb6040830185612ca4565b612ee86060830184612ca4565b95945050505050565b60006020820190508181036000830152612f0a81612add565b9050919050565b60006020820190508181036000830152612f2a81612b00565b9050919050565b60006020820190508181036000830152612f4a81612b23565b9050919050565b60006020820190508181036000830152612f6a81612b46565b9050919050565b60006020820190508181036000830152612f8a81612b69565b9050919050565b60006020820190508181036000830152612faa81612b8c565b9050919050565b60006020820190508181036000830152612fca81612baf565b9050919050565b60006020820190508181036000830152612fea81612bd2565b9050919050565b6000602082019050818103600083015261300a81612bf5565b9050919050565b6000602082019050818103600083015261302a81612c18565b9050919050565b6000602082019050818103600083015261304a81612c3b565b9050919050565b6000602082019050818103600083015261306a81612c5e565b9050919050565b6000602082019050818103600083015261308a81612c81565b9050919050565b60006080820190506130a66000830187612cb3565b6130b36020830186612cb3565b6130c06040830185612a15565b6130cd6060830184612cb3565b95945050505050565b60006020820190506130eb6000830184612cc2565b92915050565b60006130fb61310c565b9050613107828261337d565b919050565b6000604051905090565b600067ffffffffffffffff8211156131315761313061350c565b5b602082029050602081019050919050565b600067ffffffffffffffff82111561315d5761315c61350c565b5b61316682613559565b9050602081019050919050565b6000819050602082019050919050565b60008190508160005260206000209050919050565b600081519050919050565b600081519050919050565b6000602082019050919050565b600082825260208201905092915050565b600082825260208201905092915050565b60006131e8826132f2565b91506131f3836132f2565b9250827fffffffffffffffffffffffffffffffffffffffffffffffffffffffffffffffff0382111561322857613227613421565b5b828201905092915050565b600061323e826132b6565b9150613249836132b6565b92508261325957613258613450565b5b828204905092915050565b600061326f826132f2565b915061327a836132f2565b92508282101561328d5761328c613421565b5b828203905092915050565b60006132a3826132d2565b9050919050565b60008115159050919050565b60006fffffffffffffffffffffffffffffffff82169050919050565b600073ffffffffffffffffffffffffffffffffffffffff82169050919050565b6000819050919050565b600060ff82169050919050565b82818337600083830152505050565b60005b8381101561333657808201518184015260208101905061331b565b83811115613345576000848401525b50505050565b6000600282049050600182168061336357607f821691505b602082108114156133775761337661347f565b5b50919050565b61338682613559565b810181811067ffffffffffffffff821117156133a5576133a461350c565b5b80604052505050565b60006133b9826132f2565b91507fffffffffffffffffffffffffffffffffffffffffffffffffffffffffffffffff8214156133ec576133eb613421565b5b600182019050919050565b6000613402826132fc565b915060ff82141561341657613415613421565b5b600182019050919050565b7f4e487b7100000000000000000000000000000000000000000000000000000000600052601160045260246000fd5b7f4e487b7100000000000000000000000000000000000000000000000000000000600052601260045260246000fd5b7f4e487b7100000000000000000000000000000000000000000000000000000000600052602260045260246000fd5b7f4e487b7100000000000000000000000000000000000000000000000000000000600052603160045260246000fd5b7f4e487b7100000000000000000000000000000000000000000000000000000000600052603260045260246000fd5b7f4e487b7100000000000000000000000000000000000000000000000000000000600052604160045260246000fd5b600080fd5b600080fd5b600080fd5b600080fd5b600080fd5b600080fd5b6000601f19601f8301169050919050565b7f706c616e2069732068616c746564000000000000000000000000000000000000600082015250565b7f537562736372696265722068617320696e737566666963656e742066756e647360008201527f3b2064656c65746520737562736372697074696f6e0000000000000000000000602082015250565b7f4f776e61626c653a206e6577206f776e657220697320746865207a65726f206160008201527f6464726573730000000000000000000000000000000000000000000000000000602082015250565b7f6672657175656e6379206e6565647320746f206265206772656174657220746860008201527f656e20323420686f757273000000000000000000000000000000000000000000602082015250565b7f506c616e2069732068616c746564000000000000000000000000000000000000600082015250565b7f4875683f00000000000000000000000000000000000000000000000000000000600082015250565b7f616d6f756e74206e6565647320746f206265203e203000000000000000000000600082015250565b7f53756273637269626572206f7074656420746f2073746f70207061796d656e7460008201527f733b2064656c65746520737562736372697074696f6e00000000000000000000602082015250565b7f7468697320737562736372697074696f6e20646f6573206e6f74206578697374600082015250565b7f7468697320706c616e20646f6573206e6f742065786973740000000000000000600082015250565b7f4f776e61626c653a2063616c6c6572206973206e6f7420746865206f776e6572600082015250565b7f616464726573732063616e6e6f74206265206e756c6c20616464726573730000600082015250565b7f6e6f742064756520796574000000000000000000000000000000000000000000600082015250565b61382081613298565b811461382b57600080fd5b50565b613837816132aa565b811461384257600080fd5b50565b61384e816132b6565b811461385957600080fd5b50565b613865816132f2565b811461387057600080fd5b50565b61387c816132fc565b811461388757600080fd5b5056fe596f752063616e6e6f742073746f7020737562736372697074696f6e2061667465722066756e647320617265206f7765642c20737562736372697074696f6e2064656c657465644f776e65722f4f70657261746f722044656c6574656420537562736372697074696f6ea2646970667358221220f9874bcd6b2b3b39b7adf20ac26bec844507da7d27a24a836076d966ee80c02c64736f6c63430008060033",
  "immutableReferences": {},
  "source": "// SPDX-License-Identifier: Business Source License 1.1\npragma solidity ^0.8.6;\n\nimport \"@openzeppelin/contracts/token/ERC20/IERC20.sol\";\nimport \"@openzeppelin/contracts/access/Ownable.sol\";\n\ncontract SubscribeeV1 is Ownable{\n\n  uint8 public nextPlanId;\n  string public title;\n  string public image;\n\n  mapping(uint8 => address[]) private subscriberLists;\n  mapping(uint8 => Plan) public plans;\n  mapping(uint8 => mapping(address => Subscription)) public subscriptions;\n\n  address public beehive;\n  address public operator;\n\n  // Structs\n\n  struct Plan {\n    string title;\n    address merchant;\n    address token;\n    uint128 amount;\n    uint128 frequency;\n    bool halted;\n  }\n\n  struct Subscription {\n    uint start;\n    uint nextPayment;\n    bool stopped;\n    uint userId;\n  }\n\n  struct UserObject {\n    address subscriber;\n    uint8 planId;\n  }\n\n\n  // Events\n\n\n  event PlanCreated(\n    string title,\n    address token,\n    uint128 amount,\n    uint128 frequency\n  );\n\n  event SubscriptionCreated(\n    address subscriber,\n    uint8 planId,\n    uint date\n  );\n\n  event SubscriptionDeleted(\n    address subscriber,\n    uint8 planId,\n    uint date,\n    string reason\n  );\n\n  event PaymentSent(\n    address from,\n    address to,\n    uint128 amount,\n    uint8 planId,\n    uint date\n  );\n\n  // Modifiers\n\n  modifier onlyOperatorOrOwner() {\n    require(msg.sender == operator || msg.sender == owner(), 'Huh?');\n    _;\n  }\n\n  // Constructor\n\n  constructor(address beehiveAddress, address operatorAddress, string memory newTitle, string memory newImage) {\n    beehive = beehiveAddress;\n    operator = operatorAddress;\n    title = newTitle;\n    image = newImage;\n  }\n\n\n  // External Functions\n\n  function subscribe(uint8 planId) external {\n    _safeSubscribe(planId);\n  }\n\n  function stopPay(uint8 planId) external {\n    _stop(planId);\n  }\n\n  function selfDelete(uint8 planId) external {\n    _delete(msg.sender, planId, 'User Deleting Subscription');\n  }\n\n  function selfPay(uint8 planId) external {\n    _safePay(msg.sender, planId);\n  }\n\n  function setOperator(address newOperator) external onlyOwner{\n    operator = newOperator;\n  }\n\n  function setTitle(string memory newTitle) external onlyOwner{\n    title = newTitle;\n  }\n\n  function setImage(string memory newImage) external onlyOwner{\n    image = newImage;\n  }\n\n  function togglePlanHalt(uint8 planId) external onlyOwner{\n    if(plans[planId].halted == true){\n      plans[planId].halted = false;\n    }else{\n      plans[planId].halted = true;\n    }\n  }\n\n  function createPlan(string memory planTitle, address merchant, address token, uint128 amount, uint128 frequency) external onlyOwner{\n    require(token != address(0), 'address cannot be null address');\n    require(amount > 0, 'amount needs to be > 0');\n    require(frequency > 86400, 'frequency needs to be greater then 24 hours');\n\n    plans[nextPlanId] = Plan(\n      planTitle,\n      merchant,\n      token,\n      amount,\n      frequency,\n      false\n    );\n\n    emit PlanCreated(title, token, amount, frequency);\n    nextPlanId++;\n  }\n\n  function changePlanMerchant(uint8 planId, address merchant) external onlyOwner{\n    Plan storage plan = plans[planId];\n    plan.merchant = merchant;\n  }\n\n  function getSubscriberArray(uint8 planId) external view onlyOperatorOrOwner returns(address[] memory){\n    return subscriberLists[planId];\n  }\n\n  function multiPay(UserObject[] memory users) external onlyOperatorOrOwner{\n    for(uint i = 0; i < users.length; i++){\n      address subscriber = users[i].subscriber;\n      uint8 planId = users[i].planId;\n      _safePay(subscriber, planId);\n    }\n  }\n\n  function multiDelete(UserObject[] memory users) external onlyOperatorOrOwner{\n    for(uint i = 0; i < users.length; i++){\n      address subscriber = users[i].subscriber;\n      uint8 planId = users[i].planId;\n      _delete(subscriber, planId, 'Owner/Operator Deleted Subscription');\n    }\n  }\n\n  // Private Functions\n\n  function _safePay(address subscriber, uint8 planId) private {\n    // call from storage\n    Subscription storage subscription = subscriptions[planId][subscriber];\n    Plan storage plan = plans[planId];\n    IERC20 token = IERC20(plan.token);\n    uint pollenFee = plan.amount / 50;\n\n    // conditionals\n    require(\n       subscription.start != 0,\n      'this subscription does not exist'\n    );\n\n    require(\n      block.timestamp > subscription.nextPayment,\n      'not due yet'\n    );\n\n    require(\n      !plan.halted,\n      'Plan is halted'\n    );\n\n    require(\n      !subscription.stopped,\n      'Subscriber opted to stop payments; delete subscription'\n    );\n\n    require(\n      token.balanceOf(subscriber) >= plan.amount,\n      'Subscriber has insufficent funds; delete subscription'\n    );\n\n    // send to Contract Owner & BeeHive\n    token.transferFrom(subscriber, plan.merchant, plan.amount - pollenFee);\n    token.transferFrom(subscriber, beehive, pollenFee);\n\n    // set next payment\n    subscription.nextPayment = subscription.nextPayment + plan.frequency;\n\n    // emit event\n      emit PaymentSent(\n        subscriber,\n        plan.merchant,\n        plan.amount,\n        planId,\n        block.timestamp\n      );\n    }\n\n  function _safeSubscribe(uint8 planId) private {\n    // calls plan from storage and check if it exists\n    Plan storage plan = plans[planId];\n    require(plan.merchant != address(0), 'this plan does not exist');\n    require(!plan.halted, 'plan is halted');\n\n    // set token and fee\n    IERC20 token = IERC20(plans[planId].token);\n    uint pollenFee = plan.amount / 50;\n\n    // send to Contract Owner & BeeHive\n    token.transferFrom(msg.sender, plan.merchant, plan.amount - pollenFee);\n    token.transferFrom(msg.sender, beehive, pollenFee);\n\n    subscriberLists[planId].push(msg.sender);\n\n    // add new subscription\n    subscriptions[planId][msg.sender] = Subscription(\n      block.timestamp,\n      block.timestamp + plan.frequency,\n      false,\n      subscriberLists[planId].length - 1\n    );\n\n    // emit Subscription and Payment events\n    emit SubscriptionCreated(address(msg.sender), planId, block.timestamp);\n\n    emit PaymentSent(\n      msg.sender,\n      plan.merchant,\n      plan.amount,\n      planId,\n      block.timestamp\n    );\n\n  }\n\n  function _delete(address user, uint8 planId, string memory reason) private {\n    // Grab user subscription data & check if it exists\n    Subscription storage subscription = subscriptions[planId][user];\n    require(subscription.start != 0, 'this subscription does not exist');\n\n    // delete from array\n    address[] storage subscriberArray = subscriberLists[planId];\n    uint userCount = subscription.userId;\n    address addressToChange  = subscriberArray[subscriberArray.length - 1];\n    subscriberArray[userCount] = addressToChange;\n    subscriptions[planId][addressToChange].userId = userCount;\n    subscriberArray.pop();\n\n    // delete from mapping\n    delete subscriptions[planId][user];\n\n    emit SubscriptionDeleted(user, planId, block.timestamp, reason);\n  }\n\n  function _stop(uint8 planId) private {\n    // Grab user subscription data & check if it exists\n    Subscription storage subscription = subscriptions[planId][msg.sender];\n    require(subscription.start != 0, 'this subscription does not exist');\n\n    // Check if user owes funds and is trying to stop, will delete\n    if(subscription.nextPayment < block.timestamp){\n      _delete(msg.sender, planId, 'You cannot stop subscription after funds are owed, subscription deleted');\n      return;\n    }\n\n    // If user does not have to pay yet, stop subscription\n    subscription.stopped = true;\n  }\n}\n",
  "sourcePath": "/home/lavandor9/contracts/subscribee-official/contracts/SubscribeeV1.sol",
  "compiler": {
    "name": "solc",
    "version": "0.8.6+commit.11564f7e.Emscripten.clang"
  },
  "schemaVersion": "3.4.1",
  "updatedAt": "2022-04-26T00:01:54.581Z",
  "devdoc": {
    "kind": "dev",
    "methods": {
      "owner()": {
        "details": "Returns the address of the current owner."
      },
      "renounceOwnership()": {
        "details": "Leaves the contract without owner. It will not be possible to call `onlyOwner` functions anymore. Can only be called by the current owner. NOTE: Renouncing ownership will leave the contract without an owner, thereby removing any functionality that is only available to the owner."
      },
      "transferOwnership(address)": {
        "details": "Transfers ownership of the contract to a new account (`newOwner`). Can only be called by the current owner."
      }
    },
    "version": 1
  },
  "userdoc": {
    "kind": "user",
    "methods": {},
    "version": 1
  }
}