{
  "contractName": "SubscribeeV1",
  "abi": [
    {
      "inputs": [
        {
          "internalType": "address",
          "name": "beehiveAddress",
          "type": "address"
        },
        {
          "internalType": "address",
          "name": "operatorAddress",
          "type": "address"
        },
        {
          "internalType": "string",
          "name": "newTitle",
          "type": "string"
        },
        {
          "internalType": "string",
          "name": "newImage",
          "type": "string"
        }
      ],
      "stateMutability": "nonpayable",
      "type": "constructor"
    },
    {
      "anonymous": false,
      "inputs": [
        {
          "indexed": true,
          "internalType": "address",
          "name": "previousOwner",
          "type": "address"
        },
        {
          "indexed": true,
          "internalType": "address",
          "name": "newOwner",
          "type": "address"
        }
      ],
      "name": "OwnershipTransferred",
      "type": "event"
    },
    {
      "anonymous": false,
      "inputs": [
        {
          "indexed": false,
          "internalType": "address",
          "name": "from",
          "type": "address"
        },
        {
          "indexed": false,
          "internalType": "uint128",
          "name": "amount",
          "type": "uint128"
        },
        {
          "indexed": false,
          "internalType": "uint8",
          "name": "planId",
          "type": "uint8"
        },
        {
          "indexed": false,
          "internalType": "uint256",
          "name": "date",
          "type": "uint256"
        }
      ],
      "name": "PaymentSent",
      "type": "event"
    },
    {
      "anonymous": false,
      "inputs": [
        {
          "indexed": false,
          "internalType": "string",
          "name": "title",
          "type": "string"
        },
        {
          "indexed": false,
          "internalType": "address",
          "name": "token",
          "type": "address"
        },
        {
          "indexed": false,
          "internalType": "uint128",
          "name": "amount",
          "type": "uint128"
        },
        {
          "indexed": false,
          "internalType": "uint128",
          "name": "frequency",
          "type": "uint128"
        }
      ],
      "name": "PlanCreated",
      "type": "event"
    },
    {
      "anonymous": false,
      "inputs": [
        {
          "indexed": false,
          "internalType": "address",
          "name": "subscriber",
          "type": "address"
        },
        {
          "indexed": false,
          "internalType": "uint8",
          "name": "planId",
          "type": "uint8"
        },
        {
          "indexed": false,
          "internalType": "uint256",
          "name": "date",
          "type": "uint256"
        }
      ],
      "name": "SubscriptionCreated",
      "type": "event"
    },
    {
      "anonymous": false,
      "inputs": [
        {
          "indexed": false,
          "internalType": "address",
          "name": "subscriber",
          "type": "address"
        },
        {
          "indexed": false,
          "internalType": "uint8",
          "name": "planId",
          "type": "uint8"
        },
        {
          "indexed": false,
          "internalType": "uint256",
          "name": "date",
          "type": "uint256"
        },
        {
          "indexed": false,
          "internalType": "string",
          "name": "reason",
          "type": "string"
        }
      ],
      "name": "SubscriptionDeleted",
      "type": "event"
    },
    {
      "inputs": [],
      "name": "beehive",
      "outputs": [
        {
          "internalType": "address",
          "name": "",
          "type": "address"
        }
      ],
      "stateMutability": "view",
      "type": "function"
    },
    {
      "inputs": [],
      "name": "image",
      "outputs": [
        {
          "internalType": "string",
          "name": "",
          "type": "string"
        }
      ],
      "stateMutability": "view",
      "type": "function"
    },
    {
      "inputs": [],
      "name": "nextPlanId",
      "outputs": [
        {
          "internalType": "uint8",
          "name": "",
          "type": "uint8"
        }
      ],
      "stateMutability": "view",
      "type": "function"
    },
    {
      "inputs": [],
      "name": "operator",
      "outputs": [
        {
          "internalType": "address",
          "name": "",
          "type": "address"
        }
      ],
      "stateMutability": "view",
      "type": "function"
    },
    {
      "inputs": [],
      "name": "owner",
      "outputs": [
        {
          "internalType": "address",
          "name": "",
          "type": "address"
        }
      ],
      "stateMutability": "view",
      "type": "function"
    },
    {
      "inputs": [
        {
          "internalType": "uint8",
          "name": "",
          "type": "uint8"
        }
      ],
      "name": "plans",
      "outputs": [
        {
          "internalType": "string",
          "name": "title",
          "type": "string"
        },
        {
          "internalType": "address",
          "name": "token",
          "type": "address"
        },
        {
          "internalType": "uint128",
          "name": "amount",
          "type": "uint128"
        },
        {
          "internalType": "uint32",
          "name": "frequency",
          "type": "uint32"
        },
        {
          "internalType": "bool",
          "name": "halted",
          "type": "bool"
        }
      ],
      "stateMutability": "view",
      "type": "function"
    },
    {
      "inputs": [],
      "name": "renounceOwnership",
      "outputs": [],
      "stateMutability": "nonpayable",
      "type": "function"
    },
    {
      "inputs": [
        {
          "internalType": "uint8",
          "name": "",
          "type": "uint8"
        },
        {
          "internalType": "address",
          "name": "",
          "type": "address"
        }
      ],
      "name": "subscriptions",
      "outputs": [
        {
          "internalType": "uint256",
          "name": "start",
          "type": "uint256"
        },
        {
          "internalType": "uint256",
          "name": "nextPayment",
          "type": "uint256"
        },
        {
          "internalType": "bool",
          "name": "stopped",
          "type": "bool"
        },
        {
          "internalType": "uint256",
          "name": "userId",
          "type": "uint256"
        }
      ],
      "stateMutability": "view",
      "type": "function"
    },
    {
      "inputs": [],
      "name": "title",
      "outputs": [
        {
          "internalType": "string",
          "name": "",
          "type": "string"
        }
      ],
      "stateMutability": "view",
      "type": "function"
    },
    {
      "inputs": [
        {
          "internalType": "address",
          "name": "newOwner",
          "type": "address"
        }
      ],
      "name": "transferOwnership",
      "outputs": [],
      "stateMutability": "nonpayable",
      "type": "function"
    },
    {
      "inputs": [
        {
          "internalType": "uint8",
          "name": "planId",
          "type": "uint8"
        }
      ],
      "name": "subscribe",
      "outputs": [],
      "stateMutability": "nonpayable",
      "type": "function"
    },
    {
      "inputs": [
        {
          "internalType": "uint8",
          "name": "planId",
          "type": "uint8"
        }
      ],
      "name": "stopPay",
      "outputs": [],
      "stateMutability": "nonpayable",
      "type": "function"
    },
    {
      "inputs": [
        {
          "internalType": "uint8",
          "name": "planId",
          "type": "uint8"
        }
      ],
      "name": "selfDelete",
      "outputs": [],
      "stateMutability": "nonpayable",
      "type": "function"
    },
    {
      "inputs": [
        {
          "internalType": "uint8",
          "name": "planId",
          "type": "uint8"
        }
      ],
      "name": "selfPay",
      "outputs": [],
      "stateMutability": "nonpayable",
      "type": "function"
    },
    {
      "inputs": [
        {
          "internalType": "address",
          "name": "newOperator",
          "type": "address"
        }
      ],
      "name": "setOperator",
      "outputs": [],
      "stateMutability": "nonpayable",
      "type": "function"
    },
    {
      "inputs": [
        {
          "internalType": "string",
          "name": "newTitle",
          "type": "string"
        }
      ],
      "name": "setTitle",
      "outputs": [],
      "stateMutability": "nonpayable",
      "type": "function"
    },
    {
      "inputs": [
        {
          "internalType": "string",
          "name": "newImage",
          "type": "string"
        }
      ],
      "name": "setImage",
      "outputs": [],
      "stateMutability": "nonpayable",
      "type": "function"
    },
    {
      "inputs": [
        {
          "internalType": "uint8",
          "name": "planId",
          "type": "uint8"
        }
      ],
      "name": "togglePlanHalt",
      "outputs": [],
      "stateMutability": "nonpayable",
      "type": "function"
    },
    {
      "inputs": [
        {
          "internalType": "string",
          "name": "planTitle",
          "type": "string"
        },
        {
          "internalType": "address",
          "name": "token",
          "type": "address"
        },
        {
          "internalType": "uint128",
          "name": "amount",
          "type": "uint128"
        },
        {
          "internalType": "uint32",
          "name": "frequency",
          "type": "uint32"
        }
      ],
      "name": "createPlan",
      "outputs": [],
      "stateMutability": "nonpayable",
      "type": "function"
    },
    {
      "inputs": [
        {
          "internalType": "uint8",
          "name": "planId",
          "type": "uint8"
        }
      ],
      "name": "getSubscriberArray",
      "outputs": [
        {
          "internalType": "address[]",
          "name": "",
          "type": "address[]"
        }
      ],
      "stateMutability": "view",
      "type": "function"
    },
    {
      "inputs": [
        {
          "components": [
            {
              "internalType": "address",
              "name": "subscriber",
              "type": "address"
            },
            {
              "internalType": "uint8",
              "name": "planId",
              "type": "uint8"
            }
          ],
          "internalType": "struct SubscribeeV1.UserObject[]",
          "name": "users",
          "type": "tuple[]"
        }
      ],
      "name": "multiPay",
      "outputs": [],
      "stateMutability": "nonpayable",
      "type": "function"
    },
    {
      "inputs": [
        {
          "components": [
            {
              "internalType": "address",
              "name": "subscriber",
              "type": "address"
            },
            {
              "internalType": "uint8",
              "name": "planId",
              "type": "uint8"
            }
          ],
          "internalType": "struct SubscribeeV1.UserObject[]",
          "name": "users",
          "type": "tuple[]"
        }
      ],
      "name": "multiDelete",
      "outputs": [],
      "stateMutability": "nonpayable",
      "type": "function"
    }
  ],
  "bytecode": "0x60806040523480156200001157600080fd5b5060405162003d8338038062003d8383398181016040528101906200003791906200049a565b620000576200004b6200011c60201b60201c565b6200012460201b60201c565b6001808190555083600860006101000a81548173ffffffffffffffffffffffffffffffffffffffff021916908373ffffffffffffffffffffffffffffffffffffffff16021790555082600960006101000a81548173ffffffffffffffffffffffffffffffffffffffff021916908373ffffffffffffffffffffffffffffffffffffffff1602179055508160039080519060200190620000f8929190620001e8565b50806004908051906020019062000111929190620001e8565b5050505050620005af565b600033905090565b60008060009054906101000a900473ffffffffffffffffffffffffffffffffffffffff169050816000806101000a81548173ffffffffffffffffffffffffffffffffffffffff021916908373ffffffffffffffffffffffffffffffffffffffff1602179055508173ffffffffffffffffffffffffffffffffffffffff168173ffffffffffffffffffffffffffffffffffffffff167f8be0079c531659141344cd1fd0a4f28419497f9722a3daafe3b4186f6b6457e060405160405180910390a35050565b828054620001f69062000579565b90600052602060002090601f0160209004810192826200021a576000855562000266565b82601f106200023557805160ff191683800117855562000266565b8280016001018555821562000266579182015b828111156200026557825182559160200191906001019062000248565b5b50905062000275919062000279565b5090565b5b80821115620002945760008160009055506001016200027a565b5090565b6000604051905090565b600080fd5b600080fd5b600073ffffffffffffffffffffffffffffffffffffffff82169050919050565b6000620002d982620002ac565b9050919050565b620002eb81620002cc565b8114620002f757600080fd5b50565b6000815190506200030b81620002e0565b92915050565b600080fd5b600080fd5b6000601f19601f8301169050919050565b7f4e487b7100000000000000000000000000000000000000000000000000000000600052604160045260246000fd5b62000366826200031b565b810181811067ffffffffffffffff821117156200038857620003876200032c565b5b80604052505050565b60006200039d62000298565b9050620003ab82826200035b565b919050565b600067ffffffffffffffff821115620003ce57620003cd6200032c565b5b620003d9826200031b565b9050602081019050919050565b60005b8381101562000406578082015181840152602081019050620003e9565b8381111562000416576000848401525b50505050565b6000620004336200042d84620003b0565b62000391565b90508281526020810184848401111562000452576200045162000316565b5b6200045f848285620003e6565b509392505050565b600082601f8301126200047f576200047e62000311565b5b8151620004918482602086016200041c565b91505092915050565b60008060008060808587031215620004b757620004b6620002a2565b5b6000620004c787828801620002fa565b9450506020620004da87828801620002fa565b935050604085015167ffffffffffffffff811115620004fe57620004fd620002a7565b5b6200050c8782880162000467565b925050606085015167ffffffffffffffff81111562000530576200052f620002a7565b5b6200053e8782880162000467565b91505092959194509250565b7f4e487b7100000000000000000000000000000000000000000000000000000000600052602260045260246000fd5b600060028204905060018216806200059257607f821691505b60208210811415620005a957620005a86200054a565b5b50919050565b6137c480620005bf6000396000f3fe608060405234801561001057600080fd5b50600436106101425760003560e01c8063715018a6116100b857806389c612b31161007c57806389c612b31461032c5780638da5cb5b14610348578063b3ab15fb14610366578063e9cb1faf14610382578063f2fde38b146103b2578063f3ccaac0146103ce57610142565b8063715018a6146102b257806371adb5e6146102bc57806372910be0146102d85780637573f9f5146102f45780637a9978821461031057610142565b8063566c93ab1161010a578063566c93ab146101d7578063570ca735146101f35780635f20b72d146102115780635f8d26b21461022d57806360a31a881461024b5780636be971481461027f57610142565b806316e5fb5b146101475780633395df251461016357806342bd94b01461018157806349c7e6391461019d5780634a79d50c146101b9575b600080fd5b610161600480360381019061015c91906123c9565b6103ec565b005b61016b6103f8565b6040516101789190612437565b60405180910390f35b61019b600480360381019061019691906123c9565b61041e565b005b6101b760048036038101906101b291906123c9565b61042b565b005b6101c1610437565b6040516101ce91906124eb565b60405180910390f35b6101f160048036038101906101ec91906126d6565b6104c5565b005b6101fb61065c565b6040516102089190612437565b60405180910390f35b61022b600480360381019061022691906123c9565b610682565b005b6102356107a0565b604051610242919061272e565b60405180910390f35b610265600480360381019061026091906123c9565b6107b3565b6040516102769594939291906127ae565b60405180910390f35b61029960048036038101906102949190612808565b6108ca565b6040516102a99493929190612861565b60405180910390f35b6102ba610914565b005b6102d660048036038101906102d1919061295b565b61099c565b005b6102f260048036038101906102ed919061295b565b610a32565b005b61030e600480360381019061030991906126d6565b610ac8565b005b61032a600480360381019061032591906123c9565b610c23565b005b610346600480360381019061034191906129fc565b610c66565b005b610350610fdc565b60405161035d9190612437565b60405180910390f35b610380600480360381019061037b9190612a7f565b611005565b005b61039c600480360381019061039791906123c9565b6110c5565b6040516103a99190612b6a565b60405180910390f35b6103cc60048036038101906103c79190612a7f565b611239565b005b6103d6611331565b6040516103e391906124eb565b60405180910390f35b6103f5816113bf565b50565b600860009054906101000a900473ffffffffffffffffffffffffffffffffffffffff1681565b61042833826114b8565b50565b610434816119fd565b50565b6003805461044490612bbb565b80601f016020809104026020016040519081016040528092919081815260200182805461047090612bbb565b80156104bd5780601f10610492576101008083540402835291602001916104bd565b820191906000526020600020905b8154815290600101906020018083116104a057829003601f168201915b505050505081565b600960009054906101000a900473ffffffffffffffffffffffffffffffffffffffff1673ffffffffffffffffffffffffffffffffffffffff163373ffffffffffffffffffffffffffffffffffffffff1614806105535750610524610fdc565b73ffffffffffffffffffffffffffffffffffffffff163373ffffffffffffffffffffffffffffffffffffffff16145b610592576040517f08c379a000000000000000000000000000000000000000000000000000000000815260040161058990612c39565b60405180910390fd5b600260015414156105d8576040517f08c379a00000000000000000000000000000000000000000000000000000000081526004016105cf90612ca5565b60405180910390fd5b600260018190555060005b815181101561065157600082828151811061060157610600612cc5565b5b6020026020010151600001519050600083838151811061062457610623612cc5565b5b602002602001015160200151905061063c82826114b8565b5050808061064990612d23565b9150506105e3565b506001808190555050565b600960009054906101000a900473ffffffffffffffffffffffffffffffffffffffff1681565b61068a611f28565b73ffffffffffffffffffffffffffffffffffffffff166106a8610fdc565b73ffffffffffffffffffffffffffffffffffffffff16146106fe576040517f08c379a00000000000000000000000000000000000000000000000000000000081526004016106f590612db8565b60405180910390fd5b600660008260ff1660ff16815260200190815260200160002060020160149054906101000a900460ff1615610767576000600660008360ff1660ff16815260200190815260200160002060020160146101000a81548160ff02191690831515021790555061079d565b6001600660008360ff1660ff16815260200190815260200160002060020160146101000a81548160ff0219169083151502179055505b50565b600260009054906101000a900460ff1681565b60066020528060005260406000206000915090508060000180546107d690612bbb565b80601f016020809104026020016040519081016040528092919081815260200182805461080290612bbb565b801561084f5780601f106108245761010080835404028352916020019161084f565b820191906000526020600020905b81548152906001019060200180831161083257829003601f168201915b5050505050908060010160009054906101000a900473ffffffffffffffffffffffffffffffffffffffff16908060020160009054906101000a90046fffffffffffffffffffffffffffffffff16908060020160109054906101000a900463ffffffff16908060020160149054906101000a900460ff16905085565b6007602052816000526040600020602052806000526040600020600091509150508060000154908060010154908060020160009054906101000a900460ff16908060030154905084565b61091c611f28565b73ffffffffffffffffffffffffffffffffffffffff1661093a610fdc565b73ffffffffffffffffffffffffffffffffffffffff1614610990576040517f08c379a000000000000000000000000000000000000000000000000000000000815260040161098790612db8565b60405180910390fd5b61099a6000611f30565b565b6109a4611f28565b73ffffffffffffffffffffffffffffffffffffffff166109c2610fdc565b73ffffffffffffffffffffffffffffffffffffffff1614610a18576040517f08c379a0000000000000000000000000000000000000000000000000000000008152600401610a0f90612db8565b60405180910390fd5b8060049080519060200190610a2e9291906122d9565b5050565b610a3a611f28565b73ffffffffffffffffffffffffffffffffffffffff16610a58610fdc565b73ffffffffffffffffffffffffffffffffffffffff1614610aae576040517f08c379a0000000000000000000000000000000000000000000000000000000008152600401610aa590612db8565b60405180910390fd5b8060039080519060200190610ac49291906122d9565b5050565b600960009054906101000a900473ffffffffffffffffffffffffffffffffffffffff1673ffffffffffffffffffffffffffffffffffffffff163373ffffffffffffffffffffffffffffffffffffffff161480610b565750610b27610fdc565b73ffffffffffffffffffffffffffffffffffffffff163373ffffffffffffffffffffffffffffffffffffffff16145b610b95576040517f08c379a0000000000000000000000000000000000000000000000000000000008152600401610b8c90612c39565b60405180910390fd5b60005b8151811015610c1f576000828281518110610bb657610bb5612cc5565b5b60200260200101516000015190506000838381518110610bd957610bd8612cc5565b5b6020026020010151602001519050610c0a828260405180606001604052806023815260200161376c60239139611ff4565b50508080610c1790612d23565b915050610b98565b5050565b610c6333826040518060400160405280601a81526020017f557365722044656c6574696e6720537562736372697074696f6e000000000000815250611ff4565b50565b610c6e611f28565b73ffffffffffffffffffffffffffffffffffffffff16610c8c610fdc565b73ffffffffffffffffffffffffffffffffffffffff1614610ce2576040517f08c379a0000000000000000000000000000000000000000000000000000000008152600401610cd990612db8565b60405180910390fd5b600073ffffffffffffffffffffffffffffffffffffffff168373ffffffffffffffffffffffffffffffffffffffff161415610d52576040517f08c379a0000000000000000000000000000000000000000000000000000000008152600401610d4990612e24565b60405180910390fd5b6000826fffffffffffffffffffffffffffffffff1611610da7576040517f08c379a0000000000000000000000000000000000000000000000000000000008152600401610d9e90612e90565b60405180910390fd5b620151808163ffffffff161015610df3576040517f08c379a0000000000000000000000000000000000000000000000000000000008152600401610dea90612f22565b60405180910390fd5b6040518060a001604052808581526020018473ffffffffffffffffffffffffffffffffffffffff168152602001836fffffffffffffffffffffffffffffffff1681526020018263ffffffff1681526020016000151581525060066000600260009054906101000a900460ff1660ff1660ff1681526020019081526020016000206000820151816000019080519060200190610e8f9291906122d9565b5060208201518160010160006101000a81548173ffffffffffffffffffffffffffffffffffffffff021916908373ffffffffffffffffffffffffffffffffffffffff16021790555060408201518160020160006101000a8154816fffffffffffffffffffffffffffffffff02191690836fffffffffffffffffffffffffffffffff16021790555060608201518160020160106101000a81548163ffffffff021916908363ffffffff16021790555060808201518160020160146101000a81548160ff0219169083151502179055509050507f2b2ac0164b2239021e55bc9bad56542210dd43092952070c7ef40280d609ce806003848484604051610f969493929190613012565b60405180910390a16002600081819054906101000a900460ff1680929190610fbd9061305e565b91906101000a81548160ff021916908360ff1602179055505050505050565b60008060009054906101000a900473ffffffffffffffffffffffffffffffffffffffff16905090565b61100d611f28565b73ffffffffffffffffffffffffffffffffffffffff1661102b610fdc565b73ffffffffffffffffffffffffffffffffffffffff1614611081576040517f08c379a000000000000000000000000000000000000000000000000000000000815260040161107890612db8565b60405180910390fd5b80600960006101000a81548173ffffffffffffffffffffffffffffffffffffffff021916908373ffffffffffffffffffffffffffffffffffffffff16021790555050565b6060600960009054906101000a900473ffffffffffffffffffffffffffffffffffffffff1673ffffffffffffffffffffffffffffffffffffffff163373ffffffffffffffffffffffffffffffffffffffff1614806111555750611126610fdc565b73ffffffffffffffffffffffffffffffffffffffff163373ffffffffffffffffffffffffffffffffffffffff16145b611194576040517f08c379a000000000000000000000000000000000000000000000000000000000815260040161118b90612c39565b60405180910390fd5b600560008360ff1660ff16815260200190815260200160002080548060200260200160405190810160405280929190818152602001828054801561122d57602002820191906000526020600020905b8160009054906101000a900473ffffffffffffffffffffffffffffffffffffffff1673ffffffffffffffffffffffffffffffffffffffff16815260200190600101908083116111e3575b50505050509050919050565b611241611f28565b73ffffffffffffffffffffffffffffffffffffffff1661125f610fdc565b73ffffffffffffffffffffffffffffffffffffffff16146112b5576040517f08c379a00000000000000000000000000000000000000000000000000000000081526004016112ac90612db8565b60405180910390fd5b600073ffffffffffffffffffffffffffffffffffffffff168173ffffffffffffffffffffffffffffffffffffffff161415611325576040517f08c379a000000000000000000000000000000000000000000000000000000000815260040161131c906130fa565b60405180910390fd5b61132e81611f30565b50565b6004805461133e90612bbb565b80601f016020809104026020016040519081016040528092919081815260200182805461136a90612bbb565b80156113b75780601f1061138c576101008083540402835291602001916113b7565b820191906000526020600020905b81548152906001019060200180831161139a57829003601f168201915b505050505081565b6000600760008360ff1660ff16815260200190815260200160002060003373ffffffffffffffffffffffffffffffffffffffff1673ffffffffffffffffffffffffffffffffffffffff1681526020019081526020016000209050600081600001541415611461576040517f08c379a000000000000000000000000000000000000000000000000000000000815260040161145890613166565b60405180910390fd5b428160010154101561149657611490338360405180608001604052806047815260200161372560479139611ff4565b506114b5565b60018160020160006101000a81548160ff021916908315150217905550505b50565b6000600760008360ff1660ff16815260200190815260200160002060008473ffffffffffffffffffffffffffffffffffffffff1673ffffffffffffffffffffffffffffffffffffffff16815260200190815260200160002090506000600660008460ff1660ff168152602001908152602001600020905060008160010160009054906101000a900473ffffffffffffffffffffffffffffffffffffffff169050600060328360020160009054906101000a90046fffffffffffffffffffffffffffffffff1661158791906131b5565b6fffffffffffffffffffffffffffffffff1690506000818460020160009054906101000a90046fffffffffffffffffffffffffffffffff166fffffffffffffffffffffffffffffffff166115db91906131e6565b9050600085600001541415611625576040517f08c379a000000000000000000000000000000000000000000000000000000000815260040161161c90613166565b60405180910390fd5b8460010154421161166b576040517f08c379a000000000000000000000000000000000000000000000000000000000815260040161166290613266565b60405180910390fd5b8360020160149054906101000a900460ff16156116bd576040517f08c379a00000000000000000000000000000000000000000000000000000000081526004016116b4906132d2565b60405180910390fd5b8460020160009054906101000a900460ff161561170f576040517f08c379a000000000000000000000000000000000000000000000000000000000815260040161170690613364565b60405180910390fd5b8360020160009054906101000a90046fffffffffffffffffffffffffffffffff166fffffffffffffffffffffffffffffffff168373ffffffffffffffffffffffffffffffffffffffff166370a08231896040518263ffffffff1660e01b815260040161177b9190612437565b60206040518083038186803b15801561179357600080fd5b505afa1580156117a7573d6000803e3d6000fd5b505050506040513d601f19601f820116820180604052508101906117cb91906133b0565b101561180c576040517f08c379a00000000000000000000000000000000000000000000000000000000081526004016118039061344f565b60405180910390fd5b8273ffffffffffffffffffffffffffffffffffffffff166323b872dd88611831610fdc565b846040518463ffffffff1660e01b81526004016118509392919061346f565b602060405180830381600087803b15801561186a57600080fd5b505af115801561187e573d6000803e3d6000fd5b505050506040513d601f19601f820116820180604052508101906118a291906134d2565b6118ab57600080fd5b8273ffffffffffffffffffffffffffffffffffffffff166323b872dd88600860009054906101000a900473ffffffffffffffffffffffffffffffffffffffff16856040518463ffffffff1660e01b815260040161190a9392919061346f565b602060405180830381600087803b15801561192457600080fd5b505af1158015611938573d6000803e3d6000fd5b505050506040513d601f19601f8201168201806040525081019061195c91906134d2565b61196557600080fd5b8360020160109054906101000a900463ffffffff1663ffffffff16856001015461198f91906134ff565b85600101819055507fd9c2a3b5876793c06385d9ba016ce2870a7b27fbba6c5a2c6a34fa888ed4ac0e878560020160009054906101000a90046fffffffffffffffffffffffffffffffff1688426040516119ec9493929190613555565b60405180910390a150505050505050565b6000600660008360ff1660ff1681526020019081526020016000209050600073ffffffffffffffffffffffffffffffffffffffff168160010160009054906101000a900473ffffffffffffffffffffffffffffffffffffffff1673ffffffffffffffffffffffffffffffffffffffff161415611aae576040517f08c379a0000000000000000000000000000000000000000000000000000000008152600401611aa5906135e6565b60405180910390fd5b8060020160149054906101000a900460ff1615611b00576040517f08c379a0000000000000000000000000000000000000000000000000000000008152600401611af790613652565b60405180910390fd5b60008160010160009054906101000a900473ffffffffffffffffffffffffffffffffffffffff169050600060328360020160009054906101000a90046fffffffffffffffffffffffffffffffff16611b5891906131b5565b6fffffffffffffffffffffffffffffffff1690506000818460020160009054906101000a90046fffffffffffffffffffffffffffffffff166fffffffffffffffffffffffffffffffff16611bac91906131e6565b90508273ffffffffffffffffffffffffffffffffffffffff166323b872dd33611bd3610fdc565b846040518463ffffffff1660e01b8152600401611bf29392919061346f565b602060405180830381600087803b158015611c0c57600080fd5b505af1158015611c20573d6000803e3d6000fd5b505050506040513d601f19601f82011682018060405250810190611c4491906134d2565b611c4d57600080fd5b8273ffffffffffffffffffffffffffffffffffffffff166323b872dd33600860009054906101000a900473ffffffffffffffffffffffffffffffffffffffff16856040518463ffffffff1660e01b8152600401611cac9392919061346f565b602060405180830381600087803b158015611cc657600080fd5b505af1158015611cda573d6000803e3d6000fd5b505050506040513d601f19601f82011682018060405250810190611cfe91906134d2565b611d0757600080fd5b600560008660ff1660ff168152602001908152602001600020339080600181540180825580915050600190039060005260206000200160009091909190916101000a81548173ffffffffffffffffffffffffffffffffffffffff021916908373ffffffffffffffffffffffffffffffffffffffff16021790555060405180608001604052804281526020018560020160109054906101000a900463ffffffff1663ffffffff1642611db891906134ff565b81526020016000151581526020016001600560008960ff1660ff16815260200190815260200160002080549050611def91906131e6565b815250600760008760ff1660ff16815260200190815260200160002060003373ffffffffffffffffffffffffffffffffffffffff1673ffffffffffffffffffffffffffffffffffffffff168152602001908152602001600020600082015181600001556020820151816001015560408201518160020160006101000a81548160ff021916908315150217905550606082015181600301559050507fb32d0ee4f7c649974c4703f12139c6581d4dfc9df7fcbe3ebc75de386319075b338642604051611ebc93929190613672565b60405180910390a17fd9c2a3b5876793c06385d9ba016ce2870a7b27fbba6c5a2c6a34fa888ed4ac0e338560020160009054906101000a90046fffffffffffffffffffffffffffffffff168742604051611f199493929190613555565b60405180910390a15050505050565b600033905090565b60008060009054906101000a900473ffffffffffffffffffffffffffffffffffffffff169050816000806101000a81548173ffffffffffffffffffffffffffffffffffffffff021916908373ffffffffffffffffffffffffffffffffffffffff1602179055508173ffffffffffffffffffffffffffffffffffffffff168173ffffffffffffffffffffffffffffffffffffffff167f8be0079c531659141344cd1fd0a4f28419497f9722a3daafe3b4186f6b6457e060405160405180910390a35050565b6000600760008460ff1660ff16815260200190815260200160002060008573ffffffffffffffffffffffffffffffffffffffff1673ffffffffffffffffffffffffffffffffffffffff1681526020019081526020016000209050600081600001541415612096576040517f08c379a000000000000000000000000000000000000000000000000000000000815260040161208d90613166565b60405180910390fd5b6000600560008560ff1660ff1681526020019081526020016000209050600082600301549050600082600184805490506120d091906131e6565b815481106120e1576120e0612cc5565b5b9060005260206000200160009054906101000a900473ffffffffffffffffffffffffffffffffffffffff1690508083838154811061212257612121612cc5565b5b9060005260206000200160006101000a81548173ffffffffffffffffffffffffffffffffffffffff021916908373ffffffffffffffffffffffffffffffffffffffff16021790555081600760008860ff1660ff16815260200190815260200160002060008373ffffffffffffffffffffffffffffffffffffffff1673ffffffffffffffffffffffffffffffffffffffff16815260200190815260200160002060030181905550828054806121d9576121d86136a9565b5b6001900381819060005260206000200160006101000a81549073ffffffffffffffffffffffffffffffffffffffff02191690559055600760008760ff1660ff16815260200190815260200160002060008873ffffffffffffffffffffffffffffffffffffffff1673ffffffffffffffffffffffffffffffffffffffff16815260200190815260200160002060008082016000905560018201600090556002820160006101000a81549060ff0219169055600382016000905550507fa77c3f0be762e28b92e364efe13b244cfdeb18f5576caaf56d7ad7c6c05fa09e878742886040516122c894939291906136d8565b60405180910390a150505050505050565b8280546122e590612bbb565b90600052602060002090601f016020900481019282612307576000855561234e565b82601f1061232057805160ff191683800117855561234e565b8280016001018555821561234e579182015b8281111561234d578251825591602001919060010190612332565b5b50905061235b919061235f565b5090565b5b80821115612378576000816000905550600101612360565b5090565b6000604051905090565b600080fd5b600080fd5b600060ff82169050919050565b6123a681612390565b81146123b157600080fd5b50565b6000813590506123c38161239d565b92915050565b6000602082840312156123df576123de612386565b5b60006123ed848285016123b4565b91505092915050565b600073ffffffffffffffffffffffffffffffffffffffff82169050919050565b6000612421826123f6565b9050919050565b61243181612416565b82525050565b600060208201905061244c6000830184612428565b92915050565b600081519050919050565b600082825260208201905092915050565b60005b8381101561248c578082015181840152602081019050612471565b8381111561249b576000848401525b50505050565b6000601f19601f8301169050919050565b60006124bd82612452565b6124c7818561245d565b93506124d781856020860161246e565b6124e0816124a1565b840191505092915050565b6000602082019050818103600083015261250581846124b2565b905092915050565b600080fd5b7f4e487b7100000000000000000000000000000000000000000000000000000000600052604160045260246000fd5b61254a826124a1565b810181811067ffffffffffffffff8211171561256957612568612512565b5b80604052505050565b600061257c61237c565b90506125888282612541565b919050565b600067ffffffffffffffff8211156125a8576125a7612512565b5b602082029050602081019050919050565b600080fd5b600080fd5b6125cc81612416565b81146125d757600080fd5b50565b6000813590506125e9816125c3565b92915050565b600060408284031215612605576126046125be565b5b61260f6040612572565b9050600061261f848285016125da565b6000830152506020612633848285016123b4565b60208301525092915050565b600061265261264d8461258d565b612572565b90508083825260208201905060408402830185811115612675576126746125b9565b5b835b8181101561269e578061268a88826125ef565b845260208401935050604081019050612677565b5050509392505050565b600082601f8301126126bd576126bc61250d565b5b81356126cd84826020860161263f565b91505092915050565b6000602082840312156126ec576126eb612386565b5b600082013567ffffffffffffffff81111561270a5761270961238b565b5b612716848285016126a8565b91505092915050565b61272881612390565b82525050565b6000602082019050612743600083018461271f565b92915050565b60006fffffffffffffffffffffffffffffffff82169050919050565b61276e81612749565b82525050565b600063ffffffff82169050919050565b61278d81612774565b82525050565b60008115159050919050565b6127a881612793565b82525050565b600060a08201905081810360008301526127c881886124b2565b90506127d76020830187612428565b6127e46040830186612765565b6127f16060830185612784565b6127fe608083018461279f565b9695505050505050565b6000806040838503121561281f5761281e612386565b5b600061282d858286016123b4565b925050602061283e858286016125da565b9150509250929050565b6000819050919050565b61285b81612848565b82525050565b60006080820190506128766000830187612852565b6128836020830186612852565b612890604083018561279f565b61289d6060830184612852565b95945050505050565b600080fd5b600067ffffffffffffffff8211156128c6576128c5612512565b5b6128cf826124a1565b9050602081019050919050565b82818337600083830152505050565b60006128fe6128f9846128ab565b612572565b90508281526020810184848401111561291a576129196128a6565b5b6129258482856128dc565b509392505050565b600082601f8301126129425761294161250d565b5b81356129528482602086016128eb565b91505092915050565b60006020828403121561297157612970612386565b5b600082013567ffffffffffffffff81111561298f5761298e61238b565b5b61299b8482850161292d565b91505092915050565b6129ad81612749565b81146129b857600080fd5b50565b6000813590506129ca816129a4565b92915050565b6129d981612774565b81146129e457600080fd5b50565b6000813590506129f6816129d0565b92915050565b60008060008060808587031215612a1657612a15612386565b5b600085013567ffffffffffffffff811115612a3457612a3361238b565b5b612a408782880161292d565b9450506020612a51878288016125da565b9350506040612a62878288016129bb565b9250506060612a73878288016129e7565b91505092959194509250565b600060208284031215612a9557612a94612386565b5b6000612aa3848285016125da565b91505092915050565b600081519050919050565b600082825260208201905092915050565b6000819050602082019050919050565b612ae181612416565b82525050565b6000612af38383612ad8565b60208301905092915050565b6000602082019050919050565b6000612b1782612aac565b612b218185612ab7565b9350612b2c83612ac8565b8060005b83811015612b5d578151612b448882612ae7565b9750612b4f83612aff565b925050600181019050612b30565b5085935050505092915050565b60006020820190508181036000830152612b848184612b0c565b905092915050565b7f4e487b7100000000000000000000000000000000000000000000000000000000600052602260045260246000fd5b60006002820490506001821680612bd357607f821691505b60208210811415612be757612be6612b8c565b5b50919050565b7f4875683f00000000000000000000000000000000000000000000000000000000600082015250565b6000612c2360048361245d565b9150612c2e82612bed565b602082019050919050565b60006020820190508181036000830152612c5281612c16565b9050919050565b7f5265656e7472616e637947756172643a207265656e7472616e742063616c6c00600082015250565b6000612c8f601f8361245d565b9150612c9a82612c59565b602082019050919050565b60006020820190508181036000830152612cbe81612c82565b9050919050565b7f4e487b7100000000000000000000000000000000000000000000000000000000600052603260045260246000fd5b7f4e487b7100000000000000000000000000000000000000000000000000000000600052601160045260246000fd5b6000612d2e82612848565b91507fffffffffffffffffffffffffffffffffffffffffffffffffffffffffffffffff821415612d6157612d60612cf4565b5b600182019050919050565b7f4f776e61626c653a2063616c6c6572206973206e6f7420746865206f776e6572600082015250565b6000612da260208361245d565b9150612dad82612d6c565b602082019050919050565b60006020820190508181036000830152612dd181612d95565b9050919050565b7f616464726573732063616e6e6f74206265206e756c6c20616464726573730000600082015250565b6000612e0e601e8361245d565b9150612e1982612dd8565b602082019050919050565b60006020820190508181036000830152612e3d81612e01565b9050919050565b7f616d6f756e74206e6565647320746f206265203e203000000000000000000000600082015250565b6000612e7a60168361245d565b9150612e8582612e44565b602082019050919050565b60006020820190508181036000830152612ea981612e6d565b9050919050565b7f6672657175656e6379206e6565647320746f2062652067726561746572206f7260008201527f20657175616c20746f20323420686f7572730000000000000000000000000000602082015250565b6000612f0c60328361245d565b9150612f1782612eb0565b604082019050919050565b60006020820190508181036000830152612f3b81612eff565b9050919050565b60008190508160005260206000209050919050565b60008154612f6481612bbb565b612f6e818661245d565b94506001821660008114612f895760018114612f9b57612fce565b60ff1983168652602086019350612fce565b612fa485612f42565b60005b83811015612fc657815481890152600182019150602081019050612fa7565b808801955050505b50505092915050565b6000819050919050565b6000612ffc612ff7612ff284612774565b612fd7565b612749565b9050919050565b61300c81612fe1565b82525050565b6000608082019050818103600083015261302c8187612f57565b905061303b6020830186612428565b6130486040830185612765565b6130556060830184613003565b95945050505050565b600061306982612390565b915060ff82141561307d5761307c612cf4565b5b600182019050919050565b7f4f776e61626c653a206e6577206f776e657220697320746865207a65726f206160008201527f6464726573730000000000000000000000000000000000000000000000000000602082015250565b60006130e460268361245d565b91506130ef82613088565b604082019050919050565b60006020820190508181036000830152613113816130d7565b9050919050565b7f7468697320737562736372697074696f6e20646f6573206e6f74206578697374600082015250565b600061315060208361245d565b915061315b8261311a565b602082019050919050565b6000602082019050818103600083015261317f81613143565b9050919050565b7f4e487b7100000000000000000000000000000000000000000000000000000000600052601260045260246000fd5b60006131c082612749565b91506131cb83612749565b9250826131db576131da613186565b5b828204905092915050565b60006131f182612848565b91506131fc83612848565b92508282101561320f5761320e612cf4565b5b828203905092915050565b7f6e6f742064756520796574000000000000000000000000000000000000000000600082015250565b6000613250600b8361245d565b915061325b8261321a565b602082019050919050565b6000602082019050818103600083015261327f81613243565b9050919050565b7f506c616e2069732068616c746564000000000000000000000000000000000000600082015250565b60006132bc600e8361245d565b91506132c782613286565b602082019050919050565b600060208201905081810360008301526132eb816132af565b9050919050565b7f53756273637269626572206f7074656420746f2073746f70207061796d656e7460008201527f733b2064656c65746520737562736372697074696f6e00000000000000000000602082015250565b600061334e60368361245d565b9150613359826132f2565b604082019050919050565b6000602082019050818103600083015261337d81613341565b9050919050565b61338d81612848565b811461339857600080fd5b50565b6000815190506133aa81613384565b92915050565b6000602082840312156133c6576133c5612386565b5b60006133d48482850161339b565b91505092915050565b7f537562736372696265722068617320696e737566666963656e742066756e647360008201527f3b2064656c65746520737562736372697074696f6e0000000000000000000000602082015250565b600061343960358361245d565b9150613444826133dd565b604082019050919050565b600060208201905081810360008301526134688161342c565b9050919050565b60006060820190506134846000830186612428565b6134916020830185612428565b61349e6040830184612852565b949350505050565b6134af81612793565b81146134ba57600080fd5b50565b6000815190506134cc816134a6565b92915050565b6000602082840312156134e8576134e7612386565b5b60006134f6848285016134bd565b91505092915050565b600061350a82612848565b915061351583612848565b9250827fffffffffffffffffffffffffffffffffffffffffffffffffffffffffffffffff0382111561354a57613549612cf4565b5b828201905092915050565b600060808201905061356a6000830187612428565b6135776020830186612765565b613584604083018561271f565b6135916060830184612852565b95945050505050565b7f7468697320706c616e20646f6573206e6f742065786973740000000000000000600082015250565b60006135d060188361245d565b91506135db8261359a565b602082019050919050565b600060208201905081810360008301526135ff816135c3565b9050919050565b7f706c616e2069732068616c746564000000000000000000000000000000000000600082015250565b600061363c600e8361245d565b915061364782613606565b602082019050919050565b6000602082019050818103600083015261366b8161362f565b9050919050565b60006060820190506136876000830186612428565b613694602083018561271f565b6136a16040830184612852565b949350505050565b7f4e487b7100000000000000000000000000000000000000000000000000000000600052603160045260246000fd5b60006080820190506136ed6000830187612428565b6136fa602083018661271f565b6137076040830185612852565b818103606083015261371981846124b2565b90509594505050505056fe596f752063616e6e6f742073746f7020737562736372697074696f6e2061667465722066756e647320617265206f7765642c20737562736372697074696f6e2064656c657465644f776e65722f4f70657261746f722044656c6574656420537562736372697074696f6ea2646970667358221220dfc1d6843fadbd515a78b1fe71c5badc1abdd2d12c858dda3340edb6f5b7f70d64736f6c63430008080033",
  "immutableReferences": {},
  "source": "// SPDX-License-Identifier: Business Source License 1.1\npragma solidity ^0.8.8;\n\nimport \"@openzeppelin/contracts/token/ERC20/IERC20.sol\";\nimport \"@openzeppelin/contracts/access/Ownable.sol\";\nimport \"@openzeppelin/contracts/security/ReentrancyGuard.sol\";\n\ncontract SubscribeeV1 is Ownable, ReentrancyGuard{\n\n  uint8 public nextPlanId;\n  string public title;\n  string public image;\n\n  mapping(uint8 => address[]) private subscriberLists;\n  mapping(uint8 => Plan) public plans;\n  mapping(uint8 => mapping(address => Subscription)) public subscriptions;\n\n  address public beehive;\n  address public operator;\n\n  // Structs\n\n  struct Plan {\n    string title;\n    address token;\n    uint128 amount;\n    uint32 frequency;\n    bool halted;\n  }\n\n  struct Subscription {\n    uint256 start;\n    uint256 nextPayment;\n    bool stopped;\n    uint256 userId;\n  }\n\n  struct UserObject {\n    address subscriber;\n    uint8 planId;\n  }\n\n\n  // Events\n\n\n  event PlanCreated(\n    string title,\n    address token,\n    uint128 amount,\n    uint128 frequency\n  );\n\n  event SubscriptionCreated(\n    address subscriber,\n    uint8 planId,\n    uint256 date\n  );\n\n  event SubscriptionDeleted(\n    address subscriber,\n    uint8 planId,\n    uint256 date,\n    string reason\n  );\n\n  event PaymentSent(\n    address from,\n    uint128 amount,\n    uint8 planId,\n    uint256 date\n  );\n\n  // Modifiers\n\n  modifier onlyOperatorOrOwner() {\n    require(msg.sender == operator || msg.sender == owner(), 'Huh?');\n    _;\n  }\n\n  // Constructor\n\n  constructor(address beehiveAddress, address operatorAddress, string memory newTitle, string memory newImage) {\n    beehive = beehiveAddress;\n    operator = operatorAddress;\n    title = newTitle;\n    image = newImage;\n  }\n\n\n  // External Functions\n\n  function subscribe(uint8 planId) external {\n    _safeSubscribe(planId);\n  }\n\n  function stopPay(uint8 planId) external {\n    _stop(planId);\n  }\n\n  function selfDelete(uint8 planId) external {\n    _delete(msg.sender, planId, 'User Deleting Subscription');\n  }\n\n  function selfPay(uint8 planId) external {\n    _safePay(msg.sender, planId);\n  }\n\n  function setOperator(address newOperator) external onlyOwner{\n    operator = newOperator;\n  }\n\n  function setTitle(string memory newTitle) external onlyOwner{\n    title = newTitle;\n  }\n\n  function setImage(string memory newImage) external onlyOwner{\n    image = newImage;\n  }\n\n  function togglePlanHalt(uint8 planId) external onlyOwner{\n    if(plans[planId].halted){\n      plans[planId].halted = false;\n    }else{\n      plans[planId].halted = true;\n    }\n  }\n\n  function createPlan(string memory planTitle, address token, uint128 amount, uint32 frequency) external onlyOwner{\n    require(token != address(0), 'address cannot be null address');\n    require(amount > 0, 'amount needs to be > 0');\n    require(frequency >= 86400, 'frequency needs to be greater or equal to 24 hours');\n\n    plans[nextPlanId] = Plan(\n      planTitle,\n      token,\n      amount,\n      frequency,\n      false\n    );\n\n    emit PlanCreated(title, token, amount, frequency);\n    nextPlanId++;\n  }\n\n  function getSubscriberArray(uint8 planId) external view onlyOperatorOrOwner returns(address[] memory){\n    return subscriberLists[planId];\n  }\n\n  function multiPay(UserObject[] memory users) external onlyOperatorOrOwner nonReentrant{\n    for(uint i = 0; i < users.length; i++){\n      address subscriber = users[i].subscriber;\n      uint8 planId = users[i].planId;\n      _safePay(subscriber, planId);\n    }\n  }\n\n  function multiDelete(UserObject[] memory users) external onlyOperatorOrOwner{\n    for(uint i = 0; i < users.length; i++){\n      address subscriber = users[i].subscriber;\n      uint8 planId = users[i].planId;\n      _delete(subscriber, planId, 'Owner/Operator Deleted Subscription');\n    }\n  }\n\n  // Private Functions\n\n  function _safePay(address subscriber, uint8 planId) private {\n    // call from storage\n    Subscription storage subscription = subscriptions[planId][subscriber];\n    Plan storage plan = plans[planId];\n    IERC20 token = IERC20(plan.token);\n    uint256 nectar = plan.amount / 50;\n    uint256 pollen = plan.amount - nectar;\n\n    // conditionals\n    require(\n       subscription.start != 0,\n      'this subscription does not exist'\n    );\n\n    require(\n      block.timestamp > subscription.nextPayment,\n      'not due yet'\n    );\n\n    require(\n      !plan.halted,\n      'Plan is halted'\n    );\n\n    require(\n      !subscription.stopped,\n      'Subscriber opted to stop payments; delete subscription'\n    );\n\n    require(\n      token.balanceOf(subscriber) >= plan.amount,\n      'Subscriber has insufficent funds; delete subscription'\n    );\n\n    // send to Contract Owner & BeeHive\n    require(token.transferFrom(subscriber, owner(), pollen));\n    require(token.transferFrom(subscriber, beehive, nectar));\n\n    // set next payment\n    subscription.nextPayment = subscription.nextPayment + plan.frequency;\n\n    // emit event\n      emit PaymentSent(\n        subscriber,\n        plan.amount,\n        planId,\n        block.timestamp\n      );\n    }\n\n  function _safeSubscribe(uint8 planId) private {\n    // calls plan from storage and check if it exists\n    Plan storage plan = plans[planId];\n    require(plan.token != address(0), 'this plan does not exist');\n    require(!plan.halted, 'plan is halted');\n\n    // set token and fee\n    IERC20 token = IERC20(plan.token);\n    uint nectar = plan.amount / 50;\n    uint pollen = plan.amount - nectar;\n\n    // send to Contract Owner & BeeHive\n    require(token.transferFrom(msg.sender, owner(), pollen));\n    require(token.transferFrom(msg.sender, beehive, nectar));\n\n    subscriberLists[planId].push(msg.sender);\n\n    // add new subscription\n    subscriptions[planId][msg.sender] = Subscription(\n      block.timestamp,\n      block.timestamp + plan.frequency,\n      false,\n      subscriberLists[planId].length - 1\n    );\n\n    // emit Subscription and Payment events\n    emit SubscriptionCreated(\n      msg.sender,\n      planId,\n      block.timestamp\n    );\n\n    emit PaymentSent(\n      msg.sender,\n      plan.amount,\n      planId,\n      block.timestamp\n    );\n\n  }\n\n  function _delete(address user, uint8 planId, string memory reason) private {\n    // Grab user subscription data & check if it exists\n    Subscription storage subscription = subscriptions[planId][user];\n    require(subscription.start != 0, 'this subscription does not exist');\n\n    // delete from array\n    address[] storage subscriberArray = subscriberLists[planId];\n    uint256 userID = subscription.userId;\n    address addressToChange = subscriberArray[subscriberArray.length - 1];\n    subscriberArray[userID] = addressToChange;\n    subscriptions[planId][addressToChange].userId = userID;\n    subscriberArray.pop();\n\n    // delete from mapping\n    delete subscriptions[planId][user];\n\n    emit SubscriptionDeleted(user, planId, block.timestamp, reason);\n  }\n\n  function _stop(uint8 planId) private {\n    // Grab user subscription data & check if it exists\n    Subscription storage subscription = subscriptions[planId][msg.sender];\n    require(subscription.start != 0, 'this subscription does not exist');\n\n    // Check if user owes funds and is trying to stop, will delete\n    if(subscription.nextPayment < block.timestamp){\n      _delete(msg.sender, planId, 'You cannot stop subscription after funds are owed, subscription deleted');\n      return;\n    }\n\n    // If user does not have to pay yet, stop subscription\n    subscription.stopped = true;\n  }\n}\n",
  "sourcePath": "/home/lavandor9/contracts/subscribee-official/contracts/SubscribeeV1.sol",
  "compiler": {
    "name": "solc",
    "version": "0.8.8+commit.dddeac2f.Emscripten.clang"
  },
  "schemaVersion": "3.4.1",
  "updatedAt": "2022-05-31T05:16:45.182Z",
  "devdoc": {
    "kind": "dev",
    "methods": {
      "owner()": {
        "details": "Returns the address of the current owner."
      },
      "renounceOwnership()": {
        "details": "Leaves the contract without owner. It will not be possible to call `onlyOwner` functions anymore. Can only be called by the current owner. NOTE: Renouncing ownership will leave the contract without an owner, thereby removing any functionality that is only available to the owner."
      },
      "transferOwnership(address)": {
        "details": "Transfers ownership of the contract to a new account (`newOwner`). Can only be called by the current owner."
      }
    },
    "version": 1
  },
  "userdoc": {
    "kind": "user",
    "methods": {},
    "version": 1
  }
}